{
  "address": "0x9fE46736679d2D9a65F0992F2272dE9f3c7fa6e0",
  "abi": [
    {
      "inputs": [
        {
          "internalType": "address payable",
          "name": "_tellorAddress",
          "type": "address"
        },
        {
          "internalType": "address",
          "name": "_collateralToken",
          "type": "address"
        },
        {
          "internalType": "uint256",
          "name": "_collateralID",
          "type": "uint256"
        },
        {
          "internalType": "uint256",
          "name": "_collateralPriceGranularity",
          "type": "uint256"
        },
        {
          "internalType": "string",
          "name": "_tokenName",
          "type": "string"
        },
        {
          "internalType": "string",
          "name": "_tokenSymbol",
          "type": "string"
        },
        {
          "internalType": "uint256",
          "name": "_inflRatePerYear",
          "type": "uint256"
        },
        {
          "internalType": "address",
          "name": "_inflBeneficiary",
          "type": "address"
        }
      ],
      "stateMutability": "nonpayable",
      "type": "constructor"
    },
    {
      "anonymous": false,
      "inputs": [
        {
          "indexed": true,
          "internalType": "address",
          "name": "owner",
          "type": "address"
        },
        {
          "indexed": true,
          "internalType": "address",
          "name": "spender",
          "type": "address"
        },
        {
          "indexed": false,
          "internalType": "uint256",
          "name": "value",
          "type": "uint256"
        }
      ],
      "name": "Approval",
      "type": "event"
    },
    {
      "anonymous": false,
      "inputs": [
        {
          "indexed": false,
          "internalType": "uint256",
          "name": "",
          "type": "uint256"
        }
      ],
      "name": "CollateralPriceAge",
      "type": "event"
    },
    {
      "anonymous": false,
      "inputs": [
        {
          "indexed": false,
          "internalType": "uint256",
          "name": "",
          "type": "uint256"
        }
      ],
      "name": "CollateralThreshold",
      "type": "event"
    },
    {
      "anonymous": false,
      "inputs": [
        {
          "indexed": false,
          "internalType": "address",
          "name": "",
          "type": "address"
        },
        {
          "indexed": false,
          "internalType": "uint256",
          "name": "tokensAmnt",
          "type": "uint256"
        },
        {
          "indexed": false,
          "internalType": "uint256",
          "name": "collateralAmnt",
          "type": "uint256"
        },
        {
          "indexed": false,
          "internalType": "uint256",
          "name": "collateralPenalty",
          "type": "uint256"
        }
      ],
      "name": "Liquidate",
      "type": "event"
    },
    {
      "anonymous": false,
      "inputs": [
        {
          "indexed": false,
          "internalType": "uint256",
          "name": "",
          "type": "uint256"
        }
      ],
      "name": "LiquidationPenatly",
      "type": "event"
    },
    {
      "anonymous": false,
      "inputs": [
        {
          "indexed": false,
          "internalType": "address",
          "name": "",
          "type": "address"
        },
        {
          "indexed": false,
          "internalType": "uint256",
          "name": "amount",
          "type": "uint256"
        },
        {
          "indexed": false,
          "internalType": "address",
          "name": "to",
          "type": "address"
        },
        {
          "indexed": false,
          "internalType": "uint256",
          "name": "collateralRatio",
          "type": "uint256"
        }
      ],
      "name": "MintTokens",
      "type": "event"
    },
    {
      "anonymous": false,
      "inputs": [
        {
          "indexed": true,
          "internalType": "address",
          "name": "from",
          "type": "address"
        },
        {
          "indexed": true,
          "internalType": "address",
          "name": "to",
          "type": "address"
        },
        {
          "indexed": false,
          "internalType": "uint256",
          "name": "value",
          "type": "uint256"
        }
      ],
      "name": "Transfer",
      "type": "event"
    },
    {
      "anonymous": false,
      "inputs": [
        {
          "indexed": false,
          "internalType": "address",
          "name": "",
          "type": "address"
        },
        {
          "indexed": false,
          "internalType": "uint256",
          "name": "collateralAmnt",
          "type": "uint256"
        },
        {
          "indexed": false,
          "internalType": "uint256",
          "name": "collateralRatio",
          "type": "uint256"
        }
      ],
      "name": "WithdrawCollateral",
      "type": "event"
    },
    {
      "anonymous": false,
      "inputs": [
        {
          "indexed": false,
          "internalType": "address",
          "name": "",
          "type": "address"
        },
        {
          "indexed": false,
          "internalType": "uint256",
          "name": "tokenAmnt",
          "type": "uint256"
        },
        {
          "indexed": false,
          "internalType": "uint256",
          "name": "collateralAmnt",
          "type": "uint256"
        }
      ],
      "name": "WithdrawToken",
      "type": "event"
    },
    {
      "inputs": [],
      "name": "RAY",
      "outputs": [
        {
          "internalType": "uint256",
          "name": "",
          "type": "uint256"
        }
      ],
      "stateMutability": "view",
      "type": "function"
    },
    {
      "inputs": [],
      "name": "WAD",
      "outputs": [
        {
          "internalType": "uint256",
          "name": "",
          "type": "uint256"
        }
      ],
      "stateMutability": "view",
      "type": "function"
    },
    {
      "inputs": [],
      "name": "admin",
      "outputs": [
        {
          "internalType": "address",
          "name": "",
          "type": "address"
        }
      ],
      "stateMutability": "view",
      "type": "function"
    },
    {
      "inputs": [
        {
          "internalType": "address",
          "name": "owner",
          "type": "address"
        },
        {
          "internalType": "address",
          "name": "spender",
          "type": "address"
        }
      ],
      "name": "allowance",
      "outputs": [
        {
          "internalType": "uint256",
          "name": "",
          "type": "uint256"
        }
      ],
      "stateMutability": "view",
      "type": "function"
    },
    {
      "inputs": [
        {
          "internalType": "address",
          "name": "spender",
          "type": "address"
        },
        {
          "internalType": "uint256",
          "name": "amount",
          "type": "uint256"
        }
      ],
      "name": "approve",
      "outputs": [
        {
          "internalType": "bool",
          "name": "",
          "type": "bool"
        }
      ],
      "stateMutability": "nonpayable",
      "type": "function"
    },
    {
      "inputs": [
        {
          "internalType": "address",
          "name": "account",
          "type": "address"
        }
      ],
      "name": "balanceOf",
      "outputs": [
        {
          "internalType": "uint256",
          "name": "",
          "type": "uint256"
        }
      ],
      "stateMutability": "view",
      "type": "function"
    },
    {
      "inputs": [],
      "name": "collateralBalance",
      "outputs": [
        {
          "internalType": "uint256",
          "name": "",
          "type": "uint256"
        }
      ],
      "stateMutability": "view",
      "type": "function"
    },
    {
      "inputs": [],
      "name": "collateralID",
      "outputs": [
        {
          "internalType": "uint256",
          "name": "",
          "type": "uint256"
        }
      ],
      "stateMutability": "view",
      "type": "function"
    },
    {
      "inputs": [],
      "name": "collateralPrice",
      "outputs": [
        {
          "internalType": "uint256",
          "name": "",
          "type": "uint256"
        }
      ],
      "stateMutability": "view",
      "type": "function"
    },
    {
      "inputs": [],
      "name": "collateralPriceAge",
      "outputs": [
        {
          "internalType": "uint256",
          "name": "",
          "type": "uint256"
        }
      ],
      "stateMutability": "view",
      "type": "function"
    },
    {
      "inputs": [],
      "name": "collateralPriceGranularity",
      "outputs": [
        {
          "internalType": "uint256",
          "name": "",
          "type": "uint256"
        }
      ],
      "stateMutability": "view",
      "type": "function"
    },
    {
      "inputs": [],
      "name": "collateralRatio",
      "outputs": [
        {
          "internalType": "uint256",
          "name": "",
          "type": "uint256"
        }
      ],
      "stateMutability": "view",
      "type": "function"
    },
    {
      "inputs": [],
      "name": "collateralThreshold",
      "outputs": [
        {
          "internalType": "uint256",
          "name": "",
          "type": "uint256"
        }
      ],
      "stateMutability": "view",
      "type": "function"
    },
    {
      "inputs": [],
      "name": "collateralToken",
      "outputs": [
        {
          "internalType": "contract ERC20",
          "name": "",
          "type": "address"
        }
      ],
      "stateMutability": "view",
      "type": "function"
    },
    {
      "inputs": [],
      "name": "decimals",
      "outputs": [
        {
          "internalType": "uint8",
          "name": "",
          "type": "uint8"
        }
      ],
      "stateMutability": "view",
      "type": "function"
    },
    {
      "inputs": [
        {
          "internalType": "address",
          "name": "spender",
          "type": "address"
        },
        {
          "internalType": "uint256",
          "name": "subtractedValue",
          "type": "uint256"
        }
      ],
      "name": "decreaseAllowance",
      "outputs": [
        {
          "internalType": "bool",
          "name": "",
          "type": "bool"
        }
      ],
      "stateMutability": "nonpayable",
      "type": "function"
    },
    {
      "inputs": [
        {
          "internalType": "uint256",
          "name": "wad",
          "type": "uint256"
        }
      ],
      "name": "depositCollateral",
      "outputs": [],
      "stateMutability": "nonpayable",
      "type": "function"
    },
    {
      "inputs": [
        {
          "internalType": "address",
          "name": "spender",
          "type": "address"
        },
        {
          "internalType": "uint256",
          "name": "addedValue",
          "type": "uint256"
        }
      ],
      "name": "increaseAllowance",
      "outputs": [
        {
          "internalType": "bool",
          "name": "",
          "type": "bool"
        }
      ],
      "stateMutability": "nonpayable",
      "type": "function"
    },
    {
      "inputs": [],
      "name": "inflBeneficiary",
      "outputs": [
        {
          "internalType": "address",
          "name": "",
          "type": "address"
        }
      ],
      "stateMutability": "view",
      "type": "function"
    },
    {
      "inputs": [],
      "name": "inflLastUpdate",
      "outputs": [
        {
          "internalType": "uint256",
          "name": "",
          "type": "uint256"
        }
      ],
      "stateMutability": "view",
      "type": "function"
    },
    {
      "inputs": [],
      "name": "inflRatePerSec",
      "outputs": [
        {
          "internalType": "uint256",
          "name": "",
          "type": "uint256"
        }
      ],
      "stateMutability": "view",
      "type": "function"
    },
    {
      "inputs": [],
      "name": "liquidate",
      "outputs": [],
      "stateMutability": "nonpayable",
      "type": "function"
    },
    {
      "inputs": [],
      "name": "liquidationPenatly",
      "outputs": [
        {
          "internalType": "uint256",
          "name": "",
          "type": "uint256"
        }
      ],
      "stateMutability": "view",
      "type": "function"
    },
    {
      "inputs": [
        {
          "internalType": "uint256",
          "name": "amount",
          "type": "uint256"
        },
        {
          "internalType": "address",
          "name": "to",
          "type": "address"
        }
      ],
      "name": "mintToken",
      "outputs": [],
      "stateMutability": "nonpayable",
      "type": "function"
    },
    {
      "inputs": [],
      "name": "name",
      "outputs": [
        {
          "internalType": "string",
          "name": "",
          "type": "string"
        }
      ],
      "stateMutability": "view",
      "type": "function"
    },
    {
      "inputs": [
        {
          "internalType": "uint256",
          "name": "wad",
          "type": "uint256"
        }
      ],
      "name": "setCollateralPriceAge",
      "outputs": [],
      "stateMutability": "nonpayable",
      "type": "function"
    },
    {
      "inputs": [
        {
          "internalType": "uint256",
          "name": "wad",
          "type": "uint256"
        }
      ],
      "name": "setCollateralThreshold",
      "outputs": [],
      "stateMutability": "nonpayable",
      "type": "function"
    },
    {
      "inputs": [
        {
          "internalType": "uint256",
          "name": "wad",
          "type": "uint256"
        }
      ],
      "name": "setLiquidationPenatly",
      "outputs": [],
      "stateMutability": "nonpayable",
      "type": "function"
    },
    {
      "inputs": [],
      "name": "symbol",
      "outputs": [
        {
          "internalType": "string",
          "name": "",
          "type": "string"
        }
      ],
      "stateMutability": "view",
      "type": "function"
    },
    {
      "inputs": [],
      "name": "tokenPrice",
      "outputs": [
        {
          "internalType": "uint256",
          "name": "",
          "type": "uint256"
        }
      ],
      "stateMutability": "view",
      "type": "function"
    },
    {
      "inputs": [],
      "name": "totalSupply",
      "outputs": [
        {
          "internalType": "uint256",
          "name": "",
          "type": "uint256"
        }
      ],
      "stateMutability": "view",
      "type": "function"
    },
    {
      "inputs": [
        {
          "internalType": "address",
          "name": "recipient",
          "type": "address"
        },
        {
          "internalType": "uint256",
          "name": "amount",
          "type": "uint256"
        }
      ],
      "name": "transfer",
      "outputs": [
        {
          "internalType": "bool",
          "name": "",
          "type": "bool"
        }
      ],
      "stateMutability": "nonpayable",
      "type": "function"
    },
    {
      "inputs": [
        {
          "internalType": "address",
          "name": "sender",
          "type": "address"
        },
        {
          "internalType": "address",
          "name": "recipient",
          "type": "address"
        },
        {
          "internalType": "uint256",
          "name": "amount",
          "type": "uint256"
        }
      ],
      "name": "transferFrom",
      "outputs": [
        {
          "internalType": "bool",
          "name": "",
          "type": "bool"
        }
      ],
      "stateMutability": "nonpayable",
      "type": "function"
    },
    {
      "inputs": [],
      "name": "updateInflation",
      "outputs": [],
      "stateMutability": "nonpayable",
      "type": "function"
    },
    {
      "inputs": [
        {
          "internalType": "uint256",
          "name": "wad",
          "type": "uint256"
        }
      ],
      "name": "withdrawCollateral",
      "outputs": [],
      "stateMutability": "nonpayable",
      "type": "function"
    },
    {
      "inputs": [
        {
          "internalType": "uint256",
          "name": "amount",
          "type": "uint256"
        }
      ],
      "name": "withdrawToken",
      "outputs": [],
      "stateMutability": "nonpayable",
      "type": "function"
    }
  ],
  "transactionHash": "0x9b0a143414b6644305ff74c248288d059fc9aaf930bd208f1b6c8b3266131477",
  "args": [
    "0x5FbDB2315678afecb367f032d93F642f64180aa3",
    "0xe7f1725E7734CE288F8367e1Bb143E90bb3F0512",
    1,
    1000000,
    "Note",
    "NTO",
    "105170917901244400",
    "0x9965507D1a55bcC2695C58ba16FB37d819B0A4dc"
  ],
  "solcInputHash": "132f2dd57a5a1ba44dc697803a0317bb",
  "bytecode": "0x608060405233600660016101000a81548173ffffffffffffffffffffffffffffffffffffffff021916908373ffffffffffffffffffffffffffffffffffffffff160217905550670de0b6b3a76400006007556714d1120d7b160000600b55610e10600c556000600d5542600f553480156200007957600080fd5b50604051620046e4380380620046e48339818101604052610100811015620000a057600080fd5b810190808051906020019092919080519060200190929190805190602001909291908051906020019092919080516040519392919084640100000000821115620000e957600080fd5b838201915060208201858111156200010057600080fd5b82518660018202830111640100000000821117156200011e57600080fd5b8083526020830192505050908051906020019080838360005b838110156200015457808201518184015260208101905062000137565b50505050905090810190601f168015620001825780820380516001836020036101000a031916815260200191505b5060405260200180516040519392919084640100000000821115620001a657600080fd5b83820191506020820185811115620001bd57600080fd5b8251866001820283011164010000000082111715620001db57600080fd5b8083526020830192505050908051906020019080838360005b8381101562000211578082015181840152602081019050620001f4565b50505050905090810190601f1680156200023f5780820380516001836020036101000a031916815260200191505b506040526020018051906020019092919080519060200190929190505050838389806000806101000a81548173ffffffffffffffffffffffffffffffffffffffff021916908373ffffffffffffffffffffffffffffffffffffffff160217905550508160049080519060200190620002b99291906200077e565b508060059080519060200190620002d29291906200077e565b506012600660006101000a81548160ff021916908360ff1602179055505050816000811180156200030b575068056bc75e2d6310000081105b6200037e576040517f08c379a000000000000000000000000000000000000000000000000000000000815260040180806020018281038252601f8152602001807f76616c7565206e6f742077697468696e20616c6c6f776564206c696d6974730081525060200191505060405180910390fd5b85600081118015620003985750670de0b6b3a76400008111155b6200040b576040517f08c379a000000000000000000000000000000000000000000000000000000000815260040180806020018281038252601f8152602001807f76616c7565206e6f742077697468696e20616c6c6f776564206c696d6974730081525060200191505060405180910390fd5b8760088190555088600a60006101000a81548173ffffffffffffffffffffffffffffffffffffffff021916908373ffffffffffffffffffffffffffffffffffffffff16021790555086600981905550600073ffffffffffffffffffffffffffffffffffffffff168373ffffffffffffffffffffffffffffffffffffffff161415620004fe576040517f08c379a000000000000000000000000000000000000000000000000000000000815260040180806020018281038252601b8152602001807f62656e69666963696172792061646472657373206e6f7420736574000000000081525060200191505060405180910390fd5b82601060006101000a81548173ffffffffffffffffffffffffffffffffffffffff021916908373ffffffffffffffffffffffffffffffffffffffff16021790555062000550846200056660201b60201c565b600e819055505050505050505050505062000824565b6000620005c762000585670de0b6b3a7640000620005ce60201b60201c565b620005bb6200059a85620005ce60201b60201c565b620005af6301e13380620005ed60201b60201c565b6200061460201b60201c565b6200066260201b60201c565b9050919050565b6000620005e682633b9aca00620006e660201b60201c565b9050919050565b60006200060d826b033b2e3c9fd0803ce8000000620006e660201b60201c565b9050919050565b6000816200065162000639856b033b2e3c9fd0803ce8000000620006e660201b60201c565b600285816200064457fe5b046200066260201b60201c565b816200065957fe5b04905092915050565b6000828284019150811015620006e0576040517f08c379a00000000000000000000000000000000000000000000000000000000081526004018080602001828103825260148152602001807f64732d6d6174682d6164642d6f766572666c6f7700000000000000000000000081525060200191505060405180910390fd5b92915050565b6000808214806200070557508282838502925082816200070257fe5b04145b62000778576040517f08c379a00000000000000000000000000000000000000000000000000000000081526004018080602001828103825260148152602001807f64732d6d6174682d6d756c2d6f766572666c6f7700000000000000000000000081525060200191505060405180910390fd5b92915050565b828054600181600116156101000203166002900490600052602060002090601f016020900481019282601f10620007c157805160ff1916838001178555620007f2565b82800160010185558215620007f2579182015b82811115620007f1578251825591602001919060010190620007d4565b5b50905062000801919062000805565b5090565b5b808211156200082057600081600090555060010162000806565b5090565b613eb080620008346000396000f3fe608060405234801561001057600080fd5b506004361061021c5760003560e01c80636a14602411610125578063b2016bd4116100ad578063bad4a01f1161007c578063bad4a01f146108bc578063c98c05b7146108ea578063dd62ed3e14610908578063f06b465814610980578063f851a440146109ae5761021c565b8063b2016bd41461081e578063b4eae1cb14610852578063b8eb5e4b14610870578063b93e0cb51461088e5761021c565b80639014de63116100f45780639014de631461066757806395d89b4114610685578063a140ae2314610708578063a457c2d714610756578063a9059cbb146107ba5761021c565b80636a146024146105b557806370a08231146105d35780637ff9b5961461062b5780638e8cfbde146106495761021c565b8063401ce372116101a85780635891de72116101775780635891de721461052357806359825a4c146105415780636112fe2e1461054b57806364494074146105795780636479a566146105975761021c565b8063401ce3721461048b57806348500ccf146104b957806350baa622146104d7578063552033c4146105055761021c565b806323b872dd116101ef57806323b872dd1461035a57806328a07025146103de57806329a150ba146103e8578063313ce5671461040657806339509351146104275761021c565b806306fdde0314610221578063095ea7b3146102a45780631527262b1461030857806318160ddd1461033c575b600080fd5b6102296109e2565b6040518080602001828103825283818151815260200191508051906020019080838360005b8381101561026957808201518184015260208101905061024e565b50505050905090810190601f1680156102965780820380516001836020036101000a031916815260200191505b509250505060405180910390f35b6102f0600480360360408110156102ba57600080fd5b81019080803573ffffffffffffffffffffffffffffffffffffffff16906020019092919080359060200190929190505050610a84565b60405180821515815260200191505060405180910390f35b610310610a9b565b604051808273ffffffffffffffffffffffffffffffffffffffff16815260200191505060405180910390f35b610344610ac1565b6040518082815260200191505060405180910390f35b6103c66004803603606081101561037057600080fd5b81019080803573ffffffffffffffffffffffffffffffffffffffff169060200190929190803573ffffffffffffffffffffffffffffffffffffffff16906020019092919080359060200190929190505050610acb565b60405180821515815260200191505060405180910390f35b6103e6610b96565b005b6103f0611047565b6040518082815260200191505060405180910390f35b61040e61104d565b604051808260ff16815260200191505060405180910390f35b6104736004803603604081101561043d57600080fd5b81019080803573ffffffffffffffffffffffffffffffffffffffff16906020019092919080359060200190929190505050611064565b60405180821515815260200191505060405180910390f35b6104b7600480360360208110156104a157600080fd5b8101908080359060200190929190505050611109565b005b6104c1611299565b6040518082815260200191505060405180910390f35b610503600480360360208110156104ed57600080fd5b810190808035906020019092919050505061129f565b005b61050d61156f565b6040518082815260200191505060405180910390f35b61052b61157f565b6040518082815260200191505060405180910390f35b610549611630565b005b6105776004803603602081101561056157600080fd5b8101908080359060200190929190505050611723565b005b610581611ac2565b6040518082815260200191505060405180910390f35b61059f611ac8565b6040518082815260200191505060405180910390f35b6105bd611ace565b6040518082815260200191505060405180910390f35b610615600480360360208110156105e957600080fd5b81019080803573ffffffffffffffffffffffffffffffffffffffff169060200190929190505050611ada565b6040518082815260200191505060405180910390f35b610633611b23565b6040518082815260200191505060405180910390f35b610651611b3d565b6040518082815260200191505060405180910390f35b61066f611b43565b6040518082815260200191505060405180910390f35b61068d611b49565b6040518080602001828103825283818151815260200191508051906020019080838360005b838110156106cd5780820151818401526020810190506106b2565b50505050905090810190601f1680156106fa5780820380516001836020036101000a031916815260200191505b509250505060405180910390f35b6107546004803603604081101561071e57600080fd5b8101908080359060200190929190803573ffffffffffffffffffffffffffffffffffffffff169060200190929190505050611beb565b005b6107a26004803603604081101561076c57600080fd5b81019080803573ffffffffffffffffffffffffffffffffffffffff16906020019092919080359060200190929190505050611d9e565b60405180821515815260200191505060405180910390f35b610806600480360360408110156107d057600080fd5b81019080803573ffffffffffffffffffffffffffffffffffffffff16906020019092919080359060200190929190505050611e5d565b60405180821515815260200191505060405180910390f35b610826611e74565b604051808273ffffffffffffffffffffffffffffffffffffffff16815260200191505060405180910390f35b61085a611e9a565b6040518082815260200191505060405180910390f35b610878611f75565b6040518082815260200191505060405180910390f35b6108ba600480360360208110156108a457600080fd5b8101908080359060200190929190505050611f7b565b005b6108e8600480360360208110156108d257600080fd5b810190808035906020019092919050505061207f565b005b6108f26122fc565b6040518082815260200191505060405180910390f35b61096a6004803603604081101561091e57600080fd5b81019080803573ffffffffffffffffffffffffffffffffffffffff169060200190929190803573ffffffffffffffffffffffffffffffffffffffff1690602001909291905050506123c7565b6040518082815260200191505060405180910390f35b6109ac6004803603602081101561099657600080fd5b810190808035906020019092919050505061244e565b005b6109b66125f2565b604051808273ffffffffffffffffffffffffffffffffffffffff16815260200191505060405180910390f35b606060048054600181600116156101000203166002900480601f016020809104026020016040519081016040528092919081815260200182805460018160011615610100020316600290048015610a7a5780601f10610a4f57610100808354040283529160200191610a7a565b820191906000526020600020905b815481529060010190602001808311610a5d57829003601f168201915b5050505050905090565b6000610a91338484612618565b6001905092915050565b601060009054906101000a900473ffffffffffffffffffffffffffffffffffffffff1681565b6000600354905090565b6000610ad884848461280f565b610b8b8433610b8685604051806060016040528060288152602001613d9f60289139600260008b73ffffffffffffffffffffffffffffffffffffffff1673ffffffffffffffffffffffffffffffffffffffff16815260200190815260200160002060003373ffffffffffffffffffffffffffffffffffffffff1673ffffffffffffffffffffffffffffffffffffffff16815260200190815260200160002054612ac99092919063ffffffff16565b612618565b600190509392505050565b600b54610ba1611e9a565b11610bf7576040517f08c379a0000000000000000000000000000000000000000000000000000000008152600401808060200182810382526029815260200180613c946029913960400191505060405180910390fd5b6000610c0233611ada565b11610c58576040517f08c379a0000000000000000000000000000000000000000000000000000000008152600401808060200182810382526021815260200180613d096021913960400191505060405180910390fd5b6000610d2e600a60009054906101000a900473ffffffffffffffffffffffffffffffffffffffff1673ffffffffffffffffffffffffffffffffffffffff166370a08231306040518263ffffffff1660e01b8152600401808273ffffffffffffffffffffffffffffffffffffffff16815260200191505060206040518083038186803b158015610ce657600080fd5b505afa158015610cfa573d6000803e3d6000fd5b505050506040513d6020811015610d1057600080fd5b8101908080519060200190929190505050610d29610ac1565b612b83565b90506000610d3b33611ada565b90506000610d498284612bbb565b90506000610d5982600d54612bbb565b90506000610d678383612bfb565b90507f158ba9ab7bbbd08eeffa4753bad41f4d450e24831d293427308badf3eadd8c7633858585604051808573ffffffffffffffffffffffffffffffffffffffff16815260200184815260200183815260200182815260200194505050505060405180910390a1610dd83385612c7e565b600a60009054906101000a900473ffffffffffffffffffffffffffffffffffffffff1673ffffffffffffffffffffffffffffffffffffffff1663a9059cbb33836040518363ffffffff1660e01b8152600401808373ffffffffffffffffffffffffffffffffffffffff16815260200182815260200192505050602060405180830381600087803b158015610e6b57600080fd5b505af1158015610e7f573d6000803e3d6000fd5b505050506040513d6020811015610e9557600080fd5b8101908080519060200190929190505050610efb576040517f08c379a0000000000000000000000000000000000000000000000000000000008152600401808060200182810382526025815260200180613e316025913960400191505060405180910390fd5b600a60009054906101000a900473ffffffffffffffffffffffffffffffffffffffff1673ffffffffffffffffffffffffffffffffffffffff1663a9059cbb601060009054906101000a900473ffffffffffffffffffffffffffffffffffffffff16846040518363ffffffff1660e01b8152600401808373ffffffffffffffffffffffffffffffffffffffff16815260200182815260200192505050602060405180830381600087803b158015610fb057600080fd5b505af1158015610fc4573d6000803e3d6000fd5b505050506040513d6020811015610fda57600080fd5b8101908080519060200190929190505050611040576040517f08c379a000000000000000000000000000000000000000000000000000000000815260040180806020018281038252602d815260200180613d50602d913960400191505060405180910390fd5b5050505050565b600d5481565b6000600660009054906101000a900460ff16905090565b60006110ff33846110fa85600260003373ffffffffffffffffffffffffffffffffffffffff1673ffffffffffffffffffffffffffffffffffffffff16815260200190815260200160002060008973ffffffffffffffffffffffffffffffffffffffff1673ffffffffffffffffffffffffffffffffffffffff16815260200190815260200160002054612e3890919063ffffffff16565b612618565b6001905092915050565b600660019054906101000a900473ffffffffffffffffffffffffffffffffffffffff1673ffffffffffffffffffffffffffffffffffffffff163373ffffffffffffffffffffffffffffffffffffffff16146111cc576040517f08c379a000000000000000000000000000000000000000000000000000000000815260040180806020018281038252600c8152602001807f6e6f7420616e2061646d696e000000000000000000000000000000000000000081525060200191505060405180910390fd5b806000811180156111e5575068056bc75e2d6310000081105b611257576040517f08c379a000000000000000000000000000000000000000000000000000000000815260040180806020018281038252601f8152602001807f76616c7565206e6f742077697468696e20616c6c6f776564206c696d6974730081525060200191505060405180910390fd5b81600b819055507f28e98951093a92e2a12cfccced98a5e14ff4a69f23c1137a90353ea343a879d5826040518082815260200191505060405180910390a15050565b60095481565b60008111611315576040517f08c379a000000000000000000000000000000000000000000000000000000000815260040180806020018281038252601f8152602001807f616d6f756e742073686f756c642062652067726561746572207468616e20300081525060200191505060405180910390fd5b8061131f33611ada565b1015611393576040517f08c379a00000000000000000000000000000000000000000000000000000000081526004018080602001828103825260128152602001807f6e6f7420656e6f7567682062616c616e6365000000000000000000000000000081525060200191505060405180910390fd5b600061139d61157f565b905060006113b26113ac611b23565b83612b83565b905060006113c08285612bbb565b90507f7575c9e41ba6d91ef21e39bd62b5b9df62fc9b0401379fdf9fe1fa372f41e7c1338583604051808473ffffffffffffffffffffffffffffffffffffffff168152602001838152602001828152602001935050505060405180910390a16114293385612c7e565b600a60009054906101000a900473ffffffffffffffffffffffffffffffffffffffff1673ffffffffffffffffffffffffffffffffffffffff1663a9059cbb33836040518363ffffffff1660e01b8152600401808373ffffffffffffffffffffffffffffffffffffffff16815260200182815260200192505050602060405180830381600087803b1580156114bc57600080fd5b505af11580156114d0573d6000803e3d6000fd5b505050506040513d60208110156114e657600080fd5b8101908080519060200190929190505050611569576040517f08c379a00000000000000000000000000000000000000000000000000000000081526004018080602001828103825260188152602001807f636f6c6c61746572616c207472616e73666572206661696c000000000000000081525060200191505060405180910390fd5b50505050565b6b033b2e3c9fd0803ce800000081565b6000806000611594600854600c544203612ec0565b50915091508161160c576040517f08c379a00000000000000000000000000000000000000000000000000000000081526004018080602001828103825260148152602001807f67657474696e67206f7261636c6520707269636500000000000000000000000081525060200191505060405180910390fd5b61162981611624670de0b6b3a764000060095461308d565b6130d7565b9250505090565b6000600f5442039050600081116116af576040517f08c379a00000000000000000000000000000000000000000000000000000000081526004018080602001828103825260198152602001807f6e6f20696e666c6174696f6e20696e637265617365207965740000000000000081525060200191505060405180910390fd5b42600f819055506116c5600754600e548361316c565b60078190555060006116f16116e46116db610ac1565b600e548561318a565b6116ec610ac1565b612bfb565b905061171f601060009054906101000a900473ffffffffffffffffffffffffffffffffffffffff16826131a8565b5050565b600660019054906101000a900473ffffffffffffffffffffffffffffffffffffffff1673ffffffffffffffffffffffffffffffffffffffff163373ffffffffffffffffffffffffffffffffffffffff16146117e6576040517f08c379a000000000000000000000000000000000000000000000000000000000815260040180806020018281038252600c8152602001807f6e6f7420616e2061646d696e000000000000000000000000000000000000000081525060200191505060405180910390fd5b60006118c56118b8600a60009054906101000a900473ffffffffffffffffffffffffffffffffffffffff1673ffffffffffffffffffffffffffffffffffffffff166370a08231306040518263ffffffff1660e01b8152600401808273ffffffffffffffffffffffffffffffffffffffff16815260200191505060206040518083038186803b15801561187757600080fd5b505afa15801561188b573d6000803e3d6000fd5b505050506040513d60208110156118a157600080fd5b810190808051906020019092919050505084612bfb565b6118c0610ac1565b613365565b90507f627a692d5a03ab34732c0d2aa319f3ecdebdc4528f383eabcb25441dc0a70cfb338383604051808473ffffffffffffffffffffffffffffffffffffffff168152602001838152602001828152602001935050505060405180910390a1600b54811061197e576040517f08c379a000000000000000000000000000000000000000000000000000000000815260040180806020018281038252602a815260200180613cbd602a913960400191505060405180910390fd5b600a60009054906101000a900473ffffffffffffffffffffffffffffffffffffffff1673ffffffffffffffffffffffffffffffffffffffff1663a9059cbb33846040518363ffffffff1660e01b8152600401808373ffffffffffffffffffffffffffffffffffffffff16815260200182815260200192505050602060405180830381600087803b158015611a1157600080fd5b505af1158015611a25573d6000803e3d6000fd5b505050506040513d6020811015611a3b57600080fd5b8101908080519060200190929190505050611abe576040517f08c379a00000000000000000000000000000000000000000000000000000000081526004018080602001828103825260198152602001807f636f6c6c61746572616c207472616e73666572206661696c730000000000000081525060200191505060405180910390fd5b5050565b600e5481565b600c5481565b670de0b6b3a764000081565b6000600160008373ffffffffffffffffffffffffffffffffffffffff1673ffffffffffffffffffffffffffffffffffffffff168152602001908152602001600020549050919050565b6000611b38600754600e54600f54420361316c565b905090565b600b5481565b600f5481565b606060058054600181600116156101000203166002900480601f016020809104026020016040519081016040528092919081815260200182805460018160011615610100020316600290048015611be15780601f10611bb657610100808354040283529160200191611be1565b820191906000526020600020905b815481529060010190602001808311611bc457829003601f168201915b5050505050905090565b600660019054906101000a900473ffffffffffffffffffffffffffffffffffffffff1673ffffffffffffffffffffffffffffffffffffffff163373ffffffffffffffffffffffffffffffffffffffff1614611cae576040517f08c379a000000000000000000000000000000000000000000000000000000000815260040180806020018281038252600c8152602001807f6e6f7420616e2061646d696e000000000000000000000000000000000000000081525060200191505060405180910390fd5b611cb881836131a8565b6000611cc2611e9a565b90507f8aa79244595326e02b94ff370fec2bf34048b114fa3566a1928de6961944b6c433848484604051808573ffffffffffffffffffffffffffffffffffffffff1681526020018481526020018373ffffffffffffffffffffffffffffffffffffffff16815260200182815260200194505050505060405180910390a1600b548110611d99576040517f08c379a000000000000000000000000000000000000000000000000000000000815260040180806020018281038252602a815260200180613cbd602a913960400191505060405180910390fd5b505050565b6000611e533384611e4e85604051806060016040528060258152602001613e5660259139600260003373ffffffffffffffffffffffffffffffffffffffff1673ffffffffffffffffffffffffffffffffffffffff16815260200190815260200160002060008a73ffffffffffffffffffffffffffffffffffffffff1673ffffffffffffffffffffffffffffffffffffffff16815260200190815260200160002054612ac99092919063ffffffff16565b612618565b6001905092915050565b6000611e6a33848461280f565b6001905092915050565b600a60009054906101000a900473ffffffffffffffffffffffffffffffffffffffff1681565b6000611f70600a60009054906101000a900473ffffffffffffffffffffffffffffffffffffffff1673ffffffffffffffffffffffffffffffffffffffff166370a08231306040518263ffffffff1660e01b8152600401808273ffffffffffffffffffffffffffffffffffffffff16815260200191505060206040518083038186803b158015611f2857600080fd5b505afa158015611f3c573d6000803e3d6000fd5b505050506040513d6020811015611f5257600080fd5b8101908080519060200190929190505050611f6b610ac1565b613365565b905090565b60085481565b600660019054906101000a900473ffffffffffffffffffffffffffffffffffffffff1673ffffffffffffffffffffffffffffffffffffffff163373ffffffffffffffffffffffffffffffffffffffff161461203e576040517f08c379a000000000000000000000000000000000000000000000000000000000815260040180806020018281038252600c8152602001807f6e6f7420616e2061646d696e000000000000000000000000000000000000000081525060200191505060405180910390fd5b80600c819055507ff446a856a251d3949a294b9b5a1887d32750b34a18bb135814cfc300119ca84d816040518082815260200191505060405180910390a150565b600660019054906101000a900473ffffffffffffffffffffffffffffffffffffffff1673ffffffffffffffffffffffffffffffffffffffff163373ffffffffffffffffffffffffffffffffffffffff1614612142576040517f08c379a000000000000000000000000000000000000000000000000000000000815260040180806020018281038252600c8152602001807f6e6f7420616e2061646d696e000000000000000000000000000000000000000081525060200191505060405180910390fd5b600081116121b8576040517f08c379a00000000000000000000000000000000000000000000000000000000081526004018080602001828103825260108152602001807f6465706f73697420616d6f756e7420300000000000000000000000000000000081525060200191505060405180910390fd5b600a60009054906101000a900473ffffffffffffffffffffffffffffffffffffffff1673ffffffffffffffffffffffffffffffffffffffff166323b872dd3330846040518463ffffffff1660e01b8152600401808473ffffffffffffffffffffffffffffffffffffffff1681526020018373ffffffffffffffffffffffffffffffffffffffff1681526020018281526020019350505050602060405180830381600087803b15801561226957600080fd5b505af115801561227d573d6000803e3d6000fd5b505050506040513d602081101561229357600080fd5b81019080805190602001909291905050506122f9576040517f08c379a0000000000000000000000000000000000000000000000000000000008152600401808060200182810382526022815260200180613d7d6022913960400191505060405180910390fd5b50565b6000600a60009054906101000a900473ffffffffffffffffffffffffffffffffffffffff1673ffffffffffffffffffffffffffffffffffffffff166370a08231306040518263ffffffff1660e01b8152600401808273ffffffffffffffffffffffffffffffffffffffff16815260200191505060206040518083038186803b15801561238757600080fd5b505afa15801561239b573d6000803e3d6000fd5b505050506040513d60208110156123b157600080fd5b8101908080519060200190929190505050905090565b6000600260008473ffffffffffffffffffffffffffffffffffffffff1673ffffffffffffffffffffffffffffffffffffffff16815260200190815260200160002060008373ffffffffffffffffffffffffffffffffffffffff1673ffffffffffffffffffffffffffffffffffffffff16815260200190815260200160002054905092915050565b600660019054906101000a900473ffffffffffffffffffffffffffffffffffffffff1673ffffffffffffffffffffffffffffffffffffffff163373ffffffffffffffffffffffffffffffffffffffff1614612511576040517f08c379a000000000000000000000000000000000000000000000000000000000815260040180806020018281038252600c8152602001807f6e6f7420616e2061646d696e000000000000000000000000000000000000000081525060200191505060405180910390fd5b8060008111801561252a575068056bc75e2d6310000081105b61259c576040517f08c379a000000000000000000000000000000000000000000000000000000000815260040180806020018281038252601f8152602001807f76616c7565206e6f742077697468696e20616c6c6f776564206c696d6974730081525060200191505060405180910390fd5b6125af8268056bc75e2d63100000612b83565b600d819055507fb410b9fb1c7ee253f64b4393c5fa78a4d64c9f4495828b8c9e62813a5c53528d600d546040518082815260200191505060405180910390a15050565b600660019054906101000a900473ffffffffffffffffffffffffffffffffffffffff1681565b600073ffffffffffffffffffffffffffffffffffffffff168373ffffffffffffffffffffffffffffffffffffffff16141561269e576040517f08c379a0000000000000000000000000000000000000000000000000000000008152600401808060200182810382526024815260200180613e0d6024913960400191505060405180910390fd5b600073ffffffffffffffffffffffffffffffffffffffff168273ffffffffffffffffffffffffffffffffffffffff161415612724576040517f08c379a0000000000000000000000000000000000000000000000000000000008152600401808060200182810382526022815260200180613ce76022913960400191505060405180910390fd5b80600260008573ffffffffffffffffffffffffffffffffffffffff1673ffffffffffffffffffffffffffffffffffffffff16815260200190815260200160002060008473ffffffffffffffffffffffffffffffffffffffff1673ffffffffffffffffffffffffffffffffffffffff168152602001908152602001600020819055508173ffffffffffffffffffffffffffffffffffffffff168373ffffffffffffffffffffffffffffffffffffffff167f8c5be1e5ebec7d5bd14f71427d1e84f3dd0314c0f7b2291e5b200ac8c7c3b925836040518082815260200191505060405180910390a3505050565b600073ffffffffffffffffffffffffffffffffffffffff168373ffffffffffffffffffffffffffffffffffffffff161415612895576040517f08c379a0000000000000000000000000000000000000000000000000000000008152600401808060200182810382526025815260200180613de86025913960400191505060405180910390fd5b600073ffffffffffffffffffffffffffffffffffffffff168273ffffffffffffffffffffffffffffffffffffffff16141561291b576040517f08c379a0000000000000000000000000000000000000000000000000000000008152600401808060200182810382526023815260200180613c4f6023913960400191505060405180910390fd5b61298781604051806060016040528060268152602001613d2a60269139600160008773ffffffffffffffffffffffffffffffffffffffff1673ffffffffffffffffffffffffffffffffffffffff16815260200190815260200160002054612ac99092919063ffffffff16565b600160008573ffffffffffffffffffffffffffffffffffffffff1673ffffffffffffffffffffffffffffffffffffffff16815260200190815260200160002081905550612a1c81600160008573ffffffffffffffffffffffffffffffffffffffff1673ffffffffffffffffffffffffffffffffffffffff16815260200190815260200160002054612e3890919063ffffffff16565b600160008473ffffffffffffffffffffffffffffffffffffffff1673ffffffffffffffffffffffffffffffffffffffff168152602001908152602001600020819055508173ffffffffffffffffffffffffffffffffffffffff168373ffffffffffffffffffffffffffffffffffffffff167fddf252ad1be2c89b69c2b068fc378daa952ba7f163c4a11628f55a4df523b3ef836040518082815260200191505060405180910390a3505050565b6000838311158290612b76576040517f08c379a00000000000000000000000000000000000000000000000000000000081526004018080602001828103825283818151815260200191508051906020019080838360005b83811015612b3b578082015181840152602081019050612b20565b50505050905090810190601f168015612b685780820380516001836020036101000a031916815260200191505b509250505060405180910390fd5b5082840390509392505050565b600081612bab612b9b85670de0b6b3a76400006130d7565b60028581612ba557fe5b0461345a565b81612bb257fe5b04905092915050565b6000670de0b6b3a7640000612beb612bd385856130d7565b6002670de0b6b3a764000081612be557fe5b0461345a565b81612bf257fe5b04905092915050565b6000828284039150811115612c78576040517f08c379a00000000000000000000000000000000000000000000000000000000081526004018080602001828103825260158152602001807f64732d6d6174682d7375622d756e646572666c6f77000000000000000000000081525060200191505060405180910390fd5b92915050565b600073ffffffffffffffffffffffffffffffffffffffff168273ffffffffffffffffffffffffffffffffffffffff161415612d04576040517f08c379a0000000000000000000000000000000000000000000000000000000008152600401808060200182810382526021815260200180613dc76021913960400191505060405180910390fd5b612d7081604051806060016040528060228152602001613c7260229139600160008673ffffffffffffffffffffffffffffffffffffffff1673ffffffffffffffffffffffffffffffffffffffff16815260200190815260200160002054612ac99092919063ffffffff16565b600160008473ffffffffffffffffffffffffffffffffffffffff1673ffffffffffffffffffffffffffffffffffffffff16815260200190815260200160002081905550612dc8816003546134dd90919063ffffffff16565b600381905550600073ffffffffffffffffffffffffffffffffffffffff168273ffffffffffffffffffffffffffffffffffffffff167fddf252ad1be2c89b69c2b068fc378daa952ba7f163c4a11628f55a4df523b3ef836040518082815260200191505060405180910390a35050565b600080828401905083811015612eb6576040517f08c379a000000000000000000000000000000000000000000000000000000000815260040180806020018281038252601b8152602001807f536166654d6174683a206164646974696f6e206f766572666c6f77000000000081525060200191505060405180910390fd5b8091505092915050565b6000806000806000612ed28787613560565b9150915081612eed5760008060009450945094505050613086565b60008060009054906101000a900473ffffffffffffffffffffffffffffffffffffffff1673ffffffffffffffffffffffffffffffffffffffff166377fbb66389846040518363ffffffff1660e01b8152600401808381526020018281526020019250505060206040518083038186803b158015612f6957600080fd5b505afa158015612f7d573d6000803e3d6000fd5b505050506040513d6020811015612f9357600080fd5b8101908080519060200190929190505050905060008054906101000a900473ffffffffffffffffffffffffffffffffffffffff1673ffffffffffffffffffffffffffffffffffffffff166393fa491589836040518363ffffffff1660e01b8152600401808381526020018281526020019250505060206040518083038186803b15801561301f57600080fd5b505afa158015613033573d6000803e3d6000fd5b505050506040513d602081101561304957600080fd5b8101908080519060200190929190505050945060008511156130775760018582955095509550505050613086565b60008060009550955095505050505b9250925092565b60006130cf83836040518060400160405280601a81526020017f536166654d6174683a206469766973696f6e206279207a65726f000000000000815250613a81565b905092915050565b6000808214806130f457508282838502925082816130f157fe5b04145b613166576040517f08c379a00000000000000000000000000000000000000000000000000000000081526004018080602001828103825260148152602001807f64732d6d6174682d6d756c2d6f766572666c6f7700000000000000000000000081525060200191505060405180910390fd5b92915050565b60006131818461317c8585613b47565b613bca565b90509392505050565b600061319f8461319a8585613b47565b613c06565b90509392505050565b600073ffffffffffffffffffffffffffffffffffffffff168273ffffffffffffffffffffffffffffffffffffffff16141561324b576040517f08c379a000000000000000000000000000000000000000000000000000000000815260040180806020018281038252601f8152602001807f45524332303a206d696e7420746f20746865207a65726f20616464726573730081525060200191505060405180910390fd5b61326081600354612e3890919063ffffffff16565b6003819055506132b881600160008573ffffffffffffffffffffffffffffffffffffffff1673ffffffffffffffffffffffffffffffffffffffff16815260200190815260200160002054612e3890919063ffffffff16565b600160008473ffffffffffffffffffffffffffffffffffffffff1673ffffffffffffffffffffffffffffffffffffffff168152602001908152602001600020819055508173ffffffffffffffffffffffffffffffffffffffff16600073ffffffffffffffffffffffffffffffffffffffff167fddf252ad1be2c89b69c2b068fc378daa952ba7f163c4a11628f55a4df523b3ef836040518082815260200191505060405180910390a35050565b60008083116133dc576040517f08c379a000000000000000000000000000000000000000000000000000000000815260040180806020018281038252601f8152602001807f636f6c6c61746572616c20746f74616c20737570706c79206973207a65726f0081525060200191505060405180910390fd5b60008214156133ee5760009050613454565b60006134016133fb61157f565b85612bbb565b90506000600f5442039050600061341b85600e548461318a565b9050600061343061342a611b23565b83612bbb565b905061344d670de0b6b3a76400006134488387612b83565b61345a565b9450505050505b92915050565b60008282840191508110156134d7576040517f08c379a00000000000000000000000000000000000000000000000000000000081526004018080602001828103825260148152602001807f64732d6d6174682d6164642d6f766572666c6f7700000000000000000000000081525060200191505060405180910390fd5b92915050565b600082821115613555576040517f08c379a000000000000000000000000000000000000000000000000000000000815260040180806020018281038252601e8152602001807f536166654d6174683a207375627472616374696f6e206f766572666c6f77000081525060200191505060405180910390fd5b818303905092915050565b60008060008060009054906101000a900473ffffffffffffffffffffffffffffffffffffffff1673ffffffffffffffffffffffffffffffffffffffff166346eee1c4866040518263ffffffff1660e01b81526004018082815260200191505060206040518083038186803b1580156135d757600080fd5b505afa1580156135eb573d6000803e3d6000fd5b505050506040513d602081101561360157600080fd5b810190808051906020019092919050505090506000811115613a715760008060009050600060018403905060008060009054906101000a900473ffffffffffffffffffffffffffffffffffffffff1673ffffffffffffffffffffffffffffffffffffffff166377fbb6638a856040518363ffffffff1660e01b8152600401808381526020018281526020019250505060206040518083038186803b1580156136a857600080fd5b505afa1580156136bc573d6000803e3d6000fd5b505050506040513d60208110156136d257600080fd5b810190808051906020019092919050505090508781106136fd57600080965096505050505050613a7a565b60008054906101000a900473ffffffffffffffffffffffffffffffffffffffff1673ffffffffffffffffffffffffffffffffffffffff166377fbb6638a846040518363ffffffff1660e01b8152600401808381526020018281526020019250505060206040518083038186803b15801561377657600080fd5b505afa15801561378a573d6000803e3d6000fd5b505050506040513d60208110156137a057600080fd5b81019080805190602001909291905050509050878110156137cc57600182965096505050505050613a7a565b5b600115613a6c578260016002858503816137e357fe5b040101935060008054906101000a900473ffffffffffffffffffffffffffffffffffffffff1673ffffffffffffffffffffffffffffffffffffffff166377fbb6638a866040518363ffffffff1660e01b8152600401808381526020018281526020019250505060206040518083038186803b15801561386157600080fd5b505afa158015613875573d6000803e3d6000fd5b505050506040513d602081101561388b57600080fd5b81019080805190602001909291905050509050878110156139875760008060009054906101000a900473ffffffffffffffffffffffffffffffffffffffff1673ffffffffffffffffffffffffffffffffffffffff166377fbb6638b600188016040518363ffffffff1660e01b8152600401808381526020018281526020019250505060206040518083038186803b15801561392557600080fd5b505afa158015613939573d6000803e3d6000fd5b505050506040513d602081101561394f57600080fd5b8101908080519060200190929190505050905088811061397b5760018597509750505050505050613a7a565b60018501935050613a67565b60008060009054906101000a900473ffffffffffffffffffffffffffffffffffffffff1673ffffffffffffffffffffffffffffffffffffffff166377fbb6638b600188036040518363ffffffff1660e01b8152600401808381526020018281526020019250505060206040518083038186803b158015613a0657600080fd5b505afa158015613a1a573d6000803e3d6000fd5b505050506040513d6020811015613a3057600080fd5b8101908080519060200190929190505050905088811015613a5f57600180860397509750505050505050613a7a565b600185039250505b6137cd565b505050505b60008092509250505b9250929050565b60008083118290613b2d576040517f08c379a00000000000000000000000000000000000000000000000000000000081526004018080602001828103825283818151815260200191508051906020019080838360005b83811015613af2578082015181840152602081019050613ad7565b50505050905090810190601f168015613b1f5780820380516001836020036101000a031916815260200191505b509250505060405180910390fd5b506000838581613b3957fe5b049050809150509392505050565b60008060028381613b5457fe5b061415613b6d576b033b2e3c9fd0803ce8000000613b6f565b825b905060028281613b7b57fe5b0491505b60008214613bc457613b918384613c06565b9250600060028381613b9f57fe5b0614613bb257613baf8184613c06565b90505b60028281613bbc57fe5b049150613b7f565b92915050565b600081613bf6613be6856b033b2e3c9fd0803ce80000006130d7565b60028581613bf057fe5b0461345a565b81613bfd57fe5b04905092915050565b60006b033b2e3c9fd0803ce8000000613c3e613c2285856130d7565b60026b033b2e3c9fd0803ce800000081613c3857fe5b0461345a565b81613c4557fe5b0490509291505056fe45524332303a207472616e7366657220746f20746865207a65726f206164647265737345524332303a206275726e20616d6f756e7420657863656564732062616c616e6365636f6c6c61746572616c207574696c697a61746f696e2069732062656c6f77207468726573686f6c64636f6c6c61746572616c207574696c697a6174696f6e2061626f766520746865207468726573686f6c6445524332303a20617070726f766520746f20746865207a65726f20616464726573736d73672073656e64657220646f65736e2774206f776e20616e7920746f6b656e7345524332303a207472616e7366657220616d6f756e7420657863656564732062616c616e6365636f6c6c61746572616c206c69717569646174696f6e2070656e616c7479207472616e73666572206661696c736661696c656420636f6c6c61746572616c206465706f736974207472616e7366657245524332303a207472616e7366657220616d6f756e74206578636565647320616c6c6f77616e636545524332303a206275726e2066726f6d20746865207a65726f206164647265737345524332303a207472616e736665722066726f6d20746865207a65726f206164647265737345524332303a20617070726f76652066726f6d20746865207a65726f2061646472657373636f6c6c61746572616c206c69717569646174696f6e207472616e73666572206661696c7345524332303a2064656372656173656420616c6c6f77616e63652062656c6f77207a65726fa26469706673582212205852bd950fba8bb2d772fafe70bb004b8249e25134653fbb2cbaa8d28e17c69c64736f6c63430007030033",
  "devdoc": {
    "kind": "dev",
    "methods": {
      "allowance(address,address)": {
        "details": "See {IERC20-allowance}."
      },
      "approve(address,uint256)": {
        "details": "See {IERC20-approve}. Requirements: - `spender` cannot be the zero address."
      },
      "balanceOf(address)": {
        "details": "See {IERC20-balanceOf}."
      },
      "decimals()": {
        "details": "Returns the number of decimals used to get its user representation. For example, if `decimals` equals `2`, a balance of `505` tokens should be displayed to a user as `5,05` (`505 / 10 ** 2`). Tokens usually opt for a value of 18, imitating the relationship between Ether and Wei. This is the value {ERC20} uses, unless {_setupDecimals} is called. NOTE: This information is only used for _display_ purposes: it in no way affects any of the arithmetic of the contract, including {IERC20-balanceOf} and {IERC20-transfer}."
      },
      "decreaseAllowance(address,uint256)": {
        "details": "Atomically decreases the allowance granted to `spender` by the caller. This is an alternative to {approve} that can be used as a mitigation for problems described in {IERC20-approve}. Emits an {Approval} event indicating the updated allowance. Requirements: - `spender` cannot be the zero address. - `spender` must have allowance for the caller of at least `subtractedValue`."
      },
      "increaseAllowance(address,uint256)": {
        "details": "Atomically increases the allowance granted to `spender` by the caller. This is an alternative to {approve} that can be used as a mitigation for problems described in {IERC20-approve}. Emits an {Approval} event indicating the updated allowance. Requirements: - `spender` cannot be the zero address."
      },
      "name()": {
        "details": "Returns the name of the token."
      },
      "symbol()": {
        "details": "Returns the symbol of the token, usually a shorter version of the name."
      },
      "totalSupply()": {
        "details": "See {IERC20-totalSupply}."
      },
      "transfer(address,uint256)": {
        "details": "See {IERC20-transfer}. Requirements: - `recipient` cannot be the zero address. - the caller must have a balance of at least `amount`."
      },
      "transferFrom(address,address,uint256)": {
        "details": "See {IERC20-transferFrom}. Emits an {Approval} event indicating the updated allowance. This is not required by the EIP. See the note at the beginning of {ERC20}. Requirements: - `sender` and `recipient` cannot be the zero address. - `sender` must have a balance of at least `amount`. - the caller must have allowance for ``sender``'s tokens of at least `amount`."
      }
    },
    "version": 1
  },
  "userdoc": {
    "kind": "user",
    "methods": {},
    "version": 1
  },
  "storageLayout": {
    "storage": [
      {
        "astId": 2825,
        "contract": "contracts/Chorus.sol:Chorus",
        "label": "tellor",
        "offset": 0,
        "slot": "0",
        "type": "t_contract(ITellor)2823"
      },
      {
        "astId": 1175,
        "contract": "contracts/Chorus.sol:Chorus",
        "label": "_balances",
        "offset": 0,
        "slot": "1",
        "type": "t_mapping(t_address,t_uint256)"
      },
      {
        "astId": 1181,
        "contract": "contracts/Chorus.sol:Chorus",
        "label": "_allowances",
        "offset": 0,
        "slot": "2",
        "type": "t_mapping(t_address,t_mapping(t_address,t_uint256))"
      },
      {
        "astId": 1183,
        "contract": "contracts/Chorus.sol:Chorus",
        "label": "_totalSupply",
        "offset": 0,
        "slot": "3",
        "type": "t_uint256"
      },
      {
        "astId": 1185,
        "contract": "contracts/Chorus.sol:Chorus",
        "label": "_name",
        "offset": 0,
        "slot": "4",
        "type": "t_string_storage"
      },
      {
        "astId": 1187,
        "contract": "contracts/Chorus.sol:Chorus",
        "label": "_symbol",
        "offset": 0,
        "slot": "5",
        "type": "t_string_storage"
      },
      {
        "astId": 1189,
        "contract": "contracts/Chorus.sol:Chorus",
        "label": "_decimals",
        "offset": 0,
        "slot": "6",
        "type": "t_uint8"
      },
      {
        "astId": 496,
        "contract": "contracts/Chorus.sol:Chorus",
        "label": "admin",
        "offset": 1,
        "slot": "6",
        "type": "t_address"
      },
      {
        "astId": 499,
        "contract": "contracts/Chorus.sol:Chorus",
        "label": "tknPrice",
        "offset": 0,
        "slot": "7",
        "type": "t_uint256"
      },
      {
        "astId": 501,
        "contract": "contracts/Chorus.sol:Chorus",
        "label": "collateralID",
        "offset": 0,
        "slot": "8",
        "type": "t_uint256"
      },
      {
        "astId": 503,
        "contract": "contracts/Chorus.sol:Chorus",
        "label": "collateralPriceGranularity",
        "offset": 0,
        "slot": "9",
        "type": "t_uint256"
      },
      {
        "astId": 505,
        "contract": "contracts/Chorus.sol:Chorus",
        "label": "collateralToken",
        "offset": 0,
        "slot": "10",
        "type": "t_contract(ERC20)1626"
      },
      {
        "astId": 508,
        "contract": "contracts/Chorus.sol:Chorus",
        "label": "collateralThreshold",
        "offset": 0,
        "slot": "11",
        "type": "t_uint256"
      },
      {
        "astId": 511,
        "contract": "contracts/Chorus.sol:Chorus",
        "label": "collateralPriceAge",
        "offset": 0,
        "slot": "12",
        "type": "t_uint256"
      },
      {
        "astId": 514,
        "contract": "contracts/Chorus.sol:Chorus",
        "label": "liquidationPenatly",
        "offset": 0,
        "slot": "13",
        "type": "t_uint256"
      },
      {
        "astId": 516,
        "contract": "contracts/Chorus.sol:Chorus",
        "label": "inflRatePerSec",
        "offset": 0,
        "slot": "14",
        "type": "t_uint256"
      },
      {
        "astId": 520,
        "contract": "contracts/Chorus.sol:Chorus",
        "label": "inflLastUpdate",
        "offset": 0,
        "slot": "15",
        "type": "t_uint256"
      },
      {
        "astId": 522,
        "contract": "contracts/Chorus.sol:Chorus",
        "label": "inflBeneficiary",
        "offset": 0,
        "slot": "16",
        "type": "t_address"
      }
    ],
    "types": {
      "t_address": {
        "encoding": "inplace",
        "label": "address",
        "numberOfBytes": "20"
      },
      "t_contract(ERC20)1626": {
        "encoding": "inplace",
        "label": "contract ERC20",
        "numberOfBytes": "20"
      },
      "t_contract(ITellor)2823": {
        "encoding": "inplace",
        "label": "contract ITellor",
        "numberOfBytes": "20"
      },
      "t_mapping(t_address,t_mapping(t_address,t_uint256))": {
        "encoding": "mapping",
        "key": "t_address",
        "label": "mapping(address => mapping(address => uint256))",
        "numberOfBytes": "32",
        "value": "t_mapping(t_address,t_uint256)"
      },
      "t_mapping(t_address,t_uint256)": {
        "encoding": "mapping",
        "key": "t_address",
        "label": "mapping(address => uint256)",
        "numberOfBytes": "32",
        "value": "t_uint256"
      },
      "t_string_storage": {
        "encoding": "bytes",
        "label": "string",
        "numberOfBytes": "32"
      },
      "t_uint256": {
        "encoding": "inplace",
        "label": "uint256",
        "numberOfBytes": "32"
      },
      "t_uint8": {
        "encoding": "inplace",
        "label": "uint8",
        "numberOfBytes": "1"
      }
    }
  }
}