{
  "address": "0x9fE46736679d2D9a65F0992F2272dE9f3c7fa6e0",
  "abi": [
    {
      "inputs": [
        {
          "internalType": "address payable",
          "name": "_tellorAddress",
          "type": "address"
        },
        {
          "internalType": "address",
          "name": "_collateralToken",
          "type": "address"
        },
        {
          "internalType": "uint256",
          "name": "_collateralID",
          "type": "uint256"
        },
        {
          "internalType": "uint256",
          "name": "_collateralPriceGranularity",
          "type": "uint256"
        },
        {
          "internalType": "string",
          "name": "_tokenName",
          "type": "string"
        },
        {
          "internalType": "string",
          "name": "_tokenSymbol",
          "type": "string"
        },
        {
          "internalType": "uint256",
          "name": "_inflRatePerYear",
          "type": "uint256"
        },
        {
          "internalType": "address",
          "name": "_inflBeneficiary",
          "type": "address"
        }
      ],
      "stateMutability": "nonpayable",
      "type": "constructor"
    },
    {
      "anonymous": false,
      "inputs": [
        {
          "indexed": true,
          "internalType": "address",
          "name": "owner",
          "type": "address"
        },
        {
          "indexed": true,
          "internalType": "address",
          "name": "spender",
          "type": "address"
        },
        {
          "indexed": false,
          "internalType": "uint256",
          "name": "value",
          "type": "uint256"
        }
      ],
      "name": "Approval",
      "type": "event"
    },
    {
      "anonymous": false,
      "inputs": [
        {
          "indexed": false,
          "internalType": "uint256",
          "name": "",
          "type": "uint256"
        }
      ],
      "name": "CollateralPriceAge",
      "type": "event"
    },
    {
      "anonymous": false,
      "inputs": [
        {
          "indexed": false,
          "internalType": "uint256",
          "name": "",
          "type": "uint256"
        }
      ],
      "name": "CollateralThreshold",
      "type": "event"
    },
    {
      "anonymous": false,
      "inputs": [
        {
          "indexed": false,
          "internalType": "address",
          "name": "",
          "type": "address"
        },
        {
          "indexed": false,
          "internalType": "uint256",
          "name": "tokensAmnt",
          "type": "uint256"
        },
        {
          "indexed": false,
          "internalType": "uint256",
          "name": "collateralAmnt",
          "type": "uint256"
        },
        {
          "indexed": false,
          "internalType": "uint256",
          "name": "collateralPenalty",
          "type": "uint256"
        }
      ],
      "name": "Liquidate",
      "type": "event"
    },
    {
      "anonymous": false,
      "inputs": [
        {
          "indexed": false,
          "internalType": "uint256",
          "name": "",
          "type": "uint256"
        }
      ],
      "name": "LiquidationPenatly",
      "type": "event"
    },
    {
      "anonymous": false,
      "inputs": [
        {
          "indexed": false,
          "internalType": "address",
          "name": "",
          "type": "address"
        },
        {
          "indexed": false,
          "internalType": "uint256",
          "name": "amount",
          "type": "uint256"
        },
        {
          "indexed": false,
          "internalType": "address",
          "name": "to",
          "type": "address"
        },
        {
          "indexed": false,
          "internalType": "uint256",
          "name": "collateralRatio",
          "type": "uint256"
        }
      ],
      "name": "MintTokens",
      "type": "event"
    },
    {
      "anonymous": false,
      "inputs": [
        {
          "indexed": true,
          "internalType": "address",
          "name": "from",
          "type": "address"
        },
        {
          "indexed": true,
          "internalType": "address",
          "name": "to",
          "type": "address"
        },
        {
          "indexed": false,
          "internalType": "uint256",
          "name": "value",
          "type": "uint256"
        }
      ],
      "name": "Transfer",
      "type": "event"
    },
    {
      "anonymous": false,
      "inputs": [
        {
          "indexed": false,
          "internalType": "address",
          "name": "",
          "type": "address"
        },
        {
          "indexed": false,
          "internalType": "uint256",
          "name": "collateralAmnt",
          "type": "uint256"
        },
        {
          "indexed": false,
          "internalType": "uint256",
          "name": "collateralRatio",
          "type": "uint256"
        }
      ],
      "name": "WithdrawCollateral",
      "type": "event"
    },
    {
      "anonymous": false,
      "inputs": [
        {
          "indexed": false,
          "internalType": "address",
          "name": "",
          "type": "address"
        },
        {
          "indexed": false,
          "internalType": "uint256",
          "name": "tokenAmnt",
          "type": "uint256"
        },
        {
          "indexed": false,
          "internalType": "uint256",
          "name": "collateralAmnt",
          "type": "uint256"
        }
      ],
      "name": "WithdrawToken",
      "type": "event"
    },
    {
      "inputs": [],
      "name": "RAY",
      "outputs": [
        {
          "internalType": "uint256",
          "name": "",
          "type": "uint256"
        }
      ],
      "stateMutability": "view",
      "type": "function"
    },
    {
      "inputs": [],
      "name": "WAD",
      "outputs": [
        {
          "internalType": "uint256",
          "name": "",
          "type": "uint256"
        }
      ],
      "stateMutability": "view",
      "type": "function"
    },
    {
      "inputs": [],
      "name": "admin",
      "outputs": [
        {
          "internalType": "address",
          "name": "",
          "type": "address"
        }
      ],
      "stateMutability": "view",
      "type": "function"
    },
    {
      "inputs": [
        {
          "internalType": "address",
          "name": "owner",
          "type": "address"
        },
        {
          "internalType": "address",
          "name": "spender",
          "type": "address"
        }
      ],
      "name": "allowance",
      "outputs": [
        {
          "internalType": "uint256",
          "name": "",
          "type": "uint256"
        }
      ],
      "stateMutability": "view",
      "type": "function"
    },
    {
      "inputs": [
        {
          "internalType": "address",
          "name": "spender",
          "type": "address"
        },
        {
          "internalType": "uint256",
          "name": "amount",
          "type": "uint256"
        }
      ],
      "name": "approve",
      "outputs": [
        {
          "internalType": "bool",
          "name": "",
          "type": "bool"
        }
      ],
      "stateMutability": "nonpayable",
      "type": "function"
    },
    {
      "inputs": [
        {
          "internalType": "address",
          "name": "account",
          "type": "address"
        }
      ],
      "name": "balanceOf",
      "outputs": [
        {
          "internalType": "uint256",
          "name": "",
          "type": "uint256"
        }
      ],
      "stateMutability": "view",
      "type": "function"
    },
    {
      "inputs": [],
      "name": "collateralBalance",
      "outputs": [
        {
          "internalType": "uint256",
          "name": "",
          "type": "uint256"
        }
      ],
      "stateMutability": "view",
      "type": "function"
    },
    {
      "inputs": [],
      "name": "collateralID",
      "outputs": [
        {
          "internalType": "uint256",
          "name": "",
          "type": "uint256"
        }
      ],
      "stateMutability": "view",
      "type": "function"
    },
    {
      "inputs": [],
      "name": "collateralPrice",
      "outputs": [
        {
          "internalType": "uint256",
          "name": "",
          "type": "uint256"
        }
      ],
      "stateMutability": "view",
      "type": "function"
    },
    {
      "inputs": [],
      "name": "collateralPriceAge",
      "outputs": [
        {
          "internalType": "uint256",
          "name": "",
          "type": "uint256"
        }
      ],
      "stateMutability": "view",
      "type": "function"
    },
    {
      "inputs": [],
      "name": "collateralPriceGranularity",
      "outputs": [
        {
          "internalType": "uint256",
          "name": "",
          "type": "uint256"
        }
      ],
      "stateMutability": "view",
      "type": "function"
    },
    {
      "inputs": [],
      "name": "collateralRatio",
      "outputs": [
        {
          "internalType": "uint256",
          "name": "",
          "type": "uint256"
        }
      ],
      "stateMutability": "view",
      "type": "function"
    },
    {
      "inputs": [],
      "name": "collateralThreshold",
      "outputs": [
        {
          "internalType": "uint256",
          "name": "",
          "type": "uint256"
        }
      ],
      "stateMutability": "view",
      "type": "function"
    },
    {
      "inputs": [],
      "name": "collateralToken",
      "outputs": [
        {
          "internalType": "contract ERC20",
          "name": "",
          "type": "address"
        }
      ],
      "stateMutability": "view",
      "type": "function"
    },
    {
      "inputs": [],
      "name": "decimals",
      "outputs": [
        {
          "internalType": "uint8",
          "name": "",
          "type": "uint8"
        }
      ],
      "stateMutability": "view",
      "type": "function"
    },
    {
      "inputs": [
        {
          "internalType": "address",
          "name": "spender",
          "type": "address"
        },
        {
          "internalType": "uint256",
          "name": "subtractedValue",
          "type": "uint256"
        }
      ],
      "name": "decreaseAllowance",
      "outputs": [
        {
          "internalType": "bool",
          "name": "",
          "type": "bool"
        }
      ],
      "stateMutability": "nonpayable",
      "type": "function"
    },
    {
      "inputs": [
        {
          "internalType": "uint256",
          "name": "wad",
          "type": "uint256"
        }
      ],
      "name": "depositCollateral",
      "outputs": [],
      "stateMutability": "nonpayable",
      "type": "function"
    },
    {
      "inputs": [
        {
          "internalType": "address",
          "name": "spender",
          "type": "address"
        },
        {
          "internalType": "uint256",
          "name": "addedValue",
          "type": "uint256"
        }
      ],
      "name": "increaseAllowance",
      "outputs": [
        {
          "internalType": "bool",
          "name": "",
          "type": "bool"
        }
      ],
      "stateMutability": "nonpayable",
      "type": "function"
    },
    {
      "inputs": [],
      "name": "inflBeneficiary",
      "outputs": [
        {
          "internalType": "address",
          "name": "",
          "type": "address"
        }
      ],
      "stateMutability": "view",
      "type": "function"
    },
    {
      "inputs": [],
      "name": "inflLastUpdate",
      "outputs": [
        {
          "internalType": "uint256",
          "name": "",
          "type": "uint256"
        }
      ],
      "stateMutability": "view",
      "type": "function"
    },
    {
      "inputs": [],
      "name": "inflRatePerSec",
      "outputs": [
        {
          "internalType": "uint256",
          "name": "",
          "type": "uint256"
        }
      ],
      "stateMutability": "view",
      "type": "function"
    },
    {
      "inputs": [],
      "name": "liquidate",
      "outputs": [],
      "stateMutability": "nonpayable",
      "type": "function"
    },
    {
      "inputs": [],
      "name": "liquidationPenatly",
      "outputs": [
        {
          "internalType": "uint256",
          "name": "",
          "type": "uint256"
        }
      ],
      "stateMutability": "view",
      "type": "function"
    },
    {
      "inputs": [
        {
          "internalType": "uint256",
          "name": "amount",
          "type": "uint256"
        },
        {
          "internalType": "address",
          "name": "to",
          "type": "address"
        }
      ],
      "name": "mintToken",
      "outputs": [],
      "stateMutability": "nonpayable",
      "type": "function"
    },
    {
      "inputs": [],
      "name": "name",
      "outputs": [
        {
          "internalType": "string",
          "name": "",
          "type": "string"
        }
      ],
      "stateMutability": "view",
      "type": "function"
    },
    {
      "inputs": [
        {
          "internalType": "address",
          "name": "_newAdmin",
          "type": "address"
        }
      ],
      "name": "setAdmin",
      "outputs": [],
      "stateMutability": "nonpayable",
      "type": "function"
    },
    {
      "inputs": [
        {
          "internalType": "uint256",
          "name": "wad",
          "type": "uint256"
        }
      ],
      "name": "setCollateralPriceAge",
      "outputs": [],
      "stateMutability": "nonpayable",
      "type": "function"
    },
    {
      "inputs": [
        {
          "internalType": "uint256",
          "name": "wad",
          "type": "uint256"
        }
      ],
      "name": "setCollateralThreshold",
      "outputs": [],
      "stateMutability": "nonpayable",
      "type": "function"
    },
    {
      "inputs": [
        {
          "internalType": "uint256",
          "name": "wad",
          "type": "uint256"
        }
      ],
      "name": "setLiquidationPenatly",
      "outputs": [],
      "stateMutability": "nonpayable",
      "type": "function"
    },
    {
      "inputs": [],
      "name": "symbol",
      "outputs": [
        {
          "internalType": "string",
          "name": "",
          "type": "string"
        }
      ],
      "stateMutability": "view",
      "type": "function"
    },
    {
      "inputs": [],
      "name": "tokenPrice",
      "outputs": [
        {
          "internalType": "uint256",
          "name": "",
          "type": "uint256"
        }
      ],
      "stateMutability": "view",
      "type": "function"
    },
    {
      "inputs": [],
      "name": "totalSupply",
      "outputs": [
        {
          "internalType": "uint256",
          "name": "",
          "type": "uint256"
        }
      ],
      "stateMutability": "view",
      "type": "function"
    },
    {
      "inputs": [
        {
          "internalType": "address",
          "name": "recipient",
          "type": "address"
        },
        {
          "internalType": "uint256",
          "name": "amount",
          "type": "uint256"
        }
      ],
      "name": "transfer",
      "outputs": [
        {
          "internalType": "bool",
          "name": "",
          "type": "bool"
        }
      ],
      "stateMutability": "nonpayable",
      "type": "function"
    },
    {
      "inputs": [
        {
          "internalType": "address",
          "name": "sender",
          "type": "address"
        },
        {
          "internalType": "address",
          "name": "recipient",
          "type": "address"
        },
        {
          "internalType": "uint256",
          "name": "amount",
          "type": "uint256"
        }
      ],
      "name": "transferFrom",
      "outputs": [
        {
          "internalType": "bool",
          "name": "",
          "type": "bool"
        }
      ],
      "stateMutability": "nonpayable",
      "type": "function"
    },
    {
      "inputs": [],
      "name": "updateInflation",
      "outputs": [],
      "stateMutability": "nonpayable",
      "type": "function"
    },
    {
      "inputs": [
        {
          "internalType": "uint256",
          "name": "wad",
          "type": "uint256"
        }
      ],
      "name": "withdrawCollateral",
      "outputs": [],
      "stateMutability": "nonpayable",
      "type": "function"
    },
    {
      "inputs": [
        {
          "internalType": "uint256",
          "name": "amount",
          "type": "uint256"
        }
      ],
      "name": "withdrawToken",
      "outputs": [],
      "stateMutability": "nonpayable",
      "type": "function"
    }
  ],
  "transactionHash": "0x7e86d8d3590dcdb307a104b11ec4fc200145a14192bddab5fe7f667932fd2e7b",
  "args": [
    "0x5FbDB2315678afecb367f032d93F642f64180aa3",
    "0xe7f1725E7734CE288F8367e1Bb143E90bb3F0512",
    1,
    1000000,
    "Note",
    "NTO",
    "105170917901244400",
    "0x9965507D1a55bcC2695C58ba16FB37d819B0A4dc"
  ],
  "solcInputHash": "0bbd483c459b067cc2cb5ddec34e40d2",
  "bytecode": "0x608060405233600660016101000a81548173ffffffffffffffffffffffffffffffffffffffff021916908373ffffffffffffffffffffffffffffffffffffffff160217905550670de0b6b3a76400006007556714d1120d7b160000600b55610e10600c556000600d5542600f553480156200007957600080fd5b50604051620051463803806200514683398181016040528101906200009f919062000651565b838389806000806101000a81548173ffffffffffffffffffffffffffffffffffffffff021916908373ffffffffffffffffffffffffffffffffffffffff160217905550508160049080519060200190620000fb929190620004ea565b50806005908051906020019062000114929190620004ea565b506012600660006101000a81548160ff021916908360ff1602179055505050816000811180156200014d575068056bc75e2d6310000081105b6200018f576040517f08c379a0000000000000000000000000000000000000000000000000000000008152600401620001869062000848565b60405180910390fd5b85600081118015620001a95750670de0b6b3a76400008111155b620001eb576040517f08c379a0000000000000000000000000000000000000000000000000000000008152600401620001e29062000848565b60405180910390fd5b8760088190555088600a60006101000a81548173ffffffffffffffffffffffffffffffffffffffff021916908373ffffffffffffffffffffffffffffffffffffffff16021790555086600981905550600073ffffffffffffffffffffffffffffffffffffffff168373ffffffffffffffffffffffffffffffffffffffff161415620002ad576040517f08c379a0000000000000000000000000000000000000000000000000000000008152600401620002a49062000826565b60405180910390fd5b82601060006101000a81548173ffffffffffffffffffffffffffffffffffffffff021916908373ffffffffffffffffffffffffffffffffffffffff160217905550620002ff846200031560201b60201c565b600e819055505050505050505050505062000c83565b60006200037662000334670de0b6b3a76400006200037d60201b60201c565b6200036a62000349856200037d60201b60201c565b6200035e6301e133806200039c60201b60201c565b620003c360201b60201c565b6200041760201b60201c565b9050919050565b60006200039582633b9aca006200047560201b60201c565b9050919050565b6000620003bc826b033b2e3c9fd0803ce80000006200047560201b60201c565b9050919050565b60008162000403620003e8856b033b2e3c9fd0803ce80000006200047560201b60201c565b600285620003f7919062000937565b6200041760201b60201c565b6200040f919062000937565b905092915050565b6000828284620004289190620008da565b91508110156200046f576040517f08c379a0000000000000000000000000000000000000000000000000000000008152600401620004669062000804565b60405180910390fd5b92915050565b600080821480620004a25750828283856200049191906200096f565b925082620004a0919062000937565b145b620004e4576040517f08c379a0000000000000000000000000000000000000000000000000000000008152600401620004db90620007e2565b60405180910390fd5b92915050565b828054620004f89062000a58565b90600052602060002090601f0160209004810192826200051c576000855562000568565b82601f106200053757805160ff191683800117855562000568565b8280016001018555821562000568579182015b82811115620005675782518255916020019190600101906200054a565b5b5090506200057791906200057b565b5090565b5b80821115620005965760008160009055506001016200057c565b5090565b6000620005b1620005ab8462000893565b6200086a565b905082815260208101848484011115620005ca57600080fd5b620005d784828562000a22565b509392505050565b600081519050620005f08162000c35565b92915050565b600081519050620006078162000c4f565b92915050565b600082601f8301126200061f57600080fd5b8151620006318482602086016200059a565b91505092915050565b6000815190506200064b8162000c69565b92915050565b600080600080600080600080610100898b0312156200066f57600080fd5b60006200067f8b828c01620005f6565b9850506020620006928b828c01620005df565b9750506040620006a58b828c016200063a565b9650506060620006b88b828c016200063a565b955050608089015167ffffffffffffffff811115620006d657600080fd5b620006e48b828c016200060d565b94505060a089015167ffffffffffffffff8111156200070257600080fd5b620007108b828c016200060d565b93505060c0620007238b828c016200063a565b92505060e0620007368b828c01620005df565b9150509295985092959890939650565b600062000755601483620008c9565b9150620007628262000b91565b602082019050919050565b60006200077c601483620008c9565b9150620007898262000bba565b602082019050919050565b6000620007a3601b83620008c9565b9150620007b08262000be3565b602082019050919050565b6000620007ca601f83620008c9565b9150620007d78262000c0c565b602082019050919050565b60006020820190508181036000830152620007fd8162000746565b9050919050565b600060208201905081810360008301526200081f816200076d565b9050919050565b60006020820190508181036000830152620008418162000794565b9050919050565b600060208201905081810360008301526200086381620007bb565b9050919050565b60006200087662000889565b905062000884828262000a8e565b919050565b6000604051905090565b600067ffffffffffffffff821115620008b157620008b062000b51565b5b620008bc8262000b80565b9050602081019050919050565b600082825260208201905092915050565b6000620008e78262000a18565b9150620008f48362000a18565b9250827fffffffffffffffffffffffffffffffffffffffffffffffffffffffffffffffff038211156200092c576200092b62000ac4565b5b828201905092915050565b6000620009448262000a18565b9150620009518362000a18565b92508262000964576200096362000af3565b5b828204905092915050565b60006200097c8262000a18565b9150620009898362000a18565b9250817fffffffffffffffffffffffffffffffffffffffffffffffffffffffffffffffff0483118215151615620009c557620009c462000ac4565b5b828202905092915050565b6000620009dd82620009f8565b9050919050565b6000620009f182620009f8565b9050919050565b600073ffffffffffffffffffffffffffffffffffffffff82169050919050565b6000819050919050565b60005b8381101562000a4257808201518184015260208101905062000a25565b8381111562000a52576000848401525b50505050565b6000600282049050600182168062000a7157607f821691505b6020821081141562000a885762000a8762000b22565b5b50919050565b62000a998262000b80565b810181811067ffffffffffffffff8211171562000abb5762000aba62000b51565b5b80604052505050565b7f4e487b7100000000000000000000000000000000000000000000000000000000600052601160045260246000fd5b7f4e487b7100000000000000000000000000000000000000000000000000000000600052601260045260246000fd5b7f4e487b7100000000000000000000000000000000000000000000000000000000600052602260045260246000fd5b7f4e487b7100000000000000000000000000000000000000000000000000000000600052604160045260246000fd5b6000601f19601f8301169050919050565b7f64732d6d6174682d6d756c2d6f766572666c6f77000000000000000000000000600082015250565b7f64732d6d6174682d6164642d6f766572666c6f77000000000000000000000000600082015250565b7f62656e69666963696172792061646472657373206e6f74207365740000000000600082015250565b7f76616c7565206e6f742077697468696e20616c6c6f776564206c696d69747300600082015250565b62000c4081620009d0565b811462000c4c57600080fd5b50565b62000c5a81620009e4565b811462000c6657600080fd5b50565b62000c748162000a18565b811462000c8057600080fd5b50565b6144b38062000c936000396000f3fe608060405234801561001057600080fd5b50600436106102275760003560e01c80636a14602411610130578063a9059cbb116100b8578063bad4a01f1161007c578063bad4a01f14610624578063c98c05b714610640578063dd62ed3e1461065e578063f06b46581461068e578063f851a440146106aa57610227565b8063a9059cbb1461057e578063b2016bd4146105ae578063b4eae1cb146105cc578063b8eb5e4b146105ea578063b93e0cb51461060857610227565b80638e8cfbde116100ff5780638e8cfbde146104d85780639014de63146104f657806395d89b4114610514578063a140ae2314610532578063a457c2d71461054e57610227565b80636a14602414610450578063704b6c021461046e57806370a082311461048a5780637ff9b596146104ba57610227565b8063401ce372116101b35780635891de72116101825780635891de72146103d057806359825a4c146103ee5780636112fe2e146103f857806364494074146104145780636479a5661461043257610227565b8063401ce3721461035c57806348500ccf1461037857806350baa62214610396578063552033c4146103b257610227565b806323b872dd116101fa57806323b872dd146102b657806328a07025146102e657806329a150ba146102f0578063313ce5671461030e578063395093511461032c57610227565b806306fdde031461022c578063095ea7b31461024a5780631527262b1461027a57806318160ddd14610298575b600080fd5b6102346106c8565b6040516102419190613816565b60405180910390f35b610264600480360381019061025f91906131c2565b61075a565b60405161027191906137e0565b60405180910390f35b610282610771565b60405161028f91906136a4565b60405180910390f35b6102a0610797565b6040516102ad9190613b58565b60405180910390f35b6102d060048036038101906102cb9190613173565b6107a1565b6040516102dd91906137e0565b60405180910390f35b6102ee61084b565b005b6102f8610c25565b6040516103059190613b58565b60405180910390f35b610316610c2b565b6040516103239190613b9c565b60405180910390f35b610346600480360381019061034191906131c2565b610c42565b60405161035391906137e0565b60405180910390f35b61037660048036038101906103719190613227565b610ce0565b005b610380610e0a565b60405161038d9190613b58565b60405180910390f35b6103b060048036038101906103ab9190613227565b610e10565b005b6103ba611006565b6040516103c79190613b58565b60405180910390f35b6103d8611016565b6040516103e59190613b58565b60405180910390f35b6103f661109d565b005b610412600480360381019061040d9190613227565b611166565b005b61041c61142f565b6040516104299190613b58565b60405180910390f35b61043a611435565b6040516104479190613b58565b60405180910390f35b61045861143b565b6040516104659190613b58565b60405180910390f35b6104886004803603810190610483919061310e565b611447565b005b6104a4600480360381019061049f919061310e565b61151b565b6040516104b19190613b58565b60405180910390f35b6104c2611564565b6040516104cf9190613b58565b60405180910390f35b6104e0611587565b6040516104ed9190613b58565b60405180910390f35b6104fe61158d565b60405161050b9190613b58565b60405180910390f35b61051c611593565b6040516105299190613816565b60405180910390f35b61054c60048036038101906105479190613279565b611625565b005b610568600480360381019061056391906131c2565b611751565b60405161057591906137e0565b60405180910390f35b610598600480360381019061059391906131c2565b6117ef565b6040516105a591906137e0565b60405180910390f35b6105b6611806565b6040516105c391906137fb565b60405180910390f35b6105d461182c565b6040516105e19190613b58565b60405180910390f35b6105f26118ee565b6040516105ff9190613b58565b60405180910390f35b610622600480360381019061061d9190613227565b6118f4565b005b61063e60048036038101906106399190613227565b6119c5565b005b610648611b8b565b6040516106559190613b58565b60405180910390f35b61067860048036038101906106739190613137565b611c3d565b6040516106859190613b58565b60405180910390f35b6106a860048036038101906106a39190613227565b611cc4565b005b6106b2611e02565b6040516106bf91906136a4565b60405180910390f35b6060600480546106d790613d94565b80601f016020809104026020016040519081016040528092919081815260200182805461070390613d94565b80156107505780601f1061072557610100808354040283529160200191610750565b820191906000526020600020905b81548152906001019060200180831161073357829003601f168201915b5050505050905090565b6000610767338484611e28565b6001905092915050565b601060009054906101000a900473ffffffffffffffffffffffffffffffffffffffff1681565b6000600354905090565b60006107ae848484611ff3565b610840843384600260008973ffffffffffffffffffffffffffffffffffffffff1673ffffffffffffffffffffffffffffffffffffffff16815260200190815260200160002060003373ffffffffffffffffffffffffffffffffffffffff1673ffffffffffffffffffffffffffffffffffffffff1681526020019081526020016000205461083b9190613cb4565b611e28565b600190509392505050565b600b5461085661182c565b11610896576040517f08c379a000000000000000000000000000000000000000000000000000000000815260040161088d90613878565b60405180910390fd5b60006108a13361151b565b116108e1576040517f08c379a00000000000000000000000000000000000000000000000000000000081526004016108d890613918565b60405180910390fd5b600061099e600a60009054906101000a900473ffffffffffffffffffffffffffffffffffffffff1673ffffffffffffffffffffffffffffffffffffffff166370a08231306040518263ffffffff1660e01b815260040161094191906136a4565b60206040518083038186803b15801561095957600080fd5b505afa15801561096d573d6000803e3d6000fd5b505050506040513d601f19601f820116820180604052508101906109919190613250565b610999610797565b612259565b905060006109ab3361151b565b905060006109b98284612295565b905060006109c982600d54612295565b905060006109d783836122d9565b90507f158ba9ab7bbbd08eeffa4753bad41f4d450e24831d293427308badf3eadd8c7633858585604051610a0e949392919061379b565b60405180910390a1610a203385612332565b600a60009054906101000a900473ffffffffffffffffffffffffffffffffffffffff1673ffffffffffffffffffffffffffffffffffffffff1663a9059cbb33836040518363ffffffff1660e01b8152600401610a7d9291906136f6565b602060405180830381600087803b158015610a9757600080fd5b505af1158015610aab573d6000803e3d6000fd5b505050506040513d601f19601f82011682018060405250810190610acf91906131fe565b610b0e576040517f08c379a0000000000000000000000000000000000000000000000000000000008152600401610b0590613af8565b60405180910390fd5b600a60009054906101000a900473ffffffffffffffffffffffffffffffffffffffff1673ffffffffffffffffffffffffffffffffffffffff1663a9059cbb601060009054906101000a900473ffffffffffffffffffffffffffffffffffffffff16846040518363ffffffff1660e01b8152600401610b8d9291906136f6565b602060405180830381600087803b158015610ba757600080fd5b505af1158015610bbb573d6000803e3d6000fd5b505050506040513d601f19601f82011682018060405250810190610bdf91906131fe565b610c1e576040517f08c379a0000000000000000000000000000000000000000000000000000000008152600401610c15906139d8565b60405180910390fd5b5050505050565b600d5481565b6000600660009054906101000a900460ff16905090565b6000610cd6338484600260003373ffffffffffffffffffffffffffffffffffffffff1673ffffffffffffffffffffffffffffffffffffffff16815260200190815260200160002060008873ffffffffffffffffffffffffffffffffffffffff1673ffffffffffffffffffffffffffffffffffffffff16815260200190815260200160002054610cd19190613bd3565b611e28565b6001905092915050565b600660019054906101000a900473ffffffffffffffffffffffffffffffffffffffff1673ffffffffffffffffffffffffffffffffffffffff163373ffffffffffffffffffffffffffffffffffffffff1614610d70576040517f08c379a0000000000000000000000000000000000000000000000000000000008152600401610d6790613998565b60405180910390fd5b80600081118015610d89575068056bc75e2d6310000081105b610dc8576040517f08c379a0000000000000000000000000000000000000000000000000000000008152600401610dbf90613a78565b60405180910390fd5b81600b819055507f28e98951093a92e2a12cfccced98a5e14ff4a69f23c1137a90353ea343a879d582604051610dfe9190613b58565b60405180910390a15050565b60095481565b60008111610e53576040517f08c379a0000000000000000000000000000000000000000000000000000000008152600401610e4a90613ab8565b60405180910390fd5b80610e5d3361151b565b1015610e9e576040517f08c379a0000000000000000000000000000000000000000000000000000000008152600401610e9590613978565b60405180910390fd5b6000610ea8611016565b90506000610ebd610eb7611564565b83612259565b90506000610ecb8285612295565b90507f7575c9e41ba6d91ef21e39bd62b5b9df62fc9b0401379fdf9fe1fa372f41e7c1338583604051610f0093929190613764565b60405180910390a1610f123385612332565b600a60009054906101000a900473ffffffffffffffffffffffffffffffffffffffff1673ffffffffffffffffffffffffffffffffffffffff1663a9059cbb33836040518363ffffffff1660e01b8152600401610f6f9291906136f6565b602060405180830381600087803b158015610f8957600080fd5b505af1158015610f9d573d6000803e3d6000fd5b505050506040513d601f19601f82011682018060405250810190610fc191906131fe565b611000576040517f08c379a0000000000000000000000000000000000000000000000000000000008152600401610ff7906138f8565b60405180910390fd5b50505050565b6b033b2e3c9fd0803ce800000081565b6000806000611034600854600c544261102f9190613cb4565b6124ae565b509150915081611079576040517f08c379a0000000000000000000000000000000000000000000000000000000008152600401611070906139f8565b60405180910390fd5b61109681611091670de0b6b3a7640000600954612669565b6126b3565b9250505090565b6000600f54426110ad9190613cb4565b9050600081116110f2576040517f08c379a00000000000000000000000000000000000000000000000000000000081526004016110e9906139b8565b60405180910390fd5b42600f81905550611108600754600e5483612720565b600781905550600061113461112761111e610797565b600e548561273e565b61112f610797565b6122d9565b9050611162601060009054906101000a900473ffffffffffffffffffffffffffffffffffffffff168261275c565b5050565b600660019054906101000a900473ffffffffffffffffffffffffffffffffffffffff1673ffffffffffffffffffffffffffffffffffffffff163373ffffffffffffffffffffffffffffffffffffffff16146111f6576040517f08c379a00000000000000000000000000000000000000000000000000000000081526004016111ed90613998565b60405180910390fd5b60006112bc6112af600a60009054906101000a900473ffffffffffffffffffffffffffffffffffffffff1673ffffffffffffffffffffffffffffffffffffffff166370a08231306040518263ffffffff1660e01b815260040161125991906136a4565b60206040518083038186803b15801561127157600080fd5b505afa158015611285573d6000803e3d6000fd5b505050506040513d601f19601f820116820180604052508101906112a99190613250565b846122d9565b6112b7610797565b6128d8565b90507f627a692d5a03ab34732c0d2aa319f3ecdebdc4528f383eabcb25441dc0a70cfb3383836040516112f193929190613764565b60405180910390a1600b54811061133d576040517f08c379a000000000000000000000000000000000000000000000000000000000815260040161133490613898565b60405180910390fd5b600a60009054906101000a900473ffffffffffffffffffffffffffffffffffffffff1673ffffffffffffffffffffffffffffffffffffffff1663a9059cbb33846040518363ffffffff1660e01b815260040161139a9291906136f6565b602060405180830381600087803b1580156113b457600080fd5b505af11580156113c8573d6000803e3d6000fd5b505050506040513d601f19601f820116820180604052508101906113ec91906131fe565b61142b576040517f08c379a000000000000000000000000000000000000000000000000000000000815260040161142290613b18565b60405180910390fd5b5050565b600e5481565b600c5481565b670de0b6b3a764000081565b600660019054906101000a900473ffffffffffffffffffffffffffffffffffffffff1673ffffffffffffffffffffffffffffffffffffffff163373ffffffffffffffffffffffffffffffffffffffff16146114d7576040517f08c379a00000000000000000000000000000000000000000000000000000000081526004016114ce90613998565b60405180910390fd5b80600660016101000a81548173ffffffffffffffffffffffffffffffffffffffff021916908373ffffffffffffffffffffffffffffffffffffffff16021790555050565b6000600160008373ffffffffffffffffffffffffffffffffffffffff1673ffffffffffffffffffffffffffffffffffffffff168152602001908152602001600020549050919050565b6000611582600754600e54600f544261157d9190613cb4565b612720565b905090565b600b5481565b600f5481565b6060600580546115a290613d94565b80601f01602080910402602001604051908101604052809291908181526020018280546115ce90613d94565b801561161b5780601f106115f05761010080835404028352916020019161161b565b820191906000526020600020905b8154815290600101906020018083116115fe57829003601f168201915b5050505050905090565b600660019054906101000a900473ffffffffffffffffffffffffffffffffffffffff1673ffffffffffffffffffffffffffffffffffffffff163373ffffffffffffffffffffffffffffffffffffffff16146116b5576040517f08c379a00000000000000000000000000000000000000000000000000000000081526004016116ac90613998565b60405180910390fd5b6116bf818361275c565b60006116c961182c565b90507f8aa79244595326e02b94ff370fec2bf34048b114fa3566a1928de6961944b6c433848484604051611700949392919061371f565b60405180910390a1600b54811061174c576040517f08c379a000000000000000000000000000000000000000000000000000000000815260040161174390613898565b60405180910390fd5b505050565b60006117e5338484600260003373ffffffffffffffffffffffffffffffffffffffff1673ffffffffffffffffffffffffffffffffffffffff16815260200190815260200160002060008873ffffffffffffffffffffffffffffffffffffffff1673ffffffffffffffffffffffffffffffffffffffff168152602001908152602001600020546117e09190613cb4565b611e28565b6001905092915050565b60006117fc338484611ff3565b6001905092915050565b600a60009054906101000a900473ffffffffffffffffffffffffffffffffffffffff1681565b60006118e9600a60009054906101000a900473ffffffffffffffffffffffffffffffffffffffff1673ffffffffffffffffffffffffffffffffffffffff166370a08231306040518263ffffffff1660e01b815260040161188c91906136a4565b60206040518083038186803b1580156118a457600080fd5b505afa1580156118b8573d6000803e3d6000fd5b505050506040513d601f19601f820116820180604052508101906118dc9190613250565b6118e4610797565b6128d8565b905090565b60085481565b600660019054906101000a900473ffffffffffffffffffffffffffffffffffffffff1673ffffffffffffffffffffffffffffffffffffffff163373ffffffffffffffffffffffffffffffffffffffff1614611984576040517f08c379a000000000000000000000000000000000000000000000000000000000815260040161197b90613998565b60405180910390fd5b80600c819055507ff446a856a251d3949a294b9b5a1887d32750b34a18bb135814cfc300119ca84d816040516119ba9190613b58565b60405180910390a150565b600660019054906101000a900473ffffffffffffffffffffffffffffffffffffffff1673ffffffffffffffffffffffffffffffffffffffff163373ffffffffffffffffffffffffffffffffffffffff1614611a55576040517f08c379a0000000000000000000000000000000000000000000000000000000008152600401611a4c90613998565b60405180910390fd5b60008111611a98576040517f08c379a0000000000000000000000000000000000000000000000000000000008152600401611a8f90613a18565b60405180910390fd5b600a60009054906101000a900473ffffffffffffffffffffffffffffffffffffffff1673ffffffffffffffffffffffffffffffffffffffff166323b872dd3330846040518463ffffffff1660e01b8152600401611af7939291906136bf565b602060405180830381600087803b158015611b1157600080fd5b505af1158015611b25573d6000803e3d6000fd5b505050506040513d601f19601f82011682018060405250810190611b4991906131fe565b611b88576040517f08c379a0000000000000000000000000000000000000000000000000000000008152600401611b7f90613a38565b60405180910390fd5b50565b6000600a60009054906101000a900473ffffffffffffffffffffffffffffffffffffffff1673ffffffffffffffffffffffffffffffffffffffff166370a08231306040518263ffffffff1660e01b8152600401611be891906136a4565b60206040518083038186803b158015611c0057600080fd5b505afa158015611c14573d6000803e3d6000fd5b505050506040513d601f19601f82011682018060405250810190611c389190613250565b905090565b6000600260008473ffffffffffffffffffffffffffffffffffffffff1673ffffffffffffffffffffffffffffffffffffffff16815260200190815260200160002060008373ffffffffffffffffffffffffffffffffffffffff1673ffffffffffffffffffffffffffffffffffffffff16815260200190815260200160002054905092915050565b600660019054906101000a900473ffffffffffffffffffffffffffffffffffffffff1673ffffffffffffffffffffffffffffffffffffffff163373ffffffffffffffffffffffffffffffffffffffff1614611d54576040517f08c379a0000000000000000000000000000000000000000000000000000000008152600401611d4b90613998565b60405180910390fd5b80600081118015611d6d575068056bc75e2d6310000081105b611dac576040517f08c379a0000000000000000000000000000000000000000000000000000000008152600401611da390613a78565b60405180910390fd5b611dbf8268056bc75e2d63100000612259565b600d819055507fb410b9fb1c7ee253f64b4393c5fa78a4d64c9f4495828b8c9e62813a5c53528d600d54604051611df69190613b58565b60405180910390a15050565b600660019054906101000a900473ffffffffffffffffffffffffffffffffffffffff1681565b600073ffffffffffffffffffffffffffffffffffffffff168373ffffffffffffffffffffffffffffffffffffffff161415611e98576040517f08c379a0000000000000000000000000000000000000000000000000000000008152600401611e8f90613ad8565b60405180910390fd5b600073ffffffffffffffffffffffffffffffffffffffff168273ffffffffffffffffffffffffffffffffffffffff161415611f08576040517f08c379a0000000000000000000000000000000000000000000000000000000008152600401611eff906138b8565b60405180910390fd5b80600260008573ffffffffffffffffffffffffffffffffffffffff1673ffffffffffffffffffffffffffffffffffffffff16815260200190815260200160002060008473ffffffffffffffffffffffffffffffffffffffff1673ffffffffffffffffffffffffffffffffffffffff168152602001908152602001600020819055508173ffffffffffffffffffffffffffffffffffffffff168373ffffffffffffffffffffffffffffffffffffffff167f8c5be1e5ebec7d5bd14f71427d1e84f3dd0314c0f7b2291e5b200ac8c7c3b92583604051611fe69190613b58565b60405180910390a3505050565b600073ffffffffffffffffffffffffffffffffffffffff168373ffffffffffffffffffffffffffffffffffffffff161415612063576040517f08c379a000000000000000000000000000000000000000000000000000000000815260040161205a90613a98565b60405180910390fd5b600073ffffffffffffffffffffffffffffffffffffffff168273ffffffffffffffffffffffffffffffffffffffff1614156120d3576040517f08c379a00000000000000000000000000000000000000000000000000000000081526004016120ca90613858565b60405180910390fd5b80600160008573ffffffffffffffffffffffffffffffffffffffff1673ffffffffffffffffffffffffffffffffffffffff1681526020019081526020016000205461211e9190613cb4565b600160008573ffffffffffffffffffffffffffffffffffffffff1673ffffffffffffffffffffffffffffffffffffffff1681526020019081526020016000208190555080600160008473ffffffffffffffffffffffffffffffffffffffff1673ffffffffffffffffffffffffffffffffffffffff168152602001908152602001600020546121ac9190613bd3565b600160008473ffffffffffffffffffffffffffffffffffffffff1673ffffffffffffffffffffffffffffffffffffffff168152602001908152602001600020819055508173ffffffffffffffffffffffffffffffffffffffff168373ffffffffffffffffffffffffffffffffffffffff167fddf252ad1be2c89b69c2b068fc378daa952ba7f163c4a11628f55a4df523b3ef8360405161224c9190613b58565b60405180910390a3505050565b60008161228361227185670de0b6b3a76400006126b3565b60028561227e9190613c29565b6129a3565b61228d9190613c29565b905092915050565b6000670de0b6b3a76400006122c76122ad85856126b3565b6002670de0b6b3a76400006122c29190613c29565b6129a3565b6122d19190613c29565b905092915050565b60008282846122e89190613cb4565b915081111561232c576040517f08c379a000000000000000000000000000000000000000000000000000000000815260040161232390613838565b60405180910390fd5b92915050565b600073ffffffffffffffffffffffffffffffffffffffff168273ffffffffffffffffffffffffffffffffffffffff1614156123a2576040517f08c379a000000000000000000000000000000000000000000000000000000000815260040161239990613a58565b60405180910390fd5b80600160008473ffffffffffffffffffffffffffffffffffffffff1673ffffffffffffffffffffffffffffffffffffffff168152602001908152602001600020546123ed9190613cb4565b600160008473ffffffffffffffffffffffffffffffffffffffff1673ffffffffffffffffffffffffffffffffffffffff168152602001908152602001600020819055508060035461243e9190613cb4565b600381905550600073ffffffffffffffffffffffffffffffffffffffff168273ffffffffffffffffffffffffffffffffffffffff167fddf252ad1be2c89b69c2b068fc378daa952ba7f163c4a11628f55a4df523b3ef836040516124a29190613b58565b60405180910390a35050565b60008060008060006124c087876129fc565b91509150816124db5760008060009450945094505050612662565b60008060009054906101000a900473ffffffffffffffffffffffffffffffffffffffff1673ffffffffffffffffffffffffffffffffffffffff166377fbb66389846040518363ffffffff1660e01b8152600401612539929190613b73565b60206040518083038186803b15801561255157600080fd5b505afa158015612565573d6000803e3d6000fd5b505050506040513d601f19601f820116820180604052508101906125899190613250565b905060008054906101000a900473ffffffffffffffffffffffffffffffffffffffff1673ffffffffffffffffffffffffffffffffffffffff166393fa491589836040518363ffffffff1660e01b81526004016125e6929190613b73565b60206040518083038186803b1580156125fe57600080fd5b505afa158015612612573d6000803e3d6000fd5b505050506040513d601f19601f820116820180604052508101906126369190613250565b945060008511156126535760018582955095509550505050612662565b60008060009550955095505050505b9250925092565b60006126ab83836040518060400160405280601a81526020017f536166654d6174683a206469766973696f6e206279207a65726f000000000000815250612f40565b905092915050565b6000808214806126db5750828283856126cc9190613c5a565b9250826126d99190613c29565b145b61271a576040517f08c379a0000000000000000000000000000000000000000000000000000000008152600401612711906138d8565b60405180910390fd5b92915050565b6000612735846127308585612fa3565b61302e565b90509392505050565b60006127538461274e8585612fa3565b61306e565b90509392505050565b600073ffffffffffffffffffffffffffffffffffffffff168273ffffffffffffffffffffffffffffffffffffffff1614156127cc576040517f08c379a00000000000000000000000000000000000000000000000000000000081526004016127c390613b38565b60405180910390fd5b806003546127da9190613bd3565b60038190555080600160008473ffffffffffffffffffffffffffffffffffffffff1673ffffffffffffffffffffffffffffffffffffffff1681526020019081526020016000205461282b9190613bd3565b600160008473ffffffffffffffffffffffffffffffffffffffff1673ffffffffffffffffffffffffffffffffffffffff168152602001908152602001600020819055508173ffffffffffffffffffffffffffffffffffffffff16600073ffffffffffffffffffffffffffffffffffffffff167fddf252ad1be2c89b69c2b068fc378daa952ba7f163c4a11628f55a4df523b3ef836040516128cc9190613b58565b60405180910390a35050565b600080831161291c576040517f08c379a000000000000000000000000000000000000000000000000000000000815260040161291390613958565b60405180910390fd5b600082141561292e576000905061299d565b600061294161293b611016565b85612295565b90506000600f54426129539190613cb4565b9050600061296485600e548461273e565b90506000612979612973611564565b83612295565b9050612996670de0b6b3a76400006129918387612259565b6129a3565b9450505050505b92915050565b60008282846129b29190613bd3565b91508110156129f6576040517f08c379a00000000000000000000000000000000000000000000000000000000081526004016129ed90613938565b60405180910390fd5b92915050565b60008060008060009054906101000a900473ffffffffffffffffffffffffffffffffffffffff1673ffffffffffffffffffffffffffffffffffffffff166346eee1c4866040518263ffffffff1660e01b8152600401612a5b9190613b58565b60206040518083038186803b158015612a7357600080fd5b505afa158015612a87573d6000803e3d6000fd5b505050506040513d601f19601f82011682018060405250810190612aab9190613250565b90506000811115612f3057600080600090506000600184612acc9190613cb4565b905060008060009054906101000a900473ffffffffffffffffffffffffffffffffffffffff1673ffffffffffffffffffffffffffffffffffffffff166377fbb6638a856040518363ffffffff1660e01b8152600401612b2c929190613b73565b60206040518083038186803b158015612b4457600080fd5b505afa158015612b58573d6000803e3d6000fd5b505050506040513d601f19601f82011682018060405250810190612b7c9190613250565b9050878110612b9657600080965096505050505050612f39565b60008054906101000a900473ffffffffffffffffffffffffffffffffffffffff1673ffffffffffffffffffffffffffffffffffffffff166377fbb6638a846040518363ffffffff1660e01b8152600401612bf1929190613b73565b60206040518083038186803b158015612c0957600080fd5b505afa158015612c1d573d6000803e3d6000fd5b505050506040513d601f19601f82011682018060405250810190612c419190613250565b905087811015612c5c57600182965096505050505050612f39565b5b600115612f2b5782600160028585612c759190613cb4565b612c7f9190613c29565b612c899190613bd3565b612c939190613bd3565b935060008054906101000a900473ffffffffffffffffffffffffffffffffffffffff1673ffffffffffffffffffffffffffffffffffffffff166377fbb6638a866040518363ffffffff1660e01b8152600401612cf0929190613b73565b60206040518083038186803b158015612d0857600080fd5b505afa158015612d1c573d6000803e3d6000fd5b505050506040513d601f19601f82011682018060405250810190612d409190613250565b905087811015612e345760008060009054906101000a900473ffffffffffffffffffffffffffffffffffffffff1673ffffffffffffffffffffffffffffffffffffffff166377fbb6638b600188612d979190613bd3565b6040518363ffffffff1660e01b8152600401612db4929190613b73565b60206040518083038186803b158015612dcc57600080fd5b505afa158015612de0573d6000803e3d6000fd5b505050506040513d601f19601f82011682018060405250810190612e049190613250565b9050888110612e1f5760018597509750505050505050612f39565b600185612e2c9190613bd3565b935050612f26565b60008060009054906101000a900473ffffffffffffffffffffffffffffffffffffffff1673ffffffffffffffffffffffffffffffffffffffff166377fbb6638b600188612e819190613cb4565b6040518363ffffffff1660e01b8152600401612e9e929190613b73565b60206040518083038186803b158015612eb657600080fd5b505afa158015612eca573d6000803e3d6000fd5b505050506040513d601f19601f82011682018060405250810190612eee9190613250565b905088811015612f155760018086612f069190613cb4565b97509750505050505050612f39565b600185612f229190613cb4565b9250505b612c5d565b505050505b60008092509250505b9250929050565b60008083118290612f87576040517f08c379a0000000000000000000000000000000000000000000000000000000008152600401612f7e9190613816565b60405180910390fd5b5060008385612f969190613c29565b9050809150509392505050565b600080600283612fb39190613dc6565b1415612fcb576b033b2e3c9fd0803ce8000000612fcd565b825b9050600282612fdc9190613c29565b91505b6000821461302857612ff1838461306e565b925060006002836130029190613dc6565b1461301457613011818461306e565b90505b6002826130219190613c29565b9150612fdf565b92915050565b60008161305c61304a856b033b2e3c9fd0803ce80000006126b3565b6002856130579190613c29565b6129a3565b6130669190613c29565b905092915050565b60006b033b2e3c9fd0803ce80000006130a861308a85856126b3565b60026b033b2e3c9fd0803ce80000006130a39190613c29565b6129a3565b6130b29190613c29565b905092915050565b6000813590506130c981614438565b92915050565b6000815190506130de8161444f565b92915050565b6000813590506130f381614466565b92915050565b60008151905061310881614466565b92915050565b60006020828403121561312057600080fd5b600061312e848285016130ba565b91505092915050565b6000806040838503121561314a57600080fd5b6000613158858286016130ba565b9250506020613169858286016130ba565b9150509250929050565b60008060006060848603121561318857600080fd5b6000613196868287016130ba565b93505060206131a7868287016130ba565b92505060406131b8868287016130e4565b9150509250925092565b600080604083850312156131d557600080fd5b60006131e3858286016130ba565b92505060206131f4858286016130e4565b9150509250929050565b60006020828403121561321057600080fd5b600061321e848285016130cf565b91505092915050565b60006020828403121561323957600080fd5b6000613247848285016130e4565b91505092915050565b60006020828403121561326257600080fd5b6000613270848285016130f9565b91505092915050565b6000806040838503121561328c57600080fd5b600061329a858286016130e4565b92505060206132ab858286016130ba565b9150509250929050565b6132be81613ce8565b82525050565b6132cd81613cfa565b82525050565b6132dc81613d3d565b82525050565b60006132ed82613bb7565b6132f78185613bc2565b9350613307818560208601613d61565b61331081613e84565b840191505092915050565b6000613328601583613bc2565b915061333382613e95565b602082019050919050565b600061334b602383613bc2565b915061335682613ebe565b604082019050919050565b600061336e602983613bc2565b915061337982613f0d565b604082019050919050565b6000613391602a83613bc2565b915061339c82613f5c565b604082019050919050565b60006133b4602283613bc2565b91506133bf82613fab565b604082019050919050565b60006133d7601483613bc2565b91506133e282613ffa565b602082019050919050565b60006133fa601883613bc2565b915061340582614023565b602082019050919050565b600061341d602183613bc2565b91506134288261404c565b604082019050919050565b6000613440601483613bc2565b915061344b8261409b565b602082019050919050565b6000613463601f83613bc2565b915061346e826140c4565b602082019050919050565b6000613486601283613bc2565b9150613491826140ed565b602082019050919050565b60006134a9600c83613bc2565b91506134b482614116565b602082019050919050565b60006134cc601983613bc2565b91506134d78261413f565b602082019050919050565b60006134ef602d83613bc2565b91506134fa82614168565b604082019050919050565b6000613512601483613bc2565b915061351d826141b7565b602082019050919050565b6000613535601083613bc2565b9150613540826141e0565b602082019050919050565b6000613558602283613bc2565b915061356382614209565b604082019050919050565b600061357b602183613bc2565b915061358682614258565b604082019050919050565b600061359e601f83613bc2565b91506135a9826142a7565b602082019050919050565b60006135c1602583613bc2565b91506135cc826142d0565b604082019050919050565b60006135e4601f83613bc2565b91506135ef8261431f565b602082019050919050565b6000613607602483613bc2565b915061361282614348565b604082019050919050565b600061362a602583613bc2565b915061363582614397565b604082019050919050565b600061364d601983613bc2565b9150613658826143e6565b602082019050919050565b6000613670601f83613bc2565b915061367b8261440f565b602082019050919050565b61368f81613d26565b82525050565b61369e81613d30565b82525050565b60006020820190506136b960008301846132b5565b92915050565b60006060820190506136d460008301866132b5565b6136e160208301856132b5565b6136ee6040830184613686565b949350505050565b600060408201905061370b60008301856132b5565b6137186020830184613686565b9392505050565b600060808201905061373460008301876132b5565b6137416020830186613686565b61374e60408301856132b5565b61375b6060830184613686565b95945050505050565b600060608201905061377960008301866132b5565b6137866020830185613686565b6137936040830184613686565b949350505050565b60006080820190506137b060008301876132b5565b6137bd6020830186613686565b6137ca6040830185613686565b6137d76060830184613686565b95945050505050565b60006020820190506137f560008301846132c4565b92915050565b600060208201905061381060008301846132d3565b92915050565b6000602082019050818103600083015261383081846132e2565b905092915050565b600060208201905081810360008301526138518161331b565b9050919050565b600060208201905081810360008301526138718161333e565b9050919050565b6000602082019050818103600083015261389181613361565b9050919050565b600060208201905081810360008301526138b181613384565b9050919050565b600060208201905081810360008301526138d1816133a7565b9050919050565b600060208201905081810360008301526138f1816133ca565b9050919050565b60006020820190508181036000830152613911816133ed565b9050919050565b6000602082019050818103600083015261393181613410565b9050919050565b6000602082019050818103600083015261395181613433565b9050919050565b6000602082019050818103600083015261397181613456565b9050919050565b6000602082019050818103600083015261399181613479565b9050919050565b600060208201905081810360008301526139b18161349c565b9050919050565b600060208201905081810360008301526139d1816134bf565b9050919050565b600060208201905081810360008301526139f1816134e2565b9050919050565b60006020820190508181036000830152613a1181613505565b9050919050565b60006020820190508181036000830152613a3181613528565b9050919050565b60006020820190508181036000830152613a518161354b565b9050919050565b60006020820190508181036000830152613a718161356e565b9050919050565b60006020820190508181036000830152613a9181613591565b9050919050565b60006020820190508181036000830152613ab1816135b4565b9050919050565b60006020820190508181036000830152613ad1816135d7565b9050919050565b60006020820190508181036000830152613af1816135fa565b9050919050565b60006020820190508181036000830152613b118161361d565b9050919050565b60006020820190508181036000830152613b3181613640565b9050919050565b60006020820190508181036000830152613b5181613663565b9050919050565b6000602082019050613b6d6000830184613686565b92915050565b6000604082019050613b886000830185613686565b613b956020830184613686565b9392505050565b6000602082019050613bb16000830184613695565b92915050565b600081519050919050565b600082825260208201905092915050565b6000613bde82613d26565b9150613be983613d26565b9250827fffffffffffffffffffffffffffffffffffffffffffffffffffffffffffffffff03821115613c1e57613c1d613df7565b5b828201905092915050565b6000613c3482613d26565b9150613c3f83613d26565b925082613c4f57613c4e613e26565b5b828204905092915050565b6000613c6582613d26565b9150613c7083613d26565b9250817fffffffffffffffffffffffffffffffffffffffffffffffffffffffffffffffff0483118215151615613ca957613ca8613df7565b5b828202905092915050565b6000613cbf82613d26565b9150613cca83613d26565b925082821015613cdd57613cdc613df7565b5b828203905092915050565b6000613cf382613d06565b9050919050565b60008115159050919050565b600073ffffffffffffffffffffffffffffffffffffffff82169050919050565b6000819050919050565b600060ff82169050919050565b6000613d4882613d4f565b9050919050565b6000613d5a82613d06565b9050919050565b60005b83811015613d7f578082015181840152602081019050613d64565b83811115613d8e576000848401525b50505050565b60006002820490506001821680613dac57607f821691505b60208210811415613dc057613dbf613e55565b5b50919050565b6000613dd182613d26565b9150613ddc83613d26565b925082613dec57613deb613e26565b5b828206905092915050565b7f4e487b7100000000000000000000000000000000000000000000000000000000600052601160045260246000fd5b7f4e487b7100000000000000000000000000000000000000000000000000000000600052601260045260246000fd5b7f4e487b7100000000000000000000000000000000000000000000000000000000600052602260045260246000fd5b6000601f19601f8301169050919050565b7f64732d6d6174682d7375622d756e646572666c6f770000000000000000000000600082015250565b7f45524332303a207472616e7366657220746f20746865207a65726f206164647260008201527f6573730000000000000000000000000000000000000000000000000000000000602082015250565b7f636f6c6c61746572616c207574696c697a61746f696e2069732062656c6f772060008201527f7468726573686f6c640000000000000000000000000000000000000000000000602082015250565b7f636f6c6c61746572616c207574696c697a6174696f6e2061626f76652074686560008201527f207468726573686f6c6400000000000000000000000000000000000000000000602082015250565b7f45524332303a20617070726f766520746f20746865207a65726f20616464726560008201527f7373000000000000000000000000000000000000000000000000000000000000602082015250565b7f64732d6d6174682d6d756c2d6f766572666c6f77000000000000000000000000600082015250565b7f636f6c6c61746572616c207472616e73666572206661696c0000000000000000600082015250565b7f6d73672073656e64657220646f65736e2774206f776e20616e7920746f6b656e60008201527f7300000000000000000000000000000000000000000000000000000000000000602082015250565b7f64732d6d6174682d6164642d6f766572666c6f77000000000000000000000000600082015250565b7f636f6c6c61746572616c20746f74616c20737570706c79206973207a65726f00600082015250565b7f6e6f7420656e6f7567682062616c616e63650000000000000000000000000000600082015250565b7f6e6f7420616e2061646d696e0000000000000000000000000000000000000000600082015250565b7f6e6f20696e666c6174696f6e20696e6372656173652079657400000000000000600082015250565b7f636f6c6c61746572616c206c69717569646174696f6e2070656e616c7479207460008201527f72616e73666572206661696c7300000000000000000000000000000000000000602082015250565b7f67657474696e67206f7261636c65207072696365000000000000000000000000600082015250565b7f6465706f73697420616d6f756e74203000000000000000000000000000000000600082015250565b7f6661696c656420636f6c6c61746572616c206465706f736974207472616e736660008201527f6572000000000000000000000000000000000000000000000000000000000000602082015250565b7f45524332303a206275726e2066726f6d20746865207a65726f2061646472657360008201527f7300000000000000000000000000000000000000000000000000000000000000602082015250565b7f76616c7565206e6f742077697468696e20616c6c6f776564206c696d69747300600082015250565b7f45524332303a207472616e736665722066726f6d20746865207a65726f20616460008201527f6472657373000000000000000000000000000000000000000000000000000000602082015250565b7f616d6f756e742073686f756c642062652067726561746572207468616e203000600082015250565b7f45524332303a20617070726f76652066726f6d20746865207a65726f2061646460008201527f7265737300000000000000000000000000000000000000000000000000000000602082015250565b7f636f6c6c61746572616c206c69717569646174696f6e207472616e736665722060008201527f6661696c73000000000000000000000000000000000000000000000000000000602082015250565b7f636f6c6c61746572616c207472616e73666572206661696c7300000000000000600082015250565b7f45524332303a206d696e7420746f20746865207a65726f206164647265737300600082015250565b61444181613ce8565b811461444c57600080fd5b50565b61445881613cfa565b811461446357600080fd5b50565b61446f81613d26565b811461447a57600080fd5b5056fea2646970667358221220798c0a524c133e213943c5996100e5c041dc319f356b91c5a630548d3358167864736f6c63430008030033",
  "devdoc": {
    "author": "Tellor Inc.",
    "details": "Chorus is a structure for issuing semi-stablecoins as community currencies*",
    "kind": "dev",
    "methods": {
      "allowance(address,address)": {
        "details": "See {IERC20-allowance}."
      },
      "approve(address,uint256)": {
        "details": "See {IERC20-approve}. Requirements: - `spender` cannot be the zero address."
      },
      "balanceOf(address)": {
        "details": "See {IERC20-balanceOf}."
      },
      "decimals()": {
        "details": "Returns the number of decimals used to get its user representation. For example, if `decimals` equals `2`, a balance of `505` tokens should be displayed to a user as `5,05` (`505 / 10 ** 2`). Tokens usually opt for a value of 18, imitating the relationship between Ether and Wei. This is the value {ERC20} uses, unless {_setupDecimals} is called. NOTE: This information is only used for _display_ purposes: it in no way affects any of the arithmetic of the contract, including {IERC20-balanceOf} and {IERC20-transfer}."
      },
      "decreaseAllowance(address,uint256)": {
        "details": "Atomically decreases the allowance granted to `spender` by the caller. This is an alternative to {approve} that can be used as a mitigation for problems described in {IERC20-approve}. Emits an {Approval} event indicating the updated allowance. Requirements: - `spender` cannot be the zero address. - `spender` must have allowance for the caller of at least `subtractedValue`."
      },
      "increaseAllowance(address,uint256)": {
        "details": "Atomically increases the allowance granted to `spender` by the caller. This is an alternative to {approve} that can be used as a mitigation for problems described in {IERC20-approve}. Emits an {Approval} event indicating the updated allowance. Requirements: - `spender` cannot be the zero address."
      },
      "name()": {
        "details": "Returns the name of the token."
      },
      "symbol()": {
        "details": "Returns the symbol of the token, usually a shorter version of the name."
      },
      "totalSupply()": {
        "details": "See {IERC20-totalSupply}."
      },
      "transfer(address,uint256)": {
        "details": "See {IERC20-transfer}. Requirements: - `recipient` cannot be the zero address. - the caller must have a balance of at least `amount`."
      },
      "transferFrom(address,address,uint256)": {
        "details": "See {IERC20-transferFrom}. Emits an {Approval} event indicating the updated allowance. This is not required by the EIP. See the note at the beginning of {ERC20}. Requirements: - `sender` and `recipient` cannot be the zero address. - `sender` must have a balance of at least `amount`. - the caller must have allowance for ``sender``'s tokens of at least `amount`."
      }
    },
    "title": "Chorus",
    "version": 1
  },
  "userdoc": {
    "kind": "user",
    "methods": {},
    "version": 1
  },
  "storageLayout": {
    "storage": [
      {
        "astId": 1688,
        "contract": "contracts/Chorus.sol:Chorus",
        "label": "tellor",
        "offset": 0,
        "slot": "0",
        "type": "t_contract(ITellor)2748"
      },
      {
        "astId": 750,
        "contract": "contracts/Chorus.sol:Chorus",
        "label": "_balances",
        "offset": 0,
        "slot": "1",
        "type": "t_mapping(t_address,t_uint256)"
      },
      {
        "astId": 756,
        "contract": "contracts/Chorus.sol:Chorus",
        "label": "_allowances",
        "offset": 0,
        "slot": "2",
        "type": "t_mapping(t_address,t_mapping(t_address,t_uint256))"
      },
      {
        "astId": 758,
        "contract": "contracts/Chorus.sol:Chorus",
        "label": "_totalSupply",
        "offset": 0,
        "slot": "3",
        "type": "t_uint256"
      },
      {
        "astId": 760,
        "contract": "contracts/Chorus.sol:Chorus",
        "label": "_name",
        "offset": 0,
        "slot": "4",
        "type": "t_string_storage"
      },
      {
        "astId": 762,
        "contract": "contracts/Chorus.sol:Chorus",
        "label": "_symbol",
        "offset": 0,
        "slot": "5",
        "type": "t_string_storage"
      },
      {
        "astId": 764,
        "contract": "contracts/Chorus.sol:Chorus",
        "label": "_decimals",
        "offset": 0,
        "slot": "6",
        "type": "t_uint8"
      },
      {
        "astId": 64,
        "contract": "contracts/Chorus.sol:Chorus",
        "label": "admin",
        "offset": 1,
        "slot": "6",
        "type": "t_address"
      },
      {
        "astId": 67,
        "contract": "contracts/Chorus.sol:Chorus",
        "label": "tknPrice",
        "offset": 0,
        "slot": "7",
        "type": "t_uint256"
      },
      {
        "astId": 69,
        "contract": "contracts/Chorus.sol:Chorus",
        "label": "collateralID",
        "offset": 0,
        "slot": "8",
        "type": "t_uint256"
      },
      {
        "astId": 71,
        "contract": "contracts/Chorus.sol:Chorus",
        "label": "collateralPriceGranularity",
        "offset": 0,
        "slot": "9",
        "type": "t_uint256"
      },
      {
        "astId": 74,
        "contract": "contracts/Chorus.sol:Chorus",
        "label": "collateralToken",
        "offset": 0,
        "slot": "10",
        "type": "t_contract(ERC20)1188"
      },
      {
        "astId": 77,
        "contract": "contracts/Chorus.sol:Chorus",
        "label": "collateralThreshold",
        "offset": 0,
        "slot": "11",
        "type": "t_uint256"
      },
      {
        "astId": 80,
        "contract": "contracts/Chorus.sol:Chorus",
        "label": "collateralPriceAge",
        "offset": 0,
        "slot": "12",
        "type": "t_uint256"
      },
      {
        "astId": 83,
        "contract": "contracts/Chorus.sol:Chorus",
        "label": "liquidationPenatly",
        "offset": 0,
        "slot": "13",
        "type": "t_uint256"
      },
      {
        "astId": 85,
        "contract": "contracts/Chorus.sol:Chorus",
        "label": "inflRatePerSec",
        "offset": 0,
        "slot": "14",
        "type": "t_uint256"
      },
      {
        "astId": 89,
        "contract": "contracts/Chorus.sol:Chorus",
        "label": "inflLastUpdate",
        "offset": 0,
        "slot": "15",
        "type": "t_uint256"
      },
      {
        "astId": 91,
        "contract": "contracts/Chorus.sol:Chorus",
        "label": "inflBeneficiary",
        "offset": 0,
        "slot": "16",
        "type": "t_address"
      }
    ],
    "types": {
      "t_address": {
        "encoding": "inplace",
        "label": "address",
        "numberOfBytes": "20"
      },
      "t_contract(ERC20)1188": {
        "encoding": "inplace",
        "label": "contract ERC20",
        "numberOfBytes": "20"
      },
      "t_contract(ITellor)2748": {
        "encoding": "inplace",
        "label": "contract ITellor",
        "numberOfBytes": "20"
      },
      "t_mapping(t_address,t_mapping(t_address,t_uint256))": {
        "encoding": "mapping",
        "key": "t_address",
        "label": "mapping(address => mapping(address => uint256))",
        "numberOfBytes": "32",
        "value": "t_mapping(t_address,t_uint256)"
      },
      "t_mapping(t_address,t_uint256)": {
        "encoding": "mapping",
        "key": "t_address",
        "label": "mapping(address => uint256)",
        "numberOfBytes": "32",
        "value": "t_uint256"
      },
      "t_string_storage": {
        "encoding": "bytes",
        "label": "string",
        "numberOfBytes": "32"
      },
      "t_uint256": {
        "encoding": "inplace",
        "label": "uint256",
        "numberOfBytes": "32"
      },
      "t_uint8": {
        "encoding": "inplace",
        "label": "uint8",
        "numberOfBytes": "1"
      }
    }
  }
}