{
  "address": "0x9fE46736679d2D9a65F0992F2272dE9f3c7fa6e0",
  "abi": [
    {
      "inputs": [
        {
          "internalType": "address payable",
          "name": "_tellorAddress",
          "type": "address"
        },
        {
          "internalType": "address",
          "name": "_collateralToken",
          "type": "address"
        },
        {
          "internalType": "uint256",
          "name": "_collateralID",
          "type": "uint256"
        },
        {
          "internalType": "uint256",
          "name": "_collateralPriceGranularity",
          "type": "uint256"
        },
        {
          "internalType": "string",
          "name": "_tokenName",
          "type": "string"
        },
        {
          "internalType": "string",
          "name": "_tokenSymbol",
          "type": "string"
        },
        {
          "internalType": "uint256",
          "name": "_inflRatePerYear",
          "type": "uint256"
        },
        {
          "internalType": "address",
          "name": "_inflBeneficiary",
          "type": "address"
        }
      ],
      "stateMutability": "nonpayable",
      "type": "constructor"
    },
    {
      "anonymous": false,
      "inputs": [
        {
          "indexed": true,
          "internalType": "address",
          "name": "owner",
          "type": "address"
        },
        {
          "indexed": true,
          "internalType": "address",
          "name": "spender",
          "type": "address"
        },
        {
          "indexed": false,
          "internalType": "uint256",
          "name": "value",
          "type": "uint256"
        }
      ],
      "name": "Approval",
      "type": "event"
    },
    {
      "anonymous": false,
      "inputs": [
        {
          "indexed": false,
          "internalType": "uint256",
          "name": "",
          "type": "uint256"
        }
      ],
      "name": "CollateralPriceAge",
      "type": "event"
    },
    {
      "anonymous": false,
      "inputs": [
        {
          "indexed": false,
          "internalType": "uint256",
          "name": "",
          "type": "uint256"
        }
      ],
      "name": "CollateralThreshold",
      "type": "event"
    },
    {
      "anonymous": false,
      "inputs": [
        {
          "indexed": false,
          "internalType": "address",
          "name": "",
          "type": "address"
        },
        {
          "indexed": false,
          "internalType": "uint256",
          "name": "tokensAmnt",
          "type": "uint256"
        },
        {
          "indexed": false,
          "internalType": "uint256",
          "name": "collateralAmnt",
          "type": "uint256"
        },
        {
          "indexed": false,
          "internalType": "uint256",
          "name": "collateralPenalty",
          "type": "uint256"
        }
      ],
      "name": "Liquidate",
      "type": "event"
    },
    {
      "anonymous": false,
      "inputs": [
        {
          "indexed": false,
          "internalType": "uint256",
          "name": "",
          "type": "uint256"
        }
      ],
      "name": "LiquidationPenatly",
      "type": "event"
    },
    {
      "anonymous": false,
      "inputs": [
        {
          "indexed": false,
          "internalType": "address",
          "name": "",
          "type": "address"
        },
        {
          "indexed": false,
          "internalType": "uint256",
          "name": "amount",
          "type": "uint256"
        },
        {
          "indexed": false,
          "internalType": "address",
          "name": "to",
          "type": "address"
        },
        {
          "indexed": false,
          "internalType": "uint256",
          "name": "collateralRatio",
          "type": "uint256"
        }
      ],
      "name": "MintTokens",
      "type": "event"
    },
    {
      "anonymous": false,
      "inputs": [
        {
          "indexed": true,
          "internalType": "address",
          "name": "from",
          "type": "address"
        },
        {
          "indexed": true,
          "internalType": "address",
          "name": "to",
          "type": "address"
        },
        {
          "indexed": false,
          "internalType": "uint256",
          "name": "value",
          "type": "uint256"
        }
      ],
      "name": "Transfer",
      "type": "event"
    },
    {
      "anonymous": false,
      "inputs": [
        {
          "indexed": false,
          "internalType": "address",
          "name": "",
          "type": "address"
        },
        {
          "indexed": false,
          "internalType": "uint256",
          "name": "collateralAmnt",
          "type": "uint256"
        },
        {
          "indexed": false,
          "internalType": "uint256",
          "name": "collateralRatio",
          "type": "uint256"
        }
      ],
      "name": "WithdrawCollateral",
      "type": "event"
    },
    {
      "anonymous": false,
      "inputs": [
        {
          "indexed": false,
          "internalType": "address",
          "name": "",
          "type": "address"
        },
        {
          "indexed": false,
          "internalType": "uint256",
          "name": "tokenAmnt",
          "type": "uint256"
        },
        {
          "indexed": false,
          "internalType": "uint256",
          "name": "collateralAmnt",
          "type": "uint256"
        }
      ],
      "name": "WithdrawToken",
      "type": "event"
    },
    {
      "inputs": [],
      "name": "RAY",
      "outputs": [
        {
          "internalType": "uint256",
          "name": "",
          "type": "uint256"
        }
      ],
      "stateMutability": "view",
      "type": "function"
    },
    {
      "inputs": [],
      "name": "WAD",
      "outputs": [
        {
          "internalType": "uint256",
          "name": "",
          "type": "uint256"
        }
      ],
      "stateMutability": "view",
      "type": "function"
    },
    {
      "inputs": [],
      "name": "admin",
      "outputs": [
        {
          "internalType": "address",
          "name": "",
          "type": "address"
        }
      ],
      "stateMutability": "view",
      "type": "function"
    },
    {
      "inputs": [
        {
          "internalType": "address",
          "name": "owner",
          "type": "address"
        },
        {
          "internalType": "address",
          "name": "spender",
          "type": "address"
        }
      ],
      "name": "allowance",
      "outputs": [
        {
          "internalType": "uint256",
          "name": "",
          "type": "uint256"
        }
      ],
      "stateMutability": "view",
      "type": "function"
    },
    {
      "inputs": [
        {
          "internalType": "address",
          "name": "spender",
          "type": "address"
        },
        {
          "internalType": "uint256",
          "name": "amount",
          "type": "uint256"
        }
      ],
      "name": "approve",
      "outputs": [
        {
          "internalType": "bool",
          "name": "",
          "type": "bool"
        }
      ],
      "stateMutability": "nonpayable",
      "type": "function"
    },
    {
      "inputs": [
        {
          "internalType": "address",
          "name": "account",
          "type": "address"
        }
      ],
      "name": "balanceOf",
      "outputs": [
        {
          "internalType": "uint256",
          "name": "",
          "type": "uint256"
        }
      ],
      "stateMutability": "view",
      "type": "function"
    },
    {
      "inputs": [],
      "name": "collateralBalance",
      "outputs": [
        {
          "internalType": "uint256",
          "name": "",
          "type": "uint256"
        }
      ],
      "stateMutability": "view",
      "type": "function"
    },
    {
      "inputs": [],
      "name": "collateralID",
      "outputs": [
        {
          "internalType": "uint256",
          "name": "",
          "type": "uint256"
        }
      ],
      "stateMutability": "view",
      "type": "function"
    },
    {
      "inputs": [],
      "name": "collateralPrice",
      "outputs": [
        {
          "internalType": "uint256",
          "name": "",
          "type": "uint256"
        }
      ],
      "stateMutability": "view",
      "type": "function"
    },
    {
      "inputs": [],
      "name": "collateralPriceAge",
      "outputs": [
        {
          "internalType": "uint256",
          "name": "",
          "type": "uint256"
        }
      ],
      "stateMutability": "view",
      "type": "function"
    },
    {
      "inputs": [],
      "name": "collateralPriceGranularity",
      "outputs": [
        {
          "internalType": "uint256",
          "name": "",
          "type": "uint256"
        }
      ],
      "stateMutability": "view",
      "type": "function"
    },
    {
      "inputs": [],
      "name": "collateralRatio",
      "outputs": [
        {
          "internalType": "uint256",
          "name": "",
          "type": "uint256"
        }
      ],
      "stateMutability": "view",
      "type": "function"
    },
    {
      "inputs": [],
      "name": "collateralThreshold",
      "outputs": [
        {
          "internalType": "uint256",
          "name": "",
          "type": "uint256"
        }
      ],
      "stateMutability": "view",
      "type": "function"
    },
    {
      "inputs": [],
      "name": "collateralToken",
      "outputs": [
        {
          "internalType": "contract ERC20",
          "name": "",
          "type": "address"
        }
      ],
      "stateMutability": "view",
      "type": "function"
    },
    {
      "inputs": [],
      "name": "decimals",
      "outputs": [
        {
          "internalType": "uint8",
          "name": "",
          "type": "uint8"
        }
      ],
      "stateMutability": "view",
      "type": "function"
    },
    {
      "inputs": [
        {
          "internalType": "address",
          "name": "spender",
          "type": "address"
        },
        {
          "internalType": "uint256",
          "name": "subtractedValue",
          "type": "uint256"
        }
      ],
      "name": "decreaseAllowance",
      "outputs": [
        {
          "internalType": "bool",
          "name": "",
          "type": "bool"
        }
      ],
      "stateMutability": "nonpayable",
      "type": "function"
    },
    {
      "inputs": [
        {
          "internalType": "uint256",
          "name": "wad",
          "type": "uint256"
        }
      ],
      "name": "depositCollateral",
      "outputs": [],
      "stateMutability": "nonpayable",
      "type": "function"
    },
    {
      "inputs": [
        {
          "internalType": "address",
          "name": "spender",
          "type": "address"
        },
        {
          "internalType": "uint256",
          "name": "addedValue",
          "type": "uint256"
        }
      ],
      "name": "increaseAllowance",
      "outputs": [
        {
          "internalType": "bool",
          "name": "",
          "type": "bool"
        }
      ],
      "stateMutability": "nonpayable",
      "type": "function"
    },
    {
      "inputs": [],
      "name": "inflBeneficiary",
      "outputs": [
        {
          "internalType": "address",
          "name": "",
          "type": "address"
        }
      ],
      "stateMutability": "view",
      "type": "function"
    },
    {
      "inputs": [],
      "name": "inflLastUpdate",
      "outputs": [
        {
          "internalType": "uint256",
          "name": "",
          "type": "uint256"
        }
      ],
      "stateMutability": "view",
      "type": "function"
    },
    {
      "inputs": [],
      "name": "inflRatePerSec",
      "outputs": [
        {
          "internalType": "uint256",
          "name": "",
          "type": "uint256"
        }
      ],
      "stateMutability": "view",
      "type": "function"
    },
    {
      "inputs": [],
      "name": "liquidate",
      "outputs": [],
      "stateMutability": "nonpayable",
      "type": "function"
    },
    {
      "inputs": [],
      "name": "liquidationPenatly",
      "outputs": [
        {
          "internalType": "uint256",
          "name": "",
          "type": "uint256"
        }
      ],
      "stateMutability": "view",
      "type": "function"
    },
    {
      "inputs": [
        {
          "internalType": "uint256",
          "name": "amount",
          "type": "uint256"
        },
        {
          "internalType": "address",
          "name": "to",
          "type": "address"
        }
      ],
      "name": "mintToken",
      "outputs": [],
      "stateMutability": "nonpayable",
      "type": "function"
    },
    {
      "inputs": [],
      "name": "name",
      "outputs": [
        {
          "internalType": "string",
          "name": "",
          "type": "string"
        }
      ],
      "stateMutability": "view",
      "type": "function"
    },
    {
      "inputs": [
        {
          "internalType": "uint256",
          "name": "wad",
          "type": "uint256"
        }
      ],
      "name": "setCollateralPriceAge",
      "outputs": [],
      "stateMutability": "nonpayable",
      "type": "function"
    },
    {
      "inputs": [
        {
          "internalType": "uint256",
          "name": "wad",
          "type": "uint256"
        }
      ],
      "name": "setCollateralThreshold",
      "outputs": [],
      "stateMutability": "nonpayable",
      "type": "function"
    },
    {
      "inputs": [
        {
          "internalType": "uint256",
          "name": "wad",
          "type": "uint256"
        }
      ],
      "name": "setLiquidationPenatly",
      "outputs": [],
      "stateMutability": "nonpayable",
      "type": "function"
    },
    {
      "inputs": [],
      "name": "symbol",
      "outputs": [
        {
          "internalType": "string",
          "name": "",
          "type": "string"
        }
      ],
      "stateMutability": "view",
      "type": "function"
    },
    {
      "inputs": [],
      "name": "tokenPrice",
      "outputs": [
        {
          "internalType": "uint256",
          "name": "",
          "type": "uint256"
        }
      ],
      "stateMutability": "view",
      "type": "function"
    },
    {
      "inputs": [],
      "name": "totalSupply",
      "outputs": [
        {
          "internalType": "uint256",
          "name": "",
          "type": "uint256"
        }
      ],
      "stateMutability": "view",
      "type": "function"
    },
    {
      "inputs": [
        {
          "internalType": "address",
          "name": "recipient",
          "type": "address"
        },
        {
          "internalType": "uint256",
          "name": "amount",
          "type": "uint256"
        }
      ],
      "name": "transfer",
      "outputs": [
        {
          "internalType": "bool",
          "name": "",
          "type": "bool"
        }
      ],
      "stateMutability": "nonpayable",
      "type": "function"
    },
    {
      "inputs": [
        {
          "internalType": "address",
          "name": "sender",
          "type": "address"
        },
        {
          "internalType": "address",
          "name": "recipient",
          "type": "address"
        },
        {
          "internalType": "uint256",
          "name": "amount",
          "type": "uint256"
        }
      ],
      "name": "transferFrom",
      "outputs": [
        {
          "internalType": "bool",
          "name": "",
          "type": "bool"
        }
      ],
      "stateMutability": "nonpayable",
      "type": "function"
    },
    {
      "inputs": [],
      "name": "updateInflation",
      "outputs": [],
      "stateMutability": "nonpayable",
      "type": "function"
    },
    {
      "inputs": [
        {
          "internalType": "uint256",
          "name": "wad",
          "type": "uint256"
        }
      ],
      "name": "withdrawCollateral",
      "outputs": [],
      "stateMutability": "nonpayable",
      "type": "function"
    },
    {
      "inputs": [
        {
          "internalType": "uint256",
          "name": "amount",
          "type": "uint256"
        }
      ],
      "name": "withdrawToken",
      "outputs": [],
      "stateMutability": "nonpayable",
      "type": "function"
    }
  ],
  "transactionHash": "0x069361b6e69b90aebb24dd9b2c0a008968af0f3c79c9b34b94c676742b4a1f65",
  "args": [
    "0x5FbDB2315678afecb367f032d93F642f64180aa3",
    "0xe7f1725E7734CE288F8367e1Bb143E90bb3F0512",
    1,
    1000000,
    "Note",
    "NTO",
    "105170917901244400",
    "0x9965507D1a55bcC2695C58ba16FB37d819B0A4dc"
  ],
  "solcInputHash": "bfb8dafb003d13c8b2d17694898738e3",
  "bytecode": "0x608060405233600660016101000a81548173ffffffffffffffffffffffffffffffffffffffff021916908373ffffffffffffffffffffffffffffffffffffffff160217905550670de0b6b3a76400006007556714d1120d7b160000600b55610e10600c556000600d5542600f553480156200007957600080fd5b5060405162004fbb38038062004fbb83398181016040528101906200009f919062000651565b838389806000806101000a81548173ffffffffffffffffffffffffffffffffffffffff021916908373ffffffffffffffffffffffffffffffffffffffff160217905550508160049080519060200190620000fb929190620004ea565b50806005908051906020019062000114929190620004ea565b506012600660006101000a81548160ff021916908360ff1602179055505050816000811180156200014d575068056bc75e2d6310000081105b6200018f576040517f08c379a0000000000000000000000000000000000000000000000000000000008152600401620001869062000848565b60405180910390fd5b85600081118015620001a95750670de0b6b3a76400008111155b620001eb576040517f08c379a0000000000000000000000000000000000000000000000000000000008152600401620001e29062000848565b60405180910390fd5b8760088190555088600a60006101000a81548173ffffffffffffffffffffffffffffffffffffffff021916908373ffffffffffffffffffffffffffffffffffffffff16021790555086600981905550600073ffffffffffffffffffffffffffffffffffffffff168373ffffffffffffffffffffffffffffffffffffffff161415620002ad576040517f08c379a0000000000000000000000000000000000000000000000000000000008152600401620002a49062000826565b60405180910390fd5b82601060006101000a81548173ffffffffffffffffffffffffffffffffffffffff021916908373ffffffffffffffffffffffffffffffffffffffff160217905550620002ff846200031560201b60201c565b600e819055505050505050505050505062000c83565b60006200037662000334670de0b6b3a76400006200037d60201b60201c565b6200036a62000349856200037d60201b60201c565b6200035e6301e133806200039c60201b60201c565b620003c360201b60201c565b6200041760201b60201c565b9050919050565b60006200039582633b9aca006200047560201b60201c565b9050919050565b6000620003bc826b033b2e3c9fd0803ce80000006200047560201b60201c565b9050919050565b60008162000403620003e8856b033b2e3c9fd0803ce80000006200047560201b60201c565b600285620003f7919062000937565b6200041760201b60201c565b6200040f919062000937565b905092915050565b6000828284620004289190620008da565b91508110156200046f576040517f08c379a0000000000000000000000000000000000000000000000000000000008152600401620004669062000804565b60405180910390fd5b92915050565b600080821480620004a25750828283856200049191906200096f565b925082620004a0919062000937565b145b620004e4576040517f08c379a0000000000000000000000000000000000000000000000000000000008152600401620004db90620007e2565b60405180910390fd5b92915050565b828054620004f89062000a58565b90600052602060002090601f0160209004810192826200051c576000855562000568565b82601f106200053757805160ff191683800117855562000568565b8280016001018555821562000568579182015b82811115620005675782518255916020019190600101906200054a565b5b5090506200057791906200057b565b5090565b5b80821115620005965760008160009055506001016200057c565b5090565b6000620005b1620005ab8462000893565b6200086a565b905082815260208101848484011115620005ca57600080fd5b620005d784828562000a22565b509392505050565b600081519050620005f08162000c35565b92915050565b600081519050620006078162000c4f565b92915050565b600082601f8301126200061f57600080fd5b8151620006318482602086016200059a565b91505092915050565b6000815190506200064b8162000c69565b92915050565b600080600080600080600080610100898b0312156200066f57600080fd5b60006200067f8b828c01620005f6565b9850506020620006928b828c01620005df565b9750506040620006a58b828c016200063a565b9650506060620006b88b828c016200063a565b955050608089015167ffffffffffffffff811115620006d657600080fd5b620006e48b828c016200060d565b94505060a089015167ffffffffffffffff8111156200070257600080fd5b620007108b828c016200060d565b93505060c0620007238b828c016200063a565b92505060e0620007368b828c01620005df565b9150509295985092959890939650565b600062000755601483620008c9565b9150620007628262000b91565b602082019050919050565b60006200077c601483620008c9565b9150620007898262000bba565b602082019050919050565b6000620007a3601b83620008c9565b9150620007b08262000be3565b602082019050919050565b6000620007ca601f83620008c9565b9150620007d78262000c0c565b602082019050919050565b60006020820190508181036000830152620007fd8162000746565b9050919050565b600060208201905081810360008301526200081f816200076d565b9050919050565b60006020820190508181036000830152620008418162000794565b9050919050565b600060208201905081810360008301526200086381620007bb565b9050919050565b60006200087662000889565b905062000884828262000a8e565b919050565b6000604051905090565b600067ffffffffffffffff821115620008b157620008b062000b51565b5b620008bc8262000b80565b9050602081019050919050565b600082825260208201905092915050565b6000620008e78262000a18565b9150620008f48362000a18565b9250827fffffffffffffffffffffffffffffffffffffffffffffffffffffffffffffffff038211156200092c576200092b62000ac4565b5b828201905092915050565b6000620009448262000a18565b9150620009518362000a18565b92508262000964576200096362000af3565b5b828204905092915050565b60006200097c8262000a18565b9150620009898362000a18565b9250817fffffffffffffffffffffffffffffffffffffffffffffffffffffffffffffffff0483118215151615620009c557620009c462000ac4565b5b828202905092915050565b6000620009dd82620009f8565b9050919050565b6000620009f182620009f8565b9050919050565b600073ffffffffffffffffffffffffffffffffffffffff82169050919050565b6000819050919050565b60005b8381101562000a4257808201518184015260208101905062000a25565b8381111562000a52576000848401525b50505050565b6000600282049050600182168062000a7157607f821691505b6020821081141562000a885762000a8762000b22565b5b50919050565b62000a998262000b80565b810181811067ffffffffffffffff8211171562000abb5762000aba62000b51565b5b80604052505050565b7f4e487b7100000000000000000000000000000000000000000000000000000000600052601160045260246000fd5b7f4e487b7100000000000000000000000000000000000000000000000000000000600052601260045260246000fd5b7f4e487b7100000000000000000000000000000000000000000000000000000000600052602260045260246000fd5b7f4e487b7100000000000000000000000000000000000000000000000000000000600052604160045260246000fd5b6000601f19601f8301169050919050565b7f64732d6d6174682d6d756c2d6f766572666c6f77000000000000000000000000600082015250565b7f64732d6d6174682d6164642d6f766572666c6f77000000000000000000000000600082015250565b7f62656e69666963696172792061646472657373206e6f74207365740000000000600082015250565b7f76616c7565206e6f742077697468696e20616c6c6f776564206c696d69747300600082015250565b62000c4081620009d0565b811462000c4c57600080fd5b50565b62000c5a81620009e4565b811462000c6657600080fd5b50565b62000c748162000a18565b811462000c8057600080fd5b50565b6143288062000c936000396000f3fe608060405234801561001057600080fd5b506004361061021c5760003560e01c80636a14602411610125578063b2016bd4116100ad578063bad4a01f1161007c578063bad4a01f146105fd578063c98c05b714610619578063dd62ed3e14610637578063f06b465814610667578063f851a440146106835761021c565b8063b2016bd414610587578063b4eae1cb146105a5578063b8eb5e4b146105c3578063b93e0cb5146105e15761021c565b80639014de63116100f45780639014de63146104cf57806395d89b41146104ed578063a140ae231461050b578063a457c2d714610527578063a9059cbb146105575761021c565b80636a1460241461044557806370a08231146104635780637ff9b596146104935780638e8cfbde146104b15761021c565b8063401ce372116101a85780635891de72116101775780635891de72146103c557806359825a4c146103e35780636112fe2e146103ed57806364494074146104095780636479a566146104275761021c565b8063401ce3721461035157806348500ccf1461036d57806350baa6221461038b578063552033c4146103a75761021c565b806323b872dd116101ef57806323b872dd146102ab57806328a07025146102db57806329a150ba146102e5578063313ce5671461030357806339509351146103215761021c565b806306fdde0314610221578063095ea7b31461023f5780631527262b1461026f57806318160ddd1461028d575b600080fd5b6102296106a1565b604051610236919061368b565b60405180910390f35b61025960048036038101906102549190613037565b610733565b6040516102669190613655565b60405180910390f35b61027761074a565b6040516102849190613519565b60405180910390f35b610295610770565b6040516102a291906139cd565b60405180910390f35b6102c560048036038101906102c09190612fe8565b61077a565b6040516102d29190613655565b60405180910390f35b6102e3610824565b005b6102ed610bfe565b6040516102fa91906139cd565b60405180910390f35b61030b610c04565b6040516103189190613a11565b60405180910390f35b61033b60048036038101906103369190613037565b610c1b565b6040516103489190613655565b60405180910390f35b61036b6004803603810190610366919061309c565b610cb9565b005b610375610de3565b60405161038291906139cd565b60405180910390f35b6103a560048036038101906103a0919061309c565b610de9565b005b6103af610fdf565b6040516103bc91906139cd565b60405180910390f35b6103cd610fef565b6040516103da91906139cd565b60405180910390f35b6103eb611076565b005b6104076004803603810190610402919061309c565b61113f565b005b610411611408565b60405161041e91906139cd565b60405180910390f35b61042f61140e565b60405161043c91906139cd565b60405180910390f35b61044d611414565b60405161045a91906139cd565b60405180910390f35b61047d60048036038101906104789190612f83565b611420565b60405161048a91906139cd565b60405180910390f35b61049b611469565b6040516104a891906139cd565b60405180910390f35b6104b961148c565b6040516104c691906139cd565b60405180910390f35b6104d7611492565b6040516104e491906139cd565b60405180910390f35b6104f5611498565b604051610502919061368b565b60405180910390f35b610525600480360381019061052091906130ee565b61152a565b005b610541600480360381019061053c9190613037565b6115c6565b60405161054e9190613655565b60405180910390f35b610571600480360381019061056c9190613037565b611664565b60405161057e9190613655565b60405180910390f35b61058f61167b565b60405161059c9190613670565b60405180910390f35b6105ad6116a1565b6040516105ba91906139cd565b60405180910390f35b6105cb611763565b6040516105d891906139cd565b60405180910390f35b6105fb60048036038101906105f6919061309c565b611769565b005b6106176004803603810190610612919061309c565b61183a565b005b610621611a00565b60405161062e91906139cd565b60405180910390f35b610651600480360381019061064c9190612fac565b611ab2565b60405161065e91906139cd565b60405180910390f35b610681600480360381019061067c919061309c565b611b39565b005b61068b611c77565b6040516106989190613519565b60405180910390f35b6060600480546106b090613c09565b80601f01602080910402602001604051908101604052809291908181526020018280546106dc90613c09565b80156107295780601f106106fe57610100808354040283529160200191610729565b820191906000526020600020905b81548152906001019060200180831161070c57829003601f168201915b5050505050905090565b6000610740338484611c9d565b6001905092915050565b601060009054906101000a900473ffffffffffffffffffffffffffffffffffffffff1681565b6000600354905090565b6000610787848484611e68565b610819843384600260008973ffffffffffffffffffffffffffffffffffffffff1673ffffffffffffffffffffffffffffffffffffffff16815260200190815260200160002060003373ffffffffffffffffffffffffffffffffffffffff1673ffffffffffffffffffffffffffffffffffffffff168152602001908152602001600020546108149190613b29565b611c9d565b600190509392505050565b600b5461082f6116a1565b1161086f576040517f08c379a0000000000000000000000000000000000000000000000000000000008152600401610866906136ed565b60405180910390fd5b600061087a33611420565b116108ba576040517f08c379a00000000000000000000000000000000000000000000000000000000081526004016108b19061378d565b60405180910390fd5b6000610977600a60009054906101000a900473ffffffffffffffffffffffffffffffffffffffff1673ffffffffffffffffffffffffffffffffffffffff166370a08231306040518263ffffffff1660e01b815260040161091a9190613519565b60206040518083038186803b15801561093257600080fd5b505afa158015610946573d6000803e3d6000fd5b505050506040513d601f19601f8201168201806040525081019061096a91906130c5565b610972610770565b6120ce565b9050600061098433611420565b90506000610992828461210a565b905060006109a282600d5461210a565b905060006109b0838361214e565b90507f158ba9ab7bbbd08eeffa4753bad41f4d450e24831d293427308badf3eadd8c76338585856040516109e79493929190613610565b60405180910390a16109f933856121a7565b600a60009054906101000a900473ffffffffffffffffffffffffffffffffffffffff1673ffffffffffffffffffffffffffffffffffffffff1663a9059cbb33836040518363ffffffff1660e01b8152600401610a5692919061356b565b602060405180830381600087803b158015610a7057600080fd5b505af1158015610a84573d6000803e3d6000fd5b505050506040513d601f19601f82011682018060405250810190610aa89190613073565b610ae7576040517f08c379a0000000000000000000000000000000000000000000000000000000008152600401610ade9061396d565b60405180910390fd5b600a60009054906101000a900473ffffffffffffffffffffffffffffffffffffffff1673ffffffffffffffffffffffffffffffffffffffff1663a9059cbb601060009054906101000a900473ffffffffffffffffffffffffffffffffffffffff16846040518363ffffffff1660e01b8152600401610b6692919061356b565b602060405180830381600087803b158015610b8057600080fd5b505af1158015610b94573d6000803e3d6000fd5b505050506040513d601f19601f82011682018060405250810190610bb89190613073565b610bf7576040517f08c379a0000000000000000000000000000000000000000000000000000000008152600401610bee9061384d565b60405180910390fd5b5050505050565b600d5481565b6000600660009054906101000a900460ff16905090565b6000610caf338484600260003373ffffffffffffffffffffffffffffffffffffffff1673ffffffffffffffffffffffffffffffffffffffff16815260200190815260200160002060008873ffffffffffffffffffffffffffffffffffffffff1673ffffffffffffffffffffffffffffffffffffffff16815260200190815260200160002054610caa9190613a48565b611c9d565b6001905092915050565b600660019054906101000a900473ffffffffffffffffffffffffffffffffffffffff1673ffffffffffffffffffffffffffffffffffffffff163373ffffffffffffffffffffffffffffffffffffffff1614610d49576040517f08c379a0000000000000000000000000000000000000000000000000000000008152600401610d409061380d565b60405180910390fd5b80600081118015610d62575068056bc75e2d6310000081105b610da1576040517f08c379a0000000000000000000000000000000000000000000000000000000008152600401610d98906138ed565b60405180910390fd5b81600b819055507f28e98951093a92e2a12cfccced98a5e14ff4a69f23c1137a90353ea343a879d582604051610dd791906139cd565b60405180910390a15050565b60095481565b60008111610e2c576040517f08c379a0000000000000000000000000000000000000000000000000000000008152600401610e239061392d565b60405180910390fd5b80610e3633611420565b1015610e77576040517f08c379a0000000000000000000000000000000000000000000000000000000008152600401610e6e906137ed565b60405180910390fd5b6000610e81610fef565b90506000610e96610e90611469565b836120ce565b90506000610ea4828561210a565b90507f7575c9e41ba6d91ef21e39bd62b5b9df62fc9b0401379fdf9fe1fa372f41e7c1338583604051610ed9939291906135d9565b60405180910390a1610eeb33856121a7565b600a60009054906101000a900473ffffffffffffffffffffffffffffffffffffffff1673ffffffffffffffffffffffffffffffffffffffff1663a9059cbb33836040518363ffffffff1660e01b8152600401610f4892919061356b565b602060405180830381600087803b158015610f6257600080fd5b505af1158015610f76573d6000803e3d6000fd5b505050506040513d601f19601f82011682018060405250810190610f9a9190613073565b610fd9576040517f08c379a0000000000000000000000000000000000000000000000000000000008152600401610fd09061376d565b60405180910390fd5b50505050565b6b033b2e3c9fd0803ce800000081565b600080600061100d600854600c54426110089190613b29565b612323565b509150915081611052576040517f08c379a00000000000000000000000000000000000000000000000000000000081526004016110499061386d565b60405180910390fd5b61106f8161106a670de0b6b3a76400006009546124de565b612528565b9250505090565b6000600f54426110869190613b29565b9050600081116110cb576040517f08c379a00000000000000000000000000000000000000000000000000000000081526004016110c29061382d565b60405180910390fd5b42600f819055506110e1600754600e5483612595565b600781905550600061110d6111006110f7610770565b600e54856125b3565b611108610770565b61214e565b905061113b601060009054906101000a900473ffffffffffffffffffffffffffffffffffffffff16826125d1565b5050565b600660019054906101000a900473ffffffffffffffffffffffffffffffffffffffff1673ffffffffffffffffffffffffffffffffffffffff163373ffffffffffffffffffffffffffffffffffffffff16146111cf576040517f08c379a00000000000000000000000000000000000000000000000000000000081526004016111c69061380d565b60405180910390fd5b6000611295611288600a60009054906101000a900473ffffffffffffffffffffffffffffffffffffffff1673ffffffffffffffffffffffffffffffffffffffff166370a08231306040518263ffffffff1660e01b81526004016112329190613519565b60206040518083038186803b15801561124a57600080fd5b505afa15801561125e573d6000803e3d6000fd5b505050506040513d601f19601f8201168201806040525081019061128291906130c5565b8461214e565b611290610770565b61274d565b90507f627a692d5a03ab34732c0d2aa319f3ecdebdc4528f383eabcb25441dc0a70cfb3383836040516112ca939291906135d9565b60405180910390a1600b548110611316576040517f08c379a000000000000000000000000000000000000000000000000000000000815260040161130d9061370d565b60405180910390fd5b600a60009054906101000a900473ffffffffffffffffffffffffffffffffffffffff1673ffffffffffffffffffffffffffffffffffffffff1663a9059cbb33846040518363ffffffff1660e01b815260040161137392919061356b565b602060405180830381600087803b15801561138d57600080fd5b505af11580156113a1573d6000803e3d6000fd5b505050506040513d601f19601f820116820180604052508101906113c59190613073565b611404576040517f08c379a00000000000000000000000000000000000000000000000000000000081526004016113fb9061398d565b60405180910390fd5b5050565b600e5481565b600c5481565b670de0b6b3a764000081565b6000600160008373ffffffffffffffffffffffffffffffffffffffff1673ffffffffffffffffffffffffffffffffffffffff168152602001908152602001600020549050919050565b6000611487600754600e54600f54426114829190613b29565b612595565b905090565b600b5481565b600f5481565b6060600580546114a790613c09565b80601f01602080910402602001604051908101604052809291908181526020018280546114d390613c09565b80156115205780601f106114f557610100808354040283529160200191611520565b820191906000526020600020905b81548152906001019060200180831161150357829003601f168201915b5050505050905090565b61153481836125d1565b600061153e6116a1565b90507f8aa79244595326e02b94ff370fec2bf34048b114fa3566a1928de6961944b6c4338484846040516115759493929190613594565b60405180910390a1600b5481106115c1576040517f08c379a00000000000000000000000000000000000000000000000000000000081526004016115b89061370d565b60405180910390fd5b505050565b600061165a338484600260003373ffffffffffffffffffffffffffffffffffffffff1673ffffffffffffffffffffffffffffffffffffffff16815260200190815260200160002060008873ffffffffffffffffffffffffffffffffffffffff1673ffffffffffffffffffffffffffffffffffffffff168152602001908152602001600020546116559190613b29565b611c9d565b6001905092915050565b6000611671338484611e68565b6001905092915050565b600a60009054906101000a900473ffffffffffffffffffffffffffffffffffffffff1681565b600061175e600a60009054906101000a900473ffffffffffffffffffffffffffffffffffffffff1673ffffffffffffffffffffffffffffffffffffffff166370a08231306040518263ffffffff1660e01b81526004016117019190613519565b60206040518083038186803b15801561171957600080fd5b505afa15801561172d573d6000803e3d6000fd5b505050506040513d601f19601f8201168201806040525081019061175191906130c5565b611759610770565b61274d565b905090565b60085481565b600660019054906101000a900473ffffffffffffffffffffffffffffffffffffffff1673ffffffffffffffffffffffffffffffffffffffff163373ffffffffffffffffffffffffffffffffffffffff16146117f9576040517f08c379a00000000000000000000000000000000000000000000000000000000081526004016117f09061380d565b60405180910390fd5b80600c819055507ff446a856a251d3949a294b9b5a1887d32750b34a18bb135814cfc300119ca84d8160405161182f91906139cd565b60405180910390a150565b600660019054906101000a900473ffffffffffffffffffffffffffffffffffffffff1673ffffffffffffffffffffffffffffffffffffffff163373ffffffffffffffffffffffffffffffffffffffff16146118ca576040517f08c379a00000000000000000000000000000000000000000000000000000000081526004016118c19061380d565b60405180910390fd5b6000811161190d576040517f08c379a00000000000000000000000000000000000000000000000000000000081526004016119049061388d565b60405180910390fd5b600a60009054906101000a900473ffffffffffffffffffffffffffffffffffffffff1673ffffffffffffffffffffffffffffffffffffffff166323b872dd3330846040518463ffffffff1660e01b815260040161196c93929190613534565b602060405180830381600087803b15801561198657600080fd5b505af115801561199a573d6000803e3d6000fd5b505050506040513d601f19601f820116820180604052508101906119be9190613073565b6119fd576040517f08c379a00000000000000000000000000000000000000000000000000000000081526004016119f4906138ad565b60405180910390fd5b50565b6000600a60009054906101000a900473ffffffffffffffffffffffffffffffffffffffff1673ffffffffffffffffffffffffffffffffffffffff166370a08231306040518263ffffffff1660e01b8152600401611a5d9190613519565b60206040518083038186803b158015611a7557600080fd5b505afa158015611a89573d6000803e3d6000fd5b505050506040513d601f19601f82011682018060405250810190611aad91906130c5565b905090565b6000600260008473ffffffffffffffffffffffffffffffffffffffff1673ffffffffffffffffffffffffffffffffffffffff16815260200190815260200160002060008373ffffffffffffffffffffffffffffffffffffffff1673ffffffffffffffffffffffffffffffffffffffff16815260200190815260200160002054905092915050565b600660019054906101000a900473ffffffffffffffffffffffffffffffffffffffff1673ffffffffffffffffffffffffffffffffffffffff163373ffffffffffffffffffffffffffffffffffffffff1614611bc9576040517f08c379a0000000000000000000000000000000000000000000000000000000008152600401611bc09061380d565b60405180910390fd5b80600081118015611be2575068056bc75e2d6310000081105b611c21576040517f08c379a0000000000000000000000000000000000000000000000000000000008152600401611c18906138ed565b60405180910390fd5b611c348268056bc75e2d631000006120ce565b600d819055507fb410b9fb1c7ee253f64b4393c5fa78a4d64c9f4495828b8c9e62813a5c53528d600d54604051611c6b91906139cd565b60405180910390a15050565b600660019054906101000a900473ffffffffffffffffffffffffffffffffffffffff1681565b600073ffffffffffffffffffffffffffffffffffffffff168373ffffffffffffffffffffffffffffffffffffffff161415611d0d576040517f08c379a0000000000000000000000000000000000000000000000000000000008152600401611d049061394d565b60405180910390fd5b600073ffffffffffffffffffffffffffffffffffffffff168273ffffffffffffffffffffffffffffffffffffffff161415611d7d576040517f08c379a0000000000000000000000000000000000000000000000000000000008152600401611d749061372d565b60405180910390fd5b80600260008573ffffffffffffffffffffffffffffffffffffffff1673ffffffffffffffffffffffffffffffffffffffff16815260200190815260200160002060008473ffffffffffffffffffffffffffffffffffffffff1673ffffffffffffffffffffffffffffffffffffffff168152602001908152602001600020819055508173ffffffffffffffffffffffffffffffffffffffff168373ffffffffffffffffffffffffffffffffffffffff167f8c5be1e5ebec7d5bd14f71427d1e84f3dd0314c0f7b2291e5b200ac8c7c3b92583604051611e5b91906139cd565b60405180910390a3505050565b600073ffffffffffffffffffffffffffffffffffffffff168373ffffffffffffffffffffffffffffffffffffffff161415611ed8576040517f08c379a0000000000000000000000000000000000000000000000000000000008152600401611ecf9061390d565b60405180910390fd5b600073ffffffffffffffffffffffffffffffffffffffff168273ffffffffffffffffffffffffffffffffffffffff161415611f48576040517f08c379a0000000000000000000000000000000000000000000000000000000008152600401611f3f906136cd565b60405180910390fd5b80600160008573ffffffffffffffffffffffffffffffffffffffff1673ffffffffffffffffffffffffffffffffffffffff16815260200190815260200160002054611f939190613b29565b600160008573ffffffffffffffffffffffffffffffffffffffff1673ffffffffffffffffffffffffffffffffffffffff1681526020019081526020016000208190555080600160008473ffffffffffffffffffffffffffffffffffffffff1673ffffffffffffffffffffffffffffffffffffffff168152602001908152602001600020546120219190613a48565b600160008473ffffffffffffffffffffffffffffffffffffffff1673ffffffffffffffffffffffffffffffffffffffff168152602001908152602001600020819055508173ffffffffffffffffffffffffffffffffffffffff168373ffffffffffffffffffffffffffffffffffffffff167fddf252ad1be2c89b69c2b068fc378daa952ba7f163c4a11628f55a4df523b3ef836040516120c191906139cd565b60405180910390a3505050565b6000816120f86120e685670de0b6b3a7640000612528565b6002856120f39190613a9e565b612818565b6121029190613a9e565b905092915050565b6000670de0b6b3a764000061213c6121228585612528565b6002670de0b6b3a76400006121379190613a9e565b612818565b6121469190613a9e565b905092915050565b600082828461215d9190613b29565b91508111156121a1576040517f08c379a0000000000000000000000000000000000000000000000000000000008152600401612198906136ad565b60405180910390fd5b92915050565b600073ffffffffffffffffffffffffffffffffffffffff168273ffffffffffffffffffffffffffffffffffffffff161415612217576040517f08c379a000000000000000000000000000000000000000000000000000000000815260040161220e906138cd565b60405180910390fd5b80600160008473ffffffffffffffffffffffffffffffffffffffff1673ffffffffffffffffffffffffffffffffffffffff168152602001908152602001600020546122629190613b29565b600160008473ffffffffffffffffffffffffffffffffffffffff1673ffffffffffffffffffffffffffffffffffffffff16815260200190815260200160002081905550806003546122b39190613b29565b600381905550600073ffffffffffffffffffffffffffffffffffffffff168273ffffffffffffffffffffffffffffffffffffffff167fddf252ad1be2c89b69c2b068fc378daa952ba7f163c4a11628f55a4df523b3ef8360405161231791906139cd565b60405180910390a35050565b60008060008060006123358787612871565b915091508161235057600080600094509450945050506124d7565b60008060009054906101000a900473ffffffffffffffffffffffffffffffffffffffff1673ffffffffffffffffffffffffffffffffffffffff166377fbb66389846040518363ffffffff1660e01b81526004016123ae9291906139e8565b60206040518083038186803b1580156123c657600080fd5b505afa1580156123da573d6000803e3d6000fd5b505050506040513d601f19601f820116820180604052508101906123fe91906130c5565b905060008054906101000a900473ffffffffffffffffffffffffffffffffffffffff1673ffffffffffffffffffffffffffffffffffffffff166393fa491589836040518363ffffffff1660e01b815260040161245b9291906139e8565b60206040518083038186803b15801561247357600080fd5b505afa158015612487573d6000803e3d6000fd5b505050506040513d601f19601f820116820180604052508101906124ab91906130c5565b945060008511156124c857600185829550955095505050506124d7565b60008060009550955095505050505b9250925092565b600061252083836040518060400160405280601a81526020017f536166654d6174683a206469766973696f6e206279207a65726f000000000000815250612db5565b905092915050565b6000808214806125505750828283856125419190613acf565b92508261254e9190613a9e565b145b61258f576040517f08c379a00000000000000000000000000000000000000000000000000000000081526004016125869061374d565b60405180910390fd5b92915050565b60006125aa846125a58585612e18565b612ea3565b90509392505050565b60006125c8846125c38585612e18565b612ee3565b90509392505050565b600073ffffffffffffffffffffffffffffffffffffffff168273ffffffffffffffffffffffffffffffffffffffff161415612641576040517f08c379a0000000000000000000000000000000000000000000000000000000008152600401612638906139ad565b60405180910390fd5b8060035461264f9190613a48565b60038190555080600160008473ffffffffffffffffffffffffffffffffffffffff1673ffffffffffffffffffffffffffffffffffffffff168152602001908152602001600020546126a09190613a48565b600160008473ffffffffffffffffffffffffffffffffffffffff1673ffffffffffffffffffffffffffffffffffffffff168152602001908152602001600020819055508173ffffffffffffffffffffffffffffffffffffffff16600073ffffffffffffffffffffffffffffffffffffffff167fddf252ad1be2c89b69c2b068fc378daa952ba7f163c4a11628f55a4df523b3ef8360405161274191906139cd565b60405180910390a35050565b6000808311612791576040517f08c379a0000000000000000000000000000000000000000000000000000000008152600401612788906137cd565b60405180910390fd5b60008214156127a35760009050612812565b60006127b66127b0610fef565b8561210a565b90506000600f54426127c89190613b29565b905060006127d985600e54846125b3565b905060006127ee6127e8611469565b8361210a565b905061280b670de0b6b3a764000061280683876120ce565b612818565b9450505050505b92915050565b60008282846128279190613a48565b915081101561286b576040517f08c379a0000000000000000000000000000000000000000000000000000000008152600401612862906137ad565b60405180910390fd5b92915050565b60008060008060009054906101000a900473ffffffffffffffffffffffffffffffffffffffff1673ffffffffffffffffffffffffffffffffffffffff166346eee1c4866040518263ffffffff1660e01b81526004016128d091906139cd565b60206040518083038186803b1580156128e857600080fd5b505afa1580156128fc573d6000803e3d6000fd5b505050506040513d601f19601f8201168201806040525081019061292091906130c5565b90506000811115612da5576000806000905060006001846129419190613b29565b905060008060009054906101000a900473ffffffffffffffffffffffffffffffffffffffff1673ffffffffffffffffffffffffffffffffffffffff166377fbb6638a856040518363ffffffff1660e01b81526004016129a19291906139e8565b60206040518083038186803b1580156129b957600080fd5b505afa1580156129cd573d6000803e3d6000fd5b505050506040513d601f19601f820116820180604052508101906129f191906130c5565b9050878110612a0b57600080965096505050505050612dae565b60008054906101000a900473ffffffffffffffffffffffffffffffffffffffff1673ffffffffffffffffffffffffffffffffffffffff166377fbb6638a846040518363ffffffff1660e01b8152600401612a669291906139e8565b60206040518083038186803b158015612a7e57600080fd5b505afa158015612a92573d6000803e3d6000fd5b505050506040513d601f19601f82011682018060405250810190612ab691906130c5565b905087811015612ad157600182965096505050505050612dae565b5b600115612da05782600160028585612aea9190613b29565b612af49190613a9e565b612afe9190613a48565b612b089190613a48565b935060008054906101000a900473ffffffffffffffffffffffffffffffffffffffff1673ffffffffffffffffffffffffffffffffffffffff166377fbb6638a866040518363ffffffff1660e01b8152600401612b659291906139e8565b60206040518083038186803b158015612b7d57600080fd5b505afa158015612b91573d6000803e3d6000fd5b505050506040513d601f19601f82011682018060405250810190612bb591906130c5565b905087811015612ca95760008060009054906101000a900473ffffffffffffffffffffffffffffffffffffffff1673ffffffffffffffffffffffffffffffffffffffff166377fbb6638b600188612c0c9190613a48565b6040518363ffffffff1660e01b8152600401612c299291906139e8565b60206040518083038186803b158015612c4157600080fd5b505afa158015612c55573d6000803e3d6000fd5b505050506040513d601f19601f82011682018060405250810190612c7991906130c5565b9050888110612c945760018597509750505050505050612dae565b600185612ca19190613a48565b935050612d9b565b60008060009054906101000a900473ffffffffffffffffffffffffffffffffffffffff1673ffffffffffffffffffffffffffffffffffffffff166377fbb6638b600188612cf69190613b29565b6040518363ffffffff1660e01b8152600401612d139291906139e8565b60206040518083038186803b158015612d2b57600080fd5b505afa158015612d3f573d6000803e3d6000fd5b505050506040513d601f19601f82011682018060405250810190612d6391906130c5565b905088811015612d8a5760018086612d7b9190613b29565b97509750505050505050612dae565b600185612d979190613b29565b9250505b612ad2565b505050505b60008092509250505b9250929050565b60008083118290612dfc576040517f08c379a0000000000000000000000000000000000000000000000000000000008152600401612df3919061368b565b60405180910390fd5b5060008385612e0b9190613a9e565b9050809150509392505050565b600080600283612e289190613c3b565b1415612e40576b033b2e3c9fd0803ce8000000612e42565b825b9050600282612e519190613a9e565b91505b60008214612e9d57612e668384612ee3565b92506000600283612e779190613c3b565b14612e8957612e868184612ee3565b90505b600282612e969190613a9e565b9150612e54565b92915050565b600081612ed1612ebf856b033b2e3c9fd0803ce8000000612528565b600285612ecc9190613a9e565b612818565b612edb9190613a9e565b905092915050565b60006b033b2e3c9fd0803ce8000000612f1d612eff8585612528565b60026b033b2e3c9fd0803ce8000000612f189190613a9e565b612818565b612f279190613a9e565b905092915050565b600081359050612f3e816142ad565b92915050565b600081519050612f53816142c4565b92915050565b600081359050612f68816142db565b92915050565b600081519050612f7d816142db565b92915050565b600060208284031215612f9557600080fd5b6000612fa384828501612f2f565b91505092915050565b60008060408385031215612fbf57600080fd5b6000612fcd85828601612f2f565b9250506020612fde85828601612f2f565b9150509250929050565b600080600060608486031215612ffd57600080fd5b600061300b86828701612f2f565b935050602061301c86828701612f2f565b925050604061302d86828701612f59565b9150509250925092565b6000806040838503121561304a57600080fd5b600061305885828601612f2f565b925050602061306985828601612f59565b9150509250929050565b60006020828403121561308557600080fd5b600061309384828501612f44565b91505092915050565b6000602082840312156130ae57600080fd5b60006130bc84828501612f59565b91505092915050565b6000602082840312156130d757600080fd5b60006130e584828501612f6e565b91505092915050565b6000806040838503121561310157600080fd5b600061310f85828601612f59565b925050602061312085828601612f2f565b9150509250929050565b61313381613b5d565b82525050565b61314281613b6f565b82525050565b61315181613bb2565b82525050565b600061316282613a2c565b61316c8185613a37565b935061317c818560208601613bd6565b61318581613cf9565b840191505092915050565b600061319d601583613a37565b91506131a882613d0a565b602082019050919050565b60006131c0602383613a37565b91506131cb82613d33565b604082019050919050565b60006131e3602983613a37565b91506131ee82613d82565b604082019050919050565b6000613206602a83613a37565b915061321182613dd1565b604082019050919050565b6000613229602283613a37565b915061323482613e20565b604082019050919050565b600061324c601483613a37565b915061325782613e6f565b602082019050919050565b600061326f601883613a37565b915061327a82613e98565b602082019050919050565b6000613292602183613a37565b915061329d82613ec1565b604082019050919050565b60006132b5601483613a37565b91506132c082613f10565b602082019050919050565b60006132d8601f83613a37565b91506132e382613f39565b602082019050919050565b60006132fb601283613a37565b915061330682613f62565b602082019050919050565b600061331e600c83613a37565b915061332982613f8b565b602082019050919050565b6000613341601983613a37565b915061334c82613fb4565b602082019050919050565b6000613364602d83613a37565b915061336f82613fdd565b604082019050919050565b6000613387601483613a37565b91506133928261402c565b602082019050919050565b60006133aa601083613a37565b91506133b582614055565b602082019050919050565b60006133cd602283613a37565b91506133d88261407e565b604082019050919050565b60006133f0602183613a37565b91506133fb826140cd565b604082019050919050565b6000613413601f83613a37565b915061341e8261411c565b602082019050919050565b6000613436602583613a37565b915061344182614145565b604082019050919050565b6000613459601f83613a37565b915061346482614194565b602082019050919050565b600061347c602483613a37565b9150613487826141bd565b604082019050919050565b600061349f602583613a37565b91506134aa8261420c565b604082019050919050565b60006134c2601983613a37565b91506134cd8261425b565b602082019050919050565b60006134e5601f83613a37565b91506134f082614284565b602082019050919050565b61350481613b9b565b82525050565b61351381613ba5565b82525050565b600060208201905061352e600083018461312a565b92915050565b6000606082019050613549600083018661312a565b613556602083018561312a565b61356360408301846134fb565b949350505050565b6000604082019050613580600083018561312a565b61358d60208301846134fb565b9392505050565b60006080820190506135a9600083018761312a565b6135b660208301866134fb565b6135c3604083018561312a565b6135d060608301846134fb565b95945050505050565b60006060820190506135ee600083018661312a565b6135fb60208301856134fb565b61360860408301846134fb565b949350505050565b6000608082019050613625600083018761312a565b61363260208301866134fb565b61363f60408301856134fb565b61364c60608301846134fb565b95945050505050565b600060208201905061366a6000830184613139565b92915050565b60006020820190506136856000830184613148565b92915050565b600060208201905081810360008301526136a58184613157565b905092915050565b600060208201905081810360008301526136c681613190565b9050919050565b600060208201905081810360008301526136e6816131b3565b9050919050565b60006020820190508181036000830152613706816131d6565b9050919050565b60006020820190508181036000830152613726816131f9565b9050919050565b600060208201905081810360008301526137468161321c565b9050919050565b600060208201905081810360008301526137668161323f565b9050919050565b6000602082019050818103600083015261378681613262565b9050919050565b600060208201905081810360008301526137a681613285565b9050919050565b600060208201905081810360008301526137c6816132a8565b9050919050565b600060208201905081810360008301526137e6816132cb565b9050919050565b60006020820190508181036000830152613806816132ee565b9050919050565b6000602082019050818103600083015261382681613311565b9050919050565b6000602082019050818103600083015261384681613334565b9050919050565b6000602082019050818103600083015261386681613357565b9050919050565b600060208201905081810360008301526138868161337a565b9050919050565b600060208201905081810360008301526138a68161339d565b9050919050565b600060208201905081810360008301526138c6816133c0565b9050919050565b600060208201905081810360008301526138e6816133e3565b9050919050565b6000602082019050818103600083015261390681613406565b9050919050565b6000602082019050818103600083015261392681613429565b9050919050565b600060208201905081810360008301526139468161344c565b9050919050565b600060208201905081810360008301526139668161346f565b9050919050565b6000602082019050818103600083015261398681613492565b9050919050565b600060208201905081810360008301526139a6816134b5565b9050919050565b600060208201905081810360008301526139c6816134d8565b9050919050565b60006020820190506139e260008301846134fb565b92915050565b60006040820190506139fd60008301856134fb565b613a0a60208301846134fb565b9392505050565b6000602082019050613a26600083018461350a565b92915050565b600081519050919050565b600082825260208201905092915050565b6000613a5382613b9b565b9150613a5e83613b9b565b9250827fffffffffffffffffffffffffffffffffffffffffffffffffffffffffffffffff03821115613a9357613a92613c6c565b5b828201905092915050565b6000613aa982613b9b565b9150613ab483613b9b565b925082613ac457613ac3613c9b565b5b828204905092915050565b6000613ada82613b9b565b9150613ae583613b9b565b9250817fffffffffffffffffffffffffffffffffffffffffffffffffffffffffffffffff0483118215151615613b1e57613b1d613c6c565b5b828202905092915050565b6000613b3482613b9b565b9150613b3f83613b9b565b925082821015613b5257613b51613c6c565b5b828203905092915050565b6000613b6882613b7b565b9050919050565b60008115159050919050565b600073ffffffffffffffffffffffffffffffffffffffff82169050919050565b6000819050919050565b600060ff82169050919050565b6000613bbd82613bc4565b9050919050565b6000613bcf82613b7b565b9050919050565b60005b83811015613bf4578082015181840152602081019050613bd9565b83811115613c03576000848401525b50505050565b60006002820490506001821680613c2157607f821691505b60208210811415613c3557613c34613cca565b5b50919050565b6000613c4682613b9b565b9150613c5183613b9b565b925082613c6157613c60613c9b565b5b828206905092915050565b7f4e487b7100000000000000000000000000000000000000000000000000000000600052601160045260246000fd5b7f4e487b7100000000000000000000000000000000000000000000000000000000600052601260045260246000fd5b7f4e487b7100000000000000000000000000000000000000000000000000000000600052602260045260246000fd5b6000601f19601f8301169050919050565b7f64732d6d6174682d7375622d756e646572666c6f770000000000000000000000600082015250565b7f45524332303a207472616e7366657220746f20746865207a65726f206164647260008201527f6573730000000000000000000000000000000000000000000000000000000000602082015250565b7f636f6c6c61746572616c207574696c697a61746f696e2069732062656c6f772060008201527f7468726573686f6c640000000000000000000000000000000000000000000000602082015250565b7f636f6c6c61746572616c207574696c697a6174696f6e2061626f76652074686560008201527f207468726573686f6c6400000000000000000000000000000000000000000000602082015250565b7f45524332303a20617070726f766520746f20746865207a65726f20616464726560008201527f7373000000000000000000000000000000000000000000000000000000000000602082015250565b7f64732d6d6174682d6d756c2d6f766572666c6f77000000000000000000000000600082015250565b7f636f6c6c61746572616c207472616e73666572206661696c0000000000000000600082015250565b7f6d73672073656e64657220646f65736e2774206f776e20616e7920746f6b656e60008201527f7300000000000000000000000000000000000000000000000000000000000000602082015250565b7f64732d6d6174682d6164642d6f766572666c6f77000000000000000000000000600082015250565b7f636f6c6c61746572616c20746f74616c20737570706c79206973207a65726f00600082015250565b7f6e6f7420656e6f7567682062616c616e63650000000000000000000000000000600082015250565b7f6e6f7420616e2061646d696e0000000000000000000000000000000000000000600082015250565b7f6e6f20696e666c6174696f6e20696e6372656173652079657400000000000000600082015250565b7f636f6c6c61746572616c206c69717569646174696f6e2070656e616c7479207460008201527f72616e73666572206661696c7300000000000000000000000000000000000000602082015250565b7f67657474696e67206f7261636c65207072696365000000000000000000000000600082015250565b7f6465706f73697420616d6f756e74203000000000000000000000000000000000600082015250565b7f6661696c656420636f6c6c61746572616c206465706f736974207472616e736660008201527f6572000000000000000000000000000000000000000000000000000000000000602082015250565b7f45524332303a206275726e2066726f6d20746865207a65726f2061646472657360008201527f7300000000000000000000000000000000000000000000000000000000000000602082015250565b7f76616c7565206e6f742077697468696e20616c6c6f776564206c696d69747300600082015250565b7f45524332303a207472616e736665722066726f6d20746865207a65726f20616460008201527f6472657373000000000000000000000000000000000000000000000000000000602082015250565b7f616d6f756e742073686f756c642062652067726561746572207468616e203000600082015250565b7f45524332303a20617070726f76652066726f6d20746865207a65726f2061646460008201527f7265737300000000000000000000000000000000000000000000000000000000602082015250565b7f636f6c6c61746572616c206c69717569646174696f6e207472616e736665722060008201527f6661696c73000000000000000000000000000000000000000000000000000000602082015250565b7f636f6c6c61746572616c207472616e73666572206661696c7300000000000000600082015250565b7f45524332303a206d696e7420746f20746865207a65726f206164647265737300600082015250565b6142b681613b5d565b81146142c157600080fd5b50565b6142cd81613b6f565b81146142d857600080fd5b50565b6142e481613b9b565b81146142ef57600080fd5b5056fea2646970667358221220af15bfde6ff86413da7fcbfdb5e0dfa59dd1b0073fac568114104869ce34fa3964736f6c63430008030033",
  "devdoc": {
    "kind": "dev",
    "methods": {
      "allowance(address,address)": {
        "details": "See {IERC20-allowance}."
      },
      "approve(address,uint256)": {
        "details": "See {IERC20-approve}. Requirements: - `spender` cannot be the zero address."
      },
      "balanceOf(address)": {
        "details": "See {IERC20-balanceOf}."
      },
      "decimals()": {
        "details": "Returns the number of decimals used to get its user representation. For example, if `decimals` equals `2`, a balance of `505` tokens should be displayed to a user as `5,05` (`505 / 10 ** 2`). Tokens usually opt for a value of 18, imitating the relationship between Ether and Wei. This is the value {ERC20} uses, unless {_setupDecimals} is called. NOTE: This information is only used for _display_ purposes: it in no way affects any of the arithmetic of the contract, including {IERC20-balanceOf} and {IERC20-transfer}."
      },
      "decreaseAllowance(address,uint256)": {
        "details": "Atomically decreases the allowance granted to `spender` by the caller. This is an alternative to {approve} that can be used as a mitigation for problems described in {IERC20-approve}. Emits an {Approval} event indicating the updated allowance. Requirements: - `spender` cannot be the zero address. - `spender` must have allowance for the caller of at least `subtractedValue`."
      },
      "increaseAllowance(address,uint256)": {
        "details": "Atomically increases the allowance granted to `spender` by the caller. This is an alternative to {approve} that can be used as a mitigation for problems described in {IERC20-approve}. Emits an {Approval} event indicating the updated allowance. Requirements: - `spender` cannot be the zero address."
      },
      "name()": {
        "details": "Returns the name of the token."
      },
      "symbol()": {
        "details": "Returns the symbol of the token, usually a shorter version of the name."
      },
      "totalSupply()": {
        "details": "See {IERC20-totalSupply}."
      },
      "transfer(address,uint256)": {
        "details": "See {IERC20-transfer}. Requirements: - `recipient` cannot be the zero address. - the caller must have a balance of at least `amount`."
      },
      "transferFrom(address,address,uint256)": {
        "details": "See {IERC20-transferFrom}. Emits an {Approval} event indicating the updated allowance. This is not required by the EIP. See the note at the beginning of {ERC20}. Requirements: - `sender` and `recipient` cannot be the zero address. - `sender` must have a balance of at least `amount`. - the caller must have allowance for ``sender``'s tokens of at least `amount`."
      }
    },
    "version": 1
  },
  "userdoc": {
    "kind": "user",
    "methods": {},
    "version": 1
  },
  "storageLayout": {
    "storage": [
      {
        "astId": 2440,
        "contract": "contracts/Chorus.sol:Chorus",
        "label": "tellor",
        "offset": 0,
        "slot": "0",
        "type": "t_contract(ITellor)2437"
      },
      {
        "astId": 819,
        "contract": "contracts/Chorus.sol:Chorus",
        "label": "_balances",
        "offset": 0,
        "slot": "1",
        "type": "t_mapping(t_address,t_uint256)"
      },
      {
        "astId": 825,
        "contract": "contracts/Chorus.sol:Chorus",
        "label": "_allowances",
        "offset": 0,
        "slot": "2",
        "type": "t_mapping(t_address,t_mapping(t_address,t_uint256))"
      },
      {
        "astId": 827,
        "contract": "contracts/Chorus.sol:Chorus",
        "label": "_totalSupply",
        "offset": 0,
        "slot": "3",
        "type": "t_uint256"
      },
      {
        "astId": 829,
        "contract": "contracts/Chorus.sol:Chorus",
        "label": "_name",
        "offset": 0,
        "slot": "4",
        "type": "t_string_storage"
      },
      {
        "astId": 831,
        "contract": "contracts/Chorus.sol:Chorus",
        "label": "_symbol",
        "offset": 0,
        "slot": "5",
        "type": "t_string_storage"
      },
      {
        "astId": 833,
        "contract": "contracts/Chorus.sol:Chorus",
        "label": "_decimals",
        "offset": 0,
        "slot": "6",
        "type": "t_uint8"
      },
      {
        "astId": 62,
        "contract": "contracts/Chorus.sol:Chorus",
        "label": "admin",
        "offset": 1,
        "slot": "6",
        "type": "t_address"
      },
      {
        "astId": 65,
        "contract": "contracts/Chorus.sol:Chorus",
        "label": "tknPrice",
        "offset": 0,
        "slot": "7",
        "type": "t_uint256"
      },
      {
        "astId": 67,
        "contract": "contracts/Chorus.sol:Chorus",
        "label": "collateralID",
        "offset": 0,
        "slot": "8",
        "type": "t_uint256"
      },
      {
        "astId": 69,
        "contract": "contracts/Chorus.sol:Chorus",
        "label": "collateralPriceGranularity",
        "offset": 0,
        "slot": "9",
        "type": "t_uint256"
      },
      {
        "astId": 72,
        "contract": "contracts/Chorus.sol:Chorus",
        "label": "collateralToken",
        "offset": 0,
        "slot": "10",
        "type": "t_contract(ERC20)1257"
      },
      {
        "astId": 75,
        "contract": "contracts/Chorus.sol:Chorus",
        "label": "collateralThreshold",
        "offset": 0,
        "slot": "11",
        "type": "t_uint256"
      },
      {
        "astId": 78,
        "contract": "contracts/Chorus.sol:Chorus",
        "label": "collateralPriceAge",
        "offset": 0,
        "slot": "12",
        "type": "t_uint256"
      },
      {
        "astId": 81,
        "contract": "contracts/Chorus.sol:Chorus",
        "label": "liquidationPenatly",
        "offset": 0,
        "slot": "13",
        "type": "t_uint256"
      },
      {
        "astId": 83,
        "contract": "contracts/Chorus.sol:Chorus",
        "label": "inflRatePerSec",
        "offset": 0,
        "slot": "14",
        "type": "t_uint256"
      },
      {
        "astId": 87,
        "contract": "contracts/Chorus.sol:Chorus",
        "label": "inflLastUpdate",
        "offset": 0,
        "slot": "15",
        "type": "t_uint256"
      },
      {
        "astId": 89,
        "contract": "contracts/Chorus.sol:Chorus",
        "label": "inflBeneficiary",
        "offset": 0,
        "slot": "16",
        "type": "t_address"
      }
    ],
    "types": {
      "t_address": {
        "encoding": "inplace",
        "label": "address",
        "numberOfBytes": "20"
      },
      "t_contract(ERC20)1257": {
        "encoding": "inplace",
        "label": "contract ERC20",
        "numberOfBytes": "20"
      },
      "t_contract(ITellor)2437": {
        "encoding": "inplace",
        "label": "contract ITellor",
        "numberOfBytes": "20"
      },
      "t_mapping(t_address,t_mapping(t_address,t_uint256))": {
        "encoding": "mapping",
        "key": "t_address",
        "label": "mapping(address => mapping(address => uint256))",
        "numberOfBytes": "32",
        "value": "t_mapping(t_address,t_uint256)"
      },
      "t_mapping(t_address,t_uint256)": {
        "encoding": "mapping",
        "key": "t_address",
        "label": "mapping(address => uint256)",
        "numberOfBytes": "32",
        "value": "t_uint256"
      },
      "t_string_storage": {
        "encoding": "bytes",
        "label": "string",
        "numberOfBytes": "32"
      },
      "t_uint256": {
        "encoding": "inplace",
        "label": "uint256",
        "numberOfBytes": "32"
      },
      "t_uint8": {
        "encoding": "inplace",
        "label": "uint8",
        "numberOfBytes": "1"
      }
    }
  }
}