{
  "address": "0x9fE46736679d2D9a65F0992F2272dE9f3c7fa6e0",
  "abi": [
    {
      "inputs": [
        {
          "internalType": "address payable",
          "name": "_tellorAddress",
          "type": "address"
        },
        {
          "internalType": "address",
          "name": "_collateralToken",
          "type": "address"
        },
        {
          "internalType": "uint256",
          "name": "_collateralID",
          "type": "uint256"
        },
        {
          "internalType": "uint256",
          "name": "_collateralPriceGranularity",
          "type": "uint256"
        },
        {
          "internalType": "string",
          "name": "_tokenName",
          "type": "string"
        },
        {
          "internalType": "string",
          "name": "_tokenSymbol",
          "type": "string"
        },
        {
          "internalType": "uint256",
          "name": "_inflRatePerYear",
          "type": "uint256"
        },
        {
          "internalType": "address",
          "name": "_inflBeneficiary",
          "type": "address"
        },
        {
          "internalType": "bool",
          "name": "_isWhitelisted",
          "type": "bool"
        }
      ],
      "stateMutability": "nonpayable",
      "type": "constructor"
    },
    {
      "anonymous": false,
      "inputs": [
        {
          "indexed": true,
          "internalType": "address",
          "name": "owner",
          "type": "address"
        },
        {
          "indexed": true,
          "internalType": "address",
          "name": "spender",
          "type": "address"
        },
        {
          "indexed": false,
          "internalType": "uint256",
          "name": "value",
          "type": "uint256"
        }
      ],
      "name": "Approval",
      "type": "event"
    },
    {
      "anonymous": false,
      "inputs": [
        {
          "indexed": false,
          "internalType": "uint256",
          "name": "_collateralPriceAge",
          "type": "uint256"
        }
      ],
      "name": "CollateralPriceAge",
      "type": "event"
    },
    {
      "anonymous": false,
      "inputs": [
        {
          "indexed": false,
          "internalType": "uint256",
          "name": "_collateralThreshold",
          "type": "uint256"
        }
      ],
      "name": "CollateralThreshold",
      "type": "event"
    },
    {
      "anonymous": false,
      "inputs": [
        {
          "indexed": false,
          "internalType": "address",
          "name": "_party",
          "type": "address"
        },
        {
          "indexed": false,
          "internalType": "uint256",
          "name": "_tokensAmnt",
          "type": "uint256"
        },
        {
          "indexed": false,
          "internalType": "uint256",
          "name": "_collateralAmnt",
          "type": "uint256"
        },
        {
          "indexed": false,
          "internalType": "uint256",
          "name": "_collateralPenalty",
          "type": "uint256"
        }
      ],
      "name": "Liquidate",
      "type": "event"
    },
    {
      "anonymous": false,
      "inputs": [
        {
          "indexed": false,
          "internalType": "uint256",
          "name": "_newPenalty",
          "type": "uint256"
        }
      ],
      "name": "LiquidationPenatly",
      "type": "event"
    },
    {
      "anonymous": false,
      "inputs": [
        {
          "indexed": false,
          "internalType": "address",
          "name": "_holder",
          "type": "address"
        },
        {
          "indexed": false,
          "internalType": "uint256",
          "name": "_amount",
          "type": "uint256"
        },
        {
          "indexed": false,
          "internalType": "address",
          "name": "_to",
          "type": "address"
        },
        {
          "indexed": false,
          "internalType": "uint256",
          "name": "_collateralRatio",
          "type": "uint256"
        }
      ],
      "name": "MintTokens",
      "type": "event"
    },
    {
      "anonymous": false,
      "inputs": [
        {
          "indexed": false,
          "internalType": "address",
          "name": "_newAdmin",
          "type": "address"
        }
      ],
      "name": "NewAdmin",
      "type": "event"
    },
    {
      "anonymous": false,
      "inputs": [
        {
          "indexed": false,
          "internalType": "address",
          "name": "_newAdmin",
          "type": "address"
        }
      ],
      "name": "NewWhitelistAdmin",
      "type": "event"
    },
    {
      "anonymous": false,
      "inputs": [
        {
          "indexed": false,
          "internalType": "address",
          "name": "_user",
          "type": "address"
        },
        {
          "indexed": false,
          "internalType": "uint256",
          "name": "_amount",
          "type": "uint256"
        }
      ],
      "name": "NewWhitelistedAmount",
      "type": "event"
    },
    {
      "anonymous": false,
      "inputs": [
        {
          "indexed": true,
          "internalType": "address",
          "name": "from",
          "type": "address"
        },
        {
          "indexed": true,
          "internalType": "address",
          "name": "to",
          "type": "address"
        },
        {
          "indexed": false,
          "internalType": "uint256",
          "name": "value",
          "type": "uint256"
        }
      ],
      "name": "Transfer",
      "type": "event"
    },
    {
      "anonymous": false,
      "inputs": [
        {
          "indexed": false,
          "internalType": "address",
          "name": "_holder",
          "type": "address"
        },
        {
          "indexed": false,
          "internalType": "uint256",
          "name": "_collateralAmnt",
          "type": "uint256"
        },
        {
          "indexed": false,
          "internalType": "uint256",
          "name": "_collateralRatio",
          "type": "uint256"
        }
      ],
      "name": "WithdrawCollateral",
      "type": "event"
    },
    {
      "anonymous": false,
      "inputs": [
        {
          "indexed": false,
          "internalType": "address",
          "name": "_holder",
          "type": "address"
        },
        {
          "indexed": false,
          "internalType": "uint256",
          "name": "_tokenAmnt",
          "type": "uint256"
        },
        {
          "indexed": false,
          "internalType": "uint256",
          "name": "_collateralAmnt",
          "type": "uint256"
        }
      ],
      "name": "WithdrawToken",
      "type": "event"
    },
    {
      "anonymous": false,
      "inputs": [
        {
          "indexed": false,
          "internalType": "address",
          "name": "_user",
          "type": "address"
        },
        {
          "indexed": false,
          "internalType": "uint256",
          "name": "_amount",
          "type": "uint256"
        }
      ],
      "name": "WithdrawTokenRequest",
      "type": "event"
    },
    {
      "inputs": [],
      "name": "RAY",
      "outputs": [
        {
          "internalType": "uint256",
          "name": "",
          "type": "uint256"
        }
      ],
      "stateMutability": "view",
      "type": "function"
    },
    {
      "inputs": [],
      "name": "WAD",
      "outputs": [
        {
          "internalType": "uint256",
          "name": "",
          "type": "uint256"
        }
      ],
      "stateMutability": "view",
      "type": "function"
    },
    {
      "inputs": [],
      "name": "admin",
      "outputs": [
        {
          "internalType": "address",
          "name": "",
          "type": "address"
        }
      ],
      "stateMutability": "view",
      "type": "function"
    },
    {
      "inputs": [
        {
          "internalType": "address",
          "name": "owner",
          "type": "address"
        },
        {
          "internalType": "address",
          "name": "spender",
          "type": "address"
        }
      ],
      "name": "allowance",
      "outputs": [
        {
          "internalType": "uint256",
          "name": "",
          "type": "uint256"
        }
      ],
      "stateMutability": "view",
      "type": "function"
    },
    {
      "inputs": [
        {
          "internalType": "address",
          "name": "spender",
          "type": "address"
        },
        {
          "internalType": "uint256",
          "name": "amount",
          "type": "uint256"
        }
      ],
      "name": "approve",
      "outputs": [
        {
          "internalType": "bool",
          "name": "",
          "type": "bool"
        }
      ],
      "stateMutability": "nonpayable",
      "type": "function"
    },
    {
      "inputs": [
        {
          "internalType": "address",
          "name": "account",
          "type": "address"
        }
      ],
      "name": "balanceOf",
      "outputs": [
        {
          "internalType": "uint256",
          "name": "",
          "type": "uint256"
        }
      ],
      "stateMutability": "view",
      "type": "function"
    },
    {
      "inputs": [],
      "name": "collateralBalance",
      "outputs": [
        {
          "internalType": "uint256",
          "name": "",
          "type": "uint256"
        }
      ],
      "stateMutability": "view",
      "type": "function"
    },
    {
      "inputs": [],
      "name": "collateralID",
      "outputs": [
        {
          "internalType": "uint256",
          "name": "",
          "type": "uint256"
        }
      ],
      "stateMutability": "view",
      "type": "function"
    },
    {
      "inputs": [],
      "name": "collateralPrice",
      "outputs": [
        {
          "internalType": "uint256",
          "name": "",
          "type": "uint256"
        }
      ],
      "stateMutability": "view",
      "type": "function"
    },
    {
      "inputs": [],
      "name": "collateralPriceAge",
      "outputs": [
        {
          "internalType": "uint256",
          "name": "",
          "type": "uint256"
        }
      ],
      "stateMutability": "view",
      "type": "function"
    },
    {
      "inputs": [],
      "name": "collateralPriceGranularity",
      "outputs": [
        {
          "internalType": "uint256",
          "name": "",
          "type": "uint256"
        }
      ],
      "stateMutability": "view",
      "type": "function"
    },
    {
      "inputs": [],
      "name": "collateralRatio",
      "outputs": [
        {
          "internalType": "uint256",
          "name": "",
          "type": "uint256"
        }
      ],
      "stateMutability": "view",
      "type": "function"
    },
    {
      "inputs": [],
      "name": "collateralThreshold",
      "outputs": [
        {
          "internalType": "uint256",
          "name": "",
          "type": "uint256"
        }
      ],
      "stateMutability": "view",
      "type": "function"
    },
    {
      "inputs": [],
      "name": "collateralToken",
      "outputs": [
        {
          "internalType": "contract ERC20",
          "name": "",
          "type": "address"
        }
      ],
      "stateMutability": "view",
      "type": "function"
    },
    {
      "inputs": [],
      "name": "decimals",
      "outputs": [
        {
          "internalType": "uint8",
          "name": "",
          "type": "uint8"
        }
      ],
      "stateMutability": "view",
      "type": "function"
    },
    {
      "inputs": [
        {
          "internalType": "address",
          "name": "spender",
          "type": "address"
        },
        {
          "internalType": "uint256",
          "name": "subtractedValue",
          "type": "uint256"
        }
      ],
      "name": "decreaseAllowance",
      "outputs": [
        {
          "internalType": "bool",
          "name": "",
          "type": "bool"
        }
      ],
      "stateMutability": "nonpayable",
      "type": "function"
    },
    {
      "inputs": [
        {
          "internalType": "uint256",
          "name": "_amount",
          "type": "uint256"
        }
      ],
      "name": "depositCollateral",
      "outputs": [],
      "stateMutability": "nonpayable",
      "type": "function"
    },
    {
      "inputs": [
        {
          "internalType": "address",
          "name": "spender",
          "type": "address"
        },
        {
          "internalType": "uint256",
          "name": "addedValue",
          "type": "uint256"
        }
      ],
      "name": "increaseAllowance",
      "outputs": [
        {
          "internalType": "bool",
          "name": "",
          "type": "bool"
        }
      ],
      "stateMutability": "nonpayable",
      "type": "function"
    },
    {
      "inputs": [],
      "name": "inflBeneficiary",
      "outputs": [
        {
          "internalType": "address",
          "name": "",
          "type": "address"
        }
      ],
      "stateMutability": "view",
      "type": "function"
    },
    {
      "inputs": [],
      "name": "inflLastUpdate",
      "outputs": [
        {
          "internalType": "uint256",
          "name": "",
          "type": "uint256"
        }
      ],
      "stateMutability": "view",
      "type": "function"
    },
    {
      "inputs": [],
      "name": "inflRatePerSec",
      "outputs": [
        {
          "internalType": "uint256",
          "name": "",
          "type": "uint256"
        }
      ],
      "stateMutability": "view",
      "type": "function"
    },
    {
      "inputs": [],
      "name": "isWhitelistedSystem",
      "outputs": [
        {
          "internalType": "bool",
          "name": "",
          "type": "bool"
        }
      ],
      "stateMutability": "view",
      "type": "function"
    },
    {
      "inputs": [],
      "name": "liquidate",
      "outputs": [],
      "stateMutability": "nonpayable",
      "type": "function"
    },
    {
      "inputs": [],
      "name": "liquidationPenatly",
      "outputs": [
        {
          "internalType": "uint256",
          "name": "",
          "type": "uint256"
        }
      ],
      "stateMutability": "view",
      "type": "function"
    },
    {
      "inputs": [
        {
          "internalType": "uint256",
          "name": "_amount",
          "type": "uint256"
        },
        {
          "internalType": "address",
          "name": "_to",
          "type": "address"
        }
      ],
      "name": "mintToken",
      "outputs": [],
      "stateMutability": "nonpayable",
      "type": "function"
    },
    {
      "inputs": [],
      "name": "name",
      "outputs": [
        {
          "internalType": "string",
          "name": "",
          "type": "string"
        }
      ],
      "stateMutability": "view",
      "type": "function"
    },
    {
      "inputs": [
        {
          "internalType": "uint256",
          "name": "_amount",
          "type": "uint256"
        }
      ],
      "name": "requestWithdrawToken",
      "outputs": [],
      "stateMutability": "nonpayable",
      "type": "function"
    },
    {
      "inputs": [
        {
          "internalType": "address",
          "name": "_newAdmin",
          "type": "address"
        }
      ],
      "name": "setAdmin",
      "outputs": [],
      "stateMutability": "nonpayable",
      "type": "function"
    },
    {
      "inputs": [
        {
          "internalType": "uint256",
          "name": "_amount",
          "type": "uint256"
        }
      ],
      "name": "setCollateralPriceAge",
      "outputs": [],
      "stateMutability": "nonpayable",
      "type": "function"
    },
    {
      "inputs": [
        {
          "internalType": "uint256",
          "name": "_amount",
          "type": "uint256"
        }
      ],
      "name": "setCollateralThreshold",
      "outputs": [],
      "stateMutability": "nonpayable",
      "type": "function"
    },
    {
      "inputs": [
        {
          "internalType": "uint256",
          "name": "_amount",
          "type": "uint256"
        }
      ],
      "name": "setLiquidationPenatly",
      "outputs": [],
      "stateMutability": "nonpayable",
      "type": "function"
    },
    {
      "inputs": [
        {
          "internalType": "address",
          "name": "_newAdmin",
          "type": "address"
        }
      ],
      "name": "setWhitelistAdmin",
      "outputs": [],
      "stateMutability": "nonpayable",
      "type": "function"
    },
    {
      "inputs": [
        {
          "internalType": "address",
          "name": "_user",
          "type": "address"
        },
        {
          "internalType": "uint256",
          "name": "_amount",
          "type": "uint256"
        }
      ],
      "name": "setWhitelistedAmount",
      "outputs": [],
      "stateMutability": "nonpayable",
      "type": "function"
    },
    {
      "inputs": [],
      "name": "symbol",
      "outputs": [
        {
          "internalType": "string",
          "name": "",
          "type": "string"
        }
      ],
      "stateMutability": "view",
      "type": "function"
    },
    {
      "inputs": [],
      "name": "tokenPrice",
      "outputs": [
        {
          "internalType": "uint256",
          "name": "",
          "type": "uint256"
        }
      ],
      "stateMutability": "view",
      "type": "function"
    },
    {
      "inputs": [],
      "name": "totalSupply",
      "outputs": [
        {
          "internalType": "uint256",
          "name": "",
          "type": "uint256"
        }
      ],
      "stateMutability": "view",
      "type": "function"
    },
    {
      "inputs": [
        {
          "internalType": "address",
          "name": "recipient",
          "type": "address"
        },
        {
          "internalType": "uint256",
          "name": "amount",
          "type": "uint256"
        }
      ],
      "name": "transfer",
      "outputs": [
        {
          "internalType": "bool",
          "name": "",
          "type": "bool"
        }
      ],
      "stateMutability": "nonpayable",
      "type": "function"
    },
    {
      "inputs": [
        {
          "internalType": "address",
          "name": "sender",
          "type": "address"
        },
        {
          "internalType": "address",
          "name": "recipient",
          "type": "address"
        },
        {
          "internalType": "uint256",
          "name": "amount",
          "type": "uint256"
        }
      ],
      "name": "transferFrom",
      "outputs": [
        {
          "internalType": "bool",
          "name": "",
          "type": "bool"
        }
      ],
      "stateMutability": "nonpayable",
      "type": "function"
    },
    {
      "inputs": [],
      "name": "updateInflation",
      "outputs": [],
      "stateMutability": "nonpayable",
      "type": "function"
    },
    {
      "inputs": [],
      "name": "whitelistAdmin",
      "outputs": [
        {
          "internalType": "address",
          "name": "",
          "type": "address"
        }
      ],
      "stateMutability": "view",
      "type": "function"
    },
    {
      "inputs": [
        {
          "internalType": "address",
          "name": "",
          "type": "address"
        }
      ],
      "name": "whitelistedAmount",
      "outputs": [
        {
          "internalType": "uint256",
          "name": "",
          "type": "uint256"
        }
      ],
      "stateMutability": "view",
      "type": "function"
    },
    {
      "inputs": [
        {
          "internalType": "uint256",
          "name": "_amount",
          "type": "uint256"
        }
      ],
      "name": "withdrawCollateral",
      "outputs": [],
      "stateMutability": "nonpayable",
      "type": "function"
    },
    {
      "inputs": [],
      "name": "withdrawToken",
      "outputs": [],
      "stateMutability": "nonpayable",
      "type": "function"
    }
  ],
  "transactionHash": "0x3180f447cd1e805fe714f17a2bfd048db36031e33b78b73744602564f20d64f3",
  "args": [
    "0x5FbDB2315678afecb367f032d93F642f64180aa3",
    "0xe7f1725E7734CE288F8367e1Bb143E90bb3F0512",
    1,
    1000000,
    "Note",
    "NTO",
    "105170917901244400",
    "0x9965507D1a55bcC2695C58ba16FB37d819B0A4dc",
    false
  ],
  "solcInputHash": "c15db38592d3463a0eaa0113d0cc6faf",
  "bytecode": "0x608060405233600960006101000a81548173ffffffffffffffffffffffffffffffffffffffff021916908373ffffffffffffffffffffffffffffffffffffffff160217905550670de0b6b3a7640000600a556714d1120d7b160000600d55610e10600e556000600f55426011553480156200007957600080fd5b5060405162005c8a38038062005c8a83398181016040528101906200009f9190620006c4565b8484828b806000806101000a81548173ffffffffffffffffffffffffffffffffffffffff021916908373ffffffffffffffffffffffffffffffffffffffff160217905550508260069080519060200190620000fc92919062000546565b5081600790805190602001906200011592919062000546565b506012600860006101000a81548160ff021916908360ff16021790555080600360146101000a81548160ff02191690831515021790555033600360006101000a81548173ffffffffffffffffffffffffffffffffffffffff021916908373ffffffffffffffffffffffffffffffffffffffff16021790555050505082600081118015620001aa575068056bc75e2d6310000081105b620001ec576040517f08c379a0000000000000000000000000000000000000000000000000000000008152600401620001e390620008d1565b60405180910390fd5b87600b8190555088600860016101000a81548173ffffffffffffffffffffffffffffffffffffffff021916908373ffffffffffffffffffffffffffffffffffffffff16021790555086600c81905550600087118015620002545750670de0b6b3a76400008711155b62000296576040517f08c379a00000000000000000000000000000000000000000000000000000000081526004016200028d90620008d1565b60405180910390fd5b600073ffffffffffffffffffffffffffffffffffffffff168373ffffffffffffffffffffffffffffffffffffffff16141562000309576040517f08c379a00000000000000000000000000000000000000000000000000000000081526004016200030090620008af565b60405180910390fd5b82601260006101000a81548173ffffffffffffffffffffffffffffffffffffffff021916908373ffffffffffffffffffffffffffffffffffffffff1602179055506200035b846200037160201b60201c565b6010819055505050505050505050505062000d32565b6000620003d262000390670de0b6b3a7640000620003d960201b60201c565b620003c6620003a585620003d960201b60201c565b620003ba6301e13380620003f860201b60201c565b6200041f60201b60201c565b6200047360201b60201c565b9050919050565b6000620003f182633b9aca00620004d160201b60201c565b9050919050565b600062000418826b033b2e3c9fd0803ce8000000620004d160201b60201c565b9050919050565b6000816200045f62000444856b033b2e3c9fd0803ce8000000620004d160201b60201c565b600285620004539190620009c0565b6200047360201b60201c565b6200046b9190620009c0565b905092915050565b600082828462000484919062000963565b9150811015620004cb576040517f08c379a0000000000000000000000000000000000000000000000000000000008152600401620004c2906200088d565b60405180910390fd5b92915050565b600080821480620004fe575082828385620004ed9190620009f8565b925082620004fc9190620009c0565b145b62000540576040517f08c379a000000000000000000000000000000000000000000000000000000000815260040162000537906200086b565b60405180910390fd5b92915050565b828054620005549062000aed565b90600052602060002090601f016020900481019282620005785760008555620005c4565b82601f106200059357805160ff1916838001178555620005c4565b82800160010185558215620005c4579182015b82811115620005c3578251825591602001919060010190620005a6565b5b509050620005d39190620005d7565b5090565b5b80821115620005f2576000816000905550600101620005d8565b5090565b60006200060d62000607846200091c565b620008f3565b9050828152602081018484840111156200062657600080fd5b6200063384828562000ab7565b509392505050565b6000815190506200064c8162000cca565b92915050565b600081519050620006638162000ce4565b92915050565b6000815190506200067a8162000cfe565b92915050565b600082601f8301126200069257600080fd5b8151620006a4848260208601620005f6565b91505092915050565b600081519050620006be8162000d18565b92915050565b60008060008060008060008060006101208a8c031215620006e457600080fd5b6000620006f48c828d0162000652565b9950506020620007078c828d016200063b565b98505060406200071a8c828d01620006ad565b97505060606200072d8c828d01620006ad565b96505060808a015167ffffffffffffffff8111156200074b57600080fd5b620007598c828d0162000680565b95505060a08a015167ffffffffffffffff8111156200077757600080fd5b620007858c828d0162000680565b94505060c0620007988c828d01620006ad565b93505060e0620007ab8c828d016200063b565b925050610100620007bf8c828d0162000669565b9150509295985092959850929598565b6000620007de60148362000952565b9150620007eb8262000c26565b602082019050919050565b60006200080560148362000952565b9150620008128262000c4f565b602082019050919050565b60006200082c601b8362000952565b9150620008398262000c78565b602082019050919050565b600062000853601f8362000952565b9150620008608262000ca1565b602082019050919050565b600060208201905081810360008301526200088681620007cf565b9050919050565b60006020820190508181036000830152620008a881620007f6565b9050919050565b60006020820190508181036000830152620008ca816200081d565b9050919050565b60006020820190508181036000830152620008ec8162000844565b9050919050565b6000620008ff62000912565b90506200090d828262000b23565b919050565b6000604051905090565b600067ffffffffffffffff8211156200093a576200093962000be6565b5b620009458262000c15565b9050602081019050919050565b600082825260208201905092915050565b6000620009708262000aad565b91506200097d8362000aad565b9250827fffffffffffffffffffffffffffffffffffffffffffffffffffffffffffffffff03821115620009b557620009b462000b59565b5b828201905092915050565b6000620009cd8262000aad565b9150620009da8362000aad565b925082620009ed57620009ec62000b88565b5b828204905092915050565b600062000a058262000aad565b915062000a128362000aad565b9250817fffffffffffffffffffffffffffffffffffffffffffffffffffffffffffffffff048311821515161562000a4e5762000a4d62000b59565b5b828202905092915050565b600062000a668262000a8d565b9050919050565b600062000a7a8262000a8d565b9050919050565b60008115159050919050565b600073ffffffffffffffffffffffffffffffffffffffff82169050919050565b6000819050919050565b60005b8381101562000ad757808201518184015260208101905062000aba565b8381111562000ae7576000848401525b50505050565b6000600282049050600182168062000b0657607f821691505b6020821081141562000b1d5762000b1c62000bb7565b5b50919050565b62000b2e8262000c15565b810181811067ffffffffffffffff8211171562000b505762000b4f62000be6565b5b80604052505050565b7f4e487b7100000000000000000000000000000000000000000000000000000000600052601160045260246000fd5b7f4e487b7100000000000000000000000000000000000000000000000000000000600052601260045260246000fd5b7f4e487b7100000000000000000000000000000000000000000000000000000000600052602260045260246000fd5b7f4e487b7100000000000000000000000000000000000000000000000000000000600052604160045260246000fd5b6000601f19601f8301169050919050565b7f64732d6d6174682d6d756c2d6f766572666c6f77000000000000000000000000600082015250565b7f64732d6d6174682d6164642d6f766572666c6f77000000000000000000000000600082015250565b7f62656e69666963696172792061646472657373206e6f74207365740000000000600082015250565b7f76616c7565206e6f742077697468696e20616c6c6f776564206c696d69747300600082015250565b62000cd58162000a59565b811462000ce157600080fd5b50565b62000cef8162000a6d565b811462000cfb57600080fd5b50565b62000d098162000a81565b811462000d1557600080fd5b50565b62000d238162000aad565b811462000d2f57600080fd5b50565b614f488062000d426000396000f3fe608060405234801561001057600080fd5b50600436106102695760003560e01c8063704b6c0211610151578063b4eae1cb116100c3578063c98c05b711610087578063c98c05b7146106f6578063ca628c7814610714578063dd62ed3e1461071e578063e8d8a2551461074e578063f06b46581461077e578063f851a4401461079a57610269565b8063b4eae1cb14610666578063b8eb5e4b14610684578063b93e0cb5146106a2578063b9d3d6e3146106be578063bad4a01f146106da57610269565b806395d89b411161011557806395d89b4114610592578063a140ae23146105b0578063a457c2d7146105cc578063a8d49e64146105fc578063a9059cbb14610618578063b2016bd41461064857610269565b8063704b6c02146104ec57806370a08231146105085780637ff9b596146105385780638e8cfbde146105565780639014de631461057457610269565b806339509351116101ea5780635891de72116101ae5780635891de721461044e57806359825a4c1461046c5780636112fe2e1461047657806364494074146104925780636479a566146104b05780636a146024146104ce57610269565b806339509351146103a8578063401ce372146103d857806348500ccf146103f45780634adbe55114610412578063552033c41461043057610269565b806323b872dd1161023157806323b872dd1461031457806328a070251461034457806329a150ba1461034e578063313ce5671461036c57806334a5e10b1461038a57610269565b806306fdde031461026e57806307da28b71461028c578063095ea7b3146102a85780631527262b146102d857806318160ddd146102f6575b600080fd5b6102766107b8565b604051610283919061413b565b60405180910390f35b6102a660048036038101906102a19190613a5b565b61084a565b005b6102c260048036038101906102bd9190613a5b565b61095b565b6040516102cf9190614105565b60405180910390f35b6102e0610972565b6040516102ed9190613fc9565b60405180910390f35b6102fe610998565b60405161030b91906144fd565b60405180910390f35b61032e60048036038101906103299190613a0c565b6109a2565b60405161033b9190614105565b60405180910390f35b61034c610a4c565b005b610356610e20565b60405161036391906144fd565b60405180910390f35b610374610e26565b6040516103819190614541565b60405180910390f35b610392610e3d565b60405161039f9190614105565b60405180910390f35b6103c260048036038101906103bd9190613a5b565b610e50565b6040516103cf9190614105565b60405180910390f35b6103f260048036038101906103ed9190613ac0565b610eee565b005b6103fc611018565b60405161040991906144fd565b60405180910390f35b61041a61101e565b6040516104279190613fc9565b60405180910390f35b610438611044565b60405161044591906144fd565b60405180910390f35b610456611054565b60405161046391906144fd565b60405180910390f35b6104746110db565b005b610490600480360381019061048b9190613ac0565b6111a4565b005b61049a6113b1565b6040516104a791906144fd565b60405180910390f35b6104b86113b7565b6040516104c591906144fd565b60405180910390f35b6104d66113bd565b6040516104e391906144fd565b60405180910390f35b610506600480360381019061050191906139a7565b6113c9565b005b610522600480360381019061051d91906139a7565b611544565b60405161052f91906144fd565b60405180910390f35b61054061158d565b60405161054d91906144fd565b60405180910390f35b61055e6115b0565b60405161056b91906144fd565b60405180910390f35b61057c6115b6565b60405161058991906144fd565b60405180910390f35b61059a6115bc565b6040516105a7919061413b565b60405180910390f35b6105ca60048036038101906105c59190613b12565b61164e565b005b6105e660048036038101906105e19190613a5b565b61177a565b6040516105f39190614105565b60405180910390f35b610616600480360381019061061191906139a7565b611818565b005b610632600480360381019061062d9190613a5b565b611993565b60405161063f9190614105565b60405180910390f35b6106506119aa565b60405161065d9190614120565b60405180910390f35b61066e6119d0565b60405161067b91906144fd565b60405180910390f35b61068c611b19565b60405161069991906144fd565b60405180910390f35b6106bc60048036038101906106b79190613ac0565b611b1f565b005b6106d860048036038101906106d39190613ac0565b611bf0565b005b6106f460048036038101906106ef9190613ac0565b611d53565b005b6106fe611f19565b60405161070b91906144fd565b60405180910390f35b61071c611fcb565b005b610738600480360381019061073391906139d0565b612304565b60405161074591906144fd565b60405180910390f35b610768600480360381019061076391906139a7565b61238b565b60405161077591906144fd565b60405180910390f35b61079860048036038101906107939190613ac0565b6123a3565b005b6107a26124e1565b6040516107af9190613fc9565b60405180910390f35b6060600680546107c790614739565b80601f01602080910402602001604051908101604052809291908181526020018280546107f390614739565b80156108405780601f1061081557610100808354040283529160200191610840565b820191906000526020600020905b81548152906001019060200180831161082357829003601f168201915b5050505050905090565b600360009054906101000a900473ffffffffffffffffffffffffffffffffffffffff1673ffffffffffffffffffffffffffffffffffffffff163373ffffffffffffffffffffffffffffffffffffffff16146108da576040517f08c379a00000000000000000000000000000000000000000000000000000000081526004016108d1906142dd565b60405180910390fd5b80600460008473ffffffffffffffffffffffffffffffffffffffff1673ffffffffffffffffffffffffffffffffffffffff168152602001908152602001600020819055507fc3837f973800685e86828b9ee70e448dee134a698f634c94be8e1f2435967873828260405161094f92919061401b565b60405180910390a15050565b6000610968338484612507565b6001905092915050565b601260009054906101000a900473ffffffffffffffffffffffffffffffffffffffff1681565b6000600554905090565b60006109af8484846126d2565b610a41843384600260008973ffffffffffffffffffffffffffffffffffffffff1673ffffffffffffffffffffffffffffffffffffffff16815260200190815260200160002060003373ffffffffffffffffffffffffffffffffffffffff1673ffffffffffffffffffffffffffffffffffffffff16815260200190815260200160002054610a3c9190614659565b612507565b600190509392505050565b600d54610a576119d0565b11610a97576040517f08c379a0000000000000000000000000000000000000000000000000000000008152600401610a8e9061419d565b60405180910390fd5b6000610aa233611544565b11610ae2576040517f08c379a0000000000000000000000000000000000000000000000000000000008152600401610ad99061423d565b60405180910390fd5b6000610b9f600860019054906101000a900473ffffffffffffffffffffffffffffffffffffffff1673ffffffffffffffffffffffffffffffffffffffff166370a08231306040518263ffffffff1660e01b8152600401610b429190613fc9565b60206040518083038186803b158015610b5a57600080fd5b505afa158015610b6e573d6000803e3d6000fd5b505050506040513d601f19601f82011682018060405250810190610b929190613ae9565b610b9a610998565b612adb565b90506000610bac33611544565b90506000610bba8284612b17565b90506000610bca82600f54612b17565b90507f158ba9ab7bbbd08eeffa4753bad41f4d450e24831d293427308badf3eadd8c7633848484604051610c0194939291906140c0565b60405180910390a1610c133384612b5b565b600860019054906101000a900473ffffffffffffffffffffffffffffffffffffffff1673ffffffffffffffffffffffffffffffffffffffff1663a9059cbb33610c5c8585612cd7565b6040518363ffffffff1660e01b8152600401610c7992919061401b565b602060405180830381600087803b158015610c9357600080fd5b505af1158015610ca7573d6000803e3d6000fd5b505050506040513d601f19601f82011682018060405250810190610ccb9190613a97565b610d0a576040517f08c379a0000000000000000000000000000000000000000000000000000000008152600401610d019061447d565b60405180910390fd5b600860019054906101000a900473ffffffffffffffffffffffffffffffffffffffff1673ffffffffffffffffffffffffffffffffffffffff1663a9059cbb601260009054906101000a900473ffffffffffffffffffffffffffffffffffffffff16836040518363ffffffff1660e01b8152600401610d8992919061401b565b602060405180830381600087803b158015610da357600080fd5b505af1158015610db7573d6000803e3d6000fd5b505050506040513d601f19601f82011682018060405250810190610ddb9190613a97565b610e1a576040517f08c379a0000000000000000000000000000000000000000000000000000000008152600401610e119061431d565b60405180910390fd5b50505050565b600f5481565b6000600860009054906101000a900460ff16905090565b600360149054906101000a900460ff1681565b6000610ee4338484600260003373ffffffffffffffffffffffffffffffffffffffff1673ffffffffffffffffffffffffffffffffffffffff16815260200190815260200160002060008873ffffffffffffffffffffffffffffffffffffffff1673ffffffffffffffffffffffffffffffffffffffff16815260200190815260200160002054610edf9190614578565b612507565b6001905092915050565b600960009054906101000a900473ffffffffffffffffffffffffffffffffffffffff1673ffffffffffffffffffffffffffffffffffffffff163373ffffffffffffffffffffffffffffffffffffffff1614610f7e576040517f08c379a0000000000000000000000000000000000000000000000000000000008152600401610f759061429d565b60405180910390fd5b80600081118015610f97575068056bc75e2d6310000081105b610fd6576040517f08c379a0000000000000000000000000000000000000000000000000000000008152600401610fcd906143dd565b60405180910390fd5b81600d819055507f28e98951093a92e2a12cfccced98a5e14ff4a69f23c1137a90353ea343a879d58260405161100c91906144fd565b60405180910390a15050565b600c5481565b600360009054906101000a900473ffffffffffffffffffffffffffffffffffffffff1681565b6b033b2e3c9fd0803ce800000081565b6000806000611072600b54600e544261106d9190614659565b612d30565b5091509150816110b7576040517f08c379a00000000000000000000000000000000000000000000000000000000081526004016110ae9061433d565b60405180910390fd5b6110d4816110cf670de0b6b3a7640000600c54612eeb565b612f35565b9250505090565b6000601154426110eb9190614659565b905060008111611130576040517f08c379a0000000000000000000000000000000000000000000000000000000008152600401611127906142bd565b60405180910390fd5b42601181905550611146600a5460105483612fa2565b600a81905550600061117261116561115c610998565b60105485612fc0565b61116d610998565b612cd7565b90506111a0601260009054906101000a900473ffffffffffffffffffffffffffffffffffffffff1682612fde565b5050565b600960009054906101000a900473ffffffffffffffffffffffffffffffffffffffff1673ffffffffffffffffffffffffffffffffffffffff163373ffffffffffffffffffffffffffffffffffffffff1614611234576040517f08c379a000000000000000000000000000000000000000000000000000000000815260040161122b9061429d565b60405180910390fd5b600860019054906101000a900473ffffffffffffffffffffffffffffffffffffffff1673ffffffffffffffffffffffffffffffffffffffff1663a9059cbb33836040518363ffffffff1660e01b815260040161129192919061401b565b602060405180830381600087803b1580156112ab57600080fd5b505af11580156112bf573d6000803e3d6000fd5b505050506040513d601f19601f820116820180604052508101906112e39190613a97565b611322576040517f08c379a00000000000000000000000000000000000000000000000000000000081526004016113199061449d565b60405180910390fd5b600061132c6119d0565b9050600d548110611372576040517f08c379a0000000000000000000000000000000000000000000000000000000008152600401611369906141bd565b60405180910390fd5b7f627a692d5a03ab34732c0d2aa319f3ecdebdc4528f383eabcb25441dc0a70cfb3383836040516113a593929190614089565b60405180910390a15050565b60105481565b600e5481565b670de0b6b3a764000081565b600960009054906101000a900473ffffffffffffffffffffffffffffffffffffffff1673ffffffffffffffffffffffffffffffffffffffff163373ffffffffffffffffffffffffffffffffffffffff1614611459576040517f08c379a00000000000000000000000000000000000000000000000000000000081526004016114509061429d565b60405180910390fd5b600073ffffffffffffffffffffffffffffffffffffffff168173ffffffffffffffffffffffffffffffffffffffff1614156114c9576040517f08c379a00000000000000000000000000000000000000000000000000000000081526004016114c0906144dd565b60405180910390fd5b80600960006101000a81548173ffffffffffffffffffffffffffffffffffffffff021916908373ffffffffffffffffffffffffffffffffffffffff1602179055507f71614071b88dee5e0b2ae578a9dd7b2ebbe9ae832ba419dc0242cd065a290b6c816040516115399190613fc9565b60405180910390a150565b6000600160008373ffffffffffffffffffffffffffffffffffffffff1673ffffffffffffffffffffffffffffffffffffffff168152602001908152602001600020549050919050565b60006115ab600a54601054601154426115a69190614659565b612fa2565b905090565b600d5481565b60115481565b6060600780546115cb90614739565b80601f01602080910402602001604051908101604052809291908181526020018280546115f790614739565b80156116445780601f1061161957610100808354040283529160200191611644565b820191906000526020600020905b81548152906001019060200180831161162757829003601f168201915b5050505050905090565b600960009054906101000a900473ffffffffffffffffffffffffffffffffffffffff1673ffffffffffffffffffffffffffffffffffffffff163373ffffffffffffffffffffffffffffffffffffffff16146116de576040517f08c379a00000000000000000000000000000000000000000000000000000000081526004016116d59061429d565b60405180910390fd5b6116e88183612fde565b60006116f26119d0565b9050600d548110611738576040517f08c379a000000000000000000000000000000000000000000000000000000000815260040161172f906141bd565b60405180910390fd5b7f8aa79244595326e02b94ff370fec2bf34048b114fa3566a1928de6961944b6c43384848460405161176d9493929190614044565b60405180910390a1505050565b600061180e338484600260003373ffffffffffffffffffffffffffffffffffffffff1673ffffffffffffffffffffffffffffffffffffffff16815260200190815260200160002060008873ffffffffffffffffffffffffffffffffffffffff1673ffffffffffffffffffffffffffffffffffffffff168152602001908152602001600020546118099190614659565b612507565b6001905092915050565b600360009054906101000a900473ffffffffffffffffffffffffffffffffffffffff1673ffffffffffffffffffffffffffffffffffffffff163373ffffffffffffffffffffffffffffffffffffffff16146118a8576040517f08c379a000000000000000000000000000000000000000000000000000000000815260040161189f906142dd565b60405180910390fd5b600073ffffffffffffffffffffffffffffffffffffffff168173ffffffffffffffffffffffffffffffffffffffff161415611918576040517f08c379a000000000000000000000000000000000000000000000000000000000815260040161190f906144dd565b60405180910390fd5b80600360006101000a81548173ffffffffffffffffffffffffffffffffffffffff021916908373ffffffffffffffffffffffffffffffffffffffff1602179055507f68e2d4cfa0a40c3abfa7153a966c187b03e893a7e358a5cd4de067e7e3da5240816040516119889190613fc9565b60405180910390a150565b60006119a03384846126d2565b6001905092915050565b600860019054906101000a900473ffffffffffffffffffffffffffffffffffffffff1681565b600080600860019054906101000a900473ffffffffffffffffffffffffffffffffffffffff1673ffffffffffffffffffffffffffffffffffffffff166370a08231306040518263ffffffff1660e01b8152600401611a2e9190613fc9565b60206040518083038186803b158015611a4657600080fd5b505afa158015611a5a573d6000803e3d6000fd5b505050506040513d601f19601f82011682018060405250810190611a7e9190613ae9565b90506000611a8a610998565b1480611a965750600081145b15611aa5576000915050611b16565b6000611ab8611ab2611054565b83612b17565b90506000611add611ac7610998565b60105460115442611ad89190614659565b612fc0565b90506000611af2611aec61158d565b83612b17565b9050611b0f670de0b6b3a7640000611b0a8386612adb565b61323c565b9450505050505b90565b600b5481565b600960009054906101000a900473ffffffffffffffffffffffffffffffffffffffff1673ffffffffffffffffffffffffffffffffffffffff163373ffffffffffffffffffffffffffffffffffffffff1614611baf576040517f08c379a0000000000000000000000000000000000000000000000000000000008152600401611ba69061429d565b60405180910390fd5b80600e819055507ff446a856a251d3949a294b9b5a1887d32750b34a18bb135814cfc300119ca84d81604051611be591906144fd565b60405180910390a150565b60008111611c33576040517f08c379a0000000000000000000000000000000000000000000000000000000008152600401611c2a9061441d565b60405180910390fd5b80611c3d33611544565b1015611c7e576040517f08c379a0000000000000000000000000000000000000000000000000000000008152600401611c759061427d565b60405180910390fd5b42601360003373ffffffffffffffffffffffffffffffffffffffff1673ffffffffffffffffffffffffffffffffffffffff1681526020019081526020016000206001018190555080601360003373ffffffffffffffffffffffffffffffffffffffff1673ffffffffffffffffffffffffffffffffffffffff16815260200190815260200160002060000181905550611d173330836126d2565b7f775018a2778ce1872c0e8479c44904756ec55daa3afe7fc35951cea8ef67126b3382604051611d4892919061401b565b60405180910390a150565b600960009054906101000a900473ffffffffffffffffffffffffffffffffffffffff1673ffffffffffffffffffffffffffffffffffffffff163373ffffffffffffffffffffffffffffffffffffffff1614611de3576040517f08c379a0000000000000000000000000000000000000000000000000000000008152600401611dda9061429d565b60405180910390fd5b60008111611e26576040517f08c379a0000000000000000000000000000000000000000000000000000000008152600401611e1d9061435d565b60405180910390fd5b600860019054906101000a900473ffffffffffffffffffffffffffffffffffffffff1673ffffffffffffffffffffffffffffffffffffffff166323b872dd3330846040518463ffffffff1660e01b8152600401611e8593929190613fe4565b602060405180830381600087803b158015611e9f57600080fd5b505af1158015611eb3573d6000803e3d6000fd5b505050506040513d601f19601f82011682018060405250810190611ed79190613a97565b611f16576040517f08c379a0000000000000000000000000000000000000000000000000000000008152600401611f0d9061437d565b60405180910390fd5b50565b6000600860019054906101000a900473ffffffffffffffffffffffffffffffffffffffff1673ffffffffffffffffffffffffffffffffffffffff166370a08231306040518263ffffffff1660e01b8152600401611f769190613fc9565b60206040518083038186803b158015611f8e57600080fd5b505afa158015611fa2573d6000803e3d6000fd5b505050506040513d601f19601f82011682018060405250810190611fc69190613ae9565b905090565b6000601360003373ffffffffffffffffffffffffffffffffffffffff1673ffffffffffffffffffffffffffffffffffffffff1681526020019081526020016000206040518060400160405290816000820154815260200160018201548152505090506000601360003373ffffffffffffffffffffffffffffffffffffffff1673ffffffffffffffffffffffffffffffffffffffff168152602001908152602001600020600001549050600081116120b7576040517f08c379a00000000000000000000000000000000000000000000000000000000081526004016120ae9061441d565b60405180910390fd5b600060056120c3610998565b8360646120d091906145ff565b6120da91906145ce565b6120e491906145ce565b60016120f09190614578565b9050806201518061210191906145ff565b8360200151426121119190614659565b1015612152576040517f08c379a0000000000000000000000000000000000000000000000000000000008152600401612149906142fd565b60405180910390fd5b6000601360003373ffffffffffffffffffffffffffffffffffffffff1673ffffffffffffffffffffffffffffffffffffffff1681526020019081526020016000206000018190555060006121a4611054565b905060006121b96121b361158d565b83612adb565b905060006121c78286612b17565b90506121d33086612b5b565b600860019054906101000a900473ffffffffffffffffffffffffffffffffffffffff1673ffffffffffffffffffffffffffffffffffffffff1663a9059cbb33836040518363ffffffff1660e01b815260040161223092919061401b565b602060405180830381600087803b15801561224a57600080fd5b505af115801561225e573d6000803e3d6000fd5b505050506040513d601f19601f820116820180604052508101906122829190613a97565b6122c1576040517f08c379a00000000000000000000000000000000000000000000000000000000081526004016122b89061421d565b60405180910390fd5b7f7575c9e41ba6d91ef21e39bd62b5b9df62fc9b0401379fdf9fe1fa372f41e7c13386836040516122f493929190614089565b60405180910390a1505050505050565b6000600260008473ffffffffffffffffffffffffffffffffffffffff1673ffffffffffffffffffffffffffffffffffffffff16815260200190815260200160002060008373ffffffffffffffffffffffffffffffffffffffff1673ffffffffffffffffffffffffffffffffffffffff16815260200190815260200160002054905092915050565b60046020528060005260406000206000915090505481565b600960009054906101000a900473ffffffffffffffffffffffffffffffffffffffff1673ffffffffffffffffffffffffffffffffffffffff163373ffffffffffffffffffffffffffffffffffffffff1614612433576040517f08c379a000000000000000000000000000000000000000000000000000000000815260040161242a9061429d565b60405180910390fd5b8060008111801561244c575068056bc75e2d6310000081105b61248b576040517f08c379a0000000000000000000000000000000000000000000000000000000008152600401612482906143dd565b60405180910390fd5b61249e8268056bc75e2d63100000612adb565b600f819055507fb410b9fb1c7ee253f64b4393c5fa78a4d64c9f4495828b8c9e62813a5c53528d600f546040516124d591906144fd565b60405180910390a15050565b600960009054906101000a900473ffffffffffffffffffffffffffffffffffffffff1681565b600073ffffffffffffffffffffffffffffffffffffffff168373ffffffffffffffffffffffffffffffffffffffff161415612577576040517f08c379a000000000000000000000000000000000000000000000000000000000815260040161256e9061443d565b60405180910390fd5b600073ffffffffffffffffffffffffffffffffffffffff168273ffffffffffffffffffffffffffffffffffffffff1614156125e7576040517f08c379a00000000000000000000000000000000000000000000000000000000081526004016125de906141dd565b60405180910390fd5b80600260008573ffffffffffffffffffffffffffffffffffffffff1673ffffffffffffffffffffffffffffffffffffffff16815260200190815260200160002060008473ffffffffffffffffffffffffffffffffffffffff1673ffffffffffffffffffffffffffffffffffffffff168152602001908152602001600020819055508173ffffffffffffffffffffffffffffffffffffffff168373ffffffffffffffffffffffffffffffffffffffff167f8c5be1e5ebec7d5bd14f71427d1e84f3dd0314c0f7b2291e5b200ac8c7c3b925836040516126c591906144fd565b60405180910390a3505050565b600073ffffffffffffffffffffffffffffffffffffffff168373ffffffffffffffffffffffffffffffffffffffff161415612742576040517f08c379a0000000000000000000000000000000000000000000000000000000008152600401612739906143fd565b60405180910390fd5b600073ffffffffffffffffffffffffffffffffffffffff168273ffffffffffffffffffffffffffffffffffffffff1614156127b2576040517f08c379a00000000000000000000000000000000000000000000000000000000081526004016127a99061417d565b60405180910390fd5b600360149054906101000a900460ff161561295557600460008373ffffffffffffffffffffffffffffffffffffffff1673ffffffffffffffffffffffffffffffffffffffff1681526020019081526020016000205481600160008573ffffffffffffffffffffffffffffffffffffffff1673ffffffffffffffffffffffffffffffffffffffff168152602001908152602001600020546128529190614578565b1115612893576040517f08c379a000000000000000000000000000000000000000000000000000000000815260040161288a9061439d565b60405180910390fd5b600460008473ffffffffffffffffffffffffffffffffffffffff1673ffffffffffffffffffffffffffffffffffffffff16815260200190815260200160002054600160008573ffffffffffffffffffffffffffffffffffffffff1673ffffffffffffffffffffffffffffffffffffffff168152602001908152602001600020541115612954576040517f08c379a000000000000000000000000000000000000000000000000000000000815260040161294b9061445d565b60405180910390fd5b5b80600160008573ffffffffffffffffffffffffffffffffffffffff1673ffffffffffffffffffffffffffffffffffffffff168152602001908152602001600020546129a09190614659565b600160008573ffffffffffffffffffffffffffffffffffffffff1673ffffffffffffffffffffffffffffffffffffffff1681526020019081526020016000208190555080600160008473ffffffffffffffffffffffffffffffffffffffff1673ffffffffffffffffffffffffffffffffffffffff16815260200190815260200160002054612a2e9190614578565b600160008473ffffffffffffffffffffffffffffffffffffffff1673ffffffffffffffffffffffffffffffffffffffff168152602001908152602001600020819055508173ffffffffffffffffffffffffffffffffffffffff168373ffffffffffffffffffffffffffffffffffffffff167fddf252ad1be2c89b69c2b068fc378daa952ba7f163c4a11628f55a4df523b3ef83604051612ace91906144fd565b60405180910390a3505050565b600081612b05612af385670de0b6b3a7640000612f35565b600285612b0091906145ce565b61323c565b612b0f91906145ce565b905092915050565b6000670de0b6b3a7640000612b49612b2f8585612f35565b6002670de0b6b3a7640000612b4491906145ce565b61323c565b612b5391906145ce565b905092915050565b600073ffffffffffffffffffffffffffffffffffffffff168273ffffffffffffffffffffffffffffffffffffffff161415612bcb576040517f08c379a0000000000000000000000000000000000000000000000000000000008152600401612bc2906143bd565b60405180910390fd5b80600160008473ffffffffffffffffffffffffffffffffffffffff1673ffffffffffffffffffffffffffffffffffffffff16815260200190815260200160002054612c169190614659565b600160008473ffffffffffffffffffffffffffffffffffffffff1673ffffffffffffffffffffffffffffffffffffffff1681526020019081526020016000208190555080600554612c679190614659565b600581905550600073ffffffffffffffffffffffffffffffffffffffff168273ffffffffffffffffffffffffffffffffffffffff167fddf252ad1be2c89b69c2b068fc378daa952ba7f163c4a11628f55a4df523b3ef83604051612ccb91906144fd565b60405180910390a35050565b6000828284612ce69190614659565b9150811115612d2a576040517f08c379a0000000000000000000000000000000000000000000000000000000008152600401612d219061415d565b60405180910390fd5b92915050565b6000806000806000612d428787613295565b9150915081612d5d5760008060009450945094505050612ee4565b60008060009054906101000a900473ffffffffffffffffffffffffffffffffffffffff1673ffffffffffffffffffffffffffffffffffffffff166377fbb66389846040518363ffffffff1660e01b8152600401612dbb929190614518565b60206040518083038186803b158015612dd357600080fd5b505afa158015612de7573d6000803e3d6000fd5b505050506040513d601f19601f82011682018060405250810190612e0b9190613ae9565b905060008054906101000a900473ffffffffffffffffffffffffffffffffffffffff1673ffffffffffffffffffffffffffffffffffffffff166393fa491589836040518363ffffffff1660e01b8152600401612e68929190614518565b60206040518083038186803b158015612e8057600080fd5b505afa158015612e94573d6000803e3d6000fd5b505050506040513d601f19601f82011682018060405250810190612eb89190613ae9565b94506000851115612ed55760018582955095509550505050612ee4565b60008060009550955095505050505b9250925092565b6000612f2d83836040518060400160405280601a81526020017f536166654d6174683a206469766973696f6e206279207a65726f0000000000008152506137d9565b905092915050565b600080821480612f5d575082828385612f4e91906145ff565b925082612f5b91906145ce565b145b612f9c576040517f08c379a0000000000000000000000000000000000000000000000000000000008152600401612f93906141fd565b60405180910390fd5b92915050565b6000612fb784612fb2858561383c565b6138c7565b90509392505050565b6000612fd584612fd0858561383c565b613907565b90509392505050565b600073ffffffffffffffffffffffffffffffffffffffff168273ffffffffffffffffffffffffffffffffffffffff16141561304e576040517f08c379a0000000000000000000000000000000000000000000000000000000008152600401613045906144bd565b60405180910390fd5b600360149054906101000a900460ff161561313057600460008373ffffffffffffffffffffffffffffffffffffffff1673ffffffffffffffffffffffffffffffffffffffff1681526020019081526020016000205481600160008573ffffffffffffffffffffffffffffffffffffffff1673ffffffffffffffffffffffffffffffffffffffff168152602001908152602001600020546130ee9190614578565b111561312f576040517f08c379a00000000000000000000000000000000000000000000000000000000081526004016131269061439d565b60405180910390fd5b5b8060055461313e9190614578565b60058190555080600160008473ffffffffffffffffffffffffffffffffffffffff1673ffffffffffffffffffffffffffffffffffffffff1681526020019081526020016000205461318f9190614578565b600160008473ffffffffffffffffffffffffffffffffffffffff1673ffffffffffffffffffffffffffffffffffffffff168152602001908152602001600020819055508173ffffffffffffffffffffffffffffffffffffffff16600073ffffffffffffffffffffffffffffffffffffffff167fddf252ad1be2c89b69c2b068fc378daa952ba7f163c4a11628f55a4df523b3ef8360405161323091906144fd565b60405180910390a35050565b600082828461324b9190614578565b915081101561328f576040517f08c379a00000000000000000000000000000000000000000000000000000000081526004016132869061425d565b60405180910390fd5b92915050565b60008060008060009054906101000a900473ffffffffffffffffffffffffffffffffffffffff1673ffffffffffffffffffffffffffffffffffffffff166346eee1c4866040518263ffffffff1660e01b81526004016132f491906144fd565b60206040518083038186803b15801561330c57600080fd5b505afa158015613320573d6000803e3d6000fd5b505050506040513d601f19601f820116820180604052508101906133449190613ae9565b905060008111156137c9576000806000905060006001846133659190614659565b905060008060009054906101000a900473ffffffffffffffffffffffffffffffffffffffff1673ffffffffffffffffffffffffffffffffffffffff166377fbb6638a856040518363ffffffff1660e01b81526004016133c5929190614518565b60206040518083038186803b1580156133dd57600080fd5b505afa1580156133f1573d6000803e3d6000fd5b505050506040513d601f19601f820116820180604052508101906134159190613ae9565b905087811061342f576000809650965050505050506137d2565b60008054906101000a900473ffffffffffffffffffffffffffffffffffffffff1673ffffffffffffffffffffffffffffffffffffffff166377fbb6638a846040518363ffffffff1660e01b815260040161348a929190614518565b60206040518083038186803b1580156134a257600080fd5b505afa1580156134b6573d6000803e3d6000fd5b505050506040513d601f19601f820116820180604052508101906134da9190613ae9565b9050878110156134f5576001829650965050505050506137d2565b5b6001156137c4578260016002858561350e9190614659565b61351891906145ce565b6135229190614578565b61352c9190614578565b935060008054906101000a900473ffffffffffffffffffffffffffffffffffffffff1673ffffffffffffffffffffffffffffffffffffffff166377fbb6638a866040518363ffffffff1660e01b8152600401613589929190614518565b60206040518083038186803b1580156135a157600080fd5b505afa1580156135b5573d6000803e3d6000fd5b505050506040513d601f19601f820116820180604052508101906135d99190613ae9565b9050878110156136cd5760008060009054906101000a900473ffffffffffffffffffffffffffffffffffffffff1673ffffffffffffffffffffffffffffffffffffffff166377fbb6638b6001886136309190614578565b6040518363ffffffff1660e01b815260040161364d929190614518565b60206040518083038186803b15801561366557600080fd5b505afa158015613679573d6000803e3d6000fd5b505050506040513d601f19601f8201168201806040525081019061369d9190613ae9565b90508881106136b857600185975097505050505050506137d2565b6001856136c59190614578565b9350506137bf565b60008060009054906101000a900473ffffffffffffffffffffffffffffffffffffffff1673ffffffffffffffffffffffffffffffffffffffff166377fbb6638b60018861371a9190614659565b6040518363ffffffff1660e01b8152600401613737929190614518565b60206040518083038186803b15801561374f57600080fd5b505afa158015613763573d6000803e3d6000fd5b505050506040513d601f19601f820116820180604052508101906137879190613ae9565b9050888110156137ae576001808661379f9190614659565b975097505050505050506137d2565b6001856137bb9190614659565b9250505b6134f6565b505050505b60008092509250505b9250929050565b60008083118290613820576040517f08c379a0000000000000000000000000000000000000000000000000000000008152600401613817919061413b565b60405180910390fd5b506000838561382f91906145ce565b9050809150509392505050565b60008060028361384c919061476b565b1415613864576b033b2e3c9fd0803ce8000000613866565b825b905060028261387591906145ce565b91505b600082146138c15761388a8384613907565b9250600060028361389b919061476b565b146138ad576138aa8184613907565b90505b6002826138ba91906145ce565b9150613878565b92915050565b6000816138f56138e3856b033b2e3c9fd0803ce8000000612f35565b6002856138f091906145ce565b61323c565b6138ff91906145ce565b905092915050565b60006b033b2e3c9fd0803ce80000006139416139238585612f35565b60026b033b2e3c9fd0803ce800000061393c91906145ce565b61323c565b61394b91906145ce565b905092915050565b60008135905061396281614ecd565b92915050565b60008151905061397781614ee4565b92915050565b60008135905061398c81614efb565b92915050565b6000815190506139a181614efb565b92915050565b6000602082840312156139b957600080fd5b60006139c784828501613953565b91505092915050565b600080604083850312156139e357600080fd5b60006139f185828601613953565b9250506020613a0285828601613953565b9150509250929050565b600080600060608486031215613a2157600080fd5b6000613a2f86828701613953565b9350506020613a4086828701613953565b9250506040613a518682870161397d565b9150509250925092565b60008060408385031215613a6e57600080fd5b6000613a7c85828601613953565b9250506020613a8d8582860161397d565b9150509250929050565b600060208284031215613aa957600080fd5b6000613ab784828501613968565b91505092915050565b600060208284031215613ad257600080fd5b6000613ae08482850161397d565b91505092915050565b600060208284031215613afb57600080fd5b6000613b0984828501613992565b91505092915050565b60008060408385031215613b2557600080fd5b6000613b338582860161397d565b9250506020613b4485828601613953565b9150509250929050565b613b578161468d565b82525050565b613b668161469f565b82525050565b613b75816146e2565b82525050565b6000613b868261455c565b613b908185614567565b9350613ba0818560208601614706565b613ba981614829565b840191505092915050565b6000613bc1601583614567565b9150613bcc8261483a565b602082019050919050565b6000613be4602383614567565b9150613bef82614863565b604082019050919050565b6000613c07602983614567565b9150613c12826148b2565b604082019050919050565b6000613c2a602a83614567565b9150613c3582614901565b604082019050919050565b6000613c4d602283614567565b9150613c5882614950565b604082019050919050565b6000613c70601483614567565b9150613c7b8261499f565b602082019050919050565b6000613c93601883614567565b9150613c9e826149c8565b602082019050919050565b6000613cb6602183614567565b9150613cc1826149f1565b604082019050919050565b6000613cd9601483614567565b9150613ce482614a40565b602082019050919050565b6000613cfc601283614567565b9150613d0782614a69565b602082019050919050565b6000613d1f600c83614567565b9150613d2a82614a92565b602082019050919050565b6000613d42601983614567565b9150613d4d82614abb565b602082019050919050565b6000613d65601783614567565b9150613d7082614ae4565b602082019050919050565b6000613d88601583614567565b9150613d9382614b0d565b602082019050919050565b6000613dab602d83614567565b9150613db682614b36565b604082019050919050565b6000613dce601483614567565b9150613dd982614b85565b602082019050919050565b6000613df1601083614567565b9150613dfc82614bae565b602082019050919050565b6000613e14602283614567565b9150613e1f82614bd7565b604082019050919050565b6000613e37602483614567565b9150613e4282614c26565b604082019050919050565b6000613e5a602183614567565b9150613e6582614c75565b604082019050919050565b6000613e7d601f83614567565b9150613e8882614cc4565b602082019050919050565b6000613ea0602583614567565b9150613eab82614ced565b604082019050919050565b6000613ec3601f83614567565b9150613ece82614d3c565b602082019050919050565b6000613ee6602483614567565b9150613ef182614d65565b604082019050919050565b6000613f09602183614567565b9150613f1482614db4565b604082019050919050565b6000613f2c602583614567565b9150613f3782614e03565b604082019050919050565b6000613f4f601983614567565b9150613f5a82614e52565b602082019050919050565b6000613f72601f83614567565b9150613f7d82614e7b565b602082019050919050565b6000613f95601f83614567565b9150613fa082614ea4565b602082019050919050565b613fb4816146cb565b82525050565b613fc3816146d5565b82525050565b6000602082019050613fde6000830184613b4e565b92915050565b6000606082019050613ff96000830186613b4e565b6140066020830185613b4e565b6140136040830184613fab565b949350505050565b60006040820190506140306000830185613b4e565b61403d6020830184613fab565b9392505050565b60006080820190506140596000830187613b4e565b6140666020830186613fab565b6140736040830185613b4e565b6140806060830184613fab565b95945050505050565b600060608201905061409e6000830186613b4e565b6140ab6020830185613fab565b6140b86040830184613fab565b949350505050565b60006080820190506140d56000830187613b4e565b6140e26020830186613fab565b6140ef6040830185613fab565b6140fc6060830184613fab565b95945050505050565b600060208201905061411a6000830184613b5d565b92915050565b60006020820190506141356000830184613b6c565b92915050565b600060208201905081810360008301526141558184613b7b565b905092915050565b6000602082019050818103600083015261417681613bb4565b9050919050565b6000602082019050818103600083015261419681613bd7565b9050919050565b600060208201905081810360008301526141b681613bfa565b9050919050565b600060208201905081810360008301526141d681613c1d565b9050919050565b600060208201905081810360008301526141f681613c40565b9050919050565b6000602082019050818103600083015261421681613c63565b9050919050565b6000602082019050818103600083015261423681613c86565b9050919050565b6000602082019050818103600083015261425681613ca9565b9050919050565b6000602082019050818103600083015261427681613ccc565b9050919050565b6000602082019050818103600083015261429681613cef565b9050919050565b600060208201905081810360008301526142b681613d12565b9050919050565b600060208201905081810360008301526142d681613d35565b9050919050565b600060208201905081810360008301526142f681613d58565b9050919050565b6000602082019050818103600083015261431681613d7b565b9050919050565b6000602082019050818103600083015261433681613d9e565b9050919050565b6000602082019050818103600083015261435681613dc1565b9050919050565b6000602082019050818103600083015261437681613de4565b9050919050565b6000602082019050818103600083015261439681613e07565b9050919050565b600060208201905081810360008301526143b681613e2a565b9050919050565b600060208201905081810360008301526143d681613e4d565b9050919050565b600060208201905081810360008301526143f681613e70565b9050919050565b6000602082019050818103600083015261441681613e93565b9050919050565b6000602082019050818103600083015261443681613eb6565b9050919050565b6000602082019050818103600083015261445681613ed9565b9050919050565b6000602082019050818103600083015261447681613efc565b9050919050565b6000602082019050818103600083015261449681613f1f565b9050919050565b600060208201905081810360008301526144b681613f42565b9050919050565b600060208201905081810360008301526144d681613f65565b9050919050565b600060208201905081810360008301526144f681613f88565b9050919050565b60006020820190506145126000830184613fab565b92915050565b600060408201905061452d6000830185613fab565b61453a6020830184613fab565b9392505050565b60006020820190506145566000830184613fba565b92915050565b600081519050919050565b600082825260208201905092915050565b6000614583826146cb565b915061458e836146cb565b9250827fffffffffffffffffffffffffffffffffffffffffffffffffffffffffffffffff038211156145c3576145c261479c565b5b828201905092915050565b60006145d9826146cb565b91506145e4836146cb565b9250826145f4576145f36147cb565b5b828204905092915050565b600061460a826146cb565b9150614615836146cb565b9250817fffffffffffffffffffffffffffffffffffffffffffffffffffffffffffffffff048311821515161561464e5761464d61479c565b5b828202905092915050565b6000614664826146cb565b915061466f836146cb565b9250828210156146825761468161479c565b5b828203905092915050565b6000614698826146ab565b9050919050565b60008115159050919050565b600073ffffffffffffffffffffffffffffffffffffffff82169050919050565b6000819050919050565b600060ff82169050919050565b60006146ed826146f4565b9050919050565b60006146ff826146ab565b9050919050565b60005b83811015614724578082015181840152602081019050614709565b83811115614733576000848401525b50505050565b6000600282049050600182168061475157607f821691505b60208210811415614765576147646147fa565b5b50919050565b6000614776826146cb565b9150614781836146cb565b925082614791576147906147cb565b5b828206905092915050565b7f4e487b7100000000000000000000000000000000000000000000000000000000600052601160045260246000fd5b7f4e487b7100000000000000000000000000000000000000000000000000000000600052601260045260246000fd5b7f4e487b7100000000000000000000000000000000000000000000000000000000600052602260045260246000fd5b6000601f19601f8301169050919050565b7f64732d6d6174682d7375622d756e646572666c6f770000000000000000000000600082015250565b7f45524332303a207472616e7366657220746f20746865207a65726f206164647260008201527f6573730000000000000000000000000000000000000000000000000000000000602082015250565b7f636f6c6c61746572616c207574696c697a61746f696e2069732062656c6f772060008201527f7468726573686f6c640000000000000000000000000000000000000000000000602082015250565b7f636f6c6c61746572616c207574696c697a6174696f6e2061626f76652074686560008201527f207468726573686f6c6400000000000000000000000000000000000000000000602082015250565b7f45524332303a20617070726f766520746f20746865207a65726f20616464726560008201527f7373000000000000000000000000000000000000000000000000000000000000602082015250565b7f64732d6d6174682d6d756c2d6f766572666c6f77000000000000000000000000600082015250565b7f636f6c6c61746572616c207472616e73666572206661696c0000000000000000600082015250565b7f6d73672073656e64657220646f65736e2774206f776e20616e7920746f6b656e60008201527f7300000000000000000000000000000000000000000000000000000000000000602082015250565b7f64732d6d6174682d6164642d6f766572666c6f77000000000000000000000000600082015250565b7f6e6f7420656e6f7567682062616c616e63650000000000000000000000000000600082015250565b7f6e6f7420616e2061646d696e0000000000000000000000000000000000000000600082015250565b7f6e6f20696e666c6174696f6e20696e6372656173652079657400000000000000600082015250565b7f6e6f74207468652077686974656c6973742061646d696e000000000000000000600082015250565b7f6d757374207761697420746f2077697468647261770000000000000000000000600082015250565b7f636f6c6c61746572616c206c69717569646174696f6e2070656e616c7479207460008201527f72616e73666572206661696c7300000000000000000000000000000000000000602082015250565b7f67657474696e67206f7261636c65207072696365000000000000000000000000600082015250565b7f6465706f73697420616d6f756e74203000000000000000000000000000000000600082015250565b7f6661696c656420636f6c6c61746572616c206465706f736974207472616e736660008201527f6572000000000000000000000000000000000000000000000000000000000000602082015250565b7f726563697069656e74206e6f742077686974656c697374656420666f7220616d60008201527f6f756e7400000000000000000000000000000000000000000000000000000000602082015250565b7f45524332303a206275726e2066726f6d20746865207a65726f2061646472657360008201527f7300000000000000000000000000000000000000000000000000000000000000602082015250565b7f76616c7565206e6f742077697468696e20616c6c6f776564206c696d69747300600082015250565b7f45524332303a207472616e736665722066726f6d20746865207a65726f20616460008201527f6472657373000000000000000000000000000000000000000000000000000000602082015250565b7f616d6f756e742073686f756c642062652067726561746572207468616e203000600082015250565b7f45524332303a20617070726f76652066726f6d20746865207a65726f2061646460008201527f7265737300000000000000000000000000000000000000000000000000000000602082015250565b7f73656e646572206e6f742077686974656c697374656420666f7220616d6f756e60008201527f7400000000000000000000000000000000000000000000000000000000000000602082015250565b7f636f6c6c61746572616c206c69717569646174696f6e207472616e736665722060008201527f6661696c73000000000000000000000000000000000000000000000000000000602082015250565b7f636f6c6c61746572616c207472616e73666572206661696c7300000000000000600082015250565b7f45524332303a206d696e7420746f20746865207a65726f206164647265737300600082015250565b7f63616e6e6f742073656e6420746f20746865207a65726f206164647265737300600082015250565b614ed68161468d565b8114614ee157600080fd5b50565b614eed8161469f565b8114614ef857600080fd5b50565b614f04816146cb565b8114614f0f57600080fd5b5056fea26469706673582212203506c37330ed397cbd11ba39d37cc6c2759ce72738460973315f961aa6bdbda564736f6c63430008030033",
  "devdoc": {
    "author": "Tellor Inc.",
    "details": "Chorus is a structure for issuing semi-stablecoins as community currencies*",
    "kind": "dev",
    "methods": {
      "allowance(address,address)": {
        "details": "See {IERC20-allowance}."
      },
      "approve(address,uint256)": {
        "details": "See {IERC20-approve}. Requirements: - `spender` cannot be the zero address."
      },
      "balanceOf(address)": {
        "details": "See {IERC20-balanceOf}."
      },
      "collateralBalance()": {
        "details": "Returns the current token price in USD reduced by the current inflation.",
        "returns": {
          "_0": "uint256 token price"
        }
      },
      "collateralPrice()": {
        "details": "Checks the Tellor oracle and gets the collateral price",
        "returns": {
          "_0": "uint256 collateral price in USD upscaled to e18 precision."
        }
      },
      "collateralRatio()": {
        "details": "A view funciton to look at the collateralization of the system",
        "returns": {
          "_0": "uint256 collateral token balance of this address / totalSupply"
        }
      },
      "constructor": {
        "details": "This is the constructor, sets the inital paramaters in the system The parameters include, the Tellor Address, collateral token's address, collateral token's requestID, the price granualrity, the token name,  token's symbol, inflation rate per year, and the inflation beneficiary "
      },
      "decimals()": {
        "details": "Returns the number of decimals used to get its user representation."
      },
      "decreaseAllowance(address,uint256)": {
        "details": "Atomically decreases the allowance granted to `spender` by the caller. This is an alternative to {approve} that can be used as a mitigation for problems described in {IERC20-approve}. Emits an {Approval} event indicating the updated allowance. Requirements: - `spender` cannot be the zero address. - `spender` must have allowance for the caller of at least `subtractedValue`."
      },
      "depositCollateral(uint256)": {
        "details": "Allows the admin to deposit collateral",
        "params": {
          "_amount": "the amount of collateral token to deposit"
        }
      },
      "increaseAllowance(address,uint256)": {
        "details": "Atomically increases the allowance granted to `spender` by the caller. This is an alternative to {approve} that can be used as a mitigation for problems described in {IERC20-approve}. Emits an {Approval} event indicating the updated allowance. Requirements: - `spender` cannot be the zero address."
      },
      "liquidate()": {
        "details": "Function to allow anyone to liquidate the system if it is undercollateralized"
      },
      "mintToken(uint256,address)": {
        "details": "Allows the admin to mint tokens up to the collateral threshold",
        "params": {
          "_amount": "the amount of collateral tokens to mint",
          "_to": "the address to mint them to;"
        }
      },
      "name()": {
        "details": "Returns the name of the token."
      },
      "requestWithdrawToken(uint256)": {
        "details": "Allows a user to request to withdraw tokens",
        "params": {
          "_amount": "the amount of tokens to withdraw"
        }
      },
      "setAdmin(address)": {
        "details": "Allows the user to set a new admin address",
        "params": {
          "_newAdmin": "the address of the new admin address"
        }
      },
      "setCollateralPriceAge(uint256)": {
        "details": "Allows the admin to set the collateral price Age (delay in feed from Tellor)",
        "params": {
          "_amount": "the amount of delay in the price feed (we want to wait for disputes)"
        }
      },
      "setCollateralThreshold(uint256)": {
        "details": "Allows the admin to set the Collateral threshold",
        "params": {
          "_amount": "new collateral threshold"
        }
      },
      "setLiquidationPenatly(uint256)": {
        "details": "Allows the admin to set the liquidation penalty",
        "params": {
          "_amount": "the amount of the liquidation penalty"
        }
      },
      "setWhitelistAdmin(address)": {
        "details": "Allows the user to set a new admin address",
        "params": {
          "_newAdmin": "the address of the new admin address"
        }
      },
      "symbol()": {
        "details": "Returns the symbol of the token, usually a shorter version of the name."
      },
      "tokenPrice()": {
        "details": "Returns the current token price in USD reduced by the current inflation.",
        "returns": {
          "_0": "uint256 token price"
        }
      },
      "totalSupply()": {
        "details": "See {IERC20-totalSupply}."
      },
      "transfer(address,uint256)": {
        "details": "See {IERC20-transfer}. Requirements: - `recipient` cannot be the zero address. - the caller must have a balance of at least `amount`."
      },
      "transferFrom(address,address,uint256)": {
        "details": "See {IERC20-transferFrom}. Emits an {Approval} event indicating the updated allowance. This is not required by the EIP. See the note at the beginning of {ERC20}. Requirements: - `sender` and `recipient` cannot be the zero address. - `sender` must have a balance of at least `amount`. - the caller must have allowance for ``sender``'s tokens of at least `amount`."
      },
      "updateInflation()": {
        "details": "Function to reduce token price by the inflation rate, increases the total supply by the inflation rate and sends the new tokens to the inflation beneficiary."
      },
      "withdrawCollateral(uint256)": {
        "details": "Allows the admin to withdraw collateral above the threshold",
        "params": {
          "_amount": "the amount of collateral token to deposit"
        }
      },
      "withdrawToken()": {
        "details": "Allows a user to withdraw tokens"
      }
    },
    "title": "Chorus",
    "version": 1
  },
  "userdoc": {
    "kind": "user",
    "methods": {},
    "version": 1
  },
  "storageLayout": {
    "storage": [
      {
        "astId": 1886,
        "contract": "contracts/Chorus.sol:Chorus",
        "label": "tellor",
        "offset": 0,
        "slot": "0",
        "type": "t_contract(ITellor)2745"
      },
      {
        "astId": 857,
        "contract": "contracts/Chorus.sol:Chorus",
        "label": "_balances",
        "offset": 0,
        "slot": "1",
        "type": "t_mapping(t_address,t_uint256)"
      },
      {
        "astId": 863,
        "contract": "contracts/Chorus.sol:Chorus",
        "label": "_allowances",
        "offset": 0,
        "slot": "2",
        "type": "t_mapping(t_address,t_mapping(t_address,t_uint256))"
      },
      {
        "astId": 865,
        "contract": "contracts/Chorus.sol:Chorus",
        "label": "whitelistAdmin",
        "offset": 0,
        "slot": "3",
        "type": "t_address"
      },
      {
        "astId": 867,
        "contract": "contracts/Chorus.sol:Chorus",
        "label": "isWhitelistedSystem",
        "offset": 20,
        "slot": "3",
        "type": "t_bool"
      },
      {
        "astId": 871,
        "contract": "contracts/Chorus.sol:Chorus",
        "label": "whitelistedAmount",
        "offset": 0,
        "slot": "4",
        "type": "t_mapping(t_address,t_uint256)"
      },
      {
        "astId": 873,
        "contract": "contracts/Chorus.sol:Chorus",
        "label": "_totalSupply",
        "offset": 0,
        "slot": "5",
        "type": "t_uint256"
      },
      {
        "astId": 875,
        "contract": "contracts/Chorus.sol:Chorus",
        "label": "_name",
        "offset": 0,
        "slot": "6",
        "type": "t_string_storage"
      },
      {
        "astId": 877,
        "contract": "contracts/Chorus.sol:Chorus",
        "label": "_symbol",
        "offset": 0,
        "slot": "7",
        "type": "t_string_storage"
      },
      {
        "astId": 879,
        "contract": "contracts/Chorus.sol:Chorus",
        "label": "_decimals",
        "offset": 0,
        "slot": "8",
        "type": "t_uint8"
      },
      {
        "astId": 78,
        "contract": "contracts/Chorus.sol:Chorus",
        "label": "collateralToken",
        "offset": 1,
        "slot": "8",
        "type": "t_contract(ERC20)1427"
      },
      {
        "astId": 82,
        "contract": "contracts/Chorus.sol:Chorus",
        "label": "admin",
        "offset": 0,
        "slot": "9",
        "type": "t_address"
      },
      {
        "astId": 85,
        "contract": "contracts/Chorus.sol:Chorus",
        "label": "tknPrice",
        "offset": 0,
        "slot": "10",
        "type": "t_uint256"
      },
      {
        "astId": 87,
        "contract": "contracts/Chorus.sol:Chorus",
        "label": "collateralID",
        "offset": 0,
        "slot": "11",
        "type": "t_uint256"
      },
      {
        "astId": 89,
        "contract": "contracts/Chorus.sol:Chorus",
        "label": "collateralPriceGranularity",
        "offset": 0,
        "slot": "12",
        "type": "t_uint256"
      },
      {
        "astId": 92,
        "contract": "contracts/Chorus.sol:Chorus",
        "label": "collateralThreshold",
        "offset": 0,
        "slot": "13",
        "type": "t_uint256"
      },
      {
        "astId": 95,
        "contract": "contracts/Chorus.sol:Chorus",
        "label": "collateralPriceAge",
        "offset": 0,
        "slot": "14",
        "type": "t_uint256"
      },
      {
        "astId": 98,
        "contract": "contracts/Chorus.sol:Chorus",
        "label": "liquidationPenatly",
        "offset": 0,
        "slot": "15",
        "type": "t_uint256"
      },
      {
        "astId": 100,
        "contract": "contracts/Chorus.sol:Chorus",
        "label": "inflRatePerSec",
        "offset": 0,
        "slot": "16",
        "type": "t_uint256"
      },
      {
        "astId": 104,
        "contract": "contracts/Chorus.sol:Chorus",
        "label": "inflLastUpdate",
        "offset": 0,
        "slot": "17",
        "type": "t_uint256"
      },
      {
        "astId": 106,
        "contract": "contracts/Chorus.sol:Chorus",
        "label": "inflBeneficiary",
        "offset": 0,
        "slot": "18",
        "type": "t_address"
      },
      {
        "astId": 111,
        "contract": "contracts/Chorus.sol:Chorus",
        "label": "withdrawRequested",
        "offset": 0,
        "slot": "19",
        "type": "t_mapping(t_address,t_struct(WithdrawDetails)75_storage)"
      }
    ],
    "types": {
      "t_address": {
        "encoding": "inplace",
        "label": "address",
        "numberOfBytes": "20"
      },
      "t_bool": {
        "encoding": "inplace",
        "label": "bool",
        "numberOfBytes": "1"
      },
      "t_contract(ERC20)1427": {
        "encoding": "inplace",
        "label": "contract ERC20",
        "numberOfBytes": "20"
      },
      "t_contract(ITellor)2745": {
        "encoding": "inplace",
        "label": "contract ITellor",
        "numberOfBytes": "20"
      },
      "t_mapping(t_address,t_mapping(t_address,t_uint256))": {
        "encoding": "mapping",
        "key": "t_address",
        "label": "mapping(address => mapping(address => uint256))",
        "numberOfBytes": "32",
        "value": "t_mapping(t_address,t_uint256)"
      },
      "t_mapping(t_address,t_struct(WithdrawDetails)75_storage)": {
        "encoding": "mapping",
        "key": "t_address",
        "label": "mapping(address => struct Chorus.WithdrawDetails)",
        "numberOfBytes": "32",
        "value": "t_struct(WithdrawDetails)75_storage"
      },
      "t_mapping(t_address,t_uint256)": {
        "encoding": "mapping",
        "key": "t_address",
        "label": "mapping(address => uint256)",
        "numberOfBytes": "32",
        "value": "t_uint256"
      },
      "t_string_storage": {
        "encoding": "bytes",
        "label": "string",
        "numberOfBytes": "32"
      },
      "t_struct(WithdrawDetails)75_storage": {
        "encoding": "inplace",
        "label": "struct Chorus.WithdrawDetails",
        "members": [
          {
            "astId": 72,
            "contract": "contracts/Chorus.sol:Chorus",
            "label": "amount",
            "offset": 0,
            "slot": "0",
            "type": "t_uint256"
          },
          {
            "astId": 74,
            "contract": "contracts/Chorus.sol:Chorus",
            "label": "requestDate",
            "offset": 0,
            "slot": "1",
            "type": "t_uint256"
          }
        ],
        "numberOfBytes": "64"
      },
      "t_uint256": {
        "encoding": "inplace",
        "label": "uint256",
        "numberOfBytes": "32"
      },
      "t_uint8": {
        "encoding": "inplace",
        "label": "uint8",
        "numberOfBytes": "1"
      }
    }
  }
}