{
  "address": "0x9fE46736679d2D9a65F0992F2272dE9f3c7fa6e0",
  "abi": [
    {
      "inputs": [
        {
          "internalType": "address payable",
          "name": "_tellorAddress",
          "type": "address"
        },
        {
          "internalType": "address",
          "name": "_collateralToken",
          "type": "address"
        },
        {
          "internalType": "uint256",
          "name": "_collateralID",
          "type": "uint256"
        },
        {
          "internalType": "uint256",
          "name": "_collateralPriceGranularity",
          "type": "uint256"
        },
        {
          "internalType": "string",
          "name": "_tokenName",
          "type": "string"
        },
        {
          "internalType": "string",
          "name": "_tokenSymbol",
          "type": "string"
        },
        {
          "internalType": "uint256",
          "name": "_inflRatePerYear",
          "type": "uint256"
        },
        {
          "internalType": "address",
          "name": "_inflBeneficiary",
          "type": "address"
        }
      ],
      "stateMutability": "nonpayable",
      "type": "constructor"
    },
    {
      "anonymous": false,
      "inputs": [
        {
          "indexed": true,
          "internalType": "address",
          "name": "owner",
          "type": "address"
        },
        {
          "indexed": true,
          "internalType": "address",
          "name": "spender",
          "type": "address"
        },
        {
          "indexed": false,
          "internalType": "uint256",
          "name": "value",
          "type": "uint256"
        }
      ],
      "name": "Approval",
      "type": "event"
    },
    {
      "anonymous": false,
      "inputs": [
        {
          "indexed": false,
          "internalType": "uint256",
          "name": "_collateralPriceAge",
          "type": "uint256"
        }
      ],
      "name": "CollateralPriceAge",
      "type": "event"
    },
    {
      "anonymous": false,
      "inputs": [
        {
          "indexed": false,
          "internalType": "uint256",
          "name": "_collateralThreshold",
          "type": "uint256"
        }
      ],
      "name": "CollateralThreshold",
      "type": "event"
    },
    {
      "anonymous": false,
      "inputs": [
        {
          "indexed": false,
          "internalType": "address",
          "name": "_party",
          "type": "address"
        },
        {
          "indexed": false,
          "internalType": "uint256",
          "name": "_tokensAmnt",
          "type": "uint256"
        },
        {
          "indexed": false,
          "internalType": "uint256",
          "name": "_collateralAmnt",
          "type": "uint256"
        },
        {
          "indexed": false,
          "internalType": "uint256",
          "name": "_collateralPenalty",
          "type": "uint256"
        }
      ],
      "name": "Liquidate",
      "type": "event"
    },
    {
      "anonymous": false,
      "inputs": [
        {
          "indexed": false,
          "internalType": "uint256",
          "name": "_newPenalty",
          "type": "uint256"
        }
      ],
      "name": "LiquidationPenatly",
      "type": "event"
    },
    {
      "anonymous": false,
      "inputs": [
        {
          "indexed": false,
          "internalType": "address",
          "name": "_holder",
          "type": "address"
        },
        {
          "indexed": false,
          "internalType": "uint256",
          "name": "_amount",
          "type": "uint256"
        },
        {
          "indexed": false,
          "internalType": "address",
          "name": "_to",
          "type": "address"
        },
        {
          "indexed": false,
          "internalType": "uint256",
          "name": "_collateralRatio",
          "type": "uint256"
        }
      ],
      "name": "MintTokens",
      "type": "event"
    },
    {
      "anonymous": false,
      "inputs": [
        {
          "indexed": false,
          "internalType": "address",
          "name": "_newAdmin",
          "type": "address"
        }
      ],
      "name": "NewAdmin",
      "type": "event"
    },
    {
      "anonymous": false,
      "inputs": [
        {
          "indexed": true,
          "internalType": "address",
          "name": "from",
          "type": "address"
        },
        {
          "indexed": true,
          "internalType": "address",
          "name": "to",
          "type": "address"
        },
        {
          "indexed": false,
          "internalType": "uint256",
          "name": "value",
          "type": "uint256"
        }
      ],
      "name": "Transfer",
      "type": "event"
    },
    {
      "anonymous": false,
      "inputs": [
        {
          "indexed": false,
          "internalType": "address",
          "name": "_holder",
          "type": "address"
        },
        {
          "indexed": false,
          "internalType": "uint256",
          "name": "_collateralAmnt",
          "type": "uint256"
        },
        {
          "indexed": false,
          "internalType": "uint256",
          "name": "_collateralRatio",
          "type": "uint256"
        }
      ],
      "name": "WithdrawCollateral",
      "type": "event"
    },
    {
      "anonymous": false,
      "inputs": [
        {
          "indexed": false,
          "internalType": "address",
          "name": "_holder",
          "type": "address"
        },
        {
          "indexed": false,
          "internalType": "uint256",
          "name": "_tokenAmnt",
          "type": "uint256"
        },
        {
          "indexed": false,
          "internalType": "uint256",
          "name": "_collateralAmnt",
          "type": "uint256"
        }
      ],
      "name": "WithdrawToken",
      "type": "event"
    },
    {
      "anonymous": false,
      "inputs": [
        {
          "indexed": false,
          "internalType": "address",
          "name": "_user",
          "type": "address"
        },
        {
          "indexed": false,
          "internalType": "uint256",
          "name": "_amount",
          "type": "uint256"
        }
      ],
      "name": "WithdrawTokenRequest",
      "type": "event"
    },
    {
      "inputs": [],
      "name": "RAY",
      "outputs": [
        {
          "internalType": "uint256",
          "name": "",
          "type": "uint256"
        }
      ],
      "stateMutability": "view",
      "type": "function"
    },
    {
      "inputs": [],
      "name": "WAD",
      "outputs": [
        {
          "internalType": "uint256",
          "name": "",
          "type": "uint256"
        }
      ],
      "stateMutability": "view",
      "type": "function"
    },
    {
      "inputs": [],
      "name": "admin",
      "outputs": [
        {
          "internalType": "address",
          "name": "",
          "type": "address"
        }
      ],
      "stateMutability": "view",
      "type": "function"
    },
    {
      "inputs": [
        {
          "internalType": "address",
          "name": "owner",
          "type": "address"
        },
        {
          "internalType": "address",
          "name": "spender",
          "type": "address"
        }
      ],
      "name": "allowance",
      "outputs": [
        {
          "internalType": "uint256",
          "name": "",
          "type": "uint256"
        }
      ],
      "stateMutability": "view",
      "type": "function"
    },
    {
      "inputs": [
        {
          "internalType": "address",
          "name": "spender",
          "type": "address"
        },
        {
          "internalType": "uint256",
          "name": "amount",
          "type": "uint256"
        }
      ],
      "name": "approve",
      "outputs": [
        {
          "internalType": "bool",
          "name": "",
          "type": "bool"
        }
      ],
      "stateMutability": "nonpayable",
      "type": "function"
    },
    {
      "inputs": [
        {
          "internalType": "address",
          "name": "account",
          "type": "address"
        }
      ],
      "name": "balanceOf",
      "outputs": [
        {
          "internalType": "uint256",
          "name": "",
          "type": "uint256"
        }
      ],
      "stateMutability": "view",
      "type": "function"
    },
    {
      "inputs": [],
      "name": "collateralBalance",
      "outputs": [
        {
          "internalType": "uint256",
          "name": "",
          "type": "uint256"
        }
      ],
      "stateMutability": "view",
      "type": "function"
    },
    {
      "inputs": [],
      "name": "collateralID",
      "outputs": [
        {
          "internalType": "uint256",
          "name": "",
          "type": "uint256"
        }
      ],
      "stateMutability": "view",
      "type": "function"
    },
    {
      "inputs": [],
      "name": "collateralPrice",
      "outputs": [
        {
          "internalType": "uint256",
          "name": "",
          "type": "uint256"
        }
      ],
      "stateMutability": "view",
      "type": "function"
    },
    {
      "inputs": [],
      "name": "collateralPriceAge",
      "outputs": [
        {
          "internalType": "uint256",
          "name": "",
          "type": "uint256"
        }
      ],
      "stateMutability": "view",
      "type": "function"
    },
    {
      "inputs": [],
      "name": "collateralPriceGranularity",
      "outputs": [
        {
          "internalType": "uint256",
          "name": "",
          "type": "uint256"
        }
      ],
      "stateMutability": "view",
      "type": "function"
    },
    {
      "inputs": [],
      "name": "collateralRatio",
      "outputs": [
        {
          "internalType": "uint256",
          "name": "",
          "type": "uint256"
        }
      ],
      "stateMutability": "view",
      "type": "function"
    },
    {
      "inputs": [],
      "name": "collateralThreshold",
      "outputs": [
        {
          "internalType": "uint256",
          "name": "",
          "type": "uint256"
        }
      ],
      "stateMutability": "view",
      "type": "function"
    },
    {
      "inputs": [],
      "name": "collateralToken",
      "outputs": [
        {
          "internalType": "contract ERC20",
          "name": "",
          "type": "address"
        }
      ],
      "stateMutability": "view",
      "type": "function"
    },
    {
      "inputs": [],
      "name": "decimals",
      "outputs": [
        {
          "internalType": "uint8",
          "name": "",
          "type": "uint8"
        }
      ],
      "stateMutability": "view",
      "type": "function"
    },
    {
      "inputs": [
        {
          "internalType": "address",
          "name": "spender",
          "type": "address"
        },
        {
          "internalType": "uint256",
          "name": "subtractedValue",
          "type": "uint256"
        }
      ],
      "name": "decreaseAllowance",
      "outputs": [
        {
          "internalType": "bool",
          "name": "",
          "type": "bool"
        }
      ],
      "stateMutability": "nonpayable",
      "type": "function"
    },
    {
      "inputs": [
        {
          "internalType": "uint256",
          "name": "_amount",
          "type": "uint256"
        }
      ],
      "name": "depositCollateral",
      "outputs": [],
      "stateMutability": "nonpayable",
      "type": "function"
    },
    {
      "inputs": [
        {
          "internalType": "address",
          "name": "spender",
          "type": "address"
        },
        {
          "internalType": "uint256",
          "name": "addedValue",
          "type": "uint256"
        }
      ],
      "name": "increaseAllowance",
      "outputs": [
        {
          "internalType": "bool",
          "name": "",
          "type": "bool"
        }
      ],
      "stateMutability": "nonpayable",
      "type": "function"
    },
    {
      "inputs": [],
      "name": "inflBeneficiary",
      "outputs": [
        {
          "internalType": "address",
          "name": "",
          "type": "address"
        }
      ],
      "stateMutability": "view",
      "type": "function"
    },
    {
      "inputs": [],
      "name": "inflLastUpdate",
      "outputs": [
        {
          "internalType": "uint256",
          "name": "",
          "type": "uint256"
        }
      ],
      "stateMutability": "view",
      "type": "function"
    },
    {
      "inputs": [],
      "name": "inflRatePerSec",
      "outputs": [
        {
          "internalType": "uint256",
          "name": "",
          "type": "uint256"
        }
      ],
      "stateMutability": "view",
      "type": "function"
    },
    {
      "inputs": [],
      "name": "liquidate",
      "outputs": [],
      "stateMutability": "nonpayable",
      "type": "function"
    },
    {
      "inputs": [],
      "name": "liquidationPenatly",
      "outputs": [
        {
          "internalType": "uint256",
          "name": "",
          "type": "uint256"
        }
      ],
      "stateMutability": "view",
      "type": "function"
    },
    {
      "inputs": [
        {
          "internalType": "uint256",
          "name": "_amount",
          "type": "uint256"
        },
        {
          "internalType": "address",
          "name": "_to",
          "type": "address"
        }
      ],
      "name": "mintToken",
      "outputs": [],
      "stateMutability": "nonpayable",
      "type": "function"
    },
    {
      "inputs": [],
      "name": "name",
      "outputs": [
        {
          "internalType": "string",
          "name": "",
          "type": "string"
        }
      ],
      "stateMutability": "view",
      "type": "function"
    },
    {
      "inputs": [
        {
          "internalType": "uint256",
          "name": "_amount",
          "type": "uint256"
        }
      ],
      "name": "requestWithdrawToken",
      "outputs": [],
      "stateMutability": "nonpayable",
      "type": "function"
    },
    {
      "inputs": [
        {
          "internalType": "address",
          "name": "_newAdmin",
          "type": "address"
        }
      ],
      "name": "setAdmin",
      "outputs": [],
      "stateMutability": "nonpayable",
      "type": "function"
    },
    {
      "inputs": [
        {
          "internalType": "uint256",
          "name": "_amount",
          "type": "uint256"
        }
      ],
      "name": "setCollateralPriceAge",
      "outputs": [],
      "stateMutability": "nonpayable",
      "type": "function"
    },
    {
      "inputs": [
        {
          "internalType": "uint256",
          "name": "_amount",
          "type": "uint256"
        }
      ],
      "name": "setCollateralThreshold",
      "outputs": [],
      "stateMutability": "nonpayable",
      "type": "function"
    },
    {
      "inputs": [
        {
          "internalType": "uint256",
          "name": "_amount",
          "type": "uint256"
        }
      ],
      "name": "setLiquidationPenatly",
      "outputs": [],
      "stateMutability": "nonpayable",
      "type": "function"
    },
    {
      "inputs": [],
      "name": "symbol",
      "outputs": [
        {
          "internalType": "string",
          "name": "",
          "type": "string"
        }
      ],
      "stateMutability": "view",
      "type": "function"
    },
    {
      "inputs": [],
      "name": "tokenPrice",
      "outputs": [
        {
          "internalType": "uint256",
          "name": "",
          "type": "uint256"
        }
      ],
      "stateMutability": "view",
      "type": "function"
    },
    {
      "inputs": [],
      "name": "totalSupply",
      "outputs": [
        {
          "internalType": "uint256",
          "name": "",
          "type": "uint256"
        }
      ],
      "stateMutability": "view",
      "type": "function"
    },
    {
      "inputs": [
        {
          "internalType": "address",
          "name": "recipient",
          "type": "address"
        },
        {
          "internalType": "uint256",
          "name": "amount",
          "type": "uint256"
        }
      ],
      "name": "transfer",
      "outputs": [
        {
          "internalType": "bool",
          "name": "",
          "type": "bool"
        }
      ],
      "stateMutability": "nonpayable",
      "type": "function"
    },
    {
      "inputs": [
        {
          "internalType": "address",
          "name": "sender",
          "type": "address"
        },
        {
          "internalType": "address",
          "name": "recipient",
          "type": "address"
        },
        {
          "internalType": "uint256",
          "name": "amount",
          "type": "uint256"
        }
      ],
      "name": "transferFrom",
      "outputs": [
        {
          "internalType": "bool",
          "name": "",
          "type": "bool"
        }
      ],
      "stateMutability": "nonpayable",
      "type": "function"
    },
    {
      "inputs": [],
      "name": "updateInflation",
      "outputs": [],
      "stateMutability": "nonpayable",
      "type": "function"
    },
    {
      "inputs": [
        {
          "internalType": "uint256",
          "name": "_amount",
          "type": "uint256"
        }
      ],
      "name": "withdrawCollateral",
      "outputs": [],
      "stateMutability": "nonpayable",
      "type": "function"
    },
    {
      "inputs": [],
      "name": "withdrawToken",
      "outputs": [],
      "stateMutability": "nonpayable",
      "type": "function"
    }
  ],
  "transactionHash": "0xfadee9951e5bec1205c84f34729e64df20f6e745a944dc4b8d0588f11ddf5f8d",
  "args": [
    "0x5FbDB2315678afecb367f032d93F642f64180aa3",
    "0xe7f1725E7734CE288F8367e1Bb143E90bb3F0512",
    1,
    1000000,
    "Note",
    "NTO",
    "105170917901244400",
    "0x9965507D1a55bcC2695C58ba16FB37d819B0A4dc"
  ],
  "solcInputHash": "8d08beb71c95cdcbdc660c98bce511aa",
  "bytecode": "0x608060405233600760006101000a81548173ffffffffffffffffffffffffffffffffffffffff021916908373ffffffffffffffffffffffffffffffffffffffff160217905550670de0b6b3a76400006008556714d1120d7b160000600b55610e10600c556000600d5542600f553480156200007957600080fd5b506040516200540b3803806200540b83398181016040528101906200009f91906200064f565b838389806000806101000a81548173ffffffffffffffffffffffffffffffffffffffff021916908373ffffffffffffffffffffffffffffffffffffffff160217905550508160049080519060200190620000fb929190620004e8565b50806005908051906020019062000114929190620004e8565b506012600660006101000a81548160ff021916908360ff1602179055505050816000811180156200014d575068056bc75e2d6310000081105b6200018f576040517f08c379a0000000000000000000000000000000000000000000000000000000008152600401620001869062000846565b60405180910390fd5b8660098190555087600660016101000a81548173ffffffffffffffffffffffffffffffffffffffff021916908373ffffffffffffffffffffffffffffffffffffffff16021790555085600a81905550600086118015620001f75750670de0b6b3a76400008611155b62000239576040517f08c379a0000000000000000000000000000000000000000000000000000000008152600401620002309062000846565b60405180910390fd5b600073ffffffffffffffffffffffffffffffffffffffff168273ffffffffffffffffffffffffffffffffffffffff161415620002ac576040517f08c379a0000000000000000000000000000000000000000000000000000000008152600401620002a39062000824565b60405180910390fd5b81601060006101000a81548173ffffffffffffffffffffffffffffffffffffffff021916908373ffffffffffffffffffffffffffffffffffffffff160217905550620002fe836200031360201b60201c565b600e8190555050505050505050505062000c81565b60006200037462000332670de0b6b3a76400006200037b60201b60201c565b6200036862000347856200037b60201b60201c565b6200035c6301e133806200039a60201b60201c565b620003c160201b60201c565b6200041560201b60201c565b9050919050565b60006200039382633b9aca006200047360201b60201c565b9050919050565b6000620003ba826b033b2e3c9fd0803ce80000006200047360201b60201c565b9050919050565b60008162000401620003e6856b033b2e3c9fd0803ce80000006200047360201b60201c565b600285620003f5919062000935565b6200041560201b60201c565b6200040d919062000935565b905092915050565b6000828284620004269190620008d8565b91508110156200046d576040517f08c379a0000000000000000000000000000000000000000000000000000000008152600401620004649062000802565b60405180910390fd5b92915050565b600080821480620004a05750828283856200048f91906200096d565b9250826200049e919062000935565b145b620004e2576040517f08c379a0000000000000000000000000000000000000000000000000000000008152600401620004d990620007e0565b60405180910390fd5b92915050565b828054620004f69062000a56565b90600052602060002090601f0160209004810192826200051a576000855562000566565b82601f106200053557805160ff191683800117855562000566565b8280016001018555821562000566579182015b828111156200056557825182559160200191906001019062000548565b5b50905062000575919062000579565b5090565b5b80821115620005945760008160009055506001016200057a565b5090565b6000620005af620005a98462000891565b62000868565b905082815260208101848484011115620005c857600080fd5b620005d584828562000a20565b509392505050565b600081519050620005ee8162000c33565b92915050565b600081519050620006058162000c4d565b92915050565b600082601f8301126200061d57600080fd5b81516200062f84826020860162000598565b91505092915050565b600081519050620006498162000c67565b92915050565b600080600080600080600080610100898b0312156200066d57600080fd5b60006200067d8b828c01620005f4565b9850506020620006908b828c01620005dd565b9750506040620006a38b828c0162000638565b9650506060620006b68b828c0162000638565b955050608089015167ffffffffffffffff811115620006d457600080fd5b620006e28b828c016200060b565b94505060a089015167ffffffffffffffff8111156200070057600080fd5b6200070e8b828c016200060b565b93505060c0620007218b828c0162000638565b92505060e0620007348b828c01620005dd565b9150509295985092959890939650565b600062000753601483620008c7565b9150620007608262000b8f565b602082019050919050565b60006200077a601483620008c7565b9150620007878262000bb8565b602082019050919050565b6000620007a1601b83620008c7565b9150620007ae8262000be1565b602082019050919050565b6000620007c8601f83620008c7565b9150620007d58262000c0a565b602082019050919050565b60006020820190508181036000830152620007fb8162000744565b9050919050565b600060208201905081810360008301526200081d816200076b565b9050919050565b600060208201905081810360008301526200083f8162000792565b9050919050565b600060208201905081810360008301526200086181620007b9565b9050919050565b60006200087462000887565b905062000882828262000a8c565b919050565b6000604051905090565b600067ffffffffffffffff821115620008af57620008ae62000b4f565b5b620008ba8262000b7e565b9050602081019050919050565b600082825260208201905092915050565b6000620008e58262000a16565b9150620008f28362000a16565b9250827fffffffffffffffffffffffffffffffffffffffffffffffffffffffffffffffff038211156200092a576200092962000ac2565b5b828201905092915050565b6000620009428262000a16565b91506200094f8362000a16565b92508262000962576200096162000af1565b5b828204905092915050565b60006200097a8262000a16565b9150620009878362000a16565b9250817fffffffffffffffffffffffffffffffffffffffffffffffffffffffffffffffff0483118215151615620009c357620009c262000ac2565b5b828202905092915050565b6000620009db82620009f6565b9050919050565b6000620009ef82620009f6565b9050919050565b600073ffffffffffffffffffffffffffffffffffffffff82169050919050565b6000819050919050565b60005b8381101562000a4057808201518184015260208101905062000a23565b8381111562000a50576000848401525b50505050565b6000600282049050600182168062000a6f57607f821691505b6020821081141562000a865762000a8562000b20565b5b50919050565b62000a978262000b7e565b810181811067ffffffffffffffff8211171562000ab95762000ab862000b4f565b5b80604052505050565b7f4e487b7100000000000000000000000000000000000000000000000000000000600052601160045260246000fd5b7f4e487b7100000000000000000000000000000000000000000000000000000000600052601260045260246000fd5b7f4e487b7100000000000000000000000000000000000000000000000000000000600052602260045260246000fd5b7f4e487b7100000000000000000000000000000000000000000000000000000000600052604160045260246000fd5b6000601f19601f8301169050919050565b7f64732d6d6174682d6d756c2d6f766572666c6f77000000000000000000000000600082015250565b7f64732d6d6174682d6164642d6f766572666c6f77000000000000000000000000600082015250565b7f62656e69666963696172792061646472657373206e6f74207365740000000000600082015250565b7f76616c7565206e6f742077697468696e20616c6c6f776564206c696d69747300600082015250565b62000c3e81620009ce565b811462000c4a57600080fd5b50565b62000c5881620009e2565b811462000c6457600080fd5b50565b62000c728162000a16565b811462000c7e57600080fd5b50565b61477a8062000c916000396000f3fe608060405234801561001057600080fd5b50600436106102325760003560e01c806370a0823111610130578063b4eae1cb116100b8578063c98c05b71161007c578063c98c05b71461064b578063ca628c7814610669578063dd62ed3e14610673578063f06b4658146106a3578063f851a440146106bf57610232565b8063b4eae1cb146105bb578063b8eb5e4b146105d9578063b93e0cb5146105f7578063b9d3d6e314610613578063bad4a01f1461062f57610232565b806395d89b41116100ff57806395d89b4114610503578063a140ae2314610521578063a457c2d71461053d578063a9059cbb1461056d578063b2016bd41461059d57610232565b806370a08231146104795780637ff9b596146104a95780638e8cfbde146104c75780639014de63146104e557610232565b8063401ce372116101be5780636112fe2e116101825780636112fe2e146103e757806364494074146104035780636479a566146104215780636a1460241461043f578063704b6c021461045d57610232565b8063401ce3721461036757806348500ccf14610383578063552033c4146103a15780635891de72146103bf57806359825a4c146103dd57610232565b806323b872dd1161020557806323b872dd146102c157806328a07025146102f157806329a150ba146102fb578063313ce56714610319578063395093511461033757610232565b806306fdde0314610237578063095ea7b3146102555780631527262b1461028557806318160ddd146102a3575b600080fd5b61023f6106dd565b60405161024c9190613a94565b60405180910390f35b61026f600480360381019061026a919061341d565b61076f565b60405161027c9190613a5e565b60405180910390f35b61028d610786565b60405161029a9190613922565b60405180910390f35b6102ab6107ac565b6040516102b89190613df6565b60405180910390f35b6102db60048036038101906102d691906133ce565b6107b6565b6040516102e89190613a5e565b60405180910390f35b6102f9610860565b005b610303610c34565b6040516103109190613df6565b60405180910390f35b610321610c3a565b60405161032e9190613e3a565b60405180910390f35b610351600480360381019061034c919061341d565b610c51565b60405161035e9190613a5e565b60405180910390f35b610381600480360381019061037c9190613482565b610cef565b005b61038b610e19565b6040516103989190613df6565b60405180910390f35b6103a9610e1f565b6040516103b69190613df6565b60405180910390f35b6103c7610e2f565b6040516103d49190613df6565b60405180910390f35b6103e5610eb6565b005b61040160048036038101906103fc9190613482565b610f7f565b005b61040b61118c565b6040516104189190613df6565b60405180910390f35b610429611192565b6040516104369190613df6565b60405180910390f35b610447611198565b6040516104549190613df6565b60405180910390f35b61047760048036038101906104729190613369565b6111a4565b005b610493600480360381019061048e9190613369565b61131f565b6040516104a09190613df6565b60405180910390f35b6104b1611368565b6040516104be9190613df6565b60405180910390f35b6104cf61138b565b6040516104dc9190613df6565b60405180910390f35b6104ed611391565b6040516104fa9190613df6565b60405180910390f35b61050b611397565b6040516105189190613a94565b60405180910390f35b61053b600480360381019061053691906134d4565b611429565b005b6105576004803603810190610552919061341d565b611555565b6040516105649190613a5e565b60405180910390f35b6105876004803603810190610582919061341d565b6115f3565b6040516105949190613a5e565b60405180910390f35b6105a561160a565b6040516105b29190613a79565b60405180910390f35b6105c3611630565b6040516105d09190613df6565b60405180910390f35b6105e1611779565b6040516105ee9190613df6565b60405180910390f35b610611600480360381019061060c9190613482565b61177f565b005b61062d60048036038101906106289190613482565b611850565b005b61064960048036038101906106449190613482565b6119b3565b005b610653611b79565b6040516106609190613df6565b60405180910390f35b610671611c2b565b005b61068d60048036038101906106889190613392565b611f63565b60405161069a9190613df6565b60405180910390f35b6106bd60048036038101906106b89190613482565b611fea565b005b6106c7612128565b6040516106d49190613922565b60405180910390f35b6060600480546106ec90614032565b80601f016020809104026020016040519081016040528092919081815260200182805461071890614032565b80156107655780601f1061073a57610100808354040283529160200191610765565b820191906000526020600020905b81548152906001019060200180831161074857829003601f168201915b5050505050905090565b600061077c33848461214e565b6001905092915050565b601060009054906101000a900473ffffffffffffffffffffffffffffffffffffffff1681565b6000600354905090565b60006107c3848484612319565b610855843384600260008973ffffffffffffffffffffffffffffffffffffffff1673ffffffffffffffffffffffffffffffffffffffff16815260200190815260200160002060003373ffffffffffffffffffffffffffffffffffffffff1673ffffffffffffffffffffffffffffffffffffffff168152602001908152602001600020546108509190613f52565b61214e565b600190509392505050565b600b5461086b611630565b116108ab576040517f08c379a00000000000000000000000000000000000000000000000000000000081526004016108a290613af6565b60405180910390fd5b60006108b63361131f565b116108f6576040517f08c379a00000000000000000000000000000000000000000000000000000000081526004016108ed90613b96565b60405180910390fd5b60006109b3600660019054906101000a900473ffffffffffffffffffffffffffffffffffffffff1673ffffffffffffffffffffffffffffffffffffffff166370a08231306040518263ffffffff1660e01b81526004016109569190613922565b60206040518083038186803b15801561096e57600080fd5b505afa158015610982573d6000803e3d6000fd5b505050506040513d601f19601f820116820180604052508101906109a691906134ab565b6109ae6107ac565b61257f565b905060006109c03361131f565b905060006109ce82846125bb565b905060006109de82600d546125bb565b90507f158ba9ab7bbbd08eeffa4753bad41f4d450e24831d293427308badf3eadd8c7633848484604051610a159493929190613a19565b60405180910390a1610a2733846125ff565b600660019054906101000a900473ffffffffffffffffffffffffffffffffffffffff1673ffffffffffffffffffffffffffffffffffffffff1663a9059cbb33610a70858561277b565b6040518363ffffffff1660e01b8152600401610a8d929190613974565b602060405180830381600087803b158015610aa757600080fd5b505af1158015610abb573d6000803e3d6000fd5b505050506040513d601f19601f82011682018060405250810190610adf9190613459565b610b1e576040517f08c379a0000000000000000000000000000000000000000000000000000000008152600401610b1590613d76565b60405180910390fd5b600660019054906101000a900473ffffffffffffffffffffffffffffffffffffffff1673ffffffffffffffffffffffffffffffffffffffff1663a9059cbb601060009054906101000a900473ffffffffffffffffffffffffffffffffffffffff16836040518363ffffffff1660e01b8152600401610b9d929190613974565b602060405180830381600087803b158015610bb757600080fd5b505af1158015610bcb573d6000803e3d6000fd5b505050506040513d601f19601f82011682018060405250810190610bef9190613459565b610c2e576040517f08c379a0000000000000000000000000000000000000000000000000000000008152600401610c2590613c56565b60405180910390fd5b50505050565b600d5481565b6000600660009054906101000a900460ff16905090565b6000610ce5338484600260003373ffffffffffffffffffffffffffffffffffffffff1673ffffffffffffffffffffffffffffffffffffffff16815260200190815260200160002060008873ffffffffffffffffffffffffffffffffffffffff1673ffffffffffffffffffffffffffffffffffffffff16815260200190815260200160002054610ce09190613e71565b61214e565b6001905092915050565b600760009054906101000a900473ffffffffffffffffffffffffffffffffffffffff1673ffffffffffffffffffffffffffffffffffffffff163373ffffffffffffffffffffffffffffffffffffffff1614610d7f576040517f08c379a0000000000000000000000000000000000000000000000000000000008152600401610d7690613c16565b60405180910390fd5b80600081118015610d98575068056bc75e2d6310000081105b610dd7576040517f08c379a0000000000000000000000000000000000000000000000000000000008152600401610dce90613cf6565b60405180910390fd5b81600b819055507f28e98951093a92e2a12cfccced98a5e14ff4a69f23c1137a90353ea343a879d582604051610e0d9190613df6565b60405180910390a15050565b600a5481565b6b033b2e3c9fd0803ce800000081565b6000806000610e4d600954600c5442610e489190613f52565b6127d4565b509150915081610e92576040517f08c379a0000000000000000000000000000000000000000000000000000000008152600401610e8990613c76565b60405180910390fd5b610eaf81610eaa670de0b6b3a7640000600a5461298f565b6129d9565b9250505090565b6000600f5442610ec69190613f52565b905060008111610f0b576040517f08c379a0000000000000000000000000000000000000000000000000000000008152600401610f0290613c36565b60405180910390fd5b42600f81905550610f21600854600e5483612a46565b6008819055506000610f4d610f40610f376107ac565b600e5485612a64565b610f486107ac565b61277b565b9050610f7b601060009054906101000a900473ffffffffffffffffffffffffffffffffffffffff1682612a82565b5050565b600760009054906101000a900473ffffffffffffffffffffffffffffffffffffffff1673ffffffffffffffffffffffffffffffffffffffff163373ffffffffffffffffffffffffffffffffffffffff161461100f576040517f08c379a000000000000000000000000000000000000000000000000000000000815260040161100690613c16565b60405180910390fd5b600660019054906101000a900473ffffffffffffffffffffffffffffffffffffffff1673ffffffffffffffffffffffffffffffffffffffff1663a9059cbb33836040518363ffffffff1660e01b815260040161106c929190613974565b602060405180830381600087803b15801561108657600080fd5b505af115801561109a573d6000803e3d6000fd5b505050506040513d601f19601f820116820180604052508101906110be9190613459565b6110fd576040517f08c379a00000000000000000000000000000000000000000000000000000000081526004016110f490613d96565b60405180910390fd5b6000611107611630565b9050600b54811061114d576040517f08c379a000000000000000000000000000000000000000000000000000000000815260040161114490613b16565b60405180910390fd5b7f627a692d5a03ab34732c0d2aa319f3ecdebdc4528f383eabcb25441dc0a70cfb338383604051611180939291906139e2565b60405180910390a15050565b600e5481565b600c5481565b670de0b6b3a764000081565b600760009054906101000a900473ffffffffffffffffffffffffffffffffffffffff1673ffffffffffffffffffffffffffffffffffffffff163373ffffffffffffffffffffffffffffffffffffffff1614611234576040517f08c379a000000000000000000000000000000000000000000000000000000000815260040161122b90613c16565b60405180910390fd5b600073ffffffffffffffffffffffffffffffffffffffff168173ffffffffffffffffffffffffffffffffffffffff1614156112a4576040517f08c379a000000000000000000000000000000000000000000000000000000000815260040161129b90613dd6565b60405180910390fd5b80600760006101000a81548173ffffffffffffffffffffffffffffffffffffffff021916908373ffffffffffffffffffffffffffffffffffffffff1602179055507f71614071b88dee5e0b2ae578a9dd7b2ebbe9ae832ba419dc0242cd065a290b6c816040516113149190613922565b60405180910390a150565b6000600160008373ffffffffffffffffffffffffffffffffffffffff1673ffffffffffffffffffffffffffffffffffffffff168152602001908152602001600020549050919050565b6000611386600854600e54600f54426113819190613f52565b612a46565b905090565b600b5481565b600f5481565b6060600580546113a690614032565b80601f01602080910402602001604051908101604052809291908181526020018280546113d290614032565b801561141f5780601f106113f45761010080835404028352916020019161141f565b820191906000526020600020905b81548152906001019060200180831161140257829003601f168201915b5050505050905090565b600760009054906101000a900473ffffffffffffffffffffffffffffffffffffffff1673ffffffffffffffffffffffffffffffffffffffff163373ffffffffffffffffffffffffffffffffffffffff16146114b9576040517f08c379a00000000000000000000000000000000000000000000000000000000081526004016114b090613c16565b60405180910390fd5b6114c38183612a82565b60006114cd611630565b9050600b548110611513576040517f08c379a000000000000000000000000000000000000000000000000000000000815260040161150a90613b16565b60405180910390fd5b7f8aa79244595326e02b94ff370fec2bf34048b114fa3566a1928de6961944b6c433848484604051611548949392919061399d565b60405180910390a1505050565b60006115e9338484600260003373ffffffffffffffffffffffffffffffffffffffff1673ffffffffffffffffffffffffffffffffffffffff16815260200190815260200160002060008873ffffffffffffffffffffffffffffffffffffffff1673ffffffffffffffffffffffffffffffffffffffff168152602001908152602001600020546115e49190613f52565b61214e565b6001905092915050565b6000611600338484612319565b6001905092915050565b600660019054906101000a900473ffffffffffffffffffffffffffffffffffffffff1681565b600080600660019054906101000a900473ffffffffffffffffffffffffffffffffffffffff1673ffffffffffffffffffffffffffffffffffffffff166370a08231306040518263ffffffff1660e01b815260040161168e9190613922565b60206040518083038186803b1580156116a657600080fd5b505afa1580156116ba573d6000803e3d6000fd5b505050506040513d601f19601f820116820180604052508101906116de91906134ab565b905060006116ea6107ac565b14806116f65750600081145b15611705576000915050611776565b6000611718611712610e2f565b836125bb565b9050600061173d6117276107ac565b600e54600f54426117389190613f52565b612a64565b9050600061175261174c611368565b836125bb565b905061176f670de0b6b3a764000061176a838661257f565b612bfe565b9450505050505b90565b60095481565b600760009054906101000a900473ffffffffffffffffffffffffffffffffffffffff1673ffffffffffffffffffffffffffffffffffffffff163373ffffffffffffffffffffffffffffffffffffffff161461180f576040517f08c379a000000000000000000000000000000000000000000000000000000000815260040161180690613c16565b60405180910390fd5b80600c819055507ff446a856a251d3949a294b9b5a1887d32750b34a18bb135814cfc300119ca84d816040516118459190613df6565b60405180910390a150565b60008111611893576040517f08c379a000000000000000000000000000000000000000000000000000000000815260040161188a90613d36565b60405180910390fd5b8061189d3361131f565b10156118de576040517f08c379a00000000000000000000000000000000000000000000000000000000081526004016118d590613bf6565b60405180910390fd5b42601160003373ffffffffffffffffffffffffffffffffffffffff1673ffffffffffffffffffffffffffffffffffffffff1681526020019081526020016000206001018190555080601160003373ffffffffffffffffffffffffffffffffffffffff1673ffffffffffffffffffffffffffffffffffffffff16815260200190815260200160002060000181905550611977333083612319565b7f775018a2778ce1872c0e8479c44904756ec55daa3afe7fc35951cea8ef67126b33826040516119a8929190613974565b60405180910390a150565b600760009054906101000a900473ffffffffffffffffffffffffffffffffffffffff1673ffffffffffffffffffffffffffffffffffffffff163373ffffffffffffffffffffffffffffffffffffffff1614611a43576040517f08c379a0000000000000000000000000000000000000000000000000000000008152600401611a3a90613c16565b60405180910390fd5b60008111611a86576040517f08c379a0000000000000000000000000000000000000000000000000000000008152600401611a7d90613c96565b60405180910390fd5b600660019054906101000a900473ffffffffffffffffffffffffffffffffffffffff1673ffffffffffffffffffffffffffffffffffffffff166323b872dd3330846040518463ffffffff1660e01b8152600401611ae59392919061393d565b602060405180830381600087803b158015611aff57600080fd5b505af1158015611b13573d6000803e3d6000fd5b505050506040513d601f19601f82011682018060405250810190611b379190613459565b611b76576040517f08c379a0000000000000000000000000000000000000000000000000000000008152600401611b6d90613cb6565b60405180910390fd5b50565b6000600660019054906101000a900473ffffffffffffffffffffffffffffffffffffffff1673ffffffffffffffffffffffffffffffffffffffff166370a08231306040518263ffffffff1660e01b8152600401611bd69190613922565b60206040518083038186803b158015611bee57600080fd5b505afa158015611c02573d6000803e3d6000fd5b505050506040513d601f19601f82011682018060405250810190611c2691906134ab565b905090565b6000601160003373ffffffffffffffffffffffffffffffffffffffff1673ffffffffffffffffffffffffffffffffffffffff1681526020019081526020016000206040518060400160405290816000820154815260200160018201548152505090506000601160003373ffffffffffffffffffffffffffffffffffffffff1673ffffffffffffffffffffffffffffffffffffffff16815260200190815260200160002060000154905060008111611d17576040517f08c379a0000000000000000000000000000000000000000000000000000000008152600401611d0e90613d36565b60405180910390fd5b60006005611d236107ac565b836064611d309190613ef8565b611d3a9190613ec7565b611d449190613ec7565b6001611d509190613e71565b90508062015180611d619190613ef8565b836020015142611d719190613f52565b11611db1576040517f08c379a0000000000000000000000000000000000000000000000000000000008152600401611da890613bd6565b60405180910390fd5b6000601160003373ffffffffffffffffffffffffffffffffffffffff1673ffffffffffffffffffffffffffffffffffffffff168152602001908152602001600020600001819055506000611e03610e2f565b90506000611e18611e12611368565b8361257f565b90506000611e2682866125bb565b9050611e3230866125ff565b600660019054906101000a900473ffffffffffffffffffffffffffffffffffffffff1673ffffffffffffffffffffffffffffffffffffffff1663a9059cbb33836040518363ffffffff1660e01b8152600401611e8f929190613974565b602060405180830381600087803b158015611ea957600080fd5b505af1158015611ebd573d6000803e3d6000fd5b505050506040513d601f19601f82011682018060405250810190611ee19190613459565b611f20576040517f08c379a0000000000000000000000000000000000000000000000000000000008152600401611f1790613b76565b60405180910390fd5b7f7575c9e41ba6d91ef21e39bd62b5b9df62fc9b0401379fdf9fe1fa372f41e7c1338683604051611f53939291906139e2565b60405180910390a1505050505050565b6000600260008473ffffffffffffffffffffffffffffffffffffffff1673ffffffffffffffffffffffffffffffffffffffff16815260200190815260200160002060008373ffffffffffffffffffffffffffffffffffffffff1673ffffffffffffffffffffffffffffffffffffffff16815260200190815260200160002054905092915050565b600760009054906101000a900473ffffffffffffffffffffffffffffffffffffffff1673ffffffffffffffffffffffffffffffffffffffff163373ffffffffffffffffffffffffffffffffffffffff161461207a576040517f08c379a000000000000000000000000000000000000000000000000000000000815260040161207190613c16565b60405180910390fd5b80600081118015612093575068056bc75e2d6310000081105b6120d2576040517f08c379a00000000000000000000000000000000000000000000000000000000081526004016120c990613cf6565b60405180910390fd5b6120e58268056bc75e2d6310000061257f565b600d819055507fb410b9fb1c7ee253f64b4393c5fa78a4d64c9f4495828b8c9e62813a5c53528d600d5460405161211c9190613df6565b60405180910390a15050565b600760009054906101000a900473ffffffffffffffffffffffffffffffffffffffff1681565b600073ffffffffffffffffffffffffffffffffffffffff168373ffffffffffffffffffffffffffffffffffffffff1614156121be576040517f08c379a00000000000000000000000000000000000000000000000000000000081526004016121b590613d56565b60405180910390fd5b600073ffffffffffffffffffffffffffffffffffffffff168273ffffffffffffffffffffffffffffffffffffffff16141561222e576040517f08c379a000000000000000000000000000000000000000000000000000000000815260040161222590613b36565b60405180910390fd5b80600260008573ffffffffffffffffffffffffffffffffffffffff1673ffffffffffffffffffffffffffffffffffffffff16815260200190815260200160002060008473ffffffffffffffffffffffffffffffffffffffff1673ffffffffffffffffffffffffffffffffffffffff168152602001908152602001600020819055508173ffffffffffffffffffffffffffffffffffffffff168373ffffffffffffffffffffffffffffffffffffffff167f8c5be1e5ebec7d5bd14f71427d1e84f3dd0314c0f7b2291e5b200ac8c7c3b9258360405161230c9190613df6565b60405180910390a3505050565b600073ffffffffffffffffffffffffffffffffffffffff168373ffffffffffffffffffffffffffffffffffffffff161415612389576040517f08c379a000000000000000000000000000000000000000000000000000000000815260040161238090613d16565b60405180910390fd5b600073ffffffffffffffffffffffffffffffffffffffff168273ffffffffffffffffffffffffffffffffffffffff1614156123f9576040517f08c379a00000000000000000000000000000000000000000000000000000000081526004016123f090613ad6565b60405180910390fd5b80600160008573ffffffffffffffffffffffffffffffffffffffff1673ffffffffffffffffffffffffffffffffffffffff168152602001908152602001600020546124449190613f52565b600160008573ffffffffffffffffffffffffffffffffffffffff1673ffffffffffffffffffffffffffffffffffffffff1681526020019081526020016000208190555080600160008473ffffffffffffffffffffffffffffffffffffffff1673ffffffffffffffffffffffffffffffffffffffff168152602001908152602001600020546124d29190613e71565b600160008473ffffffffffffffffffffffffffffffffffffffff1673ffffffffffffffffffffffffffffffffffffffff168152602001908152602001600020819055508173ffffffffffffffffffffffffffffffffffffffff168373ffffffffffffffffffffffffffffffffffffffff167fddf252ad1be2c89b69c2b068fc378daa952ba7f163c4a11628f55a4df523b3ef836040516125729190613df6565b60405180910390a3505050565b6000816125a961259785670de0b6b3a76400006129d9565b6002856125a49190613ec7565b612bfe565b6125b39190613ec7565b905092915050565b6000670de0b6b3a76400006125ed6125d385856129d9565b6002670de0b6b3a76400006125e89190613ec7565b612bfe565b6125f79190613ec7565b905092915050565b600073ffffffffffffffffffffffffffffffffffffffff168273ffffffffffffffffffffffffffffffffffffffff16141561266f576040517f08c379a000000000000000000000000000000000000000000000000000000000815260040161266690613cd6565b60405180910390fd5b80600160008473ffffffffffffffffffffffffffffffffffffffff1673ffffffffffffffffffffffffffffffffffffffff168152602001908152602001600020546126ba9190613f52565b600160008473ffffffffffffffffffffffffffffffffffffffff1673ffffffffffffffffffffffffffffffffffffffff168152602001908152602001600020819055508060035461270b9190613f52565b600381905550600073ffffffffffffffffffffffffffffffffffffffff168273ffffffffffffffffffffffffffffffffffffffff167fddf252ad1be2c89b69c2b068fc378daa952ba7f163c4a11628f55a4df523b3ef8360405161276f9190613df6565b60405180910390a35050565b600082828461278a9190613f52565b91508111156127ce576040517f08c379a00000000000000000000000000000000000000000000000000000000081526004016127c590613ab6565b60405180910390fd5b92915050565b60008060008060006127e68787612c57565b91509150816128015760008060009450945094505050612988565b60008060009054906101000a900473ffffffffffffffffffffffffffffffffffffffff1673ffffffffffffffffffffffffffffffffffffffff166377fbb66389846040518363ffffffff1660e01b815260040161285f929190613e11565b60206040518083038186803b15801561287757600080fd5b505afa15801561288b573d6000803e3d6000fd5b505050506040513d601f19601f820116820180604052508101906128af91906134ab565b905060008054906101000a900473ffffffffffffffffffffffffffffffffffffffff1673ffffffffffffffffffffffffffffffffffffffff166393fa491589836040518363ffffffff1660e01b815260040161290c929190613e11565b60206040518083038186803b15801561292457600080fd5b505afa158015612938573d6000803e3d6000fd5b505050506040513d601f19601f8201168201806040525081019061295c91906134ab565b945060008511156129795760018582955095509550505050612988565b60008060009550955095505050505b9250925092565b60006129d183836040518060400160405280601a81526020017f536166654d6174683a206469766973696f6e206279207a65726f00000000000081525061319b565b905092915050565b600080821480612a015750828283856129f29190613ef8565b9250826129ff9190613ec7565b145b612a40576040517f08c379a0000000000000000000000000000000000000000000000000000000008152600401612a3790613b56565b60405180910390fd5b92915050565b6000612a5b84612a5685856131fe565b613289565b90509392505050565b6000612a7984612a7485856131fe565b6132c9565b90509392505050565b600073ffffffffffffffffffffffffffffffffffffffff168273ffffffffffffffffffffffffffffffffffffffff161415612af2576040517f08c379a0000000000000000000000000000000000000000000000000000000008152600401612ae990613db6565b60405180910390fd5b80600354612b009190613e71565b60038190555080600160008473ffffffffffffffffffffffffffffffffffffffff1673ffffffffffffffffffffffffffffffffffffffff16815260200190815260200160002054612b519190613e71565b600160008473ffffffffffffffffffffffffffffffffffffffff1673ffffffffffffffffffffffffffffffffffffffff168152602001908152602001600020819055508173ffffffffffffffffffffffffffffffffffffffff16600073ffffffffffffffffffffffffffffffffffffffff167fddf252ad1be2c89b69c2b068fc378daa952ba7f163c4a11628f55a4df523b3ef83604051612bf29190613df6565b60405180910390a35050565b6000828284612c0d9190613e71565b9150811015612c51576040517f08c379a0000000000000000000000000000000000000000000000000000000008152600401612c4890613bb6565b60405180910390fd5b92915050565b60008060008060009054906101000a900473ffffffffffffffffffffffffffffffffffffffff1673ffffffffffffffffffffffffffffffffffffffff166346eee1c4866040518263ffffffff1660e01b8152600401612cb69190613df6565b60206040518083038186803b158015612cce57600080fd5b505afa158015612ce2573d6000803e3d6000fd5b505050506040513d601f19601f82011682018060405250810190612d0691906134ab565b9050600081111561318b57600080600090506000600184612d279190613f52565b905060008060009054906101000a900473ffffffffffffffffffffffffffffffffffffffff1673ffffffffffffffffffffffffffffffffffffffff166377fbb6638a856040518363ffffffff1660e01b8152600401612d87929190613e11565b60206040518083038186803b158015612d9f57600080fd5b505afa158015612db3573d6000803e3d6000fd5b505050506040513d601f19601f82011682018060405250810190612dd791906134ab565b9050878110612df157600080965096505050505050613194565b60008054906101000a900473ffffffffffffffffffffffffffffffffffffffff1673ffffffffffffffffffffffffffffffffffffffff166377fbb6638a846040518363ffffffff1660e01b8152600401612e4c929190613e11565b60206040518083038186803b158015612e6457600080fd5b505afa158015612e78573d6000803e3d6000fd5b505050506040513d601f19601f82011682018060405250810190612e9c91906134ab565b905087811015612eb757600182965096505050505050613194565b5b6001156131865782600160028585612ed09190613f52565b612eda9190613ec7565b612ee49190613e71565b612eee9190613e71565b935060008054906101000a900473ffffffffffffffffffffffffffffffffffffffff1673ffffffffffffffffffffffffffffffffffffffff166377fbb6638a866040518363ffffffff1660e01b8152600401612f4b929190613e11565b60206040518083038186803b158015612f6357600080fd5b505afa158015612f77573d6000803e3d6000fd5b505050506040513d601f19601f82011682018060405250810190612f9b91906134ab565b90508781101561308f5760008060009054906101000a900473ffffffffffffffffffffffffffffffffffffffff1673ffffffffffffffffffffffffffffffffffffffff166377fbb6638b600188612ff29190613e71565b6040518363ffffffff1660e01b815260040161300f929190613e11565b60206040518083038186803b15801561302757600080fd5b505afa15801561303b573d6000803e3d6000fd5b505050506040513d601f19601f8201168201806040525081019061305f91906134ab565b905088811061307a5760018597509750505050505050613194565b6001856130879190613e71565b935050613181565b60008060009054906101000a900473ffffffffffffffffffffffffffffffffffffffff1673ffffffffffffffffffffffffffffffffffffffff166377fbb6638b6001886130dc9190613f52565b6040518363ffffffff1660e01b81526004016130f9929190613e11565b60206040518083038186803b15801561311157600080fd5b505afa158015613125573d6000803e3d6000fd5b505050506040513d601f19601f8201168201806040525081019061314991906134ab565b90508881101561317057600180866131619190613f52565b97509750505050505050613194565b60018561317d9190613f52565b9250505b612eb8565b505050505b60008092509250505b9250929050565b600080831182906131e2576040517f08c379a00000000000000000000000000000000000000000000000000000000081526004016131d99190613a94565b60405180910390fd5b50600083856131f19190613ec7565b9050809150509392505050565b60008060028361320e9190614064565b1415613226576b033b2e3c9fd0803ce8000000613228565b825b90506002826132379190613ec7565b91505b600082146132835761324c83846132c9565b9250600060028361325d9190614064565b1461326f5761326c81846132c9565b90505b60028261327c9190613ec7565b915061323a565b92915050565b6000816132b76132a5856b033b2e3c9fd0803ce80000006129d9565b6002856132b29190613ec7565b612bfe565b6132c19190613ec7565b905092915050565b60006b033b2e3c9fd0803ce80000006133036132e585856129d9565b60026b033b2e3c9fd0803ce80000006132fe9190613ec7565b612bfe565b61330d9190613ec7565b905092915050565b600081359050613324816146ff565b92915050565b60008151905061333981614716565b92915050565b60008135905061334e8161472d565b92915050565b6000815190506133638161472d565b92915050565b60006020828403121561337b57600080fd5b600061338984828501613315565b91505092915050565b600080604083850312156133a557600080fd5b60006133b385828601613315565b92505060206133c485828601613315565b9150509250929050565b6000806000606084860312156133e357600080fd5b60006133f186828701613315565b935050602061340286828701613315565b92505060406134138682870161333f565b9150509250925092565b6000806040838503121561343057600080fd5b600061343e85828601613315565b925050602061344f8582860161333f565b9150509250929050565b60006020828403121561346b57600080fd5b60006134798482850161332a565b91505092915050565b60006020828403121561349457600080fd5b60006134a28482850161333f565b91505092915050565b6000602082840312156134bd57600080fd5b60006134cb84828501613354565b91505092915050565b600080604083850312156134e757600080fd5b60006134f58582860161333f565b925050602061350685828601613315565b9150509250929050565b61351981613f86565b82525050565b61352881613f98565b82525050565b61353781613fdb565b82525050565b600061354882613e55565b6135528185613e60565b9350613562818560208601613fff565b61356b81614122565b840191505092915050565b6000613583601583613e60565b915061358e82614133565b602082019050919050565b60006135a6602383613e60565b91506135b18261415c565b604082019050919050565b60006135c9602983613e60565b91506135d4826141ab565b604082019050919050565b60006135ec602a83613e60565b91506135f7826141fa565b604082019050919050565b600061360f602283613e60565b915061361a82614249565b604082019050919050565b6000613632601483613e60565b915061363d82614298565b602082019050919050565b6000613655601883613e60565b9150613660826142c1565b602082019050919050565b6000613678602183613e60565b9150613683826142ea565b604082019050919050565b600061369b601483613e60565b91506136a682614339565b602082019050919050565b60006136be601a83613e60565b91506136c982614362565b602082019050919050565b60006136e1601283613e60565b91506136ec8261438b565b602082019050919050565b6000613704600c83613e60565b915061370f826143b4565b602082019050919050565b6000613727601983613e60565b9150613732826143dd565b602082019050919050565b600061374a602d83613e60565b915061375582614406565b604082019050919050565b600061376d601483613e60565b915061377882614455565b602082019050919050565b6000613790601083613e60565b915061379b8261447e565b602082019050919050565b60006137b3602283613e60565b91506137be826144a7565b604082019050919050565b60006137d6602183613e60565b91506137e1826144f6565b604082019050919050565b60006137f9601f83613e60565b915061380482614545565b602082019050919050565b600061381c602583613e60565b91506138278261456e565b604082019050919050565b600061383f601f83613e60565b915061384a826145bd565b602082019050919050565b6000613862602483613e60565b915061386d826145e6565b604082019050919050565b6000613885602583613e60565b915061389082614635565b604082019050919050565b60006138a8601983613e60565b91506138b382614684565b602082019050919050565b60006138cb601f83613e60565b91506138d6826146ad565b602082019050919050565b60006138ee601f83613e60565b91506138f9826146d6565b602082019050919050565b61390d81613fc4565b82525050565b61391c81613fce565b82525050565b60006020820190506139376000830184613510565b92915050565b60006060820190506139526000830186613510565b61395f6020830185613510565b61396c6040830184613904565b949350505050565b60006040820190506139896000830185613510565b6139966020830184613904565b9392505050565b60006080820190506139b26000830187613510565b6139bf6020830186613904565b6139cc6040830185613510565b6139d96060830184613904565b95945050505050565b60006060820190506139f76000830186613510565b613a046020830185613904565b613a116040830184613904565b949350505050565b6000608082019050613a2e6000830187613510565b613a3b6020830186613904565b613a486040830185613904565b613a556060830184613904565b95945050505050565b6000602082019050613a73600083018461351f565b92915050565b6000602082019050613a8e600083018461352e565b92915050565b60006020820190508181036000830152613aae818461353d565b905092915050565b60006020820190508181036000830152613acf81613576565b9050919050565b60006020820190508181036000830152613aef81613599565b9050919050565b60006020820190508181036000830152613b0f816135bc565b9050919050565b60006020820190508181036000830152613b2f816135df565b9050919050565b60006020820190508181036000830152613b4f81613602565b9050919050565b60006020820190508181036000830152613b6f81613625565b9050919050565b60006020820190508181036000830152613b8f81613648565b9050919050565b60006020820190508181036000830152613baf8161366b565b9050919050565b60006020820190508181036000830152613bcf8161368e565b9050919050565b60006020820190508181036000830152613bef816136b1565b9050919050565b60006020820190508181036000830152613c0f816136d4565b9050919050565b60006020820190508181036000830152613c2f816136f7565b9050919050565b60006020820190508181036000830152613c4f8161371a565b9050919050565b60006020820190508181036000830152613c6f8161373d565b9050919050565b60006020820190508181036000830152613c8f81613760565b9050919050565b60006020820190508181036000830152613caf81613783565b9050919050565b60006020820190508181036000830152613ccf816137a6565b9050919050565b60006020820190508181036000830152613cef816137c9565b9050919050565b60006020820190508181036000830152613d0f816137ec565b9050919050565b60006020820190508181036000830152613d2f8161380f565b9050919050565b60006020820190508181036000830152613d4f81613832565b9050919050565b60006020820190508181036000830152613d6f81613855565b9050919050565b60006020820190508181036000830152613d8f81613878565b9050919050565b60006020820190508181036000830152613daf8161389b565b9050919050565b60006020820190508181036000830152613dcf816138be565b9050919050565b60006020820190508181036000830152613def816138e1565b9050919050565b6000602082019050613e0b6000830184613904565b92915050565b6000604082019050613e266000830185613904565b613e336020830184613904565b9392505050565b6000602082019050613e4f6000830184613913565b92915050565b600081519050919050565b600082825260208201905092915050565b6000613e7c82613fc4565b9150613e8783613fc4565b9250827fffffffffffffffffffffffffffffffffffffffffffffffffffffffffffffffff03821115613ebc57613ebb614095565b5b828201905092915050565b6000613ed282613fc4565b9150613edd83613fc4565b925082613eed57613eec6140c4565b5b828204905092915050565b6000613f0382613fc4565b9150613f0e83613fc4565b9250817fffffffffffffffffffffffffffffffffffffffffffffffffffffffffffffffff0483118215151615613f4757613f46614095565b5b828202905092915050565b6000613f5d82613fc4565b9150613f6883613fc4565b925082821015613f7b57613f7a614095565b5b828203905092915050565b6000613f9182613fa4565b9050919050565b60008115159050919050565b600073ffffffffffffffffffffffffffffffffffffffff82169050919050565b6000819050919050565b600060ff82169050919050565b6000613fe682613fed565b9050919050565b6000613ff882613fa4565b9050919050565b60005b8381101561401d578082015181840152602081019050614002565b8381111561402c576000848401525b50505050565b6000600282049050600182168061404a57607f821691505b6020821081141561405e5761405d6140f3565b5b50919050565b600061406f82613fc4565b915061407a83613fc4565b92508261408a576140896140c4565b5b828206905092915050565b7f4e487b7100000000000000000000000000000000000000000000000000000000600052601160045260246000fd5b7f4e487b7100000000000000000000000000000000000000000000000000000000600052601260045260246000fd5b7f4e487b7100000000000000000000000000000000000000000000000000000000600052602260045260246000fd5b6000601f19601f8301169050919050565b7f64732d6d6174682d7375622d756e646572666c6f770000000000000000000000600082015250565b7f45524332303a207472616e7366657220746f20746865207a65726f206164647260008201527f6573730000000000000000000000000000000000000000000000000000000000602082015250565b7f636f6c6c61746572616c207574696c697a61746f696e2069732062656c6f772060008201527f7468726573686f6c640000000000000000000000000000000000000000000000602082015250565b7f636f6c6c61746572616c207574696c697a6174696f6e2061626f76652074686560008201527f207468726573686f6c6400000000000000000000000000000000000000000000602082015250565b7f45524332303a20617070726f766520746f20746865207a65726f20616464726560008201527f7373000000000000000000000000000000000000000000000000000000000000602082015250565b7f64732d6d6174682d6d756c2d6f766572666c6f77000000000000000000000000600082015250565b7f636f6c6c61746572616c207472616e73666572206661696c0000000000000000600082015250565b7f6d73672073656e64657220646f65736e2774206f776e20616e7920746f6b656e60008201527f7300000000000000000000000000000000000000000000000000000000000000602082015250565b7f64732d6d6174682d6164642d6f766572666c6f77000000000000000000000000600082015250565b7f6d757374207761697420612064617920746f2072657175657374000000000000600082015250565b7f6e6f7420656e6f7567682062616c616e63650000000000000000000000000000600082015250565b7f6e6f7420616e2061646d696e0000000000000000000000000000000000000000600082015250565b7f6e6f20696e666c6174696f6e20696e6372656173652079657400000000000000600082015250565b7f636f6c6c61746572616c206c69717569646174696f6e2070656e616c7479207460008201527f72616e73666572206661696c7300000000000000000000000000000000000000602082015250565b7f67657474696e67206f7261636c65207072696365000000000000000000000000600082015250565b7f6465706f73697420616d6f756e74203000000000000000000000000000000000600082015250565b7f6661696c656420636f6c6c61746572616c206465706f736974207472616e736660008201527f6572000000000000000000000000000000000000000000000000000000000000602082015250565b7f45524332303a206275726e2066726f6d20746865207a65726f2061646472657360008201527f7300000000000000000000000000000000000000000000000000000000000000602082015250565b7f76616c7565206e6f742077697468696e20616c6c6f776564206c696d69747300600082015250565b7f45524332303a207472616e736665722066726f6d20746865207a65726f20616460008201527f6472657373000000000000000000000000000000000000000000000000000000602082015250565b7f616d6f756e742073686f756c642062652067726561746572207468616e203000600082015250565b7f45524332303a20617070726f76652066726f6d20746865207a65726f2061646460008201527f7265737300000000000000000000000000000000000000000000000000000000602082015250565b7f636f6c6c61746572616c206c69717569646174696f6e207472616e736665722060008201527f6661696c73000000000000000000000000000000000000000000000000000000602082015250565b7f636f6c6c61746572616c207472616e73666572206661696c7300000000000000600082015250565b7f45524332303a206d696e7420746f20746865207a65726f206164647265737300600082015250565b7f63616e6e6f742073656e6420746f20746865207a65726f206164647265737300600082015250565b61470881613f86565b811461471357600080fd5b50565b61471f81613f98565b811461472a57600080fd5b50565b61473681613fc4565b811461474157600080fd5b5056fea26469706673582212208882c238995f843ce6cc388349a8dab0635960e8c4eb04bc01297175dd74001964736f6c63430008030033",
  "devdoc": {
    "author": "Tellor Inc.",
    "details": "Chorus is a structure for issuing semi-stablecoins as community currencies*",
    "kind": "dev",
    "methods": {
      "allowance(address,address)": {
        "details": "See {IERC20-allowance}."
      },
      "approve(address,uint256)": {
        "details": "See {IERC20-approve}. Requirements: - `spender` cannot be the zero address."
      },
      "balanceOf(address)": {
        "details": "See {IERC20-balanceOf}."
      },
      "collateralBalance()": {
        "details": "Returns the current token price in USD reduced by the current inflation.",
        "returns": {
          "_0": "uint256 token price"
        }
      },
      "collateralPrice()": {
        "details": "Checks the Tellor oracle and gets the collateral price",
        "returns": {
          "_0": "uint256 collateral price in USD upscaled to e18 precision."
        }
      },
      "collateralRatio()": {
        "details": "A view funciton to look at the collateralization of the system",
        "returns": {
          "_0": "uint256 collateral token balance of this address / totalSupply"
        }
      },
      "constructor": {
        "details": "This is the constructor, sets the inital paramaters in the system The parameters include, the Tellor Address, collateral token's address, collateral token's requestID, the price granualrity, the token name,  token's symbol, inflation rate per year, and the inflation beneficiary "
      },
      "decimals()": {
        "details": "Returns the number of decimals used to get its user representation. For example, if `decimals` equals `2`, a balance of `505` tokens should be displayed to a user as `5,05` (`505 / 10 ** 2`). Tokens usually opt for a value of 18, imitating the relationship between Ether and Wei. This is the value {ERC20} uses, unless {_setupDecimals} is called. NOTE: This information is only used for _display_ purposes: it in no way affects any of the arithmetic of the contract, including {IERC20-balanceOf} and {IERC20-transfer}."
      },
      "decreaseAllowance(address,uint256)": {
        "details": "Atomically decreases the allowance granted to `spender` by the caller. This is an alternative to {approve} that can be used as a mitigation for problems described in {IERC20-approve}. Emits an {Approval} event indicating the updated allowance. Requirements: - `spender` cannot be the zero address. - `spender` must have allowance for the caller of at least `subtractedValue`."
      },
      "depositCollateral(uint256)": {
        "details": "Allows the admin to deposit collateral",
        "params": {
          "_amount": "the amount of collateral token to deposit"
        }
      },
      "increaseAllowance(address,uint256)": {
        "details": "Atomically increases the allowance granted to `spender` by the caller. This is an alternative to {approve} that can be used as a mitigation for problems described in {IERC20-approve}. Emits an {Approval} event indicating the updated allowance. Requirements: - `spender` cannot be the zero address."
      },
      "liquidate()": {
        "details": "Function to allow anyone to liquidate the system if it is undercollateralized"
      },
      "mintToken(uint256,address)": {
        "details": "Allows the admin to mint tokens up to the collateral threshold",
        "params": {
          "_amount": "the amount of collateral tokens to mint",
          "_to": "the address to mint them to;"
        }
      },
      "name()": {
        "details": "Returns the name of the token."
      },
      "requestWithdrawToken(uint256)": {
        "details": "Allows a user to request to withdraw tokens",
        "params": {
          "_amount": "the amount of tokens to withdraw"
        }
      },
      "setAdmin(address)": {
        "details": "Allows the user to set a new admin address",
        "params": {
          "_newAdmin": "the address of the new admin address"
        }
      },
      "setCollateralPriceAge(uint256)": {
        "details": "Allows the admin to set the collateral price Age (delay in feed from Tellor)",
        "params": {
          "_amount": "the amount of delay in the price feed (we want to wait for disputes)"
        }
      },
      "setCollateralThreshold(uint256)": {
        "details": "Allows the admin to set the Collateral threshold",
        "params": {
          "_amount": "new collateral threshold"
        }
      },
      "setLiquidationPenatly(uint256)": {
        "details": "Allows the admin to set the liquidation penalty",
        "params": {
          "_amount": "the amount of the liquidation penalty"
        }
      },
      "symbol()": {
        "details": "Returns the symbol of the token, usually a shorter version of the name."
      },
      "tokenPrice()": {
        "details": "Returns the current token price in USD reduced by the current inflation.",
        "returns": {
          "_0": "uint256 token price"
        }
      },
      "totalSupply()": {
        "details": "See {IERC20-totalSupply}."
      },
      "transfer(address,uint256)": {
        "details": "See {IERC20-transfer}. Requirements: - `recipient` cannot be the zero address. - the caller must have a balance of at least `amount`."
      },
      "transferFrom(address,address,uint256)": {
        "details": "See {IERC20-transferFrom}. Emits an {Approval} event indicating the updated allowance. This is not required by the EIP. See the note at the beginning of {ERC20}. Requirements: - `sender` and `recipient` cannot be the zero address. - `sender` must have a balance of at least `amount`. - the caller must have allowance for ``sender``'s tokens of at least `amount`."
      },
      "updateInflation()": {
        "details": "Function to reduce token price by the inflation rate, increases the total supply by the inflation rate and sends the new tokens to the inflation beneficiary."
      },
      "withdrawCollateral(uint256)": {
        "details": "Allows the admin to withdraw collateral above the threshold",
        "params": {
          "_amount": "the amount of collateral token to deposit"
        }
      },
      "withdrawToken()": {
        "details": "Allows a user to withdraw tokens"
      }
    },
    "title": "Chorus",
    "version": 1
  },
  "userdoc": {
    "kind": "user",
    "methods": {},
    "version": 1
  },
  "storageLayout": {
    "storage": [
      {
        "astId": 1792,
        "contract": "contracts/Chorus.sol:Chorus",
        "label": "tellor",
        "offset": 0,
        "slot": "0",
        "type": "t_contract(ITellor)2651"
      },
      {
        "astId": 854,
        "contract": "contracts/Chorus.sol:Chorus",
        "label": "_balances",
        "offset": 0,
        "slot": "1",
        "type": "t_mapping(t_address,t_uint256)"
      },
      {
        "astId": 860,
        "contract": "contracts/Chorus.sol:Chorus",
        "label": "_allowances",
        "offset": 0,
        "slot": "2",
        "type": "t_mapping(t_address,t_mapping(t_address,t_uint256))"
      },
      {
        "astId": 862,
        "contract": "contracts/Chorus.sol:Chorus",
        "label": "_totalSupply",
        "offset": 0,
        "slot": "3",
        "type": "t_uint256"
      },
      {
        "astId": 864,
        "contract": "contracts/Chorus.sol:Chorus",
        "label": "_name",
        "offset": 0,
        "slot": "4",
        "type": "t_string_storage"
      },
      {
        "astId": 866,
        "contract": "contracts/Chorus.sol:Chorus",
        "label": "_symbol",
        "offset": 0,
        "slot": "5",
        "type": "t_string_storage"
      },
      {
        "astId": 868,
        "contract": "contracts/Chorus.sol:Chorus",
        "label": "_decimals",
        "offset": 0,
        "slot": "6",
        "type": "t_uint8"
      },
      {
        "astId": 78,
        "contract": "contracts/Chorus.sol:Chorus",
        "label": "collateralToken",
        "offset": 1,
        "slot": "6",
        "type": "t_contract(ERC20)1292"
      },
      {
        "astId": 82,
        "contract": "contracts/Chorus.sol:Chorus",
        "label": "admin",
        "offset": 0,
        "slot": "7",
        "type": "t_address"
      },
      {
        "astId": 85,
        "contract": "contracts/Chorus.sol:Chorus",
        "label": "tknPrice",
        "offset": 0,
        "slot": "8",
        "type": "t_uint256"
      },
      {
        "astId": 87,
        "contract": "contracts/Chorus.sol:Chorus",
        "label": "collateralID",
        "offset": 0,
        "slot": "9",
        "type": "t_uint256"
      },
      {
        "astId": 89,
        "contract": "contracts/Chorus.sol:Chorus",
        "label": "collateralPriceGranularity",
        "offset": 0,
        "slot": "10",
        "type": "t_uint256"
      },
      {
        "astId": 92,
        "contract": "contracts/Chorus.sol:Chorus",
        "label": "collateralThreshold",
        "offset": 0,
        "slot": "11",
        "type": "t_uint256"
      },
      {
        "astId": 95,
        "contract": "contracts/Chorus.sol:Chorus",
        "label": "collateralPriceAge",
        "offset": 0,
        "slot": "12",
        "type": "t_uint256"
      },
      {
        "astId": 98,
        "contract": "contracts/Chorus.sol:Chorus",
        "label": "liquidationPenatly",
        "offset": 0,
        "slot": "13",
        "type": "t_uint256"
      },
      {
        "astId": 100,
        "contract": "contracts/Chorus.sol:Chorus",
        "label": "inflRatePerSec",
        "offset": 0,
        "slot": "14",
        "type": "t_uint256"
      },
      {
        "astId": 104,
        "contract": "contracts/Chorus.sol:Chorus",
        "label": "inflLastUpdate",
        "offset": 0,
        "slot": "15",
        "type": "t_uint256"
      },
      {
        "astId": 106,
        "contract": "contracts/Chorus.sol:Chorus",
        "label": "inflBeneficiary",
        "offset": 0,
        "slot": "16",
        "type": "t_address"
      },
      {
        "astId": 111,
        "contract": "contracts/Chorus.sol:Chorus",
        "label": "withdrawRequested",
        "offset": 0,
        "slot": "17",
        "type": "t_mapping(t_address,t_struct(WithdrawDetails)75_storage)"
      }
    ],
    "types": {
      "t_address": {
        "encoding": "inplace",
        "label": "address",
        "numberOfBytes": "20"
      },
      "t_contract(ERC20)1292": {
        "encoding": "inplace",
        "label": "contract ERC20",
        "numberOfBytes": "20"
      },
      "t_contract(ITellor)2651": {
        "encoding": "inplace",
        "label": "contract ITellor",
        "numberOfBytes": "20"
      },
      "t_mapping(t_address,t_mapping(t_address,t_uint256))": {
        "encoding": "mapping",
        "key": "t_address",
        "label": "mapping(address => mapping(address => uint256))",
        "numberOfBytes": "32",
        "value": "t_mapping(t_address,t_uint256)"
      },
      "t_mapping(t_address,t_struct(WithdrawDetails)75_storage)": {
        "encoding": "mapping",
        "key": "t_address",
        "label": "mapping(address => struct Chorus.WithdrawDetails)",
        "numberOfBytes": "32",
        "value": "t_struct(WithdrawDetails)75_storage"
      },
      "t_mapping(t_address,t_uint256)": {
        "encoding": "mapping",
        "key": "t_address",
        "label": "mapping(address => uint256)",
        "numberOfBytes": "32",
        "value": "t_uint256"
      },
      "t_string_storage": {
        "encoding": "bytes",
        "label": "string",
        "numberOfBytes": "32"
      },
      "t_struct(WithdrawDetails)75_storage": {
        "encoding": "inplace",
        "label": "struct Chorus.WithdrawDetails",
        "members": [
          {
            "astId": 72,
            "contract": "contracts/Chorus.sol:Chorus",
            "label": "amount",
            "offset": 0,
            "slot": "0",
            "type": "t_uint256"
          },
          {
            "astId": 74,
            "contract": "contracts/Chorus.sol:Chorus",
            "label": "requestDate",
            "offset": 0,
            "slot": "1",
            "type": "t_uint256"
          }
        ],
        "numberOfBytes": "64"
      },
      "t_uint256": {
        "encoding": "inplace",
        "label": "uint256",
        "numberOfBytes": "32"
      },
      "t_uint8": {
        "encoding": "inplace",
        "label": "uint8",
        "numberOfBytes": "1"
      }
    }
  }
}