{
  "address": "0x9fE46736679d2D9a65F0992F2272dE9f3c7fa6e0",
  "abi": [
    {
      "inputs": [
        {
          "internalType": "address payable",
          "name": "_tellorAddress",
          "type": "address"
        },
        {
          "internalType": "address",
          "name": "_collateralToken",
          "type": "address"
        },
        {
          "internalType": "uint256",
          "name": "_collateralID",
          "type": "uint256"
        },
        {
          "internalType": "uint256",
          "name": "_collateralPriceGranularity",
          "type": "uint256"
        },
        {
          "internalType": "string",
          "name": "_tokenName",
          "type": "string"
        },
        {
          "internalType": "string",
          "name": "_tokenSymbol",
          "type": "string"
        },
        {
          "internalType": "uint256",
          "name": "_inflRatePerYear",
          "type": "uint256"
        },
        {
          "internalType": "address",
          "name": "_inflBeneficiary",
          "type": "address"
        }
      ],
      "stateMutability": "nonpayable",
      "type": "constructor"
    },
    {
      "anonymous": false,
      "inputs": [
        {
          "indexed": true,
          "internalType": "address",
          "name": "owner",
          "type": "address"
        },
        {
          "indexed": true,
          "internalType": "address",
          "name": "spender",
          "type": "address"
        },
        {
          "indexed": false,
          "internalType": "uint256",
          "name": "value",
          "type": "uint256"
        }
      ],
      "name": "Approval",
      "type": "event"
    },
    {
      "anonymous": false,
      "inputs": [
        {
          "indexed": false,
          "internalType": "uint256",
          "name": "",
          "type": "uint256"
        }
      ],
      "name": "CollateralPriceAge",
      "type": "event"
    },
    {
      "anonymous": false,
      "inputs": [
        {
          "indexed": false,
          "internalType": "uint256",
          "name": "",
          "type": "uint256"
        }
      ],
      "name": "CollateralThreshold",
      "type": "event"
    },
    {
      "anonymous": false,
      "inputs": [
        {
          "indexed": false,
          "internalType": "address",
          "name": "",
          "type": "address"
        },
        {
          "indexed": false,
          "internalType": "uint256",
          "name": "tokensAmnt",
          "type": "uint256"
        },
        {
          "indexed": false,
          "internalType": "uint256",
          "name": "collateralAmnt",
          "type": "uint256"
        },
        {
          "indexed": false,
          "internalType": "uint256",
          "name": "collateralPenalty",
          "type": "uint256"
        }
      ],
      "name": "Liquidate",
      "type": "event"
    },
    {
      "anonymous": false,
      "inputs": [
        {
          "indexed": false,
          "internalType": "uint256",
          "name": "",
          "type": "uint256"
        }
      ],
      "name": "LiquidationPenatly",
      "type": "event"
    },
    {
      "anonymous": false,
      "inputs": [
        {
          "indexed": false,
          "internalType": "address",
          "name": "",
          "type": "address"
        },
        {
          "indexed": false,
          "internalType": "uint256",
          "name": "amount",
          "type": "uint256"
        },
        {
          "indexed": false,
          "internalType": "address",
          "name": "to",
          "type": "address"
        },
        {
          "indexed": false,
          "internalType": "uint256",
          "name": "collateralRatio",
          "type": "uint256"
        }
      ],
      "name": "MintTokens",
      "type": "event"
    },
    {
      "anonymous": false,
      "inputs": [
        {
          "indexed": false,
          "internalType": "address",
          "name": "_newAdmin",
          "type": "address"
        }
      ],
      "name": "NewAdmin",
      "type": "event"
    },
    {
      "anonymous": false,
      "inputs": [
        {
          "indexed": true,
          "internalType": "address",
          "name": "from",
          "type": "address"
        },
        {
          "indexed": true,
          "internalType": "address",
          "name": "to",
          "type": "address"
        },
        {
          "indexed": false,
          "internalType": "uint256",
          "name": "value",
          "type": "uint256"
        }
      ],
      "name": "Transfer",
      "type": "event"
    },
    {
      "anonymous": false,
      "inputs": [
        {
          "indexed": false,
          "internalType": "address",
          "name": "",
          "type": "address"
        },
        {
          "indexed": false,
          "internalType": "uint256",
          "name": "collateralAmnt",
          "type": "uint256"
        },
        {
          "indexed": false,
          "internalType": "uint256",
          "name": "collateralRatio",
          "type": "uint256"
        }
      ],
      "name": "WithdrawCollateral",
      "type": "event"
    },
    {
      "anonymous": false,
      "inputs": [
        {
          "indexed": false,
          "internalType": "address",
          "name": "",
          "type": "address"
        },
        {
          "indexed": false,
          "internalType": "uint256",
          "name": "tokenAmnt",
          "type": "uint256"
        },
        {
          "indexed": false,
          "internalType": "uint256",
          "name": "collateralAmnt",
          "type": "uint256"
        }
      ],
      "name": "WithdrawToken",
      "type": "event"
    },
    {
      "inputs": [],
      "name": "RAY",
      "outputs": [
        {
          "internalType": "uint256",
          "name": "",
          "type": "uint256"
        }
      ],
      "stateMutability": "view",
      "type": "function"
    },
    {
      "inputs": [],
      "name": "WAD",
      "outputs": [
        {
          "internalType": "uint256",
          "name": "",
          "type": "uint256"
        }
      ],
      "stateMutability": "view",
      "type": "function"
    },
    {
      "inputs": [],
      "name": "admin",
      "outputs": [
        {
          "internalType": "address",
          "name": "",
          "type": "address"
        }
      ],
      "stateMutability": "view",
      "type": "function"
    },
    {
      "inputs": [
        {
          "internalType": "address",
          "name": "owner",
          "type": "address"
        },
        {
          "internalType": "address",
          "name": "spender",
          "type": "address"
        }
      ],
      "name": "allowance",
      "outputs": [
        {
          "internalType": "uint256",
          "name": "",
          "type": "uint256"
        }
      ],
      "stateMutability": "view",
      "type": "function"
    },
    {
      "inputs": [
        {
          "internalType": "address",
          "name": "spender",
          "type": "address"
        },
        {
          "internalType": "uint256",
          "name": "amount",
          "type": "uint256"
        }
      ],
      "name": "approve",
      "outputs": [
        {
          "internalType": "bool",
          "name": "",
          "type": "bool"
        }
      ],
      "stateMutability": "nonpayable",
      "type": "function"
    },
    {
      "inputs": [
        {
          "internalType": "address",
          "name": "account",
          "type": "address"
        }
      ],
      "name": "balanceOf",
      "outputs": [
        {
          "internalType": "uint256",
          "name": "",
          "type": "uint256"
        }
      ],
      "stateMutability": "view",
      "type": "function"
    },
    {
      "inputs": [],
      "name": "collateralBalance",
      "outputs": [
        {
          "internalType": "uint256",
          "name": "",
          "type": "uint256"
        }
      ],
      "stateMutability": "view",
      "type": "function"
    },
    {
      "inputs": [],
      "name": "collateralID",
      "outputs": [
        {
          "internalType": "uint256",
          "name": "",
          "type": "uint256"
        }
      ],
      "stateMutability": "view",
      "type": "function"
    },
    {
      "inputs": [],
      "name": "collateralPrice",
      "outputs": [
        {
          "internalType": "uint256",
          "name": "",
          "type": "uint256"
        }
      ],
      "stateMutability": "view",
      "type": "function"
    },
    {
      "inputs": [],
      "name": "collateralPriceAge",
      "outputs": [
        {
          "internalType": "uint256",
          "name": "",
          "type": "uint256"
        }
      ],
      "stateMutability": "view",
      "type": "function"
    },
    {
      "inputs": [],
      "name": "collateralPriceGranularity",
      "outputs": [
        {
          "internalType": "uint256",
          "name": "",
          "type": "uint256"
        }
      ],
      "stateMutability": "view",
      "type": "function"
    },
    {
      "inputs": [],
      "name": "collateralRatio",
      "outputs": [
        {
          "internalType": "uint256",
          "name": "",
          "type": "uint256"
        }
      ],
      "stateMutability": "view",
      "type": "function"
    },
    {
      "inputs": [],
      "name": "collateralThreshold",
      "outputs": [
        {
          "internalType": "uint256",
          "name": "",
          "type": "uint256"
        }
      ],
      "stateMutability": "view",
      "type": "function"
    },
    {
      "inputs": [],
      "name": "collateralToken",
      "outputs": [
        {
          "internalType": "contract ERC20",
          "name": "",
          "type": "address"
        }
      ],
      "stateMutability": "view",
      "type": "function"
    },
    {
      "inputs": [],
      "name": "decimals",
      "outputs": [
        {
          "internalType": "uint8",
          "name": "",
          "type": "uint8"
        }
      ],
      "stateMutability": "view",
      "type": "function"
    },
    {
      "inputs": [
        {
          "internalType": "address",
          "name": "spender",
          "type": "address"
        },
        {
          "internalType": "uint256",
          "name": "subtractedValue",
          "type": "uint256"
        }
      ],
      "name": "decreaseAllowance",
      "outputs": [
        {
          "internalType": "bool",
          "name": "",
          "type": "bool"
        }
      ],
      "stateMutability": "nonpayable",
      "type": "function"
    },
    {
      "inputs": [
        {
          "internalType": "uint256",
          "name": "_amount",
          "type": "uint256"
        }
      ],
      "name": "depositCollateral",
      "outputs": [],
      "stateMutability": "nonpayable",
      "type": "function"
    },
    {
      "inputs": [
        {
          "internalType": "address",
          "name": "spender",
          "type": "address"
        },
        {
          "internalType": "uint256",
          "name": "addedValue",
          "type": "uint256"
        }
      ],
      "name": "increaseAllowance",
      "outputs": [
        {
          "internalType": "bool",
          "name": "",
          "type": "bool"
        }
      ],
      "stateMutability": "nonpayable",
      "type": "function"
    },
    {
      "inputs": [],
      "name": "inflBeneficiary",
      "outputs": [
        {
          "internalType": "address",
          "name": "",
          "type": "address"
        }
      ],
      "stateMutability": "view",
      "type": "function"
    },
    {
      "inputs": [],
      "name": "inflLastUpdate",
      "outputs": [
        {
          "internalType": "uint256",
          "name": "",
          "type": "uint256"
        }
      ],
      "stateMutability": "view",
      "type": "function"
    },
    {
      "inputs": [],
      "name": "inflRatePerSec",
      "outputs": [
        {
          "internalType": "uint256",
          "name": "",
          "type": "uint256"
        }
      ],
      "stateMutability": "view",
      "type": "function"
    },
    {
      "inputs": [],
      "name": "liquidate",
      "outputs": [],
      "stateMutability": "nonpayable",
      "type": "function"
    },
    {
      "inputs": [],
      "name": "liquidationPenatly",
      "outputs": [
        {
          "internalType": "uint256",
          "name": "",
          "type": "uint256"
        }
      ],
      "stateMutability": "view",
      "type": "function"
    },
    {
      "inputs": [
        {
          "internalType": "uint256",
          "name": "_amount",
          "type": "uint256"
        },
        {
          "internalType": "address",
          "name": "_to",
          "type": "address"
        }
      ],
      "name": "mintToken",
      "outputs": [],
      "stateMutability": "nonpayable",
      "type": "function"
    },
    {
      "inputs": [],
      "name": "name",
      "outputs": [
        {
          "internalType": "string",
          "name": "",
          "type": "string"
        }
      ],
      "stateMutability": "view",
      "type": "function"
    },
    {
      "inputs": [
        {
          "internalType": "address",
          "name": "_newAdmin",
          "type": "address"
        }
      ],
      "name": "setAdmin",
      "outputs": [],
      "stateMutability": "nonpayable",
      "type": "function"
    },
    {
      "inputs": [
        {
          "internalType": "uint256",
          "name": "_amount",
          "type": "uint256"
        }
      ],
      "name": "setCollateralPriceAge",
      "outputs": [],
      "stateMutability": "nonpayable",
      "type": "function"
    },
    {
      "inputs": [
        {
          "internalType": "uint256",
          "name": "_amount",
          "type": "uint256"
        }
      ],
      "name": "setCollateralThreshold",
      "outputs": [],
      "stateMutability": "nonpayable",
      "type": "function"
    },
    {
      "inputs": [
        {
          "internalType": "uint256",
          "name": "_amount",
          "type": "uint256"
        }
      ],
      "name": "setLiquidationPenatly",
      "outputs": [],
      "stateMutability": "nonpayable",
      "type": "function"
    },
    {
      "inputs": [],
      "name": "symbol",
      "outputs": [
        {
          "internalType": "string",
          "name": "",
          "type": "string"
        }
      ],
      "stateMutability": "view",
      "type": "function"
    },
    {
      "inputs": [],
      "name": "tokenPrice",
      "outputs": [
        {
          "internalType": "uint256",
          "name": "",
          "type": "uint256"
        }
      ],
      "stateMutability": "view",
      "type": "function"
    },
    {
      "inputs": [],
      "name": "totalSupply",
      "outputs": [
        {
          "internalType": "uint256",
          "name": "",
          "type": "uint256"
        }
      ],
      "stateMutability": "view",
      "type": "function"
    },
    {
      "inputs": [
        {
          "internalType": "address",
          "name": "recipient",
          "type": "address"
        },
        {
          "internalType": "uint256",
          "name": "amount",
          "type": "uint256"
        }
      ],
      "name": "transfer",
      "outputs": [
        {
          "internalType": "bool",
          "name": "",
          "type": "bool"
        }
      ],
      "stateMutability": "nonpayable",
      "type": "function"
    },
    {
      "inputs": [
        {
          "internalType": "address",
          "name": "sender",
          "type": "address"
        },
        {
          "internalType": "address",
          "name": "recipient",
          "type": "address"
        },
        {
          "internalType": "uint256",
          "name": "amount",
          "type": "uint256"
        }
      ],
      "name": "transferFrom",
      "outputs": [
        {
          "internalType": "bool",
          "name": "",
          "type": "bool"
        }
      ],
      "stateMutability": "nonpayable",
      "type": "function"
    },
    {
      "inputs": [],
      "name": "updateInflation",
      "outputs": [],
      "stateMutability": "nonpayable",
      "type": "function"
    },
    {
      "inputs": [
        {
          "internalType": "uint256",
          "name": "_amount",
          "type": "uint256"
        }
      ],
      "name": "withdrawCollateral",
      "outputs": [],
      "stateMutability": "nonpayable",
      "type": "function"
    },
    {
      "inputs": [
        {
          "internalType": "uint256",
          "name": "_amount",
          "type": "uint256"
        }
      ],
      "name": "withdrawToken",
      "outputs": [],
      "stateMutability": "nonpayable",
      "type": "function"
    }
  ],
  "transactionHash": "0xf77b58a002653b4c396f6e15f2f78ae3d01f48dd4b7b1def6e57dede32839007",
  "args": [
    "0x5FbDB2315678afecb367f032d93F642f64180aa3",
    "0xe7f1725E7734CE288F8367e1Bb143E90bb3F0512",
    1,
    1000000,
    "Note",
    "NTO",
    "105170917901244400",
    "0x9965507D1a55bcC2695C58ba16FB37d819B0A4dc"
  ],
  "solcInputHash": "cd84a9df4882c46e5d0b7274bee0550e",
  "bytecode": "0x608060405233600760006101000a81548173ffffffffffffffffffffffffffffffffffffffff021916908373ffffffffffffffffffffffffffffffffffffffff160217905550670de0b6b3a76400006008556714d1120d7b160000600b55610e10600c556000600d5542600f553480156200007957600080fd5b50604051620050e5380380620050e583398181016040528101906200009f91906200064f565b838389806000806101000a81548173ffffffffffffffffffffffffffffffffffffffff021916908373ffffffffffffffffffffffffffffffffffffffff160217905550508160049080519060200190620000fb929190620004e8565b50806005908051906020019062000114929190620004e8565b506012600660006101000a81548160ff021916908360ff1602179055505050816000811180156200014d575068056bc75e2d6310000081105b6200018f576040517f08c379a0000000000000000000000000000000000000000000000000000000008152600401620001869062000846565b60405180910390fd5b8660098190555087600660016101000a81548173ffffffffffffffffffffffffffffffffffffffff021916908373ffffffffffffffffffffffffffffffffffffffff16021790555085600a81905550600086118015620001f75750670de0b6b3a76400008611155b62000239576040517f08c379a0000000000000000000000000000000000000000000000000000000008152600401620002309062000846565b60405180910390fd5b600073ffffffffffffffffffffffffffffffffffffffff168273ffffffffffffffffffffffffffffffffffffffff161415620002ac576040517f08c379a0000000000000000000000000000000000000000000000000000000008152600401620002a39062000824565b60405180910390fd5b81601060006101000a81548173ffffffffffffffffffffffffffffffffffffffff021916908373ffffffffffffffffffffffffffffffffffffffff160217905550620002fe836200031360201b60201c565b600e8190555050505050505050505062000c81565b60006200037462000332670de0b6b3a76400006200037b60201b60201c565b6200036862000347856200037b60201b60201c565b6200035c6301e133806200039a60201b60201c565b620003c160201b60201c565b6200041560201b60201c565b9050919050565b60006200039382633b9aca006200047360201b60201c565b9050919050565b6000620003ba826b033b2e3c9fd0803ce80000006200047360201b60201c565b9050919050565b60008162000401620003e6856b033b2e3c9fd0803ce80000006200047360201b60201c565b600285620003f5919062000935565b6200041560201b60201c565b6200040d919062000935565b905092915050565b6000828284620004269190620008d8565b91508110156200046d576040517f08c379a0000000000000000000000000000000000000000000000000000000008152600401620004649062000802565b60405180910390fd5b92915050565b600080821480620004a05750828283856200048f91906200096d565b9250826200049e919062000935565b145b620004e2576040517f08c379a0000000000000000000000000000000000000000000000000000000008152600401620004d990620007e0565b60405180910390fd5b92915050565b828054620004f69062000a56565b90600052602060002090601f0160209004810192826200051a576000855562000566565b82601f106200053557805160ff191683800117855562000566565b8280016001018555821562000566579182015b828111156200056557825182559160200191906001019062000548565b5b50905062000575919062000579565b5090565b5b80821115620005945760008160009055506001016200057a565b5090565b6000620005af620005a98462000891565b62000868565b905082815260208101848484011115620005c857600080fd5b620005d584828562000a20565b509392505050565b600081519050620005ee8162000c33565b92915050565b600081519050620006058162000c4d565b92915050565b600082601f8301126200061d57600080fd5b81516200062f84826020860162000598565b91505092915050565b600081519050620006498162000c67565b92915050565b600080600080600080600080610100898b0312156200066d57600080fd5b60006200067d8b828c01620005f4565b9850506020620006908b828c01620005dd565b9750506040620006a38b828c0162000638565b9650506060620006b68b828c0162000638565b955050608089015167ffffffffffffffff811115620006d457600080fd5b620006e28b828c016200060b565b94505060a089015167ffffffffffffffff8111156200070057600080fd5b6200070e8b828c016200060b565b93505060c0620007218b828c0162000638565b92505060e0620007348b828c01620005dd565b9150509295985092959890939650565b600062000753601483620008c7565b9150620007608262000b8f565b602082019050919050565b60006200077a601483620008c7565b9150620007878262000bb8565b602082019050919050565b6000620007a1601b83620008c7565b9150620007ae8262000be1565b602082019050919050565b6000620007c8601f83620008c7565b9150620007d58262000c0a565b602082019050919050565b60006020820190508181036000830152620007fb8162000744565b9050919050565b600060208201905081810360008301526200081d816200076b565b9050919050565b600060208201905081810360008301526200083f8162000792565b9050919050565b600060208201905081810360008301526200086181620007b9565b9050919050565b60006200087462000887565b905062000882828262000a8c565b919050565b6000604051905090565b600067ffffffffffffffff821115620008af57620008ae62000b4f565b5b620008ba8262000b7e565b9050602081019050919050565b600082825260208201905092915050565b6000620008e58262000a16565b9150620008f28362000a16565b9250827fffffffffffffffffffffffffffffffffffffffffffffffffffffffffffffffff038211156200092a576200092962000ac2565b5b828201905092915050565b6000620009428262000a16565b91506200094f8362000a16565b92508262000962576200096162000af1565b5b828204905092915050565b60006200097a8262000a16565b9150620009878362000a16565b9250817fffffffffffffffffffffffffffffffffffffffffffffffffffffffffffffffff0483118215151615620009c357620009c262000ac2565b5b828202905092915050565b6000620009db82620009f6565b9050919050565b6000620009ef82620009f6565b9050919050565b600073ffffffffffffffffffffffffffffffffffffffff82169050919050565b6000819050919050565b60005b8381101562000a4057808201518184015260208101905062000a23565b8381111562000a50576000848401525b50505050565b6000600282049050600182168062000a6f57607f821691505b6020821081141562000a865762000a8562000b20565b5b50919050565b62000a978262000b7e565b810181811067ffffffffffffffff8211171562000ab95762000ab862000b4f565b5b80604052505050565b7f4e487b7100000000000000000000000000000000000000000000000000000000600052601160045260246000fd5b7f4e487b7100000000000000000000000000000000000000000000000000000000600052601260045260246000fd5b7f4e487b7100000000000000000000000000000000000000000000000000000000600052602260045260246000fd5b7f4e487b7100000000000000000000000000000000000000000000000000000000600052604160045260246000fd5b6000601f19601f8301169050919050565b7f64732d6d6174682d6d756c2d6f766572666c6f77000000000000000000000000600082015250565b7f64732d6d6174682d6164642d6f766572666c6f77000000000000000000000000600082015250565b7f62656e69666963696172792061646472657373206e6f74207365740000000000600082015250565b7f76616c7565206e6f742077697468696e20616c6c6f776564206c696d69747300600082015250565b62000c3e81620009ce565b811462000c4a57600080fd5b50565b62000c5881620009e2565b811462000c6457600080fd5b50565b62000c728162000a16565b811462000c7e57600080fd5b50565b6144548062000c916000396000f3fe608060405234801561001057600080fd5b50600436106102275760003560e01c80636a14602411610130578063a9059cbb116100b8578063bad4a01f1161007c578063bad4a01f14610624578063c98c05b714610640578063dd62ed3e1461065e578063f06b46581461068e578063f851a440146106aa57610227565b8063a9059cbb1461057e578063b2016bd4146105ae578063b4eae1cb146105cc578063b8eb5e4b146105ea578063b93e0cb51461060857610227565b80638e8cfbde116100ff5780638e8cfbde146104d85780639014de63146104f657806395d89b4114610514578063a140ae2314610532578063a457c2d71461054e57610227565b80636a14602414610450578063704b6c021461046e57806370a082311461048a5780637ff9b596146104ba57610227565b8063401ce372116101b35780635891de72116101825780635891de72146103d057806359825a4c146103ee5780636112fe2e146103f857806364494074146104145780636479a5661461043257610227565b8063401ce3721461035c57806348500ccf1461037857806350baa62214610396578063552033c4146103b257610227565b806323b872dd116101fa57806323b872dd146102b657806328a07025146102e657806329a150ba146102f0578063313ce5671461030e578063395093511461032c57610227565b806306fdde031461022c578063095ea7b31461024a5780631527262b1461027a57806318160ddd14610298575b600080fd5b6102346106c8565b60405161024191906137b7565b60405180910390f35b610264600480360381019061025f9190613163565b61075a565b6040516102719190613781565b60405180910390f35b610282610771565b60405161028f9190613645565b60405180910390f35b6102a0610797565b6040516102ad9190613af9565b60405180910390f35b6102d060048036038101906102cb9190613114565b6107a1565b6040516102dd9190613781565b60405180910390f35b6102ee61084b565b005b6102f8610c1f565b6040516103059190613af9565b60405180910390f35b610316610c25565b6040516103239190613b3d565b60405180910390f35b61034660048036038101906103419190613163565b610c3c565b6040516103539190613781565b60405180910390f35b610376600480360381019061037191906131c8565b610cda565b005b610380610e04565b60405161038d9190613af9565b60405180910390f35b6103b060048036038101906103ab91906131c8565b610e0a565b005b6103ba611000565b6040516103c79190613af9565b60405180910390f35b6103d8611010565b6040516103e59190613af9565b60405180910390f35b6103f6611097565b005b610412600480360381019061040d91906131c8565b611160565b005b61041c61136d565b6040516104299190613af9565b60405180910390f35b61043a611373565b6040516104479190613af9565b60405180910390f35b610458611379565b6040516104659190613af9565b60405180910390f35b610488600480360381019061048391906130af565b611385565b005b6104a4600480360381019061049f91906130af565b611500565b6040516104b19190613af9565b60405180910390f35b6104c2611549565b6040516104cf9190613af9565b60405180910390f35b6104e061156c565b6040516104ed9190613af9565b60405180910390f35b6104fe611572565b60405161050b9190613af9565b60405180910390f35b61051c611578565b60405161052991906137b7565b60405180910390f35b61054c6004803603810190610547919061321a565b61160a565b005b61056860048036038101906105639190613163565b611736565b6040516105759190613781565b60405180910390f35b61059860048036038101906105939190613163565b6117d4565b6040516105a59190613781565b60405180910390f35b6105b66117eb565b6040516105c3919061379c565b60405180910390f35b6105d4611811565b6040516105e19190613af9565b60405180910390f35b6105f261195a565b6040516105ff9190613af9565b60405180910390f35b610622600480360381019061061d91906131c8565b611960565b005b61063e600480360381019061063991906131c8565b611a31565b005b610648611bf7565b6040516106559190613af9565b60405180910390f35b610678600480360381019061067391906130d8565b611ca9565b6040516106859190613af9565b60405180910390f35b6106a860048036038101906106a391906131c8565b611d30565b005b6106b2611e6e565b6040516106bf9190613645565b60405180910390f35b6060600480546106d790613d35565b80601f016020809104026020016040519081016040528092919081815260200182805461070390613d35565b80156107505780601f1061072557610100808354040283529160200191610750565b820191906000526020600020905b81548152906001019060200180831161073357829003601f168201915b5050505050905090565b6000610767338484611e94565b6001905092915050565b601060009054906101000a900473ffffffffffffffffffffffffffffffffffffffff1681565b6000600354905090565b60006107ae84848461205f565b610840843384600260008973ffffffffffffffffffffffffffffffffffffffff1673ffffffffffffffffffffffffffffffffffffffff16815260200190815260200160002060003373ffffffffffffffffffffffffffffffffffffffff1673ffffffffffffffffffffffffffffffffffffffff1681526020019081526020016000205461083b9190613c55565b611e94565b600190509392505050565b600b54610856611811565b11610896576040517f08c379a000000000000000000000000000000000000000000000000000000000815260040161088d90613819565b60405180910390fd5b60006108a133611500565b116108e1576040517f08c379a00000000000000000000000000000000000000000000000000000000081526004016108d8906138b9565b60405180910390fd5b600061099e600660019054906101000a900473ffffffffffffffffffffffffffffffffffffffff1673ffffffffffffffffffffffffffffffffffffffff166370a08231306040518263ffffffff1660e01b81526004016109419190613645565b60206040518083038186803b15801561095957600080fd5b505afa15801561096d573d6000803e3d6000fd5b505050506040513d601f19601f8201168201806040525081019061099191906131f1565b610999610797565b6122c5565b905060006109ab33611500565b905060006109b98284612301565b905060006109c982600d54612301565b90507f158ba9ab7bbbd08eeffa4753bad41f4d450e24831d293427308badf3eadd8c7633848484604051610a00949392919061373c565b60405180910390a1610a123384612345565b600660019054906101000a900473ffffffffffffffffffffffffffffffffffffffff1673ffffffffffffffffffffffffffffffffffffffff1663a9059cbb33610a5b85856124c1565b6040518363ffffffff1660e01b8152600401610a78929190613697565b602060405180830381600087803b158015610a9257600080fd5b505af1158015610aa6573d6000803e3d6000fd5b505050506040513d601f19601f82011682018060405250810190610aca919061319f565b610b09576040517f08c379a0000000000000000000000000000000000000000000000000000000008152600401610b0090613a79565b60405180910390fd5b600660019054906101000a900473ffffffffffffffffffffffffffffffffffffffff1673ffffffffffffffffffffffffffffffffffffffff1663a9059cbb601060009054906101000a900473ffffffffffffffffffffffffffffffffffffffff16836040518363ffffffff1660e01b8152600401610b88929190613697565b602060405180830381600087803b158015610ba257600080fd5b505af1158015610bb6573d6000803e3d6000fd5b505050506040513d601f19601f82011682018060405250810190610bda919061319f565b610c19576040517f08c379a0000000000000000000000000000000000000000000000000000000008152600401610c1090613959565b60405180910390fd5b50505050565b600d5481565b6000600660009054906101000a900460ff16905090565b6000610cd0338484600260003373ffffffffffffffffffffffffffffffffffffffff1673ffffffffffffffffffffffffffffffffffffffff16815260200190815260200160002060008873ffffffffffffffffffffffffffffffffffffffff1673ffffffffffffffffffffffffffffffffffffffff16815260200190815260200160002054610ccb9190613b74565b611e94565b6001905092915050565b600760009054906101000a900473ffffffffffffffffffffffffffffffffffffffff1673ffffffffffffffffffffffffffffffffffffffff163373ffffffffffffffffffffffffffffffffffffffff1614610d6a576040517f08c379a0000000000000000000000000000000000000000000000000000000008152600401610d6190613919565b60405180910390fd5b80600081118015610d83575068056bc75e2d6310000081105b610dc2576040517f08c379a0000000000000000000000000000000000000000000000000000000008152600401610db9906139f9565b60405180910390fd5b81600b819055507f28e98951093a92e2a12cfccced98a5e14ff4a69f23c1137a90353ea343a879d582604051610df89190613af9565b60405180910390a15050565b600a5481565b60008111610e4d576040517f08c379a0000000000000000000000000000000000000000000000000000000008152600401610e4490613a39565b60405180910390fd5b80610e5733611500565b1015610e98576040517f08c379a0000000000000000000000000000000000000000000000000000000008152600401610e8f906138f9565b60405180910390fd5b6000610ea2611010565b90506000610eb7610eb1611549565b836122c5565b90506000610ec58285612301565b90507f7575c9e41ba6d91ef21e39bd62b5b9df62fc9b0401379fdf9fe1fa372f41e7c1338583604051610efa93929190613705565b60405180910390a1610f0c3385612345565b600660019054906101000a900473ffffffffffffffffffffffffffffffffffffffff1673ffffffffffffffffffffffffffffffffffffffff1663a9059cbb33836040518363ffffffff1660e01b8152600401610f69929190613697565b602060405180830381600087803b158015610f8357600080fd5b505af1158015610f97573d6000803e3d6000fd5b505050506040513d601f19601f82011682018060405250810190610fbb919061319f565b610ffa576040517f08c379a0000000000000000000000000000000000000000000000000000000008152600401610ff190613899565b60405180910390fd5b50505050565b6b033b2e3c9fd0803ce800000081565b600080600061102e600954600c54426110299190613c55565b61251a565b509150915081611073576040517f08c379a000000000000000000000000000000000000000000000000000000000815260040161106a90613979565b60405180910390fd5b6110908161108b670de0b6b3a7640000600a546126d5565b61271f565b9250505090565b6000600f54426110a79190613c55565b9050600081116110ec576040517f08c379a00000000000000000000000000000000000000000000000000000000081526004016110e390613939565b60405180910390fd5b42600f81905550611102600854600e548361278c565b600881905550600061112e611121611118610797565b600e54856127aa565b611129610797565b6124c1565b905061115c601060009054906101000a900473ffffffffffffffffffffffffffffffffffffffff16826127c8565b5050565b600760009054906101000a900473ffffffffffffffffffffffffffffffffffffffff1673ffffffffffffffffffffffffffffffffffffffff163373ffffffffffffffffffffffffffffffffffffffff16146111f0576040517f08c379a00000000000000000000000000000000000000000000000000000000081526004016111e790613919565b60405180910390fd5b600660019054906101000a900473ffffffffffffffffffffffffffffffffffffffff1673ffffffffffffffffffffffffffffffffffffffff1663a9059cbb33836040518363ffffffff1660e01b815260040161124d929190613697565b602060405180830381600087803b15801561126757600080fd5b505af115801561127b573d6000803e3d6000fd5b505050506040513d601f19601f8201168201806040525081019061129f919061319f565b6112de576040517f08c379a00000000000000000000000000000000000000000000000000000000081526004016112d590613a99565b60405180910390fd5b60006112e8611811565b9050600b54811061132e576040517f08c379a000000000000000000000000000000000000000000000000000000000815260040161132590613839565b60405180910390fd5b7f627a692d5a03ab34732c0d2aa319f3ecdebdc4528f383eabcb25441dc0a70cfb33838360405161136193929190613705565b60405180910390a15050565b600e5481565b600c5481565b670de0b6b3a764000081565b600760009054906101000a900473ffffffffffffffffffffffffffffffffffffffff1673ffffffffffffffffffffffffffffffffffffffff163373ffffffffffffffffffffffffffffffffffffffff1614611415576040517f08c379a000000000000000000000000000000000000000000000000000000000815260040161140c90613919565b60405180910390fd5b600073ffffffffffffffffffffffffffffffffffffffff168173ffffffffffffffffffffffffffffffffffffffff161415611485576040517f08c379a000000000000000000000000000000000000000000000000000000000815260040161147c90613ad9565b60405180910390fd5b80600760006101000a81548173ffffffffffffffffffffffffffffffffffffffff021916908373ffffffffffffffffffffffffffffffffffffffff1602179055507f71614071b88dee5e0b2ae578a9dd7b2ebbe9ae832ba419dc0242cd065a290b6c816040516114f59190613645565b60405180910390a150565b6000600160008373ffffffffffffffffffffffffffffffffffffffff1673ffffffffffffffffffffffffffffffffffffffff168152602001908152602001600020549050919050565b6000611567600854600e54600f54426115629190613c55565b61278c565b905090565b600b5481565b600f5481565b60606005805461158790613d35565b80601f01602080910402602001604051908101604052809291908181526020018280546115b390613d35565b80156116005780601f106115d557610100808354040283529160200191611600565b820191906000526020600020905b8154815290600101906020018083116115e357829003601f168201915b5050505050905090565b600760009054906101000a900473ffffffffffffffffffffffffffffffffffffffff1673ffffffffffffffffffffffffffffffffffffffff163373ffffffffffffffffffffffffffffffffffffffff161461169a576040517f08c379a000000000000000000000000000000000000000000000000000000000815260040161169190613919565b60405180910390fd5b6116a481836127c8565b60006116ae611811565b9050600b5481106116f4576040517f08c379a00000000000000000000000000000000000000000000000000000000081526004016116eb90613839565b60405180910390fd5b7f8aa79244595326e02b94ff370fec2bf34048b114fa3566a1928de6961944b6c43384848460405161172994939291906136c0565b60405180910390a1505050565b60006117ca338484600260003373ffffffffffffffffffffffffffffffffffffffff1673ffffffffffffffffffffffffffffffffffffffff16815260200190815260200160002060008873ffffffffffffffffffffffffffffffffffffffff1673ffffffffffffffffffffffffffffffffffffffff168152602001908152602001600020546117c59190613c55565b611e94565b6001905092915050565b60006117e133848461205f565b6001905092915050565b600660019054906101000a900473ffffffffffffffffffffffffffffffffffffffff1681565b600080600660019054906101000a900473ffffffffffffffffffffffffffffffffffffffff1673ffffffffffffffffffffffffffffffffffffffff166370a08231306040518263ffffffff1660e01b815260040161186f9190613645565b60206040518083038186803b15801561188757600080fd5b505afa15801561189b573d6000803e3d6000fd5b505050506040513d601f19601f820116820180604052508101906118bf91906131f1565b905060006118cb610797565b14806118d75750600081145b156118e6576000915050611957565b60006118f96118f3611010565b83612301565b9050600061191e611908610797565b600e54600f54426119199190613c55565b6127aa565b9050600061193361192d611549565b83612301565b9050611950670de0b6b3a764000061194b83866122c5565b612944565b9450505050505b90565b60095481565b600760009054906101000a900473ffffffffffffffffffffffffffffffffffffffff1673ffffffffffffffffffffffffffffffffffffffff163373ffffffffffffffffffffffffffffffffffffffff16146119f0576040517f08c379a00000000000000000000000000000000000000000000000000000000081526004016119e790613919565b60405180910390fd5b80600c819055507ff446a856a251d3949a294b9b5a1887d32750b34a18bb135814cfc300119ca84d81604051611a269190613af9565b60405180910390a150565b600760009054906101000a900473ffffffffffffffffffffffffffffffffffffffff1673ffffffffffffffffffffffffffffffffffffffff163373ffffffffffffffffffffffffffffffffffffffff1614611ac1576040517f08c379a0000000000000000000000000000000000000000000000000000000008152600401611ab890613919565b60405180910390fd5b60008111611b04576040517f08c379a0000000000000000000000000000000000000000000000000000000008152600401611afb90613999565b60405180910390fd5b600660019054906101000a900473ffffffffffffffffffffffffffffffffffffffff1673ffffffffffffffffffffffffffffffffffffffff166323b872dd3330846040518463ffffffff1660e01b8152600401611b6393929190613660565b602060405180830381600087803b158015611b7d57600080fd5b505af1158015611b91573d6000803e3d6000fd5b505050506040513d601f19601f82011682018060405250810190611bb5919061319f565b611bf4576040517f08c379a0000000000000000000000000000000000000000000000000000000008152600401611beb906139b9565b60405180910390fd5b50565b6000600660019054906101000a900473ffffffffffffffffffffffffffffffffffffffff1673ffffffffffffffffffffffffffffffffffffffff166370a08231306040518263ffffffff1660e01b8152600401611c549190613645565b60206040518083038186803b158015611c6c57600080fd5b505afa158015611c80573d6000803e3d6000fd5b505050506040513d601f19601f82011682018060405250810190611ca491906131f1565b905090565b6000600260008473ffffffffffffffffffffffffffffffffffffffff1673ffffffffffffffffffffffffffffffffffffffff16815260200190815260200160002060008373ffffffffffffffffffffffffffffffffffffffff1673ffffffffffffffffffffffffffffffffffffffff16815260200190815260200160002054905092915050565b600760009054906101000a900473ffffffffffffffffffffffffffffffffffffffff1673ffffffffffffffffffffffffffffffffffffffff163373ffffffffffffffffffffffffffffffffffffffff1614611dc0576040517f08c379a0000000000000000000000000000000000000000000000000000000008152600401611db790613919565b60405180910390fd5b80600081118015611dd9575068056bc75e2d6310000081105b611e18576040517f08c379a0000000000000000000000000000000000000000000000000000000008152600401611e0f906139f9565b60405180910390fd5b611e2b8268056bc75e2d631000006122c5565b600d819055507fb410b9fb1c7ee253f64b4393c5fa78a4d64c9f4495828b8c9e62813a5c53528d600d54604051611e629190613af9565b60405180910390a15050565b600760009054906101000a900473ffffffffffffffffffffffffffffffffffffffff1681565b600073ffffffffffffffffffffffffffffffffffffffff168373ffffffffffffffffffffffffffffffffffffffff161415611f04576040517f08c379a0000000000000000000000000000000000000000000000000000000008152600401611efb90613a59565b60405180910390fd5b600073ffffffffffffffffffffffffffffffffffffffff168273ffffffffffffffffffffffffffffffffffffffff161415611f74576040517f08c379a0000000000000000000000000000000000000000000000000000000008152600401611f6b90613859565b60405180910390fd5b80600260008573ffffffffffffffffffffffffffffffffffffffff1673ffffffffffffffffffffffffffffffffffffffff16815260200190815260200160002060008473ffffffffffffffffffffffffffffffffffffffff1673ffffffffffffffffffffffffffffffffffffffff168152602001908152602001600020819055508173ffffffffffffffffffffffffffffffffffffffff168373ffffffffffffffffffffffffffffffffffffffff167f8c5be1e5ebec7d5bd14f71427d1e84f3dd0314c0f7b2291e5b200ac8c7c3b925836040516120529190613af9565b60405180910390a3505050565b600073ffffffffffffffffffffffffffffffffffffffff168373ffffffffffffffffffffffffffffffffffffffff1614156120cf576040517f08c379a00000000000000000000000000000000000000000000000000000000081526004016120c690613a19565b60405180910390fd5b600073ffffffffffffffffffffffffffffffffffffffff168273ffffffffffffffffffffffffffffffffffffffff16141561213f576040517f08c379a0000000000000000000000000000000000000000000000000000000008152600401612136906137f9565b60405180910390fd5b80600160008573ffffffffffffffffffffffffffffffffffffffff1673ffffffffffffffffffffffffffffffffffffffff1681526020019081526020016000205461218a9190613c55565b600160008573ffffffffffffffffffffffffffffffffffffffff1673ffffffffffffffffffffffffffffffffffffffff1681526020019081526020016000208190555080600160008473ffffffffffffffffffffffffffffffffffffffff1673ffffffffffffffffffffffffffffffffffffffff168152602001908152602001600020546122189190613b74565b600160008473ffffffffffffffffffffffffffffffffffffffff1673ffffffffffffffffffffffffffffffffffffffff168152602001908152602001600020819055508173ffffffffffffffffffffffffffffffffffffffff168373ffffffffffffffffffffffffffffffffffffffff167fddf252ad1be2c89b69c2b068fc378daa952ba7f163c4a11628f55a4df523b3ef836040516122b89190613af9565b60405180910390a3505050565b6000816122ef6122dd85670de0b6b3a764000061271f565b6002856122ea9190613bca565b612944565b6122f99190613bca565b905092915050565b6000670de0b6b3a7640000612333612319858561271f565b6002670de0b6b3a764000061232e9190613bca565b612944565b61233d9190613bca565b905092915050565b600073ffffffffffffffffffffffffffffffffffffffff168273ffffffffffffffffffffffffffffffffffffffff1614156123b5576040517f08c379a00000000000000000000000000000000000000000000000000000000081526004016123ac906139d9565b60405180910390fd5b80600160008473ffffffffffffffffffffffffffffffffffffffff1673ffffffffffffffffffffffffffffffffffffffff168152602001908152602001600020546124009190613c55565b600160008473ffffffffffffffffffffffffffffffffffffffff1673ffffffffffffffffffffffffffffffffffffffff16815260200190815260200160002081905550806003546124519190613c55565b600381905550600073ffffffffffffffffffffffffffffffffffffffff168273ffffffffffffffffffffffffffffffffffffffff167fddf252ad1be2c89b69c2b068fc378daa952ba7f163c4a11628f55a4df523b3ef836040516124b59190613af9565b60405180910390a35050565b60008282846124d09190613c55565b9150811115612514576040517f08c379a000000000000000000000000000000000000000000000000000000000815260040161250b906137d9565b60405180910390fd5b92915050565b600080600080600061252c878761299d565b915091508161254757600080600094509450945050506126ce565b60008060009054906101000a900473ffffffffffffffffffffffffffffffffffffffff1673ffffffffffffffffffffffffffffffffffffffff166377fbb66389846040518363ffffffff1660e01b81526004016125a5929190613b14565b60206040518083038186803b1580156125bd57600080fd5b505afa1580156125d1573d6000803e3d6000fd5b505050506040513d601f19601f820116820180604052508101906125f591906131f1565b905060008054906101000a900473ffffffffffffffffffffffffffffffffffffffff1673ffffffffffffffffffffffffffffffffffffffff166393fa491589836040518363ffffffff1660e01b8152600401612652929190613b14565b60206040518083038186803b15801561266a57600080fd5b505afa15801561267e573d6000803e3d6000fd5b505050506040513d601f19601f820116820180604052508101906126a291906131f1565b945060008511156126bf57600185829550955095505050506126ce565b60008060009550955095505050505b9250925092565b600061271783836040518060400160405280601a81526020017f536166654d6174683a206469766973696f6e206279207a65726f000000000000815250612ee1565b905092915050565b6000808214806127475750828283856127389190613bfb565b9250826127459190613bca565b145b612786576040517f08c379a000000000000000000000000000000000000000000000000000000000815260040161277d90613879565b60405180910390fd5b92915050565b60006127a18461279c8585612f44565b612fcf565b90509392505050565b60006127bf846127ba8585612f44565b61300f565b90509392505050565b600073ffffffffffffffffffffffffffffffffffffffff168273ffffffffffffffffffffffffffffffffffffffff161415612838576040517f08c379a000000000000000000000000000000000000000000000000000000000815260040161282f90613ab9565b60405180910390fd5b806003546128469190613b74565b60038190555080600160008473ffffffffffffffffffffffffffffffffffffffff1673ffffffffffffffffffffffffffffffffffffffff168152602001908152602001600020546128979190613b74565b600160008473ffffffffffffffffffffffffffffffffffffffff1673ffffffffffffffffffffffffffffffffffffffff168152602001908152602001600020819055508173ffffffffffffffffffffffffffffffffffffffff16600073ffffffffffffffffffffffffffffffffffffffff167fddf252ad1be2c89b69c2b068fc378daa952ba7f163c4a11628f55a4df523b3ef836040516129389190613af9565b60405180910390a35050565b60008282846129539190613b74565b9150811015612997576040517f08c379a000000000000000000000000000000000000000000000000000000000815260040161298e906138d9565b60405180910390fd5b92915050565b60008060008060009054906101000a900473ffffffffffffffffffffffffffffffffffffffff1673ffffffffffffffffffffffffffffffffffffffff166346eee1c4866040518263ffffffff1660e01b81526004016129fc9190613af9565b60206040518083038186803b158015612a1457600080fd5b505afa158015612a28573d6000803e3d6000fd5b505050506040513d601f19601f82011682018060405250810190612a4c91906131f1565b90506000811115612ed157600080600090506000600184612a6d9190613c55565b905060008060009054906101000a900473ffffffffffffffffffffffffffffffffffffffff1673ffffffffffffffffffffffffffffffffffffffff166377fbb6638a856040518363ffffffff1660e01b8152600401612acd929190613b14565b60206040518083038186803b158015612ae557600080fd5b505afa158015612af9573d6000803e3d6000fd5b505050506040513d601f19601f82011682018060405250810190612b1d91906131f1565b9050878110612b3757600080965096505050505050612eda565b60008054906101000a900473ffffffffffffffffffffffffffffffffffffffff1673ffffffffffffffffffffffffffffffffffffffff166377fbb6638a846040518363ffffffff1660e01b8152600401612b92929190613b14565b60206040518083038186803b158015612baa57600080fd5b505afa158015612bbe573d6000803e3d6000fd5b505050506040513d601f19601f82011682018060405250810190612be291906131f1565b905087811015612bfd57600182965096505050505050612eda565b5b600115612ecc5782600160028585612c169190613c55565b612c209190613bca565b612c2a9190613b74565b612c349190613b74565b935060008054906101000a900473ffffffffffffffffffffffffffffffffffffffff1673ffffffffffffffffffffffffffffffffffffffff166377fbb6638a866040518363ffffffff1660e01b8152600401612c91929190613b14565b60206040518083038186803b158015612ca957600080fd5b505afa158015612cbd573d6000803e3d6000fd5b505050506040513d601f19601f82011682018060405250810190612ce191906131f1565b905087811015612dd55760008060009054906101000a900473ffffffffffffffffffffffffffffffffffffffff1673ffffffffffffffffffffffffffffffffffffffff166377fbb6638b600188612d389190613b74565b6040518363ffffffff1660e01b8152600401612d55929190613b14565b60206040518083038186803b158015612d6d57600080fd5b505afa158015612d81573d6000803e3d6000fd5b505050506040513d601f19601f82011682018060405250810190612da591906131f1565b9050888110612dc05760018597509750505050505050612eda565b600185612dcd9190613b74565b935050612ec7565b60008060009054906101000a900473ffffffffffffffffffffffffffffffffffffffff1673ffffffffffffffffffffffffffffffffffffffff166377fbb6638b600188612e229190613c55565b6040518363ffffffff1660e01b8152600401612e3f929190613b14565b60206040518083038186803b158015612e5757600080fd5b505afa158015612e6b573d6000803e3d6000fd5b505050506040513d601f19601f82011682018060405250810190612e8f91906131f1565b905088811015612eb65760018086612ea79190613c55565b97509750505050505050612eda565b600185612ec39190613c55565b9250505b612bfe565b505050505b60008092509250505b9250929050565b60008083118290612f28576040517f08c379a0000000000000000000000000000000000000000000000000000000008152600401612f1f91906137b7565b60405180910390fd5b5060008385612f379190613bca565b9050809150509392505050565b600080600283612f549190613d67565b1415612f6c576b033b2e3c9fd0803ce8000000612f6e565b825b9050600282612f7d9190613bca565b91505b60008214612fc957612f92838461300f565b92506000600283612fa39190613d67565b14612fb557612fb2818461300f565b90505b600282612fc29190613bca565b9150612f80565b92915050565b600081612ffd612feb856b033b2e3c9fd0803ce800000061271f565b600285612ff89190613bca565b612944565b6130079190613bca565b905092915050565b60006b033b2e3c9fd0803ce800000061304961302b858561271f565b60026b033b2e3c9fd0803ce80000006130449190613bca565b612944565b6130539190613bca565b905092915050565b60008135905061306a816143d9565b92915050565b60008151905061307f816143f0565b92915050565b60008135905061309481614407565b92915050565b6000815190506130a981614407565b92915050565b6000602082840312156130c157600080fd5b60006130cf8482850161305b565b91505092915050565b600080604083850312156130eb57600080fd5b60006130f98582860161305b565b925050602061310a8582860161305b565b9150509250929050565b60008060006060848603121561312957600080fd5b60006131378682870161305b565b93505060206131488682870161305b565b925050604061315986828701613085565b9150509250925092565b6000806040838503121561317657600080fd5b60006131848582860161305b565b925050602061319585828601613085565b9150509250929050565b6000602082840312156131b157600080fd5b60006131bf84828501613070565b91505092915050565b6000602082840312156131da57600080fd5b60006131e884828501613085565b91505092915050565b60006020828403121561320357600080fd5b60006132118482850161309a565b91505092915050565b6000806040838503121561322d57600080fd5b600061323b85828601613085565b925050602061324c8582860161305b565b9150509250929050565b61325f81613c89565b82525050565b61326e81613c9b565b82525050565b61327d81613cde565b82525050565b600061328e82613b58565b6132988185613b63565b93506132a8818560208601613d02565b6132b181613e25565b840191505092915050565b60006132c9601583613b63565b91506132d482613e36565b602082019050919050565b60006132ec602383613b63565b91506132f782613e5f565b604082019050919050565b600061330f602983613b63565b915061331a82613eae565b604082019050919050565b6000613332602a83613b63565b915061333d82613efd565b604082019050919050565b6000613355602283613b63565b915061336082613f4c565b604082019050919050565b6000613378601483613b63565b915061338382613f9b565b602082019050919050565b600061339b601883613b63565b91506133a682613fc4565b602082019050919050565b60006133be602183613b63565b91506133c982613fed565b604082019050919050565b60006133e1601483613b63565b91506133ec8261403c565b602082019050919050565b6000613404601283613b63565b915061340f82614065565b602082019050919050565b6000613427600c83613b63565b91506134328261408e565b602082019050919050565b600061344a601983613b63565b9150613455826140b7565b602082019050919050565b600061346d602d83613b63565b9150613478826140e0565b604082019050919050565b6000613490601483613b63565b915061349b8261412f565b602082019050919050565b60006134b3601083613b63565b91506134be82614158565b602082019050919050565b60006134d6602283613b63565b91506134e182614181565b604082019050919050565b60006134f9602183613b63565b9150613504826141d0565b604082019050919050565b600061351c601f83613b63565b91506135278261421f565b602082019050919050565b600061353f602583613b63565b915061354a82614248565b604082019050919050565b6000613562601f83613b63565b915061356d82614297565b602082019050919050565b6000613585602483613b63565b9150613590826142c0565b604082019050919050565b60006135a8602583613b63565b91506135b38261430f565b604082019050919050565b60006135cb601983613b63565b91506135d68261435e565b602082019050919050565b60006135ee601f83613b63565b91506135f982614387565b602082019050919050565b6000613611601f83613b63565b915061361c826143b0565b602082019050919050565b61363081613cc7565b82525050565b61363f81613cd1565b82525050565b600060208201905061365a6000830184613256565b92915050565b60006060820190506136756000830186613256565b6136826020830185613256565b61368f6040830184613627565b949350505050565b60006040820190506136ac6000830185613256565b6136b96020830184613627565b9392505050565b60006080820190506136d56000830187613256565b6136e26020830186613627565b6136ef6040830185613256565b6136fc6060830184613627565b95945050505050565b600060608201905061371a6000830186613256565b6137276020830185613627565b6137346040830184613627565b949350505050565b60006080820190506137516000830187613256565b61375e6020830186613627565b61376b6040830185613627565b6137786060830184613627565b95945050505050565b60006020820190506137966000830184613265565b92915050565b60006020820190506137b16000830184613274565b92915050565b600060208201905081810360008301526137d18184613283565b905092915050565b600060208201905081810360008301526137f2816132bc565b9050919050565b60006020820190508181036000830152613812816132df565b9050919050565b6000602082019050818103600083015261383281613302565b9050919050565b6000602082019050818103600083015261385281613325565b9050919050565b6000602082019050818103600083015261387281613348565b9050919050565b600060208201905081810360008301526138928161336b565b9050919050565b600060208201905081810360008301526138b28161338e565b9050919050565b600060208201905081810360008301526138d2816133b1565b9050919050565b600060208201905081810360008301526138f2816133d4565b9050919050565b60006020820190508181036000830152613912816133f7565b9050919050565b600060208201905081810360008301526139328161341a565b9050919050565b600060208201905081810360008301526139528161343d565b9050919050565b6000602082019050818103600083015261397281613460565b9050919050565b6000602082019050818103600083015261399281613483565b9050919050565b600060208201905081810360008301526139b2816134a6565b9050919050565b600060208201905081810360008301526139d2816134c9565b9050919050565b600060208201905081810360008301526139f2816134ec565b9050919050565b60006020820190508181036000830152613a128161350f565b9050919050565b60006020820190508181036000830152613a3281613532565b9050919050565b60006020820190508181036000830152613a5281613555565b9050919050565b60006020820190508181036000830152613a7281613578565b9050919050565b60006020820190508181036000830152613a928161359b565b9050919050565b60006020820190508181036000830152613ab2816135be565b9050919050565b60006020820190508181036000830152613ad2816135e1565b9050919050565b60006020820190508181036000830152613af281613604565b9050919050565b6000602082019050613b0e6000830184613627565b92915050565b6000604082019050613b296000830185613627565b613b366020830184613627565b9392505050565b6000602082019050613b526000830184613636565b92915050565b600081519050919050565b600082825260208201905092915050565b6000613b7f82613cc7565b9150613b8a83613cc7565b9250827fffffffffffffffffffffffffffffffffffffffffffffffffffffffffffffffff03821115613bbf57613bbe613d98565b5b828201905092915050565b6000613bd582613cc7565b9150613be083613cc7565b925082613bf057613bef613dc7565b5b828204905092915050565b6000613c0682613cc7565b9150613c1183613cc7565b9250817fffffffffffffffffffffffffffffffffffffffffffffffffffffffffffffffff0483118215151615613c4a57613c49613d98565b5b828202905092915050565b6000613c6082613cc7565b9150613c6b83613cc7565b925082821015613c7e57613c7d613d98565b5b828203905092915050565b6000613c9482613ca7565b9050919050565b60008115159050919050565b600073ffffffffffffffffffffffffffffffffffffffff82169050919050565b6000819050919050565b600060ff82169050919050565b6000613ce982613cf0565b9050919050565b6000613cfb82613ca7565b9050919050565b60005b83811015613d20578082015181840152602081019050613d05565b83811115613d2f576000848401525b50505050565b60006002820490506001821680613d4d57607f821691505b60208210811415613d6157613d60613df6565b5b50919050565b6000613d7282613cc7565b9150613d7d83613cc7565b925082613d8d57613d8c613dc7565b5b828206905092915050565b7f4e487b7100000000000000000000000000000000000000000000000000000000600052601160045260246000fd5b7f4e487b7100000000000000000000000000000000000000000000000000000000600052601260045260246000fd5b7f4e487b7100000000000000000000000000000000000000000000000000000000600052602260045260246000fd5b6000601f19601f8301169050919050565b7f64732d6d6174682d7375622d756e646572666c6f770000000000000000000000600082015250565b7f45524332303a207472616e7366657220746f20746865207a65726f206164647260008201527f6573730000000000000000000000000000000000000000000000000000000000602082015250565b7f636f6c6c61746572616c207574696c697a61746f696e2069732062656c6f772060008201527f7468726573686f6c640000000000000000000000000000000000000000000000602082015250565b7f636f6c6c61746572616c207574696c697a6174696f6e2061626f76652074686560008201527f207468726573686f6c6400000000000000000000000000000000000000000000602082015250565b7f45524332303a20617070726f766520746f20746865207a65726f20616464726560008201527f7373000000000000000000000000000000000000000000000000000000000000602082015250565b7f64732d6d6174682d6d756c2d6f766572666c6f77000000000000000000000000600082015250565b7f636f6c6c61746572616c207472616e73666572206661696c0000000000000000600082015250565b7f6d73672073656e64657220646f65736e2774206f776e20616e7920746f6b656e60008201527f7300000000000000000000000000000000000000000000000000000000000000602082015250565b7f64732d6d6174682d6164642d6f766572666c6f77000000000000000000000000600082015250565b7f6e6f7420656e6f7567682062616c616e63650000000000000000000000000000600082015250565b7f6e6f7420616e2061646d696e0000000000000000000000000000000000000000600082015250565b7f6e6f20696e666c6174696f6e20696e6372656173652079657400000000000000600082015250565b7f636f6c6c61746572616c206c69717569646174696f6e2070656e616c7479207460008201527f72616e73666572206661696c7300000000000000000000000000000000000000602082015250565b7f67657474696e67206f7261636c65207072696365000000000000000000000000600082015250565b7f6465706f73697420616d6f756e74203000000000000000000000000000000000600082015250565b7f6661696c656420636f6c6c61746572616c206465706f736974207472616e736660008201527f6572000000000000000000000000000000000000000000000000000000000000602082015250565b7f45524332303a206275726e2066726f6d20746865207a65726f2061646472657360008201527f7300000000000000000000000000000000000000000000000000000000000000602082015250565b7f76616c7565206e6f742077697468696e20616c6c6f776564206c696d69747300600082015250565b7f45524332303a207472616e736665722066726f6d20746865207a65726f20616460008201527f6472657373000000000000000000000000000000000000000000000000000000602082015250565b7f616d6f756e742073686f756c642062652067726561746572207468616e203000600082015250565b7f45524332303a20617070726f76652066726f6d20746865207a65726f2061646460008201527f7265737300000000000000000000000000000000000000000000000000000000602082015250565b7f636f6c6c61746572616c206c69717569646174696f6e207472616e736665722060008201527f6661696c73000000000000000000000000000000000000000000000000000000602082015250565b7f636f6c6c61746572616c207472616e73666572206661696c7300000000000000600082015250565b7f45524332303a206d696e7420746f20746865207a65726f206164647265737300600082015250565b7f63616e6e6f742073656e6420746f20746865207a65726f206164647265737300600082015250565b6143e281613c89565b81146143ed57600080fd5b50565b6143f981613c9b565b811461440457600080fd5b50565b61441081613cc7565b811461441b57600080fd5b5056fea264697066735822122064593f3508e6a0f78c8f7a31e1c635e44009579990c63824d42fa4449b29ce7964736f6c63430008030033",
  "devdoc": {
    "author": "Tellor Inc.",
    "details": "Chorus is a structure for issuing semi-stablecoins as community currencies*",
    "kind": "dev",
    "methods": {
      "allowance(address,address)": {
        "details": "See {IERC20-allowance}."
      },
      "approve(address,uint256)": {
        "details": "See {IERC20-approve}. Requirements: - `spender` cannot be the zero address."
      },
      "balanceOf(address)": {
        "details": "See {IERC20-balanceOf}."
      },
      "collateralBalance()": {
        "details": "Returns the current token price in USD reduced by the current inflation.",
        "returns": {
          "_0": "uint256 token price"
        }
      },
      "collateralPrice()": {
        "details": "Checks the Tellor oracle and gets the collateral price",
        "returns": {
          "_0": "uint256 collateral price in USD upscaled to e18 precision."
        }
      },
      "collateralRatio()": {
        "details": "A view funciton to look at the collateralization of the system",
        "returns": {
          "_0": "uint256 collateral token balance of this address / totalSupply"
        }
      },
      "constructor": {
        "details": "This is the constructor, sets the inital paramaters in the system The parameters include, the Tellor Address, collateral token's address, collateral token's requestID, the price granualrity, the token name,  token's symbol, inflation rate per year, and the inflation beneficiary "
      },
      "decimals()": {
        "details": "Returns the number of decimals used to get its user representation. For example, if `decimals` equals `2`, a balance of `505` tokens should be displayed to a user as `5,05` (`505 / 10 ** 2`). Tokens usually opt for a value of 18, imitating the relationship between Ether and Wei. This is the value {ERC20} uses, unless {_setupDecimals} is called. NOTE: This information is only used for _display_ purposes: it in no way affects any of the arithmetic of the contract, including {IERC20-balanceOf} and {IERC20-transfer}."
      },
      "decreaseAllowance(address,uint256)": {
        "details": "Atomically decreases the allowance granted to `spender` by the caller. This is an alternative to {approve} that can be used as a mitigation for problems described in {IERC20-approve}. Emits an {Approval} event indicating the updated allowance. Requirements: - `spender` cannot be the zero address. - `spender` must have allowance for the caller of at least `subtractedValue`."
      },
      "depositCollateral(uint256)": {
        "details": "Allows the admin to deposit collateral",
        "params": {
          "_amount": "the amount of collateral token to deposit"
        }
      },
      "increaseAllowance(address,uint256)": {
        "details": "Atomically increases the allowance granted to `spender` by the caller. This is an alternative to {approve} that can be used as a mitigation for problems described in {IERC20-approve}. Emits an {Approval} event indicating the updated allowance. Requirements: - `spender` cannot be the zero address."
      },
      "liquidate()": {
        "details": "Function to allow anyone to liquidate the system if it is undercollateralized"
      },
      "mintToken(uint256,address)": {
        "details": "Allows the admin to mint tokens up to the collateral threshold",
        "params": {
          "_amount": "the amount of collateral tokens to mint",
          "_to": "the address to mint them to;"
        }
      },
      "name()": {
        "details": "Returns the name of the token."
      },
      "setAdmin(address)": {
        "details": "Allows the user to set a new admin address",
        "params": {
          "_newAdmin": "the address of the new admin address"
        }
      },
      "setCollateralPriceAge(uint256)": {
        "details": "Allows the admin to set the collateral price Age (delay in feed from Tellor)",
        "params": {
          "_amount": "the amount of delay in the price feed (we want to wait for disputes)"
        }
      },
      "setCollateralThreshold(uint256)": {
        "details": "Allows the admin to set the Collateral threshold",
        "params": {
          "_amount": "new collateral threshold"
        }
      },
      "setLiquidationPenatly(uint256)": {
        "details": "Allows the admin to set the liquidation penalty",
        "params": {
          "_amount": "the amount of the liquidation penalty"
        }
      },
      "symbol()": {
        "details": "Returns the symbol of the token, usually a shorter version of the name."
      },
      "tokenPrice()": {
        "details": "Returns the current token price in USD reduced by the current inflation.",
        "returns": {
          "_0": "uint256 token price"
        }
      },
      "totalSupply()": {
        "details": "See {IERC20-totalSupply}."
      },
      "transfer(address,uint256)": {
        "details": "See {IERC20-transfer}. Requirements: - `recipient` cannot be the zero address. - the caller must have a balance of at least `amount`."
      },
      "transferFrom(address,address,uint256)": {
        "details": "See {IERC20-transferFrom}. Emits an {Approval} event indicating the updated allowance. This is not required by the EIP. See the note at the beginning of {ERC20}. Requirements: - `sender` and `recipient` cannot be the zero address. - `sender` must have a balance of at least `amount`. - the caller must have allowance for ``sender``'s tokens of at least `amount`."
      },
      "updateInflation()": {
        "details": "Function to reduce token price by the inflation rate, increases the total supply by the inflation rate and sends the new tokens to the inflation beneficiary."
      },
      "withdrawCollateral(uint256)": {
        "details": "Allows the admin to withdraw collateral above the threshold",
        "params": {
          "_amount": "the amount of collateral token to deposit"
        }
      },
      "withdrawToken(uint256)": {
        "details": "Allows a user to withdraw tokens",
        "params": {
          "_amount": "the amount of tokens to withdraw"
        }
      }
    },
    "title": "Chorus",
    "version": 1
  },
  "userdoc": {
    "kind": "user",
    "methods": {},
    "version": 1
  },
  "storageLayout": {
    "storage": [
      {
        "astId": 1679,
        "contract": "contracts/Chorus.sol:Chorus",
        "label": "tellor",
        "offset": 0,
        "slot": "0",
        "type": "t_contract(ITellor)2538"
      },
      {
        "astId": 741,
        "contract": "contracts/Chorus.sol:Chorus",
        "label": "_balances",
        "offset": 0,
        "slot": "1",
        "type": "t_mapping(t_address,t_uint256)"
      },
      {
        "astId": 747,
        "contract": "contracts/Chorus.sol:Chorus",
        "label": "_allowances",
        "offset": 0,
        "slot": "2",
        "type": "t_mapping(t_address,t_mapping(t_address,t_uint256))"
      },
      {
        "astId": 749,
        "contract": "contracts/Chorus.sol:Chorus",
        "label": "_totalSupply",
        "offset": 0,
        "slot": "3",
        "type": "t_uint256"
      },
      {
        "astId": 751,
        "contract": "contracts/Chorus.sol:Chorus",
        "label": "_name",
        "offset": 0,
        "slot": "4",
        "type": "t_string_storage"
      },
      {
        "astId": 753,
        "contract": "contracts/Chorus.sol:Chorus",
        "label": "_symbol",
        "offset": 0,
        "slot": "5",
        "type": "t_string_storage"
      },
      {
        "astId": 755,
        "contract": "contracts/Chorus.sol:Chorus",
        "label": "_decimals",
        "offset": 0,
        "slot": "6",
        "type": "t_uint8"
      },
      {
        "astId": 67,
        "contract": "contracts/Chorus.sol:Chorus",
        "label": "collateralToken",
        "offset": 1,
        "slot": "6",
        "type": "t_contract(ERC20)1179"
      },
      {
        "astId": 71,
        "contract": "contracts/Chorus.sol:Chorus",
        "label": "admin",
        "offset": 0,
        "slot": "7",
        "type": "t_address"
      },
      {
        "astId": 74,
        "contract": "contracts/Chorus.sol:Chorus",
        "label": "tknPrice",
        "offset": 0,
        "slot": "8",
        "type": "t_uint256"
      },
      {
        "astId": 76,
        "contract": "contracts/Chorus.sol:Chorus",
        "label": "collateralID",
        "offset": 0,
        "slot": "9",
        "type": "t_uint256"
      },
      {
        "astId": 78,
        "contract": "contracts/Chorus.sol:Chorus",
        "label": "collateralPriceGranularity",
        "offset": 0,
        "slot": "10",
        "type": "t_uint256"
      },
      {
        "astId": 81,
        "contract": "contracts/Chorus.sol:Chorus",
        "label": "collateralThreshold",
        "offset": 0,
        "slot": "11",
        "type": "t_uint256"
      },
      {
        "astId": 84,
        "contract": "contracts/Chorus.sol:Chorus",
        "label": "collateralPriceAge",
        "offset": 0,
        "slot": "12",
        "type": "t_uint256"
      },
      {
        "astId": 87,
        "contract": "contracts/Chorus.sol:Chorus",
        "label": "liquidationPenatly",
        "offset": 0,
        "slot": "13",
        "type": "t_uint256"
      },
      {
        "astId": 89,
        "contract": "contracts/Chorus.sol:Chorus",
        "label": "inflRatePerSec",
        "offset": 0,
        "slot": "14",
        "type": "t_uint256"
      },
      {
        "astId": 93,
        "contract": "contracts/Chorus.sol:Chorus",
        "label": "inflLastUpdate",
        "offset": 0,
        "slot": "15",
        "type": "t_uint256"
      },
      {
        "astId": 95,
        "contract": "contracts/Chorus.sol:Chorus",
        "label": "inflBeneficiary",
        "offset": 0,
        "slot": "16",
        "type": "t_address"
      }
    ],
    "types": {
      "t_address": {
        "encoding": "inplace",
        "label": "address",
        "numberOfBytes": "20"
      },
      "t_contract(ERC20)1179": {
        "encoding": "inplace",
        "label": "contract ERC20",
        "numberOfBytes": "20"
      },
      "t_contract(ITellor)2538": {
        "encoding": "inplace",
        "label": "contract ITellor",
        "numberOfBytes": "20"
      },
      "t_mapping(t_address,t_mapping(t_address,t_uint256))": {
        "encoding": "mapping",
        "key": "t_address",
        "label": "mapping(address => mapping(address => uint256))",
        "numberOfBytes": "32",
        "value": "t_mapping(t_address,t_uint256)"
      },
      "t_mapping(t_address,t_uint256)": {
        "encoding": "mapping",
        "key": "t_address",
        "label": "mapping(address => uint256)",
        "numberOfBytes": "32",
        "value": "t_uint256"
      },
      "t_string_storage": {
        "encoding": "bytes",
        "label": "string",
        "numberOfBytes": "32"
      },
      "t_uint256": {
        "encoding": "inplace",
        "label": "uint256",
        "numberOfBytes": "32"
      },
      "t_uint8": {
        "encoding": "inplace",
        "label": "uint8",
        "numberOfBytes": "1"
      }
    }
  }
}