{
  "address": "0x9fE46736679d2D9a65F0992F2272dE9f3c7fa6e0",
  "abi": [
    {
      "inputs": [
        {
          "internalType": "address payable",
          "name": "_tellorAddress",
          "type": "address"
        },
        {
          "internalType": "address",
          "name": "_collateralToken",
          "type": "address"
        },
        {
          "internalType": "uint256",
          "name": "_collateralID",
          "type": "uint256"
        },
        {
          "internalType": "uint256",
          "name": "_collateralPriceGranularity",
          "type": "uint256"
        },
        {
          "internalType": "string",
          "name": "_tokenName",
          "type": "string"
        },
        {
          "internalType": "string",
          "name": "_tokenSymbol",
          "type": "string"
        },
        {
          "internalType": "uint256",
          "name": "_inflRatePerYear",
          "type": "uint256"
        },
        {
          "internalType": "address",
          "name": "_inflBeneficiary",
          "type": "address"
        },
        {
          "internalType": "bool",
          "name": "_isWhitelisted",
          "type": "bool"
        }
      ],
      "stateMutability": "nonpayable",
      "type": "constructor"
    },
    {
      "anonymous": false,
      "inputs": [
        {
          "indexed": true,
          "internalType": "address",
          "name": "owner",
          "type": "address"
        },
        {
          "indexed": true,
          "internalType": "address",
          "name": "spender",
          "type": "address"
        },
        {
          "indexed": false,
          "internalType": "uint256",
          "name": "value",
          "type": "uint256"
        }
      ],
      "name": "Approval",
      "type": "event"
    },
    {
      "anonymous": false,
      "inputs": [
        {
          "indexed": false,
          "internalType": "uint256",
          "name": "_collateralPriceAge",
          "type": "uint256"
        }
      ],
      "name": "CollateralPriceAge",
      "type": "event"
    },
    {
      "anonymous": false,
      "inputs": [
        {
          "indexed": false,
          "internalType": "uint256",
          "name": "_collateralThreshold",
          "type": "uint256"
        }
      ],
      "name": "CollateralThreshold",
      "type": "event"
    },
    {
      "anonymous": false,
      "inputs": [
        {
          "indexed": false,
          "internalType": "address",
          "name": "_party",
          "type": "address"
        },
        {
          "indexed": false,
          "internalType": "uint256",
          "name": "_tokensAmnt",
          "type": "uint256"
        },
        {
          "indexed": false,
          "internalType": "uint256",
          "name": "_collateralAmnt",
          "type": "uint256"
        },
        {
          "indexed": false,
          "internalType": "uint256",
          "name": "_collateralPenalty",
          "type": "uint256"
        }
      ],
      "name": "Liquidate",
      "type": "event"
    },
    {
      "anonymous": false,
      "inputs": [
        {
          "indexed": false,
          "internalType": "uint256",
          "name": "_newPenalty",
          "type": "uint256"
        }
      ],
      "name": "LiquidationPenatly",
      "type": "event"
    },
    {
      "anonymous": false,
      "inputs": [
        {
          "indexed": false,
          "internalType": "address",
          "name": "_holder",
          "type": "address"
        },
        {
          "indexed": false,
          "internalType": "uint256",
          "name": "_amount",
          "type": "uint256"
        },
        {
          "indexed": false,
          "internalType": "address",
          "name": "_to",
          "type": "address"
        },
        {
          "indexed": false,
          "internalType": "uint256",
          "name": "_collateralRatio",
          "type": "uint256"
        }
      ],
      "name": "MintTokens",
      "type": "event"
    },
    {
      "anonymous": false,
      "inputs": [
        {
          "indexed": false,
          "internalType": "address",
          "name": "_newAdmin",
          "type": "address"
        }
      ],
      "name": "NewAdmin",
      "type": "event"
    },
    {
      "anonymous": false,
      "inputs": [
        {
          "indexed": false,
          "internalType": "address",
          "name": "_newAdmin",
          "type": "address"
        }
      ],
      "name": "NewWhitelistAdmin",
      "type": "event"
    },
    {
      "anonymous": false,
      "inputs": [
        {
          "indexed": false,
          "internalType": "address",
          "name": "_user",
          "type": "address"
        },
        {
          "indexed": false,
          "internalType": "uint256",
          "name": "_amount",
          "type": "uint256"
        }
      ],
      "name": "NewWhitelistedAmount",
      "type": "event"
    },
    {
      "anonymous": false,
      "inputs": [
        {
          "indexed": true,
          "internalType": "address",
          "name": "from",
          "type": "address"
        },
        {
          "indexed": true,
          "internalType": "address",
          "name": "to",
          "type": "address"
        },
        {
          "indexed": false,
          "internalType": "uint256",
          "name": "value",
          "type": "uint256"
        }
      ],
      "name": "Transfer",
      "type": "event"
    },
    {
      "anonymous": false,
      "inputs": [
        {
          "indexed": false,
          "internalType": "address",
          "name": "_holder",
          "type": "address"
        },
        {
          "indexed": false,
          "internalType": "uint256",
          "name": "_collateralAmnt",
          "type": "uint256"
        },
        {
          "indexed": false,
          "internalType": "uint256",
          "name": "_collateralRatio",
          "type": "uint256"
        }
      ],
      "name": "WithdrawCollateral",
      "type": "event"
    },
    {
      "anonymous": false,
      "inputs": [
        {
          "indexed": false,
          "internalType": "address",
          "name": "_holder",
          "type": "address"
        },
        {
          "indexed": false,
          "internalType": "uint256",
          "name": "_tokenAmnt",
          "type": "uint256"
        },
        {
          "indexed": false,
          "internalType": "uint256",
          "name": "_collateralAmnt",
          "type": "uint256"
        }
      ],
      "name": "WithdrawToken",
      "type": "event"
    },
    {
      "anonymous": false,
      "inputs": [
        {
          "indexed": false,
          "internalType": "address",
          "name": "_user",
          "type": "address"
        },
        {
          "indexed": false,
          "internalType": "uint256",
          "name": "_amount",
          "type": "uint256"
        }
      ],
      "name": "WithdrawTokenRequest",
      "type": "event"
    },
    {
      "inputs": [],
      "name": "RAY",
      "outputs": [
        {
          "internalType": "uint256",
          "name": "",
          "type": "uint256"
        }
      ],
      "stateMutability": "view",
      "type": "function"
    },
    {
      "inputs": [],
      "name": "WAD",
      "outputs": [
        {
          "internalType": "uint256",
          "name": "",
          "type": "uint256"
        }
      ],
      "stateMutability": "view",
      "type": "function"
    },
    {
      "inputs": [],
      "name": "admin",
      "outputs": [
        {
          "internalType": "address",
          "name": "",
          "type": "address"
        }
      ],
      "stateMutability": "view",
      "type": "function"
    },
    {
      "inputs": [
        {
          "internalType": "address",
          "name": "owner",
          "type": "address"
        },
        {
          "internalType": "address",
          "name": "spender",
          "type": "address"
        }
      ],
      "name": "allowance",
      "outputs": [
        {
          "internalType": "uint256",
          "name": "",
          "type": "uint256"
        }
      ],
      "stateMutability": "view",
      "type": "function"
    },
    {
      "inputs": [
        {
          "internalType": "address",
          "name": "spender",
          "type": "address"
        },
        {
          "internalType": "uint256",
          "name": "amount",
          "type": "uint256"
        }
      ],
      "name": "approve",
      "outputs": [
        {
          "internalType": "bool",
          "name": "",
          "type": "bool"
        }
      ],
      "stateMutability": "nonpayable",
      "type": "function"
    },
    {
      "inputs": [
        {
          "internalType": "address",
          "name": "account",
          "type": "address"
        }
      ],
      "name": "balanceOf",
      "outputs": [
        {
          "internalType": "uint256",
          "name": "",
          "type": "uint256"
        }
      ],
      "stateMutability": "view",
      "type": "function"
    },
    {
      "inputs": [],
      "name": "collateralBalance",
      "outputs": [
        {
          "internalType": "uint256",
          "name": "",
          "type": "uint256"
        }
      ],
      "stateMutability": "view",
      "type": "function"
    },
    {
      "inputs": [],
      "name": "collateralID",
      "outputs": [
        {
          "internalType": "uint256",
          "name": "",
          "type": "uint256"
        }
      ],
      "stateMutability": "view",
      "type": "function"
    },
    {
      "inputs": [],
      "name": "collateralPrice",
      "outputs": [
        {
          "internalType": "uint256",
          "name": "",
          "type": "uint256"
        }
      ],
      "stateMutability": "view",
      "type": "function"
    },
    {
      "inputs": [],
      "name": "collateralPriceAge",
      "outputs": [
        {
          "internalType": "uint256",
          "name": "",
          "type": "uint256"
        }
      ],
      "stateMutability": "view",
      "type": "function"
    },
    {
      "inputs": [],
      "name": "collateralPriceGranularity",
      "outputs": [
        {
          "internalType": "uint256",
          "name": "",
          "type": "uint256"
        }
      ],
      "stateMutability": "view",
      "type": "function"
    },
    {
      "inputs": [],
      "name": "collateralRatio",
      "outputs": [
        {
          "internalType": "uint256",
          "name": "",
          "type": "uint256"
        }
      ],
      "stateMutability": "view",
      "type": "function"
    },
    {
      "inputs": [],
      "name": "collateralThreshold",
      "outputs": [
        {
          "internalType": "uint256",
          "name": "",
          "type": "uint256"
        }
      ],
      "stateMutability": "view",
      "type": "function"
    },
    {
      "inputs": [],
      "name": "collateralToken",
      "outputs": [
        {
          "internalType": "contract ERC20",
          "name": "",
          "type": "address"
        }
      ],
      "stateMutability": "view",
      "type": "function"
    },
    {
      "inputs": [],
      "name": "decimals",
      "outputs": [
        {
          "internalType": "uint8",
          "name": "",
          "type": "uint8"
        }
      ],
      "stateMutability": "view",
      "type": "function"
    },
    {
      "inputs": [
        {
          "internalType": "address",
          "name": "spender",
          "type": "address"
        },
        {
          "internalType": "uint256",
          "name": "subtractedValue",
          "type": "uint256"
        }
      ],
      "name": "decreaseAllowance",
      "outputs": [
        {
          "internalType": "bool",
          "name": "",
          "type": "bool"
        }
      ],
      "stateMutability": "nonpayable",
      "type": "function"
    },
    {
      "inputs": [
        {
          "internalType": "uint256",
          "name": "_amount",
          "type": "uint256"
        }
      ],
      "name": "depositCollateral",
      "outputs": [],
      "stateMutability": "nonpayable",
      "type": "function"
    },
    {
      "inputs": [
        {
          "internalType": "address",
          "name": "spender",
          "type": "address"
        },
        {
          "internalType": "uint256",
          "name": "addedValue",
          "type": "uint256"
        }
      ],
      "name": "increaseAllowance",
      "outputs": [
        {
          "internalType": "bool",
          "name": "",
          "type": "bool"
        }
      ],
      "stateMutability": "nonpayable",
      "type": "function"
    },
    {
      "inputs": [],
      "name": "inflBeneficiary",
      "outputs": [
        {
          "internalType": "address",
          "name": "",
          "type": "address"
        }
      ],
      "stateMutability": "view",
      "type": "function"
    },
    {
      "inputs": [],
      "name": "inflLastUpdate",
      "outputs": [
        {
          "internalType": "uint256",
          "name": "",
          "type": "uint256"
        }
      ],
      "stateMutability": "view",
      "type": "function"
    },
    {
      "inputs": [],
      "name": "inflRatePerSec",
      "outputs": [
        {
          "internalType": "uint256",
          "name": "",
          "type": "uint256"
        }
      ],
      "stateMutability": "view",
      "type": "function"
    },
    {
      "inputs": [],
      "name": "isWhitelistedSystem",
      "outputs": [
        {
          "internalType": "bool",
          "name": "",
          "type": "bool"
        }
      ],
      "stateMutability": "view",
      "type": "function"
    },
    {
      "inputs": [],
      "name": "liquidate",
      "outputs": [],
      "stateMutability": "nonpayable",
      "type": "function"
    },
    {
      "inputs": [],
      "name": "liquidationPenatly",
      "outputs": [
        {
          "internalType": "uint256",
          "name": "",
          "type": "uint256"
        }
      ],
      "stateMutability": "view",
      "type": "function"
    },
    {
      "inputs": [
        {
          "internalType": "uint256",
          "name": "_amount",
          "type": "uint256"
        },
        {
          "internalType": "address",
          "name": "_to",
          "type": "address"
        }
      ],
      "name": "mintToken",
      "outputs": [],
      "stateMutability": "nonpayable",
      "type": "function"
    },
    {
      "inputs": [],
      "name": "name",
      "outputs": [
        {
          "internalType": "string",
          "name": "",
          "type": "string"
        }
      ],
      "stateMutability": "view",
      "type": "function"
    },
    {
      "inputs": [
        {
          "internalType": "uint256",
          "name": "_amount",
          "type": "uint256"
        }
      ],
      "name": "requestWithdrawToken",
      "outputs": [],
      "stateMutability": "nonpayable",
      "type": "function"
    },
    {
      "inputs": [
        {
          "internalType": "address",
          "name": "_newAdmin",
          "type": "address"
        }
      ],
      "name": "setAdmin",
      "outputs": [],
      "stateMutability": "nonpayable",
      "type": "function"
    },
    {
      "inputs": [
        {
          "internalType": "uint256",
          "name": "_amount",
          "type": "uint256"
        }
      ],
      "name": "setCollateralPriceAge",
      "outputs": [],
      "stateMutability": "nonpayable",
      "type": "function"
    },
    {
      "inputs": [
        {
          "internalType": "uint256",
          "name": "_amount",
          "type": "uint256"
        }
      ],
      "name": "setCollateralThreshold",
      "outputs": [],
      "stateMutability": "nonpayable",
      "type": "function"
    },
    {
      "inputs": [
        {
          "internalType": "uint256",
          "name": "_amount",
          "type": "uint256"
        }
      ],
      "name": "setLiquidationPenatly",
      "outputs": [],
      "stateMutability": "nonpayable",
      "type": "function"
    },
    {
      "inputs": [
        {
          "internalType": "address",
          "name": "_newAdmin",
          "type": "address"
        }
      ],
      "name": "setWhitelistAdmin",
      "outputs": [],
      "stateMutability": "nonpayable",
      "type": "function"
    },
    {
      "inputs": [
        {
          "internalType": "address",
          "name": "_user",
          "type": "address"
        },
        {
          "internalType": "uint256",
          "name": "_amount",
          "type": "uint256"
        }
      ],
      "name": "setWhitelistedAmount",
      "outputs": [],
      "stateMutability": "nonpayable",
      "type": "function"
    },
    {
      "inputs": [],
      "name": "symbol",
      "outputs": [
        {
          "internalType": "string",
          "name": "",
          "type": "string"
        }
      ],
      "stateMutability": "view",
      "type": "function"
    },
    {
      "inputs": [],
      "name": "tokenPrice",
      "outputs": [
        {
          "internalType": "uint256",
          "name": "",
          "type": "uint256"
        }
      ],
      "stateMutability": "view",
      "type": "function"
    },
    {
      "inputs": [],
      "name": "totalSupply",
      "outputs": [
        {
          "internalType": "uint256",
          "name": "",
          "type": "uint256"
        }
      ],
      "stateMutability": "view",
      "type": "function"
    },
    {
      "inputs": [
        {
          "internalType": "address",
          "name": "recipient",
          "type": "address"
        },
        {
          "internalType": "uint256",
          "name": "amount",
          "type": "uint256"
        }
      ],
      "name": "transfer",
      "outputs": [
        {
          "internalType": "bool",
          "name": "",
          "type": "bool"
        }
      ],
      "stateMutability": "nonpayable",
      "type": "function"
    },
    {
      "inputs": [
        {
          "internalType": "address",
          "name": "sender",
          "type": "address"
        },
        {
          "internalType": "address",
          "name": "recipient",
          "type": "address"
        },
        {
          "internalType": "uint256",
          "name": "amount",
          "type": "uint256"
        }
      ],
      "name": "transferFrom",
      "outputs": [
        {
          "internalType": "bool",
          "name": "",
          "type": "bool"
        }
      ],
      "stateMutability": "nonpayable",
      "type": "function"
    },
    {
      "inputs": [],
      "name": "updateInflation",
      "outputs": [],
      "stateMutability": "nonpayable",
      "type": "function"
    },
    {
      "inputs": [
        {
          "internalType": "address",
          "name": "",
          "type": "address"
        }
      ],
      "name": "whitelistedAmount",
      "outputs": [
        {
          "internalType": "uint256",
          "name": "",
          "type": "uint256"
        }
      ],
      "stateMutability": "view",
      "type": "function"
    },
    {
      "inputs": [
        {
          "internalType": "uint256",
          "name": "_amount",
          "type": "uint256"
        }
      ],
      "name": "withdrawCollateral",
      "outputs": [],
      "stateMutability": "nonpayable",
      "type": "function"
    },
    {
      "inputs": [],
      "name": "withdrawToken",
      "outputs": [],
      "stateMutability": "nonpayable",
      "type": "function"
    }
  ],
  "transactionHash": "0x939a246976fb103a11b0c9ab46ffd625193ad2cc228c38ab01ee0ea623575bb4",
  "args": [
    "0x5FbDB2315678afecb367f032d93F642f64180aa3",
    "0xe7f1725E7734CE288F8367e1Bb143E90bb3F0512",
    1,
    1000000,
    "Note",
    "NTO",
    "105170917901244400",
    "0x9965507D1a55bcC2695C58ba16FB37d819B0A4dc",
    false
  ],
  "solcInputHash": "d7266476c16db94a1568479e5229eeaf",
  "bytecode": "0x608060405233600960006101000a81548173ffffffffffffffffffffffffffffffffffffffff021916908373ffffffffffffffffffffffffffffffffffffffff160217905550670de0b6b3a7640000600a556714d1120d7b160000600d55610e10600e556000600f55426011553480156200007957600080fd5b5060405162005b5938038062005b5983398181016040528101906200009f9190620006c4565b8484828b806000806101000a81548173ffffffffffffffffffffffffffffffffffffffff021916908373ffffffffffffffffffffffffffffffffffffffff160217905550508260069080519060200190620000fc92919062000546565b5081600790805190602001906200011592919062000546565b506012600860006101000a81548160ff021916908360ff16021790555080600360146101000a81548160ff02191690831515021790555033600360006101000a81548173ffffffffffffffffffffffffffffffffffffffff021916908373ffffffffffffffffffffffffffffffffffffffff16021790555050505082600081118015620001aa575068056bc75e2d6310000081105b620001ec576040517f08c379a0000000000000000000000000000000000000000000000000000000008152600401620001e390620008d1565b60405180910390fd5b87600b8190555088600860016101000a81548173ffffffffffffffffffffffffffffffffffffffff021916908373ffffffffffffffffffffffffffffffffffffffff16021790555086600c81905550600087118015620002545750670de0b6b3a76400008711155b62000296576040517f08c379a00000000000000000000000000000000000000000000000000000000081526004016200028d90620008d1565b60405180910390fd5b600073ffffffffffffffffffffffffffffffffffffffff168373ffffffffffffffffffffffffffffffffffffffff16141562000309576040517f08c379a00000000000000000000000000000000000000000000000000000000081526004016200030090620008af565b60405180910390fd5b82601260006101000a81548173ffffffffffffffffffffffffffffffffffffffff021916908373ffffffffffffffffffffffffffffffffffffffff1602179055506200035b846200037160201b60201c565b6010819055505050505050505050505062000d32565b6000620003d262000390670de0b6b3a7640000620003d960201b60201c565b620003c6620003a585620003d960201b60201c565b620003ba6301e13380620003f860201b60201c565b6200041f60201b60201c565b6200047360201b60201c565b9050919050565b6000620003f182633b9aca00620004d160201b60201c565b9050919050565b600062000418826b033b2e3c9fd0803ce8000000620004d160201b60201c565b9050919050565b6000816200045f62000444856b033b2e3c9fd0803ce8000000620004d160201b60201c565b600285620004539190620009c0565b6200047360201b60201c565b6200046b9190620009c0565b905092915050565b600082828462000484919062000963565b9150811015620004cb576040517f08c379a0000000000000000000000000000000000000000000000000000000008152600401620004c2906200088d565b60405180910390fd5b92915050565b600080821480620004fe575082828385620004ed9190620009f8565b925082620004fc9190620009c0565b145b62000540576040517f08c379a000000000000000000000000000000000000000000000000000000000815260040162000537906200086b565b60405180910390fd5b92915050565b828054620005549062000aed565b90600052602060002090601f016020900481019282620005785760008555620005c4565b82601f106200059357805160ff1916838001178555620005c4565b82800160010185558215620005c4579182015b82811115620005c3578251825591602001919060010190620005a6565b5b509050620005d39190620005d7565b5090565b5b80821115620005f2576000816000905550600101620005d8565b5090565b60006200060d62000607846200091c565b620008f3565b9050828152602081018484840111156200062657600080fd5b6200063384828562000ab7565b509392505050565b6000815190506200064c8162000cca565b92915050565b600081519050620006638162000ce4565b92915050565b6000815190506200067a8162000cfe565b92915050565b600082601f8301126200069257600080fd5b8151620006a4848260208601620005f6565b91505092915050565b600081519050620006be8162000d18565b92915050565b60008060008060008060008060006101208a8c031215620006e457600080fd5b6000620006f48c828d0162000652565b9950506020620007078c828d016200063b565b98505060406200071a8c828d01620006ad565b97505060606200072d8c828d01620006ad565b96505060808a015167ffffffffffffffff8111156200074b57600080fd5b620007598c828d0162000680565b95505060a08a015167ffffffffffffffff8111156200077757600080fd5b620007858c828d0162000680565b94505060c0620007988c828d01620006ad565b93505060e0620007ab8c828d016200063b565b925050610100620007bf8c828d0162000669565b9150509295985092959850929598565b6000620007de60148362000952565b9150620007eb8262000c26565b602082019050919050565b60006200080560148362000952565b9150620008128262000c4f565b602082019050919050565b60006200082c601b8362000952565b9150620008398262000c78565b602082019050919050565b600062000853601f8362000952565b9150620008608262000ca1565b602082019050919050565b600060208201905081810360008301526200088681620007cf565b9050919050565b60006020820190508181036000830152620008a881620007f6565b9050919050565b60006020820190508181036000830152620008ca816200081d565b9050919050565b60006020820190508181036000830152620008ec8162000844565b9050919050565b6000620008ff62000912565b90506200090d828262000b23565b919050565b6000604051905090565b600067ffffffffffffffff8211156200093a576200093962000be6565b5b620009458262000c15565b9050602081019050919050565b600082825260208201905092915050565b6000620009708262000aad565b91506200097d8362000aad565b9250827fffffffffffffffffffffffffffffffffffffffffffffffffffffffffffffffff03821115620009b557620009b462000b59565b5b828201905092915050565b6000620009cd8262000aad565b9150620009da8362000aad565b925082620009ed57620009ec62000b88565b5b828204905092915050565b600062000a058262000aad565b915062000a128362000aad565b9250817fffffffffffffffffffffffffffffffffffffffffffffffffffffffffffffffff048311821515161562000a4e5762000a4d62000b59565b5b828202905092915050565b600062000a668262000a8d565b9050919050565b600062000a7a8262000a8d565b9050919050565b60008115159050919050565b600073ffffffffffffffffffffffffffffffffffffffff82169050919050565b6000819050919050565b60005b8381101562000ad757808201518184015260208101905062000aba565b8381111562000ae7576000848401525b50505050565b6000600282049050600182168062000b0657607f821691505b6020821081141562000b1d5762000b1c62000bb7565b5b50919050565b62000b2e8262000c15565b810181811067ffffffffffffffff8211171562000b505762000b4f62000be6565b5b80604052505050565b7f4e487b7100000000000000000000000000000000000000000000000000000000600052601160045260246000fd5b7f4e487b7100000000000000000000000000000000000000000000000000000000600052601260045260246000fd5b7f4e487b7100000000000000000000000000000000000000000000000000000000600052602260045260246000fd5b7f4e487b7100000000000000000000000000000000000000000000000000000000600052604160045260246000fd5b6000601f19601f8301169050919050565b7f64732d6d6174682d6d756c2d6f766572666c6f77000000000000000000000000600082015250565b7f64732d6d6174682d6164642d6f766572666c6f77000000000000000000000000600082015250565b7f62656e69666963696172792061646472657373206e6f74207365740000000000600082015250565b7f76616c7565206e6f742077697468696e20616c6c6f776564206c696d69747300600082015250565b62000cd58162000a59565b811462000ce157600080fd5b50565b62000cef8162000a6d565b811462000cfb57600080fd5b50565b62000d098162000a81565b811462000d1557600080fd5b50565b62000d238162000aad565b811462000d2f57600080fd5b50565b614e178062000d426000396000f3fe608060405234801561001057600080fd5b506004361061025e5760003560e01c806370a0823111610146578063b4eae1cb116100c3578063c98c05b711610087578063c98c05b7146106cd578063ca628c78146106eb578063dd62ed3e146106f5578063e8d8a25514610725578063f06b465814610755578063f851a440146107715761025e565b8063b4eae1cb1461063d578063b8eb5e4b1461065b578063b93e0cb514610679578063b9d3d6e314610695578063bad4a01f146106b15761025e565b8063a140ae231161010a578063a140ae2314610587578063a457c2d7146105a3578063a8d49e64146105d3578063a9059cbb146105ef578063b2016bd41461061f5761025e565b806370a08231146104df5780637ff9b5961461050f5780638e8cfbde1461052d5780639014de631461054b57806395d89b41146105695761025e565b806339509351116101df57806359825a4c116101a357806359825a4c146104435780636112fe2e1461044d57806364494074146104695780636479a566146104875780636a146024146104a5578063704b6c02146104c35761025e565b8063395093511461039d578063401ce372146103cd57806348500ccf146103e9578063552033c4146104075780635891de72146104255761025e565b806323b872dd1161022657806323b872dd1461030957806328a070251461033957806329a150ba14610343578063313ce5671461036157806334a5e10b1461037f5761025e565b806306fdde031461026357806307da28b714610281578063095ea7b31461029d5780631527262b146102cd57806318160ddd146102eb575b600080fd5b61026b61078f565b604051610278919061400a565b60405180910390f35b61029b6004803603810190610296919061392a565b610821565b005b6102b760048036038101906102b2919061392a565b610932565b6040516102c49190613fd4565b60405180910390f35b6102d5610949565b6040516102e29190613e98565b60405180910390f35b6102f361096f565b60405161030091906143cc565b60405180910390f35b610323600480360381019061031e91906138db565b610979565b6040516103309190613fd4565b60405180910390f35b610341610a23565b005b61034b610df7565b60405161035891906143cc565b60405180910390f35b610369610dfd565b6040516103769190614410565b60405180910390f35b610387610e14565b6040516103949190613fd4565b60405180910390f35b6103b760048036038101906103b2919061392a565b610e27565b6040516103c49190613fd4565b60405180910390f35b6103e760048036038101906103e2919061398f565b610ec5565b005b6103f1610fef565b6040516103fe91906143cc565b60405180910390f35b61040f610ff5565b60405161041c91906143cc565b60405180910390f35b61042d611005565b60405161043a91906143cc565b60405180910390f35b61044b61108c565b005b6104676004803603810190610462919061398f565b611155565b005b610471611362565b60405161047e91906143cc565b60405180910390f35b61048f611368565b60405161049c91906143cc565b60405180910390f35b6104ad61136e565b6040516104ba91906143cc565b60405180910390f35b6104dd60048036038101906104d89190613876565b61137a565b005b6104f960048036038101906104f49190613876565b6114f5565b60405161050691906143cc565b60405180910390f35b61051761153e565b60405161052491906143cc565b60405180910390f35b610535611561565b60405161054291906143cc565b60405180910390f35b610553611567565b60405161056091906143cc565b60405180910390f35b61057161156d565b60405161057e919061400a565b60405180910390f35b6105a1600480360381019061059c91906139e1565b6115ff565b005b6105bd60048036038101906105b8919061392a565b61172b565b6040516105ca9190613fd4565b60405180910390f35b6105ed60048036038101906105e89190613876565b6117c9565b005b6106096004803603810190610604919061392a565b611944565b6040516106169190613fd4565b60405180910390f35b61062761195b565b6040516106349190613fef565b60405180910390f35b610645611981565b60405161065291906143cc565b60405180910390f35b610663611aca565b60405161067091906143cc565b60405180910390f35b610693600480360381019061068e919061398f565b611ad0565b005b6106af60048036038101906106aa919061398f565b611ba1565b005b6106cb60048036038101906106c6919061398f565b611d04565b005b6106d5611eca565b6040516106e291906143cc565b60405180910390f35b6106f3611f7c565b005b61070f600480360381019061070a919061389f565b6122b5565b60405161071c91906143cc565b60405180910390f35b61073f600480360381019061073a9190613876565b61233c565b60405161074c91906143cc565b60405180910390f35b61076f600480360381019061076a919061398f565b612354565b005b610779612492565b6040516107869190613e98565b60405180910390f35b60606006805461079e90614608565b80601f01602080910402602001604051908101604052809291908181526020018280546107ca90614608565b80156108175780601f106107ec57610100808354040283529160200191610817565b820191906000526020600020905b8154815290600101906020018083116107fa57829003601f168201915b5050505050905090565b600360009054906101000a900473ffffffffffffffffffffffffffffffffffffffff1673ffffffffffffffffffffffffffffffffffffffff163373ffffffffffffffffffffffffffffffffffffffff16146108b1576040517f08c379a00000000000000000000000000000000000000000000000000000000081526004016108a8906141ac565b60405180910390fd5b80600460008473ffffffffffffffffffffffffffffffffffffffff1673ffffffffffffffffffffffffffffffffffffffff168152602001908152602001600020819055507fc3837f973800685e86828b9ee70e448dee134a698f634c94be8e1f24359678738282604051610926929190613eea565b60405180910390a15050565b600061093f3384846124b8565b6001905092915050565b601260009054906101000a900473ffffffffffffffffffffffffffffffffffffffff1681565b6000600554905090565b6000610986848484612683565b610a18843384600260008973ffffffffffffffffffffffffffffffffffffffff1673ffffffffffffffffffffffffffffffffffffffff16815260200190815260200160002060003373ffffffffffffffffffffffffffffffffffffffff1673ffffffffffffffffffffffffffffffffffffffff16815260200190815260200160002054610a139190614528565b6124b8565b600190509392505050565b600d54610a2e611981565b11610a6e576040517f08c379a0000000000000000000000000000000000000000000000000000000008152600401610a659061406c565b60405180910390fd5b6000610a79336114f5565b11610ab9576040517f08c379a0000000000000000000000000000000000000000000000000000000008152600401610ab09061410c565b60405180910390fd5b6000610b76600860019054906101000a900473ffffffffffffffffffffffffffffffffffffffff1673ffffffffffffffffffffffffffffffffffffffff166370a08231306040518263ffffffff1660e01b8152600401610b199190613e98565b60206040518083038186803b158015610b3157600080fd5b505afa158015610b45573d6000803e3d6000fd5b505050506040513d601f19601f82011682018060405250810190610b6991906139b8565b610b7161096f565b612a8c565b90506000610b83336114f5565b90506000610b918284612ac8565b90506000610ba182600f54612ac8565b90507f158ba9ab7bbbd08eeffa4753bad41f4d450e24831d293427308badf3eadd8c7633848484604051610bd89493929190613f8f565b60405180910390a1610bea3384612b0c565b600860019054906101000a900473ffffffffffffffffffffffffffffffffffffffff1673ffffffffffffffffffffffffffffffffffffffff1663a9059cbb33610c338585612c88565b6040518363ffffffff1660e01b8152600401610c50929190613eea565b602060405180830381600087803b158015610c6a57600080fd5b505af1158015610c7e573d6000803e3d6000fd5b505050506040513d601f19601f82011682018060405250810190610ca29190613966565b610ce1576040517f08c379a0000000000000000000000000000000000000000000000000000000008152600401610cd89061434c565b60405180910390fd5b600860019054906101000a900473ffffffffffffffffffffffffffffffffffffffff1673ffffffffffffffffffffffffffffffffffffffff1663a9059cbb601260009054906101000a900473ffffffffffffffffffffffffffffffffffffffff16836040518363ffffffff1660e01b8152600401610d60929190613eea565b602060405180830381600087803b158015610d7a57600080fd5b505af1158015610d8e573d6000803e3d6000fd5b505050506040513d601f19601f82011682018060405250810190610db29190613966565b610df1576040517f08c379a0000000000000000000000000000000000000000000000000000000008152600401610de8906141ec565b60405180910390fd5b50505050565b600f5481565b6000600860009054906101000a900460ff16905090565b600360149054906101000a900460ff1681565b6000610ebb338484600260003373ffffffffffffffffffffffffffffffffffffffff1673ffffffffffffffffffffffffffffffffffffffff16815260200190815260200160002060008873ffffffffffffffffffffffffffffffffffffffff1673ffffffffffffffffffffffffffffffffffffffff16815260200190815260200160002054610eb69190614447565b6124b8565b6001905092915050565b600960009054906101000a900473ffffffffffffffffffffffffffffffffffffffff1673ffffffffffffffffffffffffffffffffffffffff163373ffffffffffffffffffffffffffffffffffffffff1614610f55576040517f08c379a0000000000000000000000000000000000000000000000000000000008152600401610f4c9061416c565b60405180910390fd5b80600081118015610f6e575068056bc75e2d6310000081105b610fad576040517f08c379a0000000000000000000000000000000000000000000000000000000008152600401610fa4906142ac565b60405180910390fd5b81600d819055507f28e98951093a92e2a12cfccced98a5e14ff4a69f23c1137a90353ea343a879d582604051610fe391906143cc565b60405180910390a15050565b600c5481565b6b033b2e3c9fd0803ce800000081565b6000806000611023600b54600e544261101e9190614528565b612ce1565b509150915081611068576040517f08c379a000000000000000000000000000000000000000000000000000000000815260040161105f9061420c565b60405180910390fd5b61108581611080670de0b6b3a7640000600c54612e9c565b612ee6565b9250505090565b60006011544261109c9190614528565b9050600081116110e1576040517f08c379a00000000000000000000000000000000000000000000000000000000081526004016110d89061418c565b60405180910390fd5b426011819055506110f7600a5460105483612f53565b600a81905550600061112361111661110d61096f565b60105485612f71565b61111e61096f565b612c88565b9050611151601260009054906101000a900473ffffffffffffffffffffffffffffffffffffffff1682612f8f565b5050565b600960009054906101000a900473ffffffffffffffffffffffffffffffffffffffff1673ffffffffffffffffffffffffffffffffffffffff163373ffffffffffffffffffffffffffffffffffffffff16146111e5576040517f08c379a00000000000000000000000000000000000000000000000000000000081526004016111dc9061416c565b60405180910390fd5b600860019054906101000a900473ffffffffffffffffffffffffffffffffffffffff1673ffffffffffffffffffffffffffffffffffffffff1663a9059cbb33836040518363ffffffff1660e01b8152600401611242929190613eea565b602060405180830381600087803b15801561125c57600080fd5b505af1158015611270573d6000803e3d6000fd5b505050506040513d601f19601f820116820180604052508101906112949190613966565b6112d3576040517f08c379a00000000000000000000000000000000000000000000000000000000081526004016112ca9061436c565b60405180910390fd5b60006112dd611981565b9050600d548110611323576040517f08c379a000000000000000000000000000000000000000000000000000000000815260040161131a9061408c565b60405180910390fd5b7f627a692d5a03ab34732c0d2aa319f3ecdebdc4528f383eabcb25441dc0a70cfb33838360405161135693929190613f58565b60405180910390a15050565b60105481565b600e5481565b670de0b6b3a764000081565b600960009054906101000a900473ffffffffffffffffffffffffffffffffffffffff1673ffffffffffffffffffffffffffffffffffffffff163373ffffffffffffffffffffffffffffffffffffffff161461140a576040517f08c379a00000000000000000000000000000000000000000000000000000000081526004016114019061416c565b60405180910390fd5b600073ffffffffffffffffffffffffffffffffffffffff168173ffffffffffffffffffffffffffffffffffffffff16141561147a576040517f08c379a0000000000000000000000000000000000000000000000000000000008152600401611471906143ac565b60405180910390fd5b80600960006101000a81548173ffffffffffffffffffffffffffffffffffffffff021916908373ffffffffffffffffffffffffffffffffffffffff1602179055507f71614071b88dee5e0b2ae578a9dd7b2ebbe9ae832ba419dc0242cd065a290b6c816040516114ea9190613e98565b60405180910390a150565b6000600160008373ffffffffffffffffffffffffffffffffffffffff1673ffffffffffffffffffffffffffffffffffffffff168152602001908152602001600020549050919050565b600061155c600a54601054601154426115579190614528565b612f53565b905090565b600d5481565b60115481565b60606007805461157c90614608565b80601f01602080910402602001604051908101604052809291908181526020018280546115a890614608565b80156115f55780601f106115ca576101008083540402835291602001916115f5565b820191906000526020600020905b8154815290600101906020018083116115d857829003601f168201915b5050505050905090565b600960009054906101000a900473ffffffffffffffffffffffffffffffffffffffff1673ffffffffffffffffffffffffffffffffffffffff163373ffffffffffffffffffffffffffffffffffffffff161461168f576040517f08c379a00000000000000000000000000000000000000000000000000000000081526004016116869061416c565b60405180910390fd5b6116998183612f8f565b60006116a3611981565b9050600d5481106116e9576040517f08c379a00000000000000000000000000000000000000000000000000000000081526004016116e09061408c565b60405180910390fd5b7f8aa79244595326e02b94ff370fec2bf34048b114fa3566a1928de6961944b6c43384848460405161171e9493929190613f13565b60405180910390a1505050565b60006117bf338484600260003373ffffffffffffffffffffffffffffffffffffffff1673ffffffffffffffffffffffffffffffffffffffff16815260200190815260200160002060008873ffffffffffffffffffffffffffffffffffffffff1673ffffffffffffffffffffffffffffffffffffffff168152602001908152602001600020546117ba9190614528565b6124b8565b6001905092915050565b600360009054906101000a900473ffffffffffffffffffffffffffffffffffffffff1673ffffffffffffffffffffffffffffffffffffffff163373ffffffffffffffffffffffffffffffffffffffff1614611859576040517f08c379a0000000000000000000000000000000000000000000000000000000008152600401611850906141ac565b60405180910390fd5b600073ffffffffffffffffffffffffffffffffffffffff168173ffffffffffffffffffffffffffffffffffffffff1614156118c9576040517f08c379a00000000000000000000000000000000000000000000000000000000081526004016118c0906143ac565b60405180910390fd5b80600360006101000a81548173ffffffffffffffffffffffffffffffffffffffff021916908373ffffffffffffffffffffffffffffffffffffffff1602179055507f68e2d4cfa0a40c3abfa7153a966c187b03e893a7e358a5cd4de067e7e3da5240816040516119399190613e98565b60405180910390a150565b6000611951338484612683565b6001905092915050565b600860019054906101000a900473ffffffffffffffffffffffffffffffffffffffff1681565b600080600860019054906101000a900473ffffffffffffffffffffffffffffffffffffffff1673ffffffffffffffffffffffffffffffffffffffff166370a08231306040518263ffffffff1660e01b81526004016119df9190613e98565b60206040518083038186803b1580156119f757600080fd5b505afa158015611a0b573d6000803e3d6000fd5b505050506040513d601f19601f82011682018060405250810190611a2f91906139b8565b90506000611a3b61096f565b1480611a475750600081145b15611a56576000915050611ac7565b6000611a69611a63611005565b83612ac8565b90506000611a8e611a7861096f565b60105460115442611a899190614528565b612f71565b90506000611aa3611a9d61153e565b83612ac8565b9050611ac0670de0b6b3a7640000611abb8386612a8c565b61310b565b9450505050505b90565b600b5481565b600960009054906101000a900473ffffffffffffffffffffffffffffffffffffffff1673ffffffffffffffffffffffffffffffffffffffff163373ffffffffffffffffffffffffffffffffffffffff1614611b60576040517f08c379a0000000000000000000000000000000000000000000000000000000008152600401611b579061416c565b60405180910390fd5b80600e819055507ff446a856a251d3949a294b9b5a1887d32750b34a18bb135814cfc300119ca84d81604051611b9691906143cc565b60405180910390a150565b60008111611be4576040517f08c379a0000000000000000000000000000000000000000000000000000000008152600401611bdb906142ec565b60405180910390fd5b80611bee336114f5565b1015611c2f576040517f08c379a0000000000000000000000000000000000000000000000000000000008152600401611c269061414c565b60405180910390fd5b42601360003373ffffffffffffffffffffffffffffffffffffffff1673ffffffffffffffffffffffffffffffffffffffff1681526020019081526020016000206001018190555080601360003373ffffffffffffffffffffffffffffffffffffffff1673ffffffffffffffffffffffffffffffffffffffff16815260200190815260200160002060000181905550611cc8333083612683565b7f775018a2778ce1872c0e8479c44904756ec55daa3afe7fc35951cea8ef67126b3382604051611cf9929190613eea565b60405180910390a150565b600960009054906101000a900473ffffffffffffffffffffffffffffffffffffffff1673ffffffffffffffffffffffffffffffffffffffff163373ffffffffffffffffffffffffffffffffffffffff1614611d94576040517f08c379a0000000000000000000000000000000000000000000000000000000008152600401611d8b9061416c565b60405180910390fd5b60008111611dd7576040517f08c379a0000000000000000000000000000000000000000000000000000000008152600401611dce9061422c565b60405180910390fd5b600860019054906101000a900473ffffffffffffffffffffffffffffffffffffffff1673ffffffffffffffffffffffffffffffffffffffff166323b872dd3330846040518463ffffffff1660e01b8152600401611e3693929190613eb3565b602060405180830381600087803b158015611e5057600080fd5b505af1158015611e64573d6000803e3d6000fd5b505050506040513d601f19601f82011682018060405250810190611e889190613966565b611ec7576040517f08c379a0000000000000000000000000000000000000000000000000000000008152600401611ebe9061424c565b60405180910390fd5b50565b6000600860019054906101000a900473ffffffffffffffffffffffffffffffffffffffff1673ffffffffffffffffffffffffffffffffffffffff166370a08231306040518263ffffffff1660e01b8152600401611f279190613e98565b60206040518083038186803b158015611f3f57600080fd5b505afa158015611f53573d6000803e3d6000fd5b505050506040513d601f19601f82011682018060405250810190611f7791906139b8565b905090565b6000601360003373ffffffffffffffffffffffffffffffffffffffff1673ffffffffffffffffffffffffffffffffffffffff1681526020019081526020016000206040518060400160405290816000820154815260200160018201548152505090506000601360003373ffffffffffffffffffffffffffffffffffffffff1673ffffffffffffffffffffffffffffffffffffffff16815260200190815260200160002060000154905060008111612068576040517f08c379a000000000000000000000000000000000000000000000000000000000815260040161205f906142ec565b60405180910390fd5b6000600561207461096f565b83606461208191906144ce565b61208b919061449d565b612095919061449d565b60016120a19190614447565b905080620151806120b291906144ce565b8360200151426120c29190614528565b1015612103576040517f08c379a00000000000000000000000000000000000000000000000000000000081526004016120fa906141cc565b60405180910390fd5b6000601360003373ffffffffffffffffffffffffffffffffffffffff1673ffffffffffffffffffffffffffffffffffffffff168152602001908152602001600020600001819055506000612155611005565b9050600061216a61216461153e565b83612a8c565b905060006121788286612ac8565b90506121843086612b0c565b600860019054906101000a900473ffffffffffffffffffffffffffffffffffffffff1673ffffffffffffffffffffffffffffffffffffffff1663a9059cbb33836040518363ffffffff1660e01b81526004016121e1929190613eea565b602060405180830381600087803b1580156121fb57600080fd5b505af115801561220f573d6000803e3d6000fd5b505050506040513d601f19601f820116820180604052508101906122339190613966565b612272576040517f08c379a0000000000000000000000000000000000000000000000000000000008152600401612269906140ec565b60405180910390fd5b7f7575c9e41ba6d91ef21e39bd62b5b9df62fc9b0401379fdf9fe1fa372f41e7c13386836040516122a593929190613f58565b60405180910390a1505050505050565b6000600260008473ffffffffffffffffffffffffffffffffffffffff1673ffffffffffffffffffffffffffffffffffffffff16815260200190815260200160002060008373ffffffffffffffffffffffffffffffffffffffff1673ffffffffffffffffffffffffffffffffffffffff16815260200190815260200160002054905092915050565b60046020528060005260406000206000915090505481565b600960009054906101000a900473ffffffffffffffffffffffffffffffffffffffff1673ffffffffffffffffffffffffffffffffffffffff163373ffffffffffffffffffffffffffffffffffffffff16146123e4576040517f08c379a00000000000000000000000000000000000000000000000000000000081526004016123db9061416c565b60405180910390fd5b806000811180156123fd575068056bc75e2d6310000081105b61243c576040517f08c379a0000000000000000000000000000000000000000000000000000000008152600401612433906142ac565b60405180910390fd5b61244f8268056bc75e2d63100000612a8c565b600f819055507fb410b9fb1c7ee253f64b4393c5fa78a4d64c9f4495828b8c9e62813a5c53528d600f5460405161248691906143cc565b60405180910390a15050565b600960009054906101000a900473ffffffffffffffffffffffffffffffffffffffff1681565b600073ffffffffffffffffffffffffffffffffffffffff168373ffffffffffffffffffffffffffffffffffffffff161415612528576040517f08c379a000000000000000000000000000000000000000000000000000000000815260040161251f9061430c565b60405180910390fd5b600073ffffffffffffffffffffffffffffffffffffffff168273ffffffffffffffffffffffffffffffffffffffff161415612598576040517f08c379a000000000000000000000000000000000000000000000000000000000815260040161258f906140ac565b60405180910390fd5b80600260008573ffffffffffffffffffffffffffffffffffffffff1673ffffffffffffffffffffffffffffffffffffffff16815260200190815260200160002060008473ffffffffffffffffffffffffffffffffffffffff1673ffffffffffffffffffffffffffffffffffffffff168152602001908152602001600020819055508173ffffffffffffffffffffffffffffffffffffffff168373ffffffffffffffffffffffffffffffffffffffff167f8c5be1e5ebec7d5bd14f71427d1e84f3dd0314c0f7b2291e5b200ac8c7c3b9258360405161267691906143cc565b60405180910390a3505050565b600073ffffffffffffffffffffffffffffffffffffffff168373ffffffffffffffffffffffffffffffffffffffff1614156126f3576040517f08c379a00000000000000000000000000000000000000000000000000000000081526004016126ea906142cc565b60405180910390fd5b600073ffffffffffffffffffffffffffffffffffffffff168273ffffffffffffffffffffffffffffffffffffffff161415612763576040517f08c379a000000000000000000000000000000000000000000000000000000000815260040161275a9061404c565b60405180910390fd5b600360149054906101000a900460ff161561290657600460008373ffffffffffffffffffffffffffffffffffffffff1673ffffffffffffffffffffffffffffffffffffffff1681526020019081526020016000205481600160008573ffffffffffffffffffffffffffffffffffffffff1673ffffffffffffffffffffffffffffffffffffffff168152602001908152602001600020546128039190614447565b1115612844576040517f08c379a000000000000000000000000000000000000000000000000000000000815260040161283b9061426c565b60405180910390fd5b600460008473ffffffffffffffffffffffffffffffffffffffff1673ffffffffffffffffffffffffffffffffffffffff16815260200190815260200160002054600160008573ffffffffffffffffffffffffffffffffffffffff1673ffffffffffffffffffffffffffffffffffffffff168152602001908152602001600020541115612905576040517f08c379a00000000000000000000000000000000000000000000000000000000081526004016128fc9061432c565b60405180910390fd5b5b80600160008573ffffffffffffffffffffffffffffffffffffffff1673ffffffffffffffffffffffffffffffffffffffff168152602001908152602001600020546129519190614528565b600160008573ffffffffffffffffffffffffffffffffffffffff1673ffffffffffffffffffffffffffffffffffffffff1681526020019081526020016000208190555080600160008473ffffffffffffffffffffffffffffffffffffffff1673ffffffffffffffffffffffffffffffffffffffff168152602001908152602001600020546129df9190614447565b600160008473ffffffffffffffffffffffffffffffffffffffff1673ffffffffffffffffffffffffffffffffffffffff168152602001908152602001600020819055508173ffffffffffffffffffffffffffffffffffffffff168373ffffffffffffffffffffffffffffffffffffffff167fddf252ad1be2c89b69c2b068fc378daa952ba7f163c4a11628f55a4df523b3ef83604051612a7f91906143cc565b60405180910390a3505050565b600081612ab6612aa485670de0b6b3a7640000612ee6565b600285612ab1919061449d565b61310b565b612ac0919061449d565b905092915050565b6000670de0b6b3a7640000612afa612ae08585612ee6565b6002670de0b6b3a7640000612af5919061449d565b61310b565b612b04919061449d565b905092915050565b600073ffffffffffffffffffffffffffffffffffffffff168273ffffffffffffffffffffffffffffffffffffffff161415612b7c576040517f08c379a0000000000000000000000000000000000000000000000000000000008152600401612b739061428c565b60405180910390fd5b80600160008473ffffffffffffffffffffffffffffffffffffffff1673ffffffffffffffffffffffffffffffffffffffff16815260200190815260200160002054612bc79190614528565b600160008473ffffffffffffffffffffffffffffffffffffffff1673ffffffffffffffffffffffffffffffffffffffff1681526020019081526020016000208190555080600554612c189190614528565b600581905550600073ffffffffffffffffffffffffffffffffffffffff168273ffffffffffffffffffffffffffffffffffffffff167fddf252ad1be2c89b69c2b068fc378daa952ba7f163c4a11628f55a4df523b3ef83604051612c7c91906143cc565b60405180910390a35050565b6000828284612c979190614528565b9150811115612cdb576040517f08c379a0000000000000000000000000000000000000000000000000000000008152600401612cd29061402c565b60405180910390fd5b92915050565b6000806000806000612cf38787613164565b9150915081612d0e5760008060009450945094505050612e95565b60008060009054906101000a900473ffffffffffffffffffffffffffffffffffffffff1673ffffffffffffffffffffffffffffffffffffffff166377fbb66389846040518363ffffffff1660e01b8152600401612d6c9291906143e7565b60206040518083038186803b158015612d8457600080fd5b505afa158015612d98573d6000803e3d6000fd5b505050506040513d601f19601f82011682018060405250810190612dbc91906139b8565b905060008054906101000a900473ffffffffffffffffffffffffffffffffffffffff1673ffffffffffffffffffffffffffffffffffffffff166393fa491589836040518363ffffffff1660e01b8152600401612e199291906143e7565b60206040518083038186803b158015612e3157600080fd5b505afa158015612e45573d6000803e3d6000fd5b505050506040513d601f19601f82011682018060405250810190612e6991906139b8565b94506000851115612e865760018582955095509550505050612e95565b60008060009550955095505050505b9250925092565b6000612ede83836040518060400160405280601a81526020017f536166654d6174683a206469766973696f6e206279207a65726f0000000000008152506136a8565b905092915050565b600080821480612f0e575082828385612eff91906144ce565b925082612f0c919061449d565b145b612f4d576040517f08c379a0000000000000000000000000000000000000000000000000000000008152600401612f44906140cc565b60405180910390fd5b92915050565b6000612f6884612f63858561370b565b613796565b90509392505050565b6000612f8684612f81858561370b565b6137d6565b90509392505050565b600073ffffffffffffffffffffffffffffffffffffffff168273ffffffffffffffffffffffffffffffffffffffff161415612fff576040517f08c379a0000000000000000000000000000000000000000000000000000000008152600401612ff69061438c565b60405180910390fd5b8060055461300d9190614447565b60058190555080600160008473ffffffffffffffffffffffffffffffffffffffff1673ffffffffffffffffffffffffffffffffffffffff1681526020019081526020016000205461305e9190614447565b600160008473ffffffffffffffffffffffffffffffffffffffff1673ffffffffffffffffffffffffffffffffffffffff168152602001908152602001600020819055508173ffffffffffffffffffffffffffffffffffffffff16600073ffffffffffffffffffffffffffffffffffffffff167fddf252ad1be2c89b69c2b068fc378daa952ba7f163c4a11628f55a4df523b3ef836040516130ff91906143cc565b60405180910390a35050565b600082828461311a9190614447565b915081101561315e576040517f08c379a00000000000000000000000000000000000000000000000000000000081526004016131559061412c565b60405180910390fd5b92915050565b60008060008060009054906101000a900473ffffffffffffffffffffffffffffffffffffffff1673ffffffffffffffffffffffffffffffffffffffff166346eee1c4866040518263ffffffff1660e01b81526004016131c391906143cc565b60206040518083038186803b1580156131db57600080fd5b505afa1580156131ef573d6000803e3d6000fd5b505050506040513d601f19601f8201168201806040525081019061321391906139b8565b90506000811115613698576000806000905060006001846132349190614528565b905060008060009054906101000a900473ffffffffffffffffffffffffffffffffffffffff1673ffffffffffffffffffffffffffffffffffffffff166377fbb6638a856040518363ffffffff1660e01b81526004016132949291906143e7565b60206040518083038186803b1580156132ac57600080fd5b505afa1580156132c0573d6000803e3d6000fd5b505050506040513d601f19601f820116820180604052508101906132e491906139b8565b90508781106132fe576000809650965050505050506136a1565b60008054906101000a900473ffffffffffffffffffffffffffffffffffffffff1673ffffffffffffffffffffffffffffffffffffffff166377fbb6638a846040518363ffffffff1660e01b81526004016133599291906143e7565b60206040518083038186803b15801561337157600080fd5b505afa158015613385573d6000803e3d6000fd5b505050506040513d601f19601f820116820180604052508101906133a991906139b8565b9050878110156133c4576001829650965050505050506136a1565b5b60011561369357826001600285856133dd9190614528565b6133e7919061449d565b6133f19190614447565b6133fb9190614447565b935060008054906101000a900473ffffffffffffffffffffffffffffffffffffffff1673ffffffffffffffffffffffffffffffffffffffff166377fbb6638a866040518363ffffffff1660e01b81526004016134589291906143e7565b60206040518083038186803b15801561347057600080fd5b505afa158015613484573d6000803e3d6000fd5b505050506040513d601f19601f820116820180604052508101906134a891906139b8565b90508781101561359c5760008060009054906101000a900473ffffffffffffffffffffffffffffffffffffffff1673ffffffffffffffffffffffffffffffffffffffff166377fbb6638b6001886134ff9190614447565b6040518363ffffffff1660e01b815260040161351c9291906143e7565b60206040518083038186803b15801561353457600080fd5b505afa158015613548573d6000803e3d6000fd5b505050506040513d601f19601f8201168201806040525081019061356c91906139b8565b905088811061358757600185975097505050505050506136a1565b6001856135949190614447565b93505061368e565b60008060009054906101000a900473ffffffffffffffffffffffffffffffffffffffff1673ffffffffffffffffffffffffffffffffffffffff166377fbb6638b6001886135e99190614528565b6040518363ffffffff1660e01b81526004016136069291906143e7565b60206040518083038186803b15801561361e57600080fd5b505afa158015613632573d6000803e3d6000fd5b505050506040513d601f19601f8201168201806040525081019061365691906139b8565b90508881101561367d576001808661366e9190614528565b975097505050505050506136a1565b60018561368a9190614528565b9250505b6133c5565b505050505b60008092509250505b9250929050565b600080831182906136ef576040517f08c379a00000000000000000000000000000000000000000000000000000000081526004016136e6919061400a565b60405180910390fd5b50600083856136fe919061449d565b9050809150509392505050565b60008060028361371b919061463a565b1415613733576b033b2e3c9fd0803ce8000000613735565b825b9050600282613744919061449d565b91505b600082146137905761375983846137d6565b9250600060028361376a919061463a565b1461377c5761377981846137d6565b90505b600282613789919061449d565b9150613747565b92915050565b6000816137c46137b2856b033b2e3c9fd0803ce8000000612ee6565b6002856137bf919061449d565b61310b565b6137ce919061449d565b905092915050565b60006b033b2e3c9fd0803ce80000006138106137f28585612ee6565b60026b033b2e3c9fd0803ce800000061380b919061449d565b61310b565b61381a919061449d565b905092915050565b60008135905061383181614d9c565b92915050565b60008151905061384681614db3565b92915050565b60008135905061385b81614dca565b92915050565b60008151905061387081614dca565b92915050565b60006020828403121561388857600080fd5b600061389684828501613822565b91505092915050565b600080604083850312156138b257600080fd5b60006138c085828601613822565b92505060206138d185828601613822565b9150509250929050565b6000806000606084860312156138f057600080fd5b60006138fe86828701613822565b935050602061390f86828701613822565b92505060406139208682870161384c565b9150509250925092565b6000806040838503121561393d57600080fd5b600061394b85828601613822565b925050602061395c8582860161384c565b9150509250929050565b60006020828403121561397857600080fd5b600061398684828501613837565b91505092915050565b6000602082840312156139a157600080fd5b60006139af8482850161384c565b91505092915050565b6000602082840312156139ca57600080fd5b60006139d884828501613861565b91505092915050565b600080604083850312156139f457600080fd5b6000613a028582860161384c565b9250506020613a1385828601613822565b9150509250929050565b613a268161455c565b82525050565b613a358161456e565b82525050565b613a44816145b1565b82525050565b6000613a558261442b565b613a5f8185614436565b9350613a6f8185602086016145d5565b613a78816146f8565b840191505092915050565b6000613a90601583614436565b9150613a9b82614709565b602082019050919050565b6000613ab3602383614436565b9150613abe82614732565b604082019050919050565b6000613ad6602983614436565b9150613ae182614781565b604082019050919050565b6000613af9602a83614436565b9150613b04826147d0565b604082019050919050565b6000613b1c602283614436565b9150613b278261481f565b604082019050919050565b6000613b3f601483614436565b9150613b4a8261486e565b602082019050919050565b6000613b62601883614436565b9150613b6d82614897565b602082019050919050565b6000613b85602183614436565b9150613b90826148c0565b604082019050919050565b6000613ba8601483614436565b9150613bb38261490f565b602082019050919050565b6000613bcb601283614436565b9150613bd682614938565b602082019050919050565b6000613bee600c83614436565b9150613bf982614961565b602082019050919050565b6000613c11601983614436565b9150613c1c8261498a565b602082019050919050565b6000613c34601783614436565b9150613c3f826149b3565b602082019050919050565b6000613c57601583614436565b9150613c62826149dc565b602082019050919050565b6000613c7a602d83614436565b9150613c8582614a05565b604082019050919050565b6000613c9d601483614436565b9150613ca882614a54565b602082019050919050565b6000613cc0601083614436565b9150613ccb82614a7d565b602082019050919050565b6000613ce3602283614436565b9150613cee82614aa6565b604082019050919050565b6000613d06602483614436565b9150613d1182614af5565b604082019050919050565b6000613d29602183614436565b9150613d3482614b44565b604082019050919050565b6000613d4c601f83614436565b9150613d5782614b93565b602082019050919050565b6000613d6f602583614436565b9150613d7a82614bbc565b604082019050919050565b6000613d92601f83614436565b9150613d9d82614c0b565b602082019050919050565b6000613db5602483614436565b9150613dc082614c34565b604082019050919050565b6000613dd8602183614436565b9150613de382614c83565b604082019050919050565b6000613dfb602583614436565b9150613e0682614cd2565b604082019050919050565b6000613e1e601983614436565b9150613e2982614d21565b602082019050919050565b6000613e41601f83614436565b9150613e4c82614d4a565b602082019050919050565b6000613e64601f83614436565b9150613e6f82614d73565b602082019050919050565b613e838161459a565b82525050565b613e92816145a4565b82525050565b6000602082019050613ead6000830184613a1d565b92915050565b6000606082019050613ec86000830186613a1d565b613ed56020830185613a1d565b613ee26040830184613e7a565b949350505050565b6000604082019050613eff6000830185613a1d565b613f0c6020830184613e7a565b9392505050565b6000608082019050613f286000830187613a1d565b613f356020830186613e7a565b613f426040830185613a1d565b613f4f6060830184613e7a565b95945050505050565b6000606082019050613f6d6000830186613a1d565b613f7a6020830185613e7a565b613f876040830184613e7a565b949350505050565b6000608082019050613fa46000830187613a1d565b613fb16020830186613e7a565b613fbe6040830185613e7a565b613fcb6060830184613e7a565b95945050505050565b6000602082019050613fe96000830184613a2c565b92915050565b60006020820190506140046000830184613a3b565b92915050565b600060208201905081810360008301526140248184613a4a565b905092915050565b6000602082019050818103600083015261404581613a83565b9050919050565b6000602082019050818103600083015261406581613aa6565b9050919050565b6000602082019050818103600083015261408581613ac9565b9050919050565b600060208201905081810360008301526140a581613aec565b9050919050565b600060208201905081810360008301526140c581613b0f565b9050919050565b600060208201905081810360008301526140e581613b32565b9050919050565b6000602082019050818103600083015261410581613b55565b9050919050565b6000602082019050818103600083015261412581613b78565b9050919050565b6000602082019050818103600083015261414581613b9b565b9050919050565b6000602082019050818103600083015261416581613bbe565b9050919050565b6000602082019050818103600083015261418581613be1565b9050919050565b600060208201905081810360008301526141a581613c04565b9050919050565b600060208201905081810360008301526141c581613c27565b9050919050565b600060208201905081810360008301526141e581613c4a565b9050919050565b6000602082019050818103600083015261420581613c6d565b9050919050565b6000602082019050818103600083015261422581613c90565b9050919050565b6000602082019050818103600083015261424581613cb3565b9050919050565b6000602082019050818103600083015261426581613cd6565b9050919050565b6000602082019050818103600083015261428581613cf9565b9050919050565b600060208201905081810360008301526142a581613d1c565b9050919050565b600060208201905081810360008301526142c581613d3f565b9050919050565b600060208201905081810360008301526142e581613d62565b9050919050565b6000602082019050818103600083015261430581613d85565b9050919050565b6000602082019050818103600083015261432581613da8565b9050919050565b6000602082019050818103600083015261434581613dcb565b9050919050565b6000602082019050818103600083015261436581613dee565b9050919050565b6000602082019050818103600083015261438581613e11565b9050919050565b600060208201905081810360008301526143a581613e34565b9050919050565b600060208201905081810360008301526143c581613e57565b9050919050565b60006020820190506143e16000830184613e7a565b92915050565b60006040820190506143fc6000830185613e7a565b6144096020830184613e7a565b9392505050565b60006020820190506144256000830184613e89565b92915050565b600081519050919050565b600082825260208201905092915050565b60006144528261459a565b915061445d8361459a565b9250827fffffffffffffffffffffffffffffffffffffffffffffffffffffffffffffffff038211156144925761449161466b565b5b828201905092915050565b60006144a88261459a565b91506144b38361459a565b9250826144c3576144c261469a565b5b828204905092915050565b60006144d98261459a565b91506144e48361459a565b9250817fffffffffffffffffffffffffffffffffffffffffffffffffffffffffffffffff048311821515161561451d5761451c61466b565b5b828202905092915050565b60006145338261459a565b915061453e8361459a565b9250828210156145515761455061466b565b5b828203905092915050565b60006145678261457a565b9050919050565b60008115159050919050565b600073ffffffffffffffffffffffffffffffffffffffff82169050919050565b6000819050919050565b600060ff82169050919050565b60006145bc826145c3565b9050919050565b60006145ce8261457a565b9050919050565b60005b838110156145f35780820151818401526020810190506145d8565b83811115614602576000848401525b50505050565b6000600282049050600182168061462057607f821691505b60208210811415614634576146336146c9565b5b50919050565b60006146458261459a565b91506146508361459a565b9250826146605761465f61469a565b5b828206905092915050565b7f4e487b7100000000000000000000000000000000000000000000000000000000600052601160045260246000fd5b7f4e487b7100000000000000000000000000000000000000000000000000000000600052601260045260246000fd5b7f4e487b7100000000000000000000000000000000000000000000000000000000600052602260045260246000fd5b6000601f19601f8301169050919050565b7f64732d6d6174682d7375622d756e646572666c6f770000000000000000000000600082015250565b7f45524332303a207472616e7366657220746f20746865207a65726f206164647260008201527f6573730000000000000000000000000000000000000000000000000000000000602082015250565b7f636f6c6c61746572616c207574696c697a61746f696e2069732062656c6f772060008201527f7468726573686f6c640000000000000000000000000000000000000000000000602082015250565b7f636f6c6c61746572616c207574696c697a6174696f6e2061626f76652074686560008201527f207468726573686f6c6400000000000000000000000000000000000000000000602082015250565b7f45524332303a20617070726f766520746f20746865207a65726f20616464726560008201527f7373000000000000000000000000000000000000000000000000000000000000602082015250565b7f64732d6d6174682d6d756c2d6f766572666c6f77000000000000000000000000600082015250565b7f636f6c6c61746572616c207472616e73666572206661696c0000000000000000600082015250565b7f6d73672073656e64657220646f65736e2774206f776e20616e7920746f6b656e60008201527f7300000000000000000000000000000000000000000000000000000000000000602082015250565b7f64732d6d6174682d6164642d6f766572666c6f77000000000000000000000000600082015250565b7f6e6f7420656e6f7567682062616c616e63650000000000000000000000000000600082015250565b7f6e6f7420616e2061646d696e0000000000000000000000000000000000000000600082015250565b7f6e6f20696e666c6174696f6e20696e6372656173652079657400000000000000600082015250565b7f6e6f74207468652077686974656c6973742061646d696e000000000000000000600082015250565b7f6d757374207761697420746f2077697468647261770000000000000000000000600082015250565b7f636f6c6c61746572616c206c69717569646174696f6e2070656e616c7479207460008201527f72616e73666572206661696c7300000000000000000000000000000000000000602082015250565b7f67657474696e67206f7261636c65207072696365000000000000000000000000600082015250565b7f6465706f73697420616d6f756e74203000000000000000000000000000000000600082015250565b7f6661696c656420636f6c6c61746572616c206465706f736974207472616e736660008201527f6572000000000000000000000000000000000000000000000000000000000000602082015250565b7f726563697069656e74206e6f742077686974656c697374656420666f7220616d60008201527f6f756e7400000000000000000000000000000000000000000000000000000000602082015250565b7f45524332303a206275726e2066726f6d20746865207a65726f2061646472657360008201527f7300000000000000000000000000000000000000000000000000000000000000602082015250565b7f76616c7565206e6f742077697468696e20616c6c6f776564206c696d69747300600082015250565b7f45524332303a207472616e736665722066726f6d20746865207a65726f20616460008201527f6472657373000000000000000000000000000000000000000000000000000000602082015250565b7f616d6f756e742073686f756c642062652067726561746572207468616e203000600082015250565b7f45524332303a20617070726f76652066726f6d20746865207a65726f2061646460008201527f7265737300000000000000000000000000000000000000000000000000000000602082015250565b7f73656e646572206e6f742077686974656c697374656420666f7220616d6f756e60008201527f7400000000000000000000000000000000000000000000000000000000000000602082015250565b7f636f6c6c61746572616c206c69717569646174696f6e207472616e736665722060008201527f6661696c73000000000000000000000000000000000000000000000000000000602082015250565b7f636f6c6c61746572616c207472616e73666572206661696c7300000000000000600082015250565b7f45524332303a206d696e7420746f20746865207a65726f206164647265737300600082015250565b7f63616e6e6f742073656e6420746f20746865207a65726f206164647265737300600082015250565b614da58161455c565b8114614db057600080fd5b50565b614dbc8161456e565b8114614dc757600080fd5b50565b614dd38161459a565b8114614dde57600080fd5b5056fea2646970667358221220399d5630736fa6cb3c361863cd67b026c7f5e57495de72963a3748e9ca89d96364736f6c63430008030033",
  "devdoc": {
    "author": "Tellor Inc.",
    "details": "Chorus is a structure for issuing semi-stablecoins as community currencies*",
    "kind": "dev",
    "methods": {
      "allowance(address,address)": {
        "details": "See {IERC20-allowance}."
      },
      "approve(address,uint256)": {
        "details": "See {IERC20-approve}. Requirements: - `spender` cannot be the zero address."
      },
      "balanceOf(address)": {
        "details": "See {IERC20-balanceOf}."
      },
      "collateralBalance()": {
        "details": "Returns the current token price in USD reduced by the current inflation.",
        "returns": {
          "_0": "uint256 token price"
        }
      },
      "collateralPrice()": {
        "details": "Checks the Tellor oracle and gets the collateral price",
        "returns": {
          "_0": "uint256 collateral price in USD upscaled to e18 precision."
        }
      },
      "collateralRatio()": {
        "details": "A view funciton to look at the collateralization of the system",
        "returns": {
          "_0": "uint256 collateral token balance of this address / totalSupply"
        }
      },
      "constructor": {
        "details": "This is the constructor, sets the inital paramaters in the system The parameters include, the Tellor Address, collateral token's address, collateral token's requestID, the price granualrity, the token name,  token's symbol, inflation rate per year, and the inflation beneficiary "
      },
      "decimals()": {
        "details": "Returns the number of decimals used to get its user representation."
      },
      "decreaseAllowance(address,uint256)": {
        "details": "Atomically decreases the allowance granted to `spender` by the caller. This is an alternative to {approve} that can be used as a mitigation for problems described in {IERC20-approve}. Emits an {Approval} event indicating the updated allowance. Requirements: - `spender` cannot be the zero address. - `spender` must have allowance for the caller of at least `subtractedValue`."
      },
      "depositCollateral(uint256)": {
        "details": "Allows the admin to deposit collateral",
        "params": {
          "_amount": "the amount of collateral token to deposit"
        }
      },
      "increaseAllowance(address,uint256)": {
        "details": "Atomically increases the allowance granted to `spender` by the caller. This is an alternative to {approve} that can be used as a mitigation for problems described in {IERC20-approve}. Emits an {Approval} event indicating the updated allowance. Requirements: - `spender` cannot be the zero address."
      },
      "liquidate()": {
        "details": "Function to allow anyone to liquidate the system if it is undercollateralized"
      },
      "mintToken(uint256,address)": {
        "details": "Allows the admin to mint tokens up to the collateral threshold",
        "params": {
          "_amount": "the amount of collateral tokens to mint",
          "_to": "the address to mint them to;"
        }
      },
      "name()": {
        "details": "Returns the name of the token."
      },
      "requestWithdrawToken(uint256)": {
        "details": "Allows a user to request to withdraw tokens",
        "params": {
          "_amount": "the amount of tokens to withdraw"
        }
      },
      "setAdmin(address)": {
        "details": "Allows the user to set a new admin address",
        "params": {
          "_newAdmin": "the address of the new admin address"
        }
      },
      "setCollateralPriceAge(uint256)": {
        "details": "Allows the admin to set the collateral price Age (delay in feed from Tellor)",
        "params": {
          "_amount": "the amount of delay in the price feed (we want to wait for disputes)"
        }
      },
      "setCollateralThreshold(uint256)": {
        "details": "Allows the admin to set the Collateral threshold",
        "params": {
          "_amount": "new collateral threshold"
        }
      },
      "setLiquidationPenatly(uint256)": {
        "details": "Allows the admin to set the liquidation penalty",
        "params": {
          "_amount": "the amount of the liquidation penalty"
        }
      },
      "setWhitelistAdmin(address)": {
        "details": "Allows the user to set a new admin address",
        "params": {
          "_newAdmin": "the address of the new admin address"
        }
      },
      "symbol()": {
        "details": "Returns the symbol of the token, usually a shorter version of the name."
      },
      "tokenPrice()": {
        "details": "Returns the current token price in USD reduced by the current inflation.",
        "returns": {
          "_0": "uint256 token price"
        }
      },
      "totalSupply()": {
        "details": "See {IERC20-totalSupply}."
      },
      "transfer(address,uint256)": {
        "details": "See {IERC20-transfer}. Requirements: - `recipient` cannot be the zero address. - the caller must have a balance of at least `amount`."
      },
      "transferFrom(address,address,uint256)": {
        "details": "See {IERC20-transferFrom}. Emits an {Approval} event indicating the updated allowance. This is not required by the EIP. See the note at the beginning of {ERC20}. Requirements: - `sender` and `recipient` cannot be the zero address. - `sender` must have a balance of at least `amount`. - the caller must have allowance for ``sender``'s tokens of at least `amount`."
      },
      "updateInflation()": {
        "details": "Function to reduce token price by the inflation rate, increases the total supply by the inflation rate and sends the new tokens to the inflation beneficiary."
      },
      "withdrawCollateral(uint256)": {
        "details": "Allows the admin to withdraw collateral above the threshold",
        "params": {
          "_amount": "the amount of collateral token to deposit"
        }
      },
      "withdrawToken()": {
        "details": "Allows a user to withdraw tokens"
      }
    },
    "title": "Chorus",
    "version": 1
  },
  "userdoc": {
    "kind": "user",
    "methods": {},
    "version": 1
  },
  "storageLayout": {
    "storage": [
      {
        "astId": 1870,
        "contract": "contracts/Chorus.sol:Chorus",
        "label": "tellor",
        "offset": 0,
        "slot": "0",
        "type": "t_contract(ITellor)2729"
      },
      {
        "astId": 857,
        "contract": "contracts/Chorus.sol:Chorus",
        "label": "_balances",
        "offset": 0,
        "slot": "1",
        "type": "t_mapping(t_address,t_uint256)"
      },
      {
        "astId": 863,
        "contract": "contracts/Chorus.sol:Chorus",
        "label": "_allowances",
        "offset": 0,
        "slot": "2",
        "type": "t_mapping(t_address,t_mapping(t_address,t_uint256))"
      },
      {
        "astId": 865,
        "contract": "contracts/Chorus.sol:Chorus",
        "label": "whitelistAdmin",
        "offset": 0,
        "slot": "3",
        "type": "t_address"
      },
      {
        "astId": 867,
        "contract": "contracts/Chorus.sol:Chorus",
        "label": "isWhitelistedSystem",
        "offset": 20,
        "slot": "3",
        "type": "t_bool"
      },
      {
        "astId": 871,
        "contract": "contracts/Chorus.sol:Chorus",
        "label": "whitelistedAmount",
        "offset": 0,
        "slot": "4",
        "type": "t_mapping(t_address,t_uint256)"
      },
      {
        "astId": 873,
        "contract": "contracts/Chorus.sol:Chorus",
        "label": "_totalSupply",
        "offset": 0,
        "slot": "5",
        "type": "t_uint256"
      },
      {
        "astId": 875,
        "contract": "contracts/Chorus.sol:Chorus",
        "label": "_name",
        "offset": 0,
        "slot": "6",
        "type": "t_string_storage"
      },
      {
        "astId": 877,
        "contract": "contracts/Chorus.sol:Chorus",
        "label": "_symbol",
        "offset": 0,
        "slot": "7",
        "type": "t_string_storage"
      },
      {
        "astId": 879,
        "contract": "contracts/Chorus.sol:Chorus",
        "label": "_decimals",
        "offset": 0,
        "slot": "8",
        "type": "t_uint8"
      },
      {
        "astId": 78,
        "contract": "contracts/Chorus.sol:Chorus",
        "label": "collateralToken",
        "offset": 1,
        "slot": "8",
        "type": "t_contract(ERC20)1411"
      },
      {
        "astId": 82,
        "contract": "contracts/Chorus.sol:Chorus",
        "label": "admin",
        "offset": 0,
        "slot": "9",
        "type": "t_address"
      },
      {
        "astId": 85,
        "contract": "contracts/Chorus.sol:Chorus",
        "label": "tknPrice",
        "offset": 0,
        "slot": "10",
        "type": "t_uint256"
      },
      {
        "astId": 87,
        "contract": "contracts/Chorus.sol:Chorus",
        "label": "collateralID",
        "offset": 0,
        "slot": "11",
        "type": "t_uint256"
      },
      {
        "astId": 89,
        "contract": "contracts/Chorus.sol:Chorus",
        "label": "collateralPriceGranularity",
        "offset": 0,
        "slot": "12",
        "type": "t_uint256"
      },
      {
        "astId": 92,
        "contract": "contracts/Chorus.sol:Chorus",
        "label": "collateralThreshold",
        "offset": 0,
        "slot": "13",
        "type": "t_uint256"
      },
      {
        "astId": 95,
        "contract": "contracts/Chorus.sol:Chorus",
        "label": "collateralPriceAge",
        "offset": 0,
        "slot": "14",
        "type": "t_uint256"
      },
      {
        "astId": 98,
        "contract": "contracts/Chorus.sol:Chorus",
        "label": "liquidationPenatly",
        "offset": 0,
        "slot": "15",
        "type": "t_uint256"
      },
      {
        "astId": 100,
        "contract": "contracts/Chorus.sol:Chorus",
        "label": "inflRatePerSec",
        "offset": 0,
        "slot": "16",
        "type": "t_uint256"
      },
      {
        "astId": 104,
        "contract": "contracts/Chorus.sol:Chorus",
        "label": "inflLastUpdate",
        "offset": 0,
        "slot": "17",
        "type": "t_uint256"
      },
      {
        "astId": 106,
        "contract": "contracts/Chorus.sol:Chorus",
        "label": "inflBeneficiary",
        "offset": 0,
        "slot": "18",
        "type": "t_address"
      },
      {
        "astId": 111,
        "contract": "contracts/Chorus.sol:Chorus",
        "label": "withdrawRequested",
        "offset": 0,
        "slot": "19",
        "type": "t_mapping(t_address,t_struct(WithdrawDetails)75_storage)"
      }
    ],
    "types": {
      "t_address": {
        "encoding": "inplace",
        "label": "address",
        "numberOfBytes": "20"
      },
      "t_bool": {
        "encoding": "inplace",
        "label": "bool",
        "numberOfBytes": "1"
      },
      "t_contract(ERC20)1411": {
        "encoding": "inplace",
        "label": "contract ERC20",
        "numberOfBytes": "20"
      },
      "t_contract(ITellor)2729": {
        "encoding": "inplace",
        "label": "contract ITellor",
        "numberOfBytes": "20"
      },
      "t_mapping(t_address,t_mapping(t_address,t_uint256))": {
        "encoding": "mapping",
        "key": "t_address",
        "label": "mapping(address => mapping(address => uint256))",
        "numberOfBytes": "32",
        "value": "t_mapping(t_address,t_uint256)"
      },
      "t_mapping(t_address,t_struct(WithdrawDetails)75_storage)": {
        "encoding": "mapping",
        "key": "t_address",
        "label": "mapping(address => struct Chorus.WithdrawDetails)",
        "numberOfBytes": "32",
        "value": "t_struct(WithdrawDetails)75_storage"
      },
      "t_mapping(t_address,t_uint256)": {
        "encoding": "mapping",
        "key": "t_address",
        "label": "mapping(address => uint256)",
        "numberOfBytes": "32",
        "value": "t_uint256"
      },
      "t_string_storage": {
        "encoding": "bytes",
        "label": "string",
        "numberOfBytes": "32"
      },
      "t_struct(WithdrawDetails)75_storage": {
        "encoding": "inplace",
        "label": "struct Chorus.WithdrawDetails",
        "members": [
          {
            "astId": 72,
            "contract": "contracts/Chorus.sol:Chorus",
            "label": "amount",
            "offset": 0,
            "slot": "0",
            "type": "t_uint256"
          },
          {
            "astId": 74,
            "contract": "contracts/Chorus.sol:Chorus",
            "label": "requestDate",
            "offset": 0,
            "slot": "1",
            "type": "t_uint256"
          }
        ],
        "numberOfBytes": "64"
      },
      "t_uint256": {
        "encoding": "inplace",
        "label": "uint256",
        "numberOfBytes": "32"
      },
      "t_uint8": {
        "encoding": "inplace",
        "label": "uint8",
        "numberOfBytes": "1"
      }
    }
  }
}