{
  "address": "0x0165878A594ca255338adfa4d48449f69242Eb8F",
  "abi": [
    {
      "inputs": [
        {
          "internalType": "string",
          "name": "n",
          "type": "string"
        },
        {
          "internalType": "string",
          "name": "s",
          "type": "string"
        },
        {
          "internalType": "bool",
          "name": "_isWhitelisted",
          "type": "bool"
        }
      ],
      "stateMutability": "nonpayable",
      "type": "constructor"
    },
    {
      "anonymous": false,
      "inputs": [
        {
          "indexed": true,
          "internalType": "address",
          "name": "owner",
          "type": "address"
        },
        {
          "indexed": true,
          "internalType": "address",
          "name": "spender",
          "type": "address"
        },
        {
          "indexed": false,
          "internalType": "uint256",
          "name": "value",
          "type": "uint256"
        }
      ],
      "name": "Approval",
      "type": "event"
    },
    {
      "anonymous": false,
      "inputs": [
        {
          "indexed": false,
          "internalType": "address",
          "name": "_newAdmin",
          "type": "address"
        }
      ],
      "name": "NewWhitelistAdmin",
      "type": "event"
    },
    {
      "anonymous": false,
      "inputs": [
        {
          "indexed": false,
          "internalType": "address",
          "name": "_user",
          "type": "address"
        },
        {
          "indexed": false,
          "internalType": "uint256",
          "name": "_amount",
          "type": "uint256"
        }
      ],
      "name": "NewWhitelistedAmount",
      "type": "event"
    },
    {
      "anonymous": false,
      "inputs": [
        {
          "indexed": true,
          "internalType": "address",
          "name": "from",
          "type": "address"
        },
        {
          "indexed": true,
          "internalType": "address",
          "name": "to",
          "type": "address"
        },
        {
          "indexed": false,
          "internalType": "uint256",
          "name": "value",
          "type": "uint256"
        }
      ],
      "name": "Transfer",
      "type": "event"
    },
    {
      "inputs": [
        {
          "internalType": "address",
          "name": "owner",
          "type": "address"
        },
        {
          "internalType": "address",
          "name": "spender",
          "type": "address"
        }
      ],
      "name": "allowance",
      "outputs": [
        {
          "internalType": "uint256",
          "name": "",
          "type": "uint256"
        }
      ],
      "stateMutability": "view",
      "type": "function"
    },
    {
      "inputs": [
        {
          "internalType": "address",
          "name": "spender",
          "type": "address"
        },
        {
          "internalType": "uint256",
          "name": "amount",
          "type": "uint256"
        }
      ],
      "name": "approve",
      "outputs": [
        {
          "internalType": "bool",
          "name": "",
          "type": "bool"
        }
      ],
      "stateMutability": "nonpayable",
      "type": "function"
    },
    {
      "inputs": [
        {
          "internalType": "address",
          "name": "account",
          "type": "address"
        }
      ],
      "name": "balanceOf",
      "outputs": [
        {
          "internalType": "uint256",
          "name": "",
          "type": "uint256"
        }
      ],
      "stateMutability": "view",
      "type": "function"
    },
    {
      "inputs": [
        {
          "internalType": "address",
          "name": "account",
          "type": "address"
        },
        {
          "internalType": "uint256",
          "name": "amount",
          "type": "uint256"
        }
      ],
      "name": "burn",
      "outputs": [],
      "stateMutability": "nonpayable",
      "type": "function"
    },
    {
      "inputs": [],
      "name": "decimals",
      "outputs": [
        {
          "internalType": "uint8",
          "name": "",
          "type": "uint8"
        }
      ],
      "stateMutability": "view",
      "type": "function"
    },
    {
      "inputs": [
        {
          "internalType": "address",
          "name": "spender",
          "type": "address"
        },
        {
          "internalType": "uint256",
          "name": "subtractedValue",
          "type": "uint256"
        }
      ],
      "name": "decreaseAllowance",
      "outputs": [
        {
          "internalType": "bool",
          "name": "",
          "type": "bool"
        }
      ],
      "stateMutability": "nonpayable",
      "type": "function"
    },
    {
      "inputs": [
        {
          "internalType": "address",
          "name": "spender",
          "type": "address"
        },
        {
          "internalType": "uint256",
          "name": "addedValue",
          "type": "uint256"
        }
      ],
      "name": "increaseAllowance",
      "outputs": [
        {
          "internalType": "bool",
          "name": "",
          "type": "bool"
        }
      ],
      "stateMutability": "nonpayable",
      "type": "function"
    },
    {
      "inputs": [],
      "name": "isWhitelistedSystem",
      "outputs": [
        {
          "internalType": "bool",
          "name": "",
          "type": "bool"
        }
      ],
      "stateMutability": "view",
      "type": "function"
    },
    {
      "inputs": [
        {
          "internalType": "address",
          "name": "account",
          "type": "address"
        },
        {
          "internalType": "uint256",
          "name": "amount",
          "type": "uint256"
        }
      ],
      "name": "mint",
      "outputs": [],
      "stateMutability": "nonpayable",
      "type": "function"
    },
    {
      "inputs": [],
      "name": "name",
      "outputs": [
        {
          "internalType": "string",
          "name": "",
          "type": "string"
        }
      ],
      "stateMutability": "view",
      "type": "function"
    },
    {
      "inputs": [
        {
          "internalType": "address",
          "name": "_newAdmin",
          "type": "address"
        }
      ],
      "name": "setWhitelistAdmin",
      "outputs": [],
      "stateMutability": "nonpayable",
      "type": "function"
    },
    {
      "inputs": [
        {
          "internalType": "address",
          "name": "_user",
          "type": "address"
        },
        {
          "internalType": "uint256",
          "name": "_amount",
          "type": "uint256"
        }
      ],
      "name": "setWhitelistedAmount",
      "outputs": [],
      "stateMutability": "nonpayable",
      "type": "function"
    },
    {
      "inputs": [],
      "name": "symbol",
      "outputs": [
        {
          "internalType": "string",
          "name": "",
          "type": "string"
        }
      ],
      "stateMutability": "view",
      "type": "function"
    },
    {
      "inputs": [],
      "name": "totalSupply",
      "outputs": [
        {
          "internalType": "uint256",
          "name": "",
          "type": "uint256"
        }
      ],
      "stateMutability": "view",
      "type": "function"
    },
    {
      "inputs": [
        {
          "internalType": "address",
          "name": "recipient",
          "type": "address"
        },
        {
          "internalType": "uint256",
          "name": "amount",
          "type": "uint256"
        }
      ],
      "name": "transfer",
      "outputs": [
        {
          "internalType": "bool",
          "name": "",
          "type": "bool"
        }
      ],
      "stateMutability": "nonpayable",
      "type": "function"
    },
    {
      "inputs": [
        {
          "internalType": "address",
          "name": "sender",
          "type": "address"
        },
        {
          "internalType": "address",
          "name": "recipient",
          "type": "address"
        },
        {
          "internalType": "uint256",
          "name": "amount",
          "type": "uint256"
        }
      ],
      "name": "transferFrom",
      "outputs": [
        {
          "internalType": "bool",
          "name": "",
          "type": "bool"
        }
      ],
      "stateMutability": "nonpayable",
      "type": "function"
    },
    {
      "inputs": [],
      "name": "whitelistAdmin",
      "outputs": [
        {
          "internalType": "address",
          "name": "",
          "type": "address"
        }
      ],
      "stateMutability": "view",
      "type": "function"
    },
    {
      "inputs": [
        {
          "internalType": "address",
          "name": "",
          "type": "address"
        }
      ],
      "name": "whitelistedAmount",
      "outputs": [
        {
          "internalType": "uint256",
          "name": "",
          "type": "uint256"
        }
      ],
      "stateMutability": "view",
      "type": "function"
    }
  ],
  "transactionHash": "0x8f2b7c0ec88e18d36fc93eb7767636bce1f77b61b790755600315f1a1e684def",
  "args": [
    "Ethereum",
    "ETH",
    true
  ],
  "solcInputHash": "c15db38592d3463a0eaa0113d0cc6faf",
  "bytecode": "0x60806040523480156200001157600080fd5b506040516200229438038062002294833981810160405281019062000037919062000228565b828282826005908051906020019062000052929190620000ef565b5081600690805190602001906200006b929190620000ef565b506012600760006101000a81548160ff021916908360ff16021790555080600260146101000a81548160ff02191690831515021790555033600260006101000a81548173ffffffffffffffffffffffffffffffffffffffff021916908373ffffffffffffffffffffffffffffffffffffffff16021790555050505050505062000446565b828054620000fd9062000351565b90600052602060002090601f0160209004810192826200012157600085556200016d565b82601f106200013c57805160ff19168380011785556200016d565b828001600101855582156200016d579182015b828111156200016c5782518255916020019190600101906200014f565b5b5090506200017c919062000180565b5090565b5b808211156200019b57600081600090555060010162000181565b5090565b6000620001b6620001b084620002d9565b620002b0565b905082815260208101848484011115620001cf57600080fd5b620001dc8482856200031b565b509392505050565b600081519050620001f5816200042c565b92915050565b600082601f8301126200020d57600080fd5b81516200021f8482602086016200019f565b91505092915050565b6000806000606084860312156200023e57600080fd5b600084015167ffffffffffffffff8111156200025957600080fd5b6200026786828701620001fb565b935050602084015167ffffffffffffffff8111156200028557600080fd5b6200029386828701620001fb565b9250506040620002a686828701620001e4565b9150509250925092565b6000620002bc620002cf565b9050620002ca828262000387565b919050565b6000604051905090565b600067ffffffffffffffff821115620002f757620002f6620003ec565b5b62000302826200041b565b9050602081019050919050565b60008115159050919050565b60005b838110156200033b5780820151818401526020810190506200031e565b838111156200034b576000848401525b50505050565b600060028204905060018216806200036a57607f821691505b60208210811415620003815762000380620003bd565b5b50919050565b62000392826200041b565b810181811067ffffffffffffffff82111715620003b457620003b3620003ec565b5b80604052505050565b7f4e487b7100000000000000000000000000000000000000000000000000000000600052602260045260246000fd5b7f4e487b7100000000000000000000000000000000000000000000000000000000600052604160045260246000fd5b6000601f19601f8301169050919050565b62000437816200030f565b81146200044357600080fd5b50565b611e3e80620004566000396000f3fe608060405234801561001057600080fd5b50600436106101165760003560e01c80634adbe551116100a2578063a457c2d711610071578063a457c2d7146102e3578063a8d49e6414610313578063a9059cbb1461032f578063dd62ed3e1461035f578063e8d8a2551461038f57610116565b80634adbe5511461025b57806370a082311461027957806395d89b41146102a95780639dc29fac146102c757610116565b806323b872dd116100e957806323b872dd146101a3578063313ce567146101d357806334a5e10b146101f1578063395093511461020f57806340c10f191461023f57610116565b806306fdde031461011b57806307da28b714610139578063095ea7b31461015557806318160ddd14610185575b600080fd5b6101236103bf565b60405161013091906117cf565b60405180910390f35b610153600480360381019061014e9190611561565b610451565b005b61016f600480360381019061016a9190611561565b610562565b60405161017c91906117b4565b60405180910390f35b61018d610579565b60405161019a9190611931565b60405180910390f35b6101bd60048036038101906101b89190611512565b610583565b6040516101ca91906117b4565b60405180910390f35b6101db61062d565b6040516101e8919061194c565b60405180910390f35b6101f9610644565b60405161020691906117b4565b60405180910390f35b61022960048036038101906102249190611561565b610657565b60405161023691906117b4565b60405180910390f35b61025960048036038101906102549190611561565b6106f5565b005b610263610703565b6040516102709190611770565b60405180910390f35b610293600480360381019061028e91906114ad565b610729565b6040516102a09190611931565b60405180910390f35b6102b1610771565b6040516102be91906117cf565b60405180910390f35b6102e160048036038101906102dc9190611561565b610803565b005b6102fd60048036038101906102f89190611561565b610811565b60405161030a91906117b4565b60405180910390f35b61032d600480360381019061032891906114ad565b6108af565b005b61034960048036038101906103449190611561565b610a2a565b60405161035691906117b4565b60405180910390f35b610379600480360381019061037491906114d6565b610a41565b6040516103869190611931565b60405180910390f35b6103a960048036038101906103a491906114ad565b610ac8565b6040516103b69190611931565b60405180910390f35b6060600580546103ce90611a95565b80601f01602080910402602001604051908101604052809291908181526020018280546103fa90611a95565b80156104475780601f1061041c57610100808354040283529160200191610447565b820191906000526020600020905b81548152906001019060200180831161042a57829003601f168201915b5050505050905090565b600260009054906101000a900473ffffffffffffffffffffffffffffffffffffffff1673ffffffffffffffffffffffffffffffffffffffff163373ffffffffffffffffffffffffffffffffffffffff16146104e1576040517f08c379a00000000000000000000000000000000000000000000000000000000081526004016104d890611831565b60405180910390fd5b80600360008473ffffffffffffffffffffffffffffffffffffffff1673ffffffffffffffffffffffffffffffffffffffff168152602001908152602001600020819055507fc3837f973800685e86828b9ee70e448dee134a698f634c94be8e1f2435967873828260405161055692919061178b565b60405180910390a15050565b600061056f338484610ae0565b6001905092915050565b6000600454905090565b6000610590848484610cab565b610622843384600160008973ffffffffffffffffffffffffffffffffffffffff1673ffffffffffffffffffffffffffffffffffffffff16815260200190815260200160002060003373ffffffffffffffffffffffffffffffffffffffff1673ffffffffffffffffffffffffffffffffffffffff1681526020019081526020016000205461061d91906119d9565b610ae0565b600190509392505050565b6000600760009054906101000a900460ff16905090565b600260149054906101000a900460ff1681565b60006106eb338484600160003373ffffffffffffffffffffffffffffffffffffffff1673ffffffffffffffffffffffffffffffffffffffff16815260200190815260200160002060008873ffffffffffffffffffffffffffffffffffffffff1673ffffffffffffffffffffffffffffffffffffffff168152602001908152602001600020546106e69190611983565b610ae0565b6001905092915050565b6106ff82826110ae565b5050565b600260009054906101000a900473ffffffffffffffffffffffffffffffffffffffff1681565b60008060008373ffffffffffffffffffffffffffffffffffffffff1673ffffffffffffffffffffffffffffffffffffffff168152602001908152602001600020549050919050565b60606006805461078090611a95565b80601f01602080910402602001604051908101604052809291908181526020018280546107ac90611a95565b80156107f95780601f106107ce576101008083540402835291602001916107f9565b820191906000526020600020905b8154815290600101906020018083116107dc57829003601f168201915b5050505050905090565b61080d8282611309565b5050565b60006108a5338484600160003373ffffffffffffffffffffffffffffffffffffffff1673ffffffffffffffffffffffffffffffffffffffff16815260200190815260200160002060008873ffffffffffffffffffffffffffffffffffffffff1673ffffffffffffffffffffffffffffffffffffffff168152602001908152602001600020546108a091906119d9565b610ae0565b6001905092915050565b600260009054906101000a900473ffffffffffffffffffffffffffffffffffffffff1673ffffffffffffffffffffffffffffffffffffffff163373ffffffffffffffffffffffffffffffffffffffff161461093f576040517f08c379a000000000000000000000000000000000000000000000000000000000815260040161093690611831565b60405180910390fd5b600073ffffffffffffffffffffffffffffffffffffffff168173ffffffffffffffffffffffffffffffffffffffff1614156109af576040517f08c379a00000000000000000000000000000000000000000000000000000000081526004016109a690611911565b60405180910390fd5b80600260006101000a81548173ffffffffffffffffffffffffffffffffffffffff021916908373ffffffffffffffffffffffffffffffffffffffff1602179055507f68e2d4cfa0a40c3abfa7153a966c187b03e893a7e358a5cd4de067e7e3da524081604051610a1f9190611770565b60405180910390a150565b6000610a37338484610cab565b6001905092915050565b6000600160008473ffffffffffffffffffffffffffffffffffffffff1673ffffffffffffffffffffffffffffffffffffffff16815260200190815260200160002060008373ffffffffffffffffffffffffffffffffffffffff1673ffffffffffffffffffffffffffffffffffffffff16815260200190815260200160002054905092915050565b60036020528060005260406000206000915090505481565b600073ffffffffffffffffffffffffffffffffffffffff168373ffffffffffffffffffffffffffffffffffffffff161415610b50576040517f08c379a0000000000000000000000000000000000000000000000000000000008152600401610b47906118b1565b60405180910390fd5b600073ffffffffffffffffffffffffffffffffffffffff168273ffffffffffffffffffffffffffffffffffffffff161415610bc0576040517f08c379a0000000000000000000000000000000000000000000000000000000008152600401610bb790611811565b60405180910390fd5b80600160008573ffffffffffffffffffffffffffffffffffffffff1673ffffffffffffffffffffffffffffffffffffffff16815260200190815260200160002060008473ffffffffffffffffffffffffffffffffffffffff1673ffffffffffffffffffffffffffffffffffffffff168152602001908152602001600020819055508173ffffffffffffffffffffffffffffffffffffffff168373ffffffffffffffffffffffffffffffffffffffff167f8c5be1e5ebec7d5bd14f71427d1e84f3dd0314c0f7b2291e5b200ac8c7c3b92583604051610c9e9190611931565b60405180910390a3505050565b600073ffffffffffffffffffffffffffffffffffffffff168373ffffffffffffffffffffffffffffffffffffffff161415610d1b576040517f08c379a0000000000000000000000000000000000000000000000000000000008152600401610d1290611891565b60405180910390fd5b600073ffffffffffffffffffffffffffffffffffffffff168273ffffffffffffffffffffffffffffffffffffffff161415610d8b576040517f08c379a0000000000000000000000000000000000000000000000000000000008152600401610d82906117f1565b60405180910390fd5b600260149054906101000a900460ff1615610f2c57600360008373ffffffffffffffffffffffffffffffffffffffff1673ffffffffffffffffffffffffffffffffffffffff16815260200190815260200160002054816000808573ffffffffffffffffffffffffffffffffffffffff1673ffffffffffffffffffffffffffffffffffffffff16815260200190815260200160002054610e2a9190611983565b1115610e6b576040517f08c379a0000000000000000000000000000000000000000000000000000000008152600401610e6290611851565b60405180910390fd5b600360008473ffffffffffffffffffffffffffffffffffffffff1673ffffffffffffffffffffffffffffffffffffffff168152602001908152602001600020546000808573ffffffffffffffffffffffffffffffffffffffff1673ffffffffffffffffffffffffffffffffffffffff168152602001908152602001600020541115610f2b576040517f08c379a0000000000000000000000000000000000000000000000000000000008152600401610f22906118d1565b60405180910390fd5b5b806000808573ffffffffffffffffffffffffffffffffffffffff1673ffffffffffffffffffffffffffffffffffffffff16815260200190815260200160002054610f7691906119d9565b6000808573ffffffffffffffffffffffffffffffffffffffff1673ffffffffffffffffffffffffffffffffffffffff16815260200190815260200160002081905550806000808473ffffffffffffffffffffffffffffffffffffffff1673ffffffffffffffffffffffffffffffffffffffff168152602001908152602001600020546110029190611983565b6000808473ffffffffffffffffffffffffffffffffffffffff1673ffffffffffffffffffffffffffffffffffffffff168152602001908152602001600020819055508173ffffffffffffffffffffffffffffffffffffffff168373ffffffffffffffffffffffffffffffffffffffff167fddf252ad1be2c89b69c2b068fc378daa952ba7f163c4a11628f55a4df523b3ef836040516110a19190611931565b60405180910390a3505050565b600073ffffffffffffffffffffffffffffffffffffffff168273ffffffffffffffffffffffffffffffffffffffff16141561111e576040517f08c379a0000000000000000000000000000000000000000000000000000000008152600401611115906118f1565b60405180910390fd5b600260149054906101000a900460ff16156111ff57600360008373ffffffffffffffffffffffffffffffffffffffff1673ffffffffffffffffffffffffffffffffffffffff16815260200190815260200160002054816000808573ffffffffffffffffffffffffffffffffffffffff1673ffffffffffffffffffffffffffffffffffffffff168152602001908152602001600020546111bd9190611983565b11156111fe576040517f08c379a00000000000000000000000000000000000000000000000000000000081526004016111f590611851565b60405180910390fd5b5b8060045461120d9190611983565b600481905550806000808473ffffffffffffffffffffffffffffffffffffffff1673ffffffffffffffffffffffffffffffffffffffff1681526020019081526020016000205461125d9190611983565b6000808473ffffffffffffffffffffffffffffffffffffffff1673ffffffffffffffffffffffffffffffffffffffff168152602001908152602001600020819055508173ffffffffffffffffffffffffffffffffffffffff16600073ffffffffffffffffffffffffffffffffffffffff167fddf252ad1be2c89b69c2b068fc378daa952ba7f163c4a11628f55a4df523b3ef836040516112fd9190611931565b60405180910390a35050565b600073ffffffffffffffffffffffffffffffffffffffff168273ffffffffffffffffffffffffffffffffffffffff161415611379576040517f08c379a000000000000000000000000000000000000000000000000000000000815260040161137090611871565b60405180910390fd5b806000808473ffffffffffffffffffffffffffffffffffffffff1673ffffffffffffffffffffffffffffffffffffffff168152602001908152602001600020546113c391906119d9565b6000808473ffffffffffffffffffffffffffffffffffffffff1673ffffffffffffffffffffffffffffffffffffffff168152602001908152602001600020819055508060045461141391906119d9565b600481905550600073ffffffffffffffffffffffffffffffffffffffff168273ffffffffffffffffffffffffffffffffffffffff167fddf252ad1be2c89b69c2b068fc378daa952ba7f163c4a11628f55a4df523b3ef836040516114779190611931565b60405180910390a35050565b60008135905061149281611dda565b92915050565b6000813590506114a781611df1565b92915050565b6000602082840312156114bf57600080fd5b60006114cd84828501611483565b91505092915050565b600080604083850312156114e957600080fd5b60006114f785828601611483565b925050602061150885828601611483565b9150509250929050565b60008060006060848603121561152757600080fd5b600061153586828701611483565b935050602061154686828701611483565b925050604061155786828701611498565b9150509250925092565b6000806040838503121561157457600080fd5b600061158285828601611483565b925050602061159385828601611498565b9150509250929050565b6115a681611a0d565b82525050565b6115b581611a1f565b82525050565b60006115c682611967565b6115d08185611972565b93506115e0818560208601611a62565b6115e981611b25565b840191505092915050565b6000611601602383611972565b915061160c82611b36565b604082019050919050565b6000611624602283611972565b915061162f82611b85565b604082019050919050565b6000611647601783611972565b915061165282611bd4565b602082019050919050565b600061166a602483611972565b915061167582611bfd565b604082019050919050565b600061168d602183611972565b915061169882611c4c565b604082019050919050565b60006116b0602583611972565b91506116bb82611c9b565b604082019050919050565b60006116d3602483611972565b91506116de82611cea565b604082019050919050565b60006116f6602183611972565b915061170182611d39565b604082019050919050565b6000611719601f83611972565b915061172482611d88565b602082019050919050565b600061173c601f83611972565b915061174782611db1565b602082019050919050565b61175b81611a4b565b82525050565b61176a81611a55565b82525050565b6000602082019050611785600083018461159d565b92915050565b60006040820190506117a0600083018561159d565b6117ad6020830184611752565b9392505050565b60006020820190506117c960008301846115ac565b92915050565b600060208201905081810360008301526117e981846115bb565b905092915050565b6000602082019050818103600083015261180a816115f4565b9050919050565b6000602082019050818103600083015261182a81611617565b9050919050565b6000602082019050818103600083015261184a8161163a565b9050919050565b6000602082019050818103600083015261186a8161165d565b9050919050565b6000602082019050818103600083015261188a81611680565b9050919050565b600060208201905081810360008301526118aa816116a3565b9050919050565b600060208201905081810360008301526118ca816116c6565b9050919050565b600060208201905081810360008301526118ea816116e9565b9050919050565b6000602082019050818103600083015261190a8161170c565b9050919050565b6000602082019050818103600083015261192a8161172f565b9050919050565b60006020820190506119466000830184611752565b92915050565b60006020820190506119616000830184611761565b92915050565b600081519050919050565b600082825260208201905092915050565b600061198e82611a4b565b915061199983611a4b565b9250827fffffffffffffffffffffffffffffffffffffffffffffffffffffffffffffffff038211156119ce576119cd611ac7565b5b828201905092915050565b60006119e482611a4b565b91506119ef83611a4b565b925082821015611a0257611a01611ac7565b5b828203905092915050565b6000611a1882611a2b565b9050919050565b60008115159050919050565b600073ffffffffffffffffffffffffffffffffffffffff82169050919050565b6000819050919050565b600060ff82169050919050565b60005b83811015611a80578082015181840152602081019050611a65565b83811115611a8f576000848401525b50505050565b60006002820490506001821680611aad57607f821691505b60208210811415611ac157611ac0611af6565b5b50919050565b7f4e487b7100000000000000000000000000000000000000000000000000000000600052601160045260246000fd5b7f4e487b7100000000000000000000000000000000000000000000000000000000600052602260045260246000fd5b6000601f19601f8301169050919050565b7f45524332303a207472616e7366657220746f20746865207a65726f206164647260008201527f6573730000000000000000000000000000000000000000000000000000000000602082015250565b7f45524332303a20617070726f766520746f20746865207a65726f20616464726560008201527f7373000000000000000000000000000000000000000000000000000000000000602082015250565b7f6e6f74207468652077686974656c6973742061646d696e000000000000000000600082015250565b7f726563697069656e74206e6f742077686974656c697374656420666f7220616d60008201527f6f756e7400000000000000000000000000000000000000000000000000000000602082015250565b7f45524332303a206275726e2066726f6d20746865207a65726f2061646472657360008201527f7300000000000000000000000000000000000000000000000000000000000000602082015250565b7f45524332303a207472616e736665722066726f6d20746865207a65726f20616460008201527f6472657373000000000000000000000000000000000000000000000000000000602082015250565b7f45524332303a20617070726f76652066726f6d20746865207a65726f2061646460008201527f7265737300000000000000000000000000000000000000000000000000000000602082015250565b7f73656e646572206e6f742077686974656c697374656420666f7220616d6f756e60008201527f7400000000000000000000000000000000000000000000000000000000000000602082015250565b7f45524332303a206d696e7420746f20746865207a65726f206164647265737300600082015250565b7f63616e6e6f742073656e6420746f20746865207a65726f206164647265737300600082015250565b611de381611a0d565b8114611dee57600080fd5b50565b611dfa81611a4b565b8114611e0557600080fd5b5056fea26469706673582212205d523d147fb16e692b61fe35ff979f977de76e49cf263734b46856737852058064736f6c63430008030033",
  "devdoc": {
    "kind": "dev",
    "methods": {
      "allowance(address,address)": {
        "details": "See {IERC20-allowance}."
      },
      "approve(address,uint256)": {
        "details": "See {IERC20-approve}. Requirements: - `spender` cannot be the zero address."
      },
      "balanceOf(address)": {
        "details": "See {IERC20-balanceOf}."
      },
      "decimals()": {
        "details": "Returns the number of decimals used to get its user representation."
      },
      "decreaseAllowance(address,uint256)": {
        "details": "Atomically decreases the allowance granted to `spender` by the caller. This is an alternative to {approve} that can be used as a mitigation for problems described in {IERC20-approve}. Emits an {Approval} event indicating the updated allowance. Requirements: - `spender` cannot be the zero address. - `spender` must have allowance for the caller of at least `subtractedValue`."
      },
      "increaseAllowance(address,uint256)": {
        "details": "Atomically increases the allowance granted to `spender` by the caller. This is an alternative to {approve} that can be used as a mitigation for problems described in {IERC20-approve}. Emits an {Approval} event indicating the updated allowance. Requirements: - `spender` cannot be the zero address."
      },
      "name()": {
        "details": "Returns the name of the token."
      },
      "setWhitelistAdmin(address)": {
        "details": "Allows the user to set a new admin address",
        "params": {
          "_newAdmin": "the address of the new admin address"
        }
      },
      "symbol()": {
        "details": "Returns the symbol of the token, usually a shorter version of the name."
      },
      "totalSupply()": {
        "details": "See {IERC20-totalSupply}."
      },
      "transfer(address,uint256)": {
        "details": "See {IERC20-transfer}. Requirements: - `recipient` cannot be the zero address. - the caller must have a balance of at least `amount`."
      },
      "transferFrom(address,address,uint256)": {
        "details": "See {IERC20-transferFrom}. Emits an {Approval} event indicating the updated allowance. This is not required by the EIP. See the note at the beginning of {ERC20}. Requirements: - `sender` and `recipient` cannot be the zero address. - `sender` must have a balance of at least `amount`. - the caller must have allowance for ``sender``'s tokens of at least `amount`."
      }
    },
    "version": 1
  },
  "userdoc": {
    "kind": "user",
    "methods": {},
    "version": 1
  },
  "storageLayout": {
    "storage": [
      {
        "astId": 857,
        "contract": "contracts/test/Token.sol:Token",
        "label": "_balances",
        "offset": 0,
        "slot": "0",
        "type": "t_mapping(t_address,t_uint256)"
      },
      {
        "astId": 863,
        "contract": "contracts/test/Token.sol:Token",
        "label": "_allowances",
        "offset": 0,
        "slot": "1",
        "type": "t_mapping(t_address,t_mapping(t_address,t_uint256))"
      },
      {
        "astId": 865,
        "contract": "contracts/test/Token.sol:Token",
        "label": "whitelistAdmin",
        "offset": 0,
        "slot": "2",
        "type": "t_address"
      },
      {
        "astId": 867,
        "contract": "contracts/test/Token.sol:Token",
        "label": "isWhitelistedSystem",
        "offset": 20,
        "slot": "2",
        "type": "t_bool"
      },
      {
        "astId": 871,
        "contract": "contracts/test/Token.sol:Token",
        "label": "whitelistedAmount",
        "offset": 0,
        "slot": "3",
        "type": "t_mapping(t_address,t_uint256)"
      },
      {
        "astId": 873,
        "contract": "contracts/test/Token.sol:Token",
        "label": "_totalSupply",
        "offset": 0,
        "slot": "4",
        "type": "t_uint256"
      },
      {
        "astId": 875,
        "contract": "contracts/test/Token.sol:Token",
        "label": "_name",
        "offset": 0,
        "slot": "5",
        "type": "t_string_storage"
      },
      {
        "astId": 877,
        "contract": "contracts/test/Token.sol:Token",
        "label": "_symbol",
        "offset": 0,
        "slot": "6",
        "type": "t_string_storage"
      },
      {
        "astId": 879,
        "contract": "contracts/test/Token.sol:Token",
        "label": "_decimals",
        "offset": 0,
        "slot": "7",
        "type": "t_uint8"
      }
    ],
    "types": {
      "t_address": {
        "encoding": "inplace",
        "label": "address",
        "numberOfBytes": "20"
      },
      "t_bool": {
        "encoding": "inplace",
        "label": "bool",
        "numberOfBytes": "1"
      },
      "t_mapping(t_address,t_mapping(t_address,t_uint256))": {
        "encoding": "mapping",
        "key": "t_address",
        "label": "mapping(address => mapping(address => uint256))",
        "numberOfBytes": "32",
        "value": "t_mapping(t_address,t_uint256)"
      },
      "t_mapping(t_address,t_uint256)": {
        "encoding": "mapping",
        "key": "t_address",
        "label": "mapping(address => uint256)",
        "numberOfBytes": "32",
        "value": "t_uint256"
      },
      "t_string_storage": {
        "encoding": "bytes",
        "label": "string",
        "numberOfBytes": "32"
      },
      "t_uint256": {
        "encoding": "inplace",
        "label": "uint256",
        "numberOfBytes": "32"
      },
      "t_uint8": {
        "encoding": "inplace",
        "label": "uint8",
        "numberOfBytes": "1"
      }
    }
  }
}